{
	"contracts/BRNKC.sol": {
		"BearNetwork": {
			"abi": [
				{
					"inputs": [],
					"stateMutability": "nonpayable",
					"type": "constructor"
				},
				{
					"anonymous": false,
					"inputs": [
						{
							"indexed": false,
							"internalType": "address",
							"name": "previousAdmin",
							"type": "address"
						},
						{
							"indexed": false,
							"internalType": "address",
							"name": "newAdmin",
							"type": "address"
						}
					],
					"name": "AdminChanged",
					"type": "event"
				},
				{
					"anonymous": false,
					"inputs": [
						{
							"indexed": true,
							"internalType": "address",
							"name": "owner",
							"type": "address"
						},
						{
							"indexed": true,
							"internalType": "address",
							"name": "spender",
							"type": "address"
						},
						{
							"indexed": false,
							"internalType": "uint256",
							"name": "value",
							"type": "uint256"
						}
					],
					"name": "Approval",
					"type": "event"
				},
				{
					"anonymous": false,
					"inputs": [
						{
							"indexed": true,
							"internalType": "address",
							"name": "beacon",
							"type": "address"
						}
					],
					"name": "BeaconUpgraded",
					"type": "event"
				},
				{
					"anonymous": false,
					"inputs": [
						{
							"indexed": false,
							"internalType": "uint8",
							"name": "version",
							"type": "uint8"
						}
					],
					"name": "Initialized",
					"type": "event"
				},
				{
					"anonymous": false,
					"inputs": [
						{
							"indexed": true,
							"internalType": "address",
							"name": "previousOwner",
							"type": "address"
						},
						{
							"indexed": true,
							"internalType": "address",
							"name": "newOwner",
							"type": "address"
						}
					],
					"name": "OwnershipTransferred",
					"type": "event"
				},
				{
					"anonymous": false,
					"inputs": [
						{
							"indexed": false,
							"internalType": "address",
							"name": "account",
							"type": "address"
						}
					],
					"name": "Paused",
					"type": "event"
				},
				{
					"anonymous": false,
					"inputs": [
						{
							"indexed": false,
							"internalType": "uint256",
							"name": "id",
							"type": "uint256"
						}
					],
					"name": "Snapshot",
					"type": "event"
				},
				{
					"anonymous": false,
					"inputs": [
						{
							"indexed": true,
							"internalType": "address",
							"name": "from",
							"type": "address"
						},
						{
							"indexed": true,
							"internalType": "address",
							"name": "to",
							"type": "address"
						},
						{
							"indexed": false,
							"internalType": "uint256",
							"name": "value",
							"type": "uint256"
						}
					],
					"name": "Transfer",
					"type": "event"
				},
				{
					"anonymous": false,
					"inputs": [
						{
							"indexed": false,
							"internalType": "address",
							"name": "account",
							"type": "address"
						}
					],
					"name": "Unpaused",
					"type": "event"
				},
				{
					"anonymous": false,
					"inputs": [
						{
							"indexed": true,
							"internalType": "address",
							"name": "implementation",
							"type": "address"
						}
					],
					"name": "Upgraded",
					"type": "event"
				},
				{
					"inputs": [
						{
							"internalType": "address",
							"name": "owner",
							"type": "address"
						},
						{
							"internalType": "address",
							"name": "spender",
							"type": "address"
						}
					],
					"name": "allowance",
					"outputs": [
						{
							"internalType": "uint256",
							"name": "",
							"type": "uint256"
						}
					],
					"stateMutability": "view",
					"type": "function"
				},
				{
					"inputs": [
						{
							"internalType": "address",
							"name": "spender",
							"type": "address"
						},
						{
							"internalType": "uint256",
							"name": "amount",
							"type": "uint256"
						}
					],
					"name": "approve",
					"outputs": [
						{
							"internalType": "bool",
							"name": "",
							"type": "bool"
						}
					],
					"stateMutability": "nonpayable",
					"type": "function"
				},
				{
					"inputs": [
						{
							"internalType": "address",
							"name": "account",
							"type": "address"
						}
					],
					"name": "balanceOf",
					"outputs": [
						{
							"internalType": "uint256",
							"name": "",
							"type": "uint256"
						}
					],
					"stateMutability": "view",
					"type": "function"
				},
				{
					"inputs": [
						{
							"internalType": "address",
							"name": "account",
							"type": "address"
						},
						{
							"internalType": "uint256",
							"name": "snapshotId",
							"type": "uint256"
						}
					],
					"name": "balanceOfAt",
					"outputs": [
						{
							"internalType": "uint256",
							"name": "",
							"type": "uint256"
						}
					],
					"stateMutability": "view",
					"type": "function"
				},
				{
					"inputs": [
						{
							"internalType": "uint256",
							"name": "amount",
							"type": "uint256"
						}
					],
					"name": "burn",
					"outputs": [],
					"stateMutability": "nonpayable",
					"type": "function"
				},
				{
					"inputs": [
						{
							"internalType": "address",
							"name": "account",
							"type": "address"
						},
						{
							"internalType": "uint256",
							"name": "amount",
							"type": "uint256"
						}
					],
					"name": "burnFrom",
					"outputs": [],
					"stateMutability": "nonpayable",
					"type": "function"
				},
				{
					"inputs": [],
					"name": "decimals",
					"outputs": [
						{
							"internalType": "uint8",
							"name": "",
							"type": "uint8"
						}
					],
					"stateMutability": "view",
					"type": "function"
				},
				{
					"inputs": [
						{
							"internalType": "address",
							"name": "spender",
							"type": "address"
						},
						{
							"internalType": "uint256",
							"name": "subtractedValue",
							"type": "uint256"
						}
					],
					"name": "decreaseAllowance",
					"outputs": [
						{
							"internalType": "bool",
							"name": "",
							"type": "bool"
						}
					],
					"stateMutability": "nonpayable",
					"type": "function"
				},
				{
					"inputs": [
						{
							"internalType": "address",
							"name": "spender",
							"type": "address"
						},
						{
							"internalType": "uint256",
							"name": "addedValue",
							"type": "uint256"
						}
					],
					"name": "increaseAllowance",
					"outputs": [
						{
							"internalType": "bool",
							"name": "",
							"type": "bool"
						}
					],
					"stateMutability": "nonpayable",
					"type": "function"
				},
				{
					"inputs": [],
					"name": "initialize",
					"outputs": [],
					"stateMutability": "nonpayable",
					"type": "function"
				},
				{
					"inputs": [
						{
							"internalType": "address",
							"name": "to",
							"type": "address"
						},
						{
							"internalType": "uint256",
							"name": "amount",
							"type": "uint256"
						}
					],
					"name": "mint",
					"outputs": [],
					"stateMutability": "nonpayable",
					"type": "function"
				},
				{
					"inputs": [],
					"name": "name",
					"outputs": [
						{
							"internalType": "string",
							"name": "",
							"type": "string"
						}
					],
					"stateMutability": "view",
					"type": "function"
				},
				{
					"inputs": [],
					"name": "owner",
					"outputs": [
						{
							"internalType": "address",
							"name": "",
							"type": "address"
						}
					],
					"stateMutability": "view",
					"type": "function"
				},
				{
					"inputs": [],
					"name": "pause",
					"outputs": [],
					"stateMutability": "nonpayable",
					"type": "function"
				},
				{
					"inputs": [],
					"name": "paused",
					"outputs": [
						{
							"internalType": "bool",
							"name": "",
							"type": "bool"
						}
					],
					"stateMutability": "view",
					"type": "function"
				},
				{
					"inputs": [],
					"name": "proxiableUUID",
					"outputs": [
						{
							"internalType": "bytes32",
							"name": "",
							"type": "bytes32"
						}
					],
					"stateMutability": "view",
					"type": "function"
				},
				{
					"inputs": [],
					"name": "renounceOwnership",
					"outputs": [],
					"stateMutability": "nonpayable",
					"type": "function"
				},
				{
					"inputs": [],
					"name": "snapshot",
					"outputs": [],
					"stateMutability": "nonpayable",
					"type": "function"
				},
				{
					"inputs": [],
					"name": "symbol",
					"outputs": [
						{
							"internalType": "string",
							"name": "",
							"type": "string"
						}
					],
					"stateMutability": "view",
					"type": "function"
				},
				{
					"inputs": [],
					"name": "totalSupply",
					"outputs": [
						{
							"internalType": "uint256",
							"name": "",
							"type": "uint256"
						}
					],
					"stateMutability": "view",
					"type": "function"
				},
				{
					"inputs": [
						{
							"internalType": "uint256",
							"name": "snapshotId",
							"type": "uint256"
						}
					],
					"name": "totalSupplyAt",
					"outputs": [
						{
							"internalType": "uint256",
							"name": "",
							"type": "uint256"
						}
					],
					"stateMutability": "view",
					"type": "function"
				},
				{
					"inputs": [
						{
							"internalType": "address",
							"name": "to",
							"type": "address"
						},
						{
							"internalType": "uint256",
							"name": "amount",
							"type": "uint256"
						}
					],
					"name": "transfer",
					"outputs": [
						{
							"internalType": "bool",
							"name": "",
							"type": "bool"
						}
					],
					"stateMutability": "nonpayable",
					"type": "function"
				},
				{
					"inputs": [
						{
							"internalType": "address",
							"name": "from",
							"type": "address"
						},
						{
							"internalType": "address",
							"name": "to",
							"type": "address"
						},
						{
							"internalType": "uint256",
							"name": "amount",
							"type": "uint256"
						}
					],
					"name": "transferFrom",
					"outputs": [
						{
							"internalType": "bool",
							"name": "",
							"type": "bool"
						}
					],
					"stateMutability": "nonpayable",
					"type": "function"
				},
				{
					"inputs": [
						{
							"internalType": "address",
							"name": "newOwner",
							"type": "address"
						}
					],
					"name": "transferOwnership",
					"outputs": [],
					"stateMutability": "nonpayable",
					"type": "function"
				},
				{
					"inputs": [],
					"name": "unpause",
					"outputs": [],
					"stateMutability": "nonpayable",
					"type": "function"
				},
				{
					"inputs": [
						{
							"internalType": "address",
							"name": "newImplementation",
							"type": "address"
						}
					],
					"name": "upgradeTo",
					"outputs": [],
					"stateMutability": "nonpayable",
					"type": "function"
				},
				{
					"inputs": [
						{
							"internalType": "address",
							"name": "newImplementation",
							"type": "address"
						},
						{
							"internalType": "bytes",
							"name": "data",
							"type": "bytes"
						}
					],
					"name": "upgradeToAndCall",
					"outputs": [],
					"stateMutability": "payable",
					"type": "function"
				}
			],
			"devdoc": {
				"custom:security-contact": "bnkt@bearnetwork.net",
				"kind": "dev",
				"methods": {
					"allowance(address,address)": {
						"details": "See {IERC20-allowance}."
					},
					"approve(address,uint256)": {
						"details": "See {IERC20-approve}. NOTE: If `amount` is the maximum `uint256`, the allowance is not updated on `transferFrom`. This is semantically equivalent to an infinite approval. Requirements: - `spender` cannot be the zero address."
					},
					"balanceOf(address)": {
						"details": "See {IERC20-balanceOf}."
					},
					"balanceOfAt(address,uint256)": {
						"details": "Retrieves the balance of `account` at the time `snapshotId` was created."
					},
					"burn(uint256)": {
						"details": "Destroys `amount` tokens from the caller. See {ERC20-_burn}."
					},
					"burnFrom(address,uint256)": {
						"details": "Destroys `amount` tokens from `account`, deducting from the caller's allowance. See {ERC20-_burn} and {ERC20-allowance}. Requirements: - the caller must have allowance for ``accounts``'s tokens of at least `amount`."
					},
					"constructor": {
						"custom:oz-upgrades-unsafe-allow": "constructor"
					},
					"decimals()": {
						"details": "Returns the number of decimals used to get its user representation. For example, if `decimals` equals `2`, a balance of `505` tokens should be displayed to a user as `5.05` (`505 / 10 ** 2`). Tokens usually opt for a value of 18, imitating the relationship between Ether and Wei. This is the value {ERC20} uses, unless this function is overridden; NOTE: This information is only used for _display_ purposes: it in no way affects any of the arithmetic of the contract, including {IERC20-balanceOf} and {IERC20-transfer}."
					},
					"decreaseAllowance(address,uint256)": {
						"details": "Atomically decreases the allowance granted to `spender` by the caller. This is an alternative to {approve} that can be used as a mitigation for problems described in {IERC20-approve}. Emits an {Approval} event indicating the updated allowance. Requirements: - `spender` cannot be the zero address. - `spender` must have allowance for the caller of at least `subtractedValue`."
					},
					"increaseAllowance(address,uint256)": {
						"details": "Atomically increases the allowance granted to `spender` by the caller. This is an alternative to {approve} that can be used as a mitigation for problems described in {IERC20-approve}. Emits an {Approval} event indicating the updated allowance. Requirements: - `spender` cannot be the zero address."
					},
					"name()": {
						"details": "Returns the name of the token."
					},
					"owner()": {
						"details": "Returns the address of the current owner."
					},
					"paused()": {
						"details": "Returns true if the contract is paused, and false otherwise."
					},
					"proxiableUUID()": {
						"details": "Implementation of the ERC1822 {proxiableUUID} function. This returns the storage slot used by the implementation. It is used to validate the implementation's compatibility when performing an upgrade. IMPORTANT: A proxy pointing at a proxiable contract should not be considered proxiable itself, because this risks bricking a proxy that upgrades to it, by delegating to itself until out of gas. Thus it is critical that this function revert if invoked through a proxy. This is guaranteed by the `notDelegated` modifier."
					},
					"renounceOwnership()": {
						"details": "Leaves the contract without owner. It will not be possible to call `onlyOwner` functions anymore. Can only be called by the current owner. NOTE: Renouncing ownership will leave the contract without an owner, thereby removing any functionality that is only available to the owner."
					},
					"symbol()": {
						"details": "Returns the symbol of the token, usually a shorter version of the name."
					},
					"totalSupply()": {
						"details": "See {IERC20-totalSupply}."
					},
					"totalSupplyAt(uint256)": {
						"details": "Retrieves the total supply at the time `snapshotId` was created."
					},
					"transfer(address,uint256)": {
						"details": "See {IERC20-transfer}. Requirements: - `to` cannot be the zero address. - the caller must have a balance of at least `amount`."
					},
					"transferFrom(address,address,uint256)": {
						"details": "See {IERC20-transferFrom}. Emits an {Approval} event indicating the updated allowance. This is not required by the EIP. See the note at the beginning of {ERC20}. NOTE: Does not update the allowance if the current allowance is the maximum `uint256`. Requirements: - `from` and `to` cannot be the zero address. - `from` must have a balance of at least `amount`. - the caller must have allowance for ``from``'s tokens of at least `amount`."
					},
					"transferOwnership(address)": {
						"details": "Transfers ownership of the contract to a new account (`newOwner`). Can only be called by the current owner."
					},
					"upgradeTo(address)": {
						"details": "Upgrade the implementation of the proxy to `newImplementation`. Calls {_authorizeUpgrade}. Emits an {Upgraded} event."
					},
					"upgradeToAndCall(address,bytes)": {
						"details": "Upgrade the implementation of the proxy to `newImplementation`, and subsequently execute the function call encoded in `data`. Calls {_authorizeUpgrade}. Emits an {Upgraded} event."
					}
				},
				"version": 1
			},
			"evm": {
				"assembly": "    /* \"contracts/BRNKC.sol\":1018:2319  contract BearNetwork is Initializable, ERC20Upgradeable, ERC20BurnableUpgradeable, ERC20SnapshotUpgradeable, OwnableUpgradeable, PausableUpgradeable, UUPSUpgradeable {... */\n  mstore(0x40, 0xa0)\n    /* \"@openzeppelin/contracts-upgradeable@4.8.0/proxy/utils/UUPSUpgradeable.sol\":1332:1336  this */\n  address\n    /* \"@openzeppelin/contracts-upgradeable@4.8.0/proxy/utils/UUPSUpgradeable.sol\":1289:1337  address private immutable __self = address(this) */\n  0x80\n  mstore\n    /* \"contracts/BRNKC.sol\":1245:1300  constructor() {... */\n  callvalue\n  dup1\n  iszero\n  tag_1\n  jumpi\n  0x00\n  dup1\n  revert\ntag_1:\n  pop\n    /* \"contracts/BRNKC.sol\":1270:1292  _disableInitializers() */\n  tag_4\n    /* \"contracts/BRNKC.sol\":1270:1290  _disableInitializers */\n  tag_5\n    /* \"contracts/BRNKC.sol\":1270:1292  _disableInitializers() */\n  jump\t// in\ntag_4:\n    /* \"contracts/BRNKC.sol\":1018:2319  contract BearNetwork is Initializable, ERC20Upgradeable, ERC20BurnableUpgradeable, ERC20SnapshotUpgradeable, OwnableUpgradeable, PausableUpgradeable, UUPSUpgradeable {... */\n  jump(tag_14)\n    /* \"@openzeppelin/contracts-upgradeable@4.8.0/proxy/utils/Initializable.sol\":5928:6207  function _disableInitializers() internal virtual {... */\ntag_5:\n    /* \"@openzeppelin/contracts-upgradeable@4.8.0/proxy/utils/Initializable.sol\":5996:6009  _initializing */\n  sload(0x00)\n  0x0100\n  swap1\n  div\n  0xff\n  and\n    /* \"@openzeppelin/contracts-upgradeable@4.8.0/proxy/utils/Initializable.sol\":5995:6009  !_initializing */\n  iszero\n    /* \"@openzeppelin/contracts-upgradeable@4.8.0/proxy/utils/Initializable.sol\":5987:6053  require(!_initializing, \"Initializable: contract is initializing\") */\n  tag_8\n  jumpi\n  mload(0x40)\n  shl(0xe5, 0x461bcd)\n  dup2\n  mstore\n    /* \"#utility.yul\":216:218   */\n  0x20\n    /* \"@openzeppelin/contracts-upgradeable@4.8.0/proxy/utils/Initializable.sol\":5987:6053  require(!_initializing, \"Initializable: contract is initializing\") */\n  0x04\n  dup3\n  add\n    /* \"#utility.yul\":198:219   */\n  mstore\n    /* \"#utility.yul\":255:257   */\n  0x27\n    /* \"#utility.yul\":235:253   */\n  0x24\n  dup3\n  add\n    /* \"#utility.yul\":228:258   */\n  mstore\n    /* \"#utility.yul\":294:328   */\n  0x496e697469616c697a61626c653a20636f6e747261637420697320696e697469\n    /* \"#utility.yul\":274:292   */\n  0x44\n  dup3\n  add\n    /* \"#utility.yul\":267:329   */\n  mstore\n  shl(0xc8, 0x616c697a696e67)\n    /* \"#utility.yul\":345:363   */\n  0x64\n  dup3\n  add\n    /* \"#utility.yul\":338:375   */\n  mstore\n    /* \"#utility.yul\":392:411   */\n  0x84\n  add\n    /* \"@openzeppelin/contracts-upgradeable@4.8.0/proxy/utils/Initializable.sol\":5987:6053  require(!_initializing, \"Initializable: contract is initializing\") */\n  mload(0x40)\n  dup1\n  swap2\n  sub\n  swap1\n  revert\ntag_8:\n    /* \"@openzeppelin/contracts-upgradeable@4.8.0/proxy/utils/Initializable.sol\":6067:6079  _initialized */\n  sload(0x00)\n    /* \"@openzeppelin/contracts-upgradeable@4.8.0/proxy/utils/Initializable.sol\":6082:6097  type(uint8).max */\n  0xff\n    /* \"@openzeppelin/contracts-upgradeable@4.8.0/proxy/utils/Initializable.sol\":6067:6079  _initialized */\n  swap1\n  dup2\n  and\n    /* \"@openzeppelin/contracts-upgradeable@4.8.0/proxy/utils/Initializable.sol\":6067:6097  _initialized < type(uint8).max */\n  lt\n    /* \"@openzeppelin/contracts-upgradeable@4.8.0/proxy/utils/Initializable.sol\":6063:6201  if (_initialized < type(uint8).max) {... */\n  iszero\n  tag_11\n  jumpi\n    /* \"@openzeppelin/contracts-upgradeable@4.8.0/proxy/utils/Initializable.sol\":6113:6125  _initialized */\n  0x00\n    /* \"@openzeppelin/contracts-upgradeable@4.8.0/proxy/utils/Initializable.sol\":6113:6143  _initialized = type(uint8).max */\n  dup1\n  sload\n  not(0xff)\n  and\n    /* \"@openzeppelin/contracts-upgradeable@4.8.0/proxy/utils/Initializable.sol\":6128:6143  type(uint8).max */\n  0xff\n    /* \"@openzeppelin/contracts-upgradeable@4.8.0/proxy/utils/Initializable.sol\":6113:6143  _initialized = type(uint8).max */\n  swap1\n  dup2\n  or\n  swap1\n  swap2\n  sstore\n    /* \"@openzeppelin/contracts-upgradeable@4.8.0/proxy/utils/Initializable.sol\":6162:6190  Initialized(type(uint8).max) */\n  mload(0x40)\n    /* \"#utility.yul\":564:600   */\n  swap1\n  dup2\n  mstore\n    /* \"@openzeppelin/contracts-upgradeable@4.8.0/proxy/utils/Initializable.sol\":6162:6190  Initialized(type(uint8).max) */\n  0x7f26b83ff96e1f2b6a682f133852f6798a09c465da95921460cefb3847402498\n  swap1\n    /* \"#utility.yul\":552:554   */\n  0x20\n    /* \"#utility.yul\":537:555   */\n  add\n    /* \"@openzeppelin/contracts-upgradeable@4.8.0/proxy/utils/Initializable.sol\":6162:6190  Initialized(type(uint8).max) */\n  mload(0x40)\n  dup1\n  swap2\n  sub\n  swap1\n  log1\n    /* \"@openzeppelin/contracts-upgradeable@4.8.0/proxy/utils/Initializable.sol\":6063:6201  if (_initialized < type(uint8).max) {... */\ntag_11:\n    /* \"@openzeppelin/contracts-upgradeable@4.8.0/proxy/utils/Initializable.sol\":5928:6207  function _disableInitializers() internal virtual {... */\n  jump\t// out\n    /* \"#utility.yul\":422:606   */\ntag_14:\n    /* \"contracts/BRNKC.sol\":1018:2319  contract BearNetwork is Initializable, ERC20Upgradeable, ERC20BurnableUpgradeable, ERC20SnapshotUpgradeable, OwnableUpgradeable, PausableUpgradeable, UUPSUpgradeable {... */\n  mload(0x80)\n  codecopy(0x00, dataOffset(sub_0), dataSize(sub_0))\n  0x00\n  assignImmutable(\"0x4c643d5d9b0441803235e222732b65e2dc488f209ae20302cca6cafc813933a8\")\n  return(0x00, dataSize(sub_0))\nstop\n\nsub_0: assembly {\n        /* \"contracts/BRNKC.sol\":1018:2319  contract BearNetwork is Initializable, ERC20Upgradeable, ERC20BurnableUpgradeable, ERC20SnapshotUpgradeable, OwnableUpgradeable, PausableUpgradeable, UUPSUpgradeable {... */\n      mstore(0x40, 0x80)\n      jumpi(tag_1, lt(calldatasize, 0x04))\n      shr(0xe0, calldataload(0x00))\n      dup1\n      0x5c975abb\n      gt\n      tag_29\n      jumpi\n      dup1\n      0x95d89b41\n      gt\n      tag_30\n      jumpi\n      dup1\n      0xa457c2d7\n      gt\n      tag_31\n      jumpi\n      dup1\n      0xa457c2d7\n      eq\n      tag_25\n      jumpi\n      dup1\n      0xa9059cbb\n      eq\n      tag_26\n      jumpi\n      dup1\n      0xdd62ed3e\n      eq\n      tag_27\n      jumpi\n      dup1\n      0xf2fde38b\n      eq\n      tag_28\n      jumpi\n      0x00\n      dup1\n      revert\n    tag_31:\n      dup1\n      0x95d89b41\n      eq\n      tag_22\n      jumpi\n      dup1\n      0x9711715a\n      eq\n      tag_23\n      jumpi\n      dup1\n      0x981b24d0\n      eq\n      tag_24\n      jumpi\n      0x00\n      dup1\n      revert\n    tag_30:\n      dup1\n      0x79cc6790\n      gt\n      tag_32\n      jumpi\n      dup1\n      0x79cc6790\n      eq\n      tag_18\n      jumpi\n      dup1\n      0x8129fc1c\n      eq\n      tag_19\n      jumpi\n      dup1\n      0x8456cb59\n      eq\n      tag_20\n      jumpi\n      dup1\n      0x8da5cb5b\n      eq\n      tag_21\n      jumpi\n      0x00\n      dup1\n      revert\n    tag_32:\n      dup1\n      0x5c975abb\n      eq\n      tag_15\n      jumpi\n      dup1\n      0x70a08231\n      eq\n      tag_16\n      jumpi\n      dup1\n      0x715018a6\n      eq\n      tag_17\n      jumpi\n      0x00\n      dup1\n      revert\n    tag_29:\n      dup1\n      0x39509351\n      gt\n      tag_33\n      jumpi\n      dup1\n      0x42966c68\n      gt\n      tag_34\n      jumpi\n      dup1\n      0x42966c68\n      eq\n      tag_11\n      jumpi\n      dup1\n      0x4ee2cd7e\n      eq\n      tag_12\n      jumpi\n      dup1\n      0x4f1ef286\n      eq\n      tag_13\n      jumpi\n      dup1\n      0x52d1902d\n      eq\n      tag_14\n      jumpi\n      0x00\n      dup1\n      revert\n    tag_34:\n      dup1\n      0x39509351\n      eq\n      tag_8\n      jumpi\n      dup1\n      0x3f4ba83a\n      eq\n      tag_9\n      jumpi\n      dup1\n      0x40c10f19\n      eq\n      tag_10\n      jumpi\n      0x00\n      dup1\n      revert\n    tag_33:\n      dup1\n      0x06fdde03\n      eq\n      tag_2\n      jumpi\n      dup1\n      0x095ea7b3\n      eq\n      tag_3\n      jumpi\n      dup1\n      0x18160ddd\n      eq\n      tag_4\n      jumpi\n      dup1\n      0x23b872dd\n      eq\n      tag_5\n      jumpi\n      dup1\n      0x313ce567\n      eq\n      tag_6\n      jumpi\n      dup1\n      0x3659cfe6\n      eq\n      tag_7\n      jumpi\n    tag_1:\n      0x00\n      dup1\n      revert\n        /* \"@openzeppelin/contracts-upgradeable@4.8.0/token/ERC20/ERC20Upgradeable.sol\":2491:2589  function name() public view virtual override returns (string memory) {... */\n    tag_2:\n      callvalue\n      dup1\n      iszero\n      tag_35\n      jumpi\n      0x00\n      dup1\n      revert\n    tag_35:\n      pop\n      tag_36\n      tag_37\n      jump\t// in\n    tag_36:\n      mload(0x40)\n      tag_38\n      swap2\n      swap1\n      tag_39\n      jump\t// in\n    tag_38:\n      mload(0x40)\n      dup1\n      swap2\n      sub\n      swap1\n      return\n        /* \"@openzeppelin/contracts-upgradeable@4.8.0/token/ERC20/ERC20Upgradeable.sol\":4768:4965  function approve(address spender, uint256 amount) public virtual override returns (bool) {... */\n    tag_3:\n      callvalue\n      dup1\n      iszero\n      tag_40\n      jumpi\n      0x00\n      dup1\n      revert\n    tag_40:\n      pop\n      tag_41\n      tag_42\n      calldatasize\n      0x04\n      tag_43\n      jump\t// in\n    tag_42:\n      tag_44\n      jump\t// in\n    tag_41:\n      mload(0x40)\n        /* \"#utility.yul\":1272:1286   */\n      swap1\n      iszero\n        /* \"#utility.yul\":1265:1287   */\n      iszero\n        /* \"#utility.yul\":1247:1288   */\n      dup2\n      mstore\n        /* \"#utility.yul\":1235:1237   */\n      0x20\n        /* \"#utility.yul\":1220:1238   */\n      add\n        /* \"@openzeppelin/contracts-upgradeable@4.8.0/token/ERC20/ERC20Upgradeable.sol\":4768:4965  function approve(address spender, uint256 amount) public virtual override returns (bool) {... */\n      tag_38\n        /* \"#utility.yul\":1107:1294   */\n      jump\n        /* \"@openzeppelin/contracts-upgradeable@4.8.0/token/ERC20/ERC20Upgradeable.sol\":3579:3685  function totalSupply() public view virtual override returns (uint256) {... */\n    tag_4:\n      callvalue\n      dup1\n      iszero\n      tag_47\n      jumpi\n      0x00\n      dup1\n      revert\n    tag_47:\n      pop\n        /* \"@openzeppelin/contracts-upgradeable@4.8.0/token/ERC20/ERC20Upgradeable.sol\":3666:3678  _totalSupply */\n      sload(0x35)\n        /* \"@openzeppelin/contracts-upgradeable@4.8.0/token/ERC20/ERC20Upgradeable.sol\":3579:3685  function totalSupply() public view virtual override returns (uint256) {... */\n    tag_48:\n      mload(0x40)\n        /* \"#utility.yul\":1445:1470   */\n      swap1\n      dup2\n      mstore\n        /* \"#utility.yul\":1433:1435   */\n      0x20\n        /* \"#utility.yul\":1418:1436   */\n      add\n        /* \"@openzeppelin/contracts-upgradeable@4.8.0/token/ERC20/ERC20Upgradeable.sol\":3579:3685  function totalSupply() public view virtual override returns (uint256) {... */\n      tag_38\n        /* \"#utility.yul\":1299:1476   */\n      jump\n        /* \"@openzeppelin/contracts-upgradeable@4.8.0/token/ERC20/ERC20Upgradeable.sol\":5527:5813  function transferFrom(... */\n    tag_5:\n      callvalue\n      dup1\n      iszero\n      tag_52\n      jumpi\n      0x00\n      dup1\n      revert\n    tag_52:\n      pop\n      tag_41\n      tag_54\n      calldatasize\n      0x04\n      tag_55\n      jump\t// in\n    tag_54:\n      tag_56\n      jump\t// in\n        /* \"@openzeppelin/contracts-upgradeable@4.8.0/token/ERC20/ERC20Upgradeable.sol\":3428:3519  function decimals() public view virtual override returns (uint8) {... */\n    tag_6:\n      callvalue\n      dup1\n      iszero\n      tag_58\n      jumpi\n      0x00\n      dup1\n      revert\n    tag_58:\n      pop\n      mload(0x40)\n        /* \"@openzeppelin/contracts-upgradeable@4.8.0/token/ERC20/ERC20Upgradeable.sol\":3510:3512  18 */\n      0x12\n        /* \"#utility.yul\":1956:1992   */\n      dup2\n      mstore\n        /* \"#utility.yul\":1944:1946   */\n      0x20\n        /* \"#utility.yul\":1929:1947   */\n      add\n        /* \"@openzeppelin/contracts-upgradeable@4.8.0/token/ERC20/ERC20Upgradeable.sol\":3428:3519  function decimals() public view virtual override returns (uint8) {... */\n      tag_38\n        /* \"#utility.yul\":1814:1998   */\n      jump\n        /* \"@openzeppelin/contracts-upgradeable@4.8.0/proxy/utils/UUPSUpgradeable.sol\":3317:3514  function upgradeTo(address newImplementation) external virtual onlyProxy {... */\n    tag_7:\n      callvalue\n      dup1\n      iszero\n      tag_63\n      jumpi\n      0x00\n      dup1\n      revert\n    tag_63:\n      pop\n      tag_64\n      tag_65\n      calldatasize\n      0x04\n      tag_66\n      jump\t// in\n    tag_65:\n      tag_67\n      jump\t// in\n    tag_64:\n      stop\n        /* \"@openzeppelin/contracts-upgradeable@4.8.0/token/ERC20/ERC20Upgradeable.sol\":6208:6442  function increaseAllowance(address spender, uint256 addedValue) public virtual returns (bool) {... */\n    tag_8:\n      callvalue\n      dup1\n      iszero\n      tag_68\n      jumpi\n      0x00\n      dup1\n      revert\n    tag_68:\n      pop\n      tag_41\n      tag_70\n      calldatasize\n      0x04\n      tag_43\n      jump\t// in\n    tag_70:\n      tag_71\n      jump\t// in\n        /* \"contracts/BRNKC.sol\":1773:1838  function unpause() public onlyOwner {... */\n    tag_9:\n      callvalue\n      dup1\n      iszero\n      tag_73\n      jumpi\n      0x00\n      dup1\n      revert\n    tag_73:\n      pop\n      tag_64\n      tag_75\n      jump\t// in\n        /* \"contracts/BRNKC.sol\":1846:1941  function mint(address to, uint256 amount) public onlyOwner {... */\n    tag_10:\n      callvalue\n      dup1\n      iszero\n      tag_76\n      jumpi\n      0x00\n      dup1\n      revert\n    tag_76:\n      pop\n      tag_64\n      tag_78\n      calldatasize\n      0x04\n      tag_43\n      jump\t// in\n    tag_78:\n      tag_79\n      jump\t// in\n        /* \"@openzeppelin/contracts-upgradeable@4.8.0/token/ERC20/extensions/ERC20BurnableUpgradeable.sol\":848:937  function burn(uint256 amount) public virtual {... */\n    tag_11:\n      callvalue\n      dup1\n      iszero\n      tag_80\n      jumpi\n      0x00\n      dup1\n      revert\n    tag_80:\n      pop\n      tag_64\n      tag_82\n      calldatasize\n      0x04\n      tag_83\n      jump\t// in\n    tag_82:\n      tag_84\n      jump\t// in\n        /* \"@openzeppelin/contracts-upgradeable@4.8.0/token/ERC20/extensions/ERC20SnapshotUpgradeable.sol\":5312:5574  function balanceOfAt(address account, uint256 snapshotId) public view virtual returns (uint256) {... */\n    tag_12:\n      callvalue\n      dup1\n      iszero\n      tag_85\n      jumpi\n      0x00\n      dup1\n      revert\n    tag_85:\n      pop\n      tag_48\n      tag_87\n      calldatasize\n      0x04\n      tag_43\n      jump\t// in\n    tag_87:\n      tag_88\n      jump\t// in\n        /* \"@openzeppelin/contracts-upgradeable@4.8.0/proxy/utils/UUPSUpgradeable.sol\":3763:3985  function upgradeToAndCall(address newImplementation, bytes memory data) external payable virtual onlyProxy {... */\n    tag_13:\n      tag_64\n      tag_91\n      calldatasize\n      0x04\n      tag_92\n      jump\t// in\n    tag_91:\n      tag_93\n      jump\t// in\n        /* \"@openzeppelin/contracts-upgradeable@4.8.0/proxy/utils/UUPSUpgradeable.sol\":3006:3137  function proxiableUUID() external view virtual override notDelegated returns (bytes32) {... */\n    tag_14:\n      callvalue\n      dup1\n      iszero\n      tag_94\n      jumpi\n      0x00\n      dup1\n      revert\n    tag_94:\n      pop\n      tag_48\n      tag_96\n      jump\t// in\n        /* \"@openzeppelin/contracts-upgradeable@4.8.0/security/PausableUpgradeable.sol\":1858:1942  function paused() public view virtual returns (bool) {... */\n    tag_15:\n      callvalue\n      dup1\n      iszero\n      tag_99\n      jumpi\n      0x00\n      dup1\n      revert\n    tag_99:\n      pop\n        /* \"@openzeppelin/contracts-upgradeable@4.8.0/security/PausableUpgradeable.sol\":1928:1935  _paused */\n      and(0xff, sload(0xfb))\n        /* \"@openzeppelin/contracts-upgradeable@4.8.0/security/PausableUpgradeable.sol\":1858:1942  function paused() public view virtual returns (bool) {... */\n      jump(tag_41)\n        /* \"@openzeppelin/contracts-upgradeable@4.8.0/token/ERC20/ERC20Upgradeable.sol\":3743:3868  function balanceOf(address account) public view virtual override returns (uint256) {... */\n    tag_16:\n      callvalue\n      dup1\n      iszero\n      tag_103\n      jumpi\n      0x00\n      dup1\n      revert\n    tag_103:\n      pop\n      tag_48\n      tag_105\n      calldatasize\n      0x04\n      tag_66\n      jump\t// in\n    tag_105:\n      sub(shl(0xa0, 0x01), 0x01)\n        /* \"@openzeppelin/contracts-upgradeable@4.8.0/token/ERC20/ERC20Upgradeable.sol\":3843:3861  _balances[account] */\n      and\n        /* \"@openzeppelin/contracts-upgradeable@4.8.0/token/ERC20/ERC20Upgradeable.sol\":3817:3824  uint256 */\n      0x00\n        /* \"@openzeppelin/contracts-upgradeable@4.8.0/token/ERC20/ERC20Upgradeable.sol\":3843:3861  _balances[account] */\n      swap1\n      dup2\n      mstore\n        /* \"@openzeppelin/contracts-upgradeable@4.8.0/token/ERC20/ERC20Upgradeable.sol\":3843:3852  _balances */\n      0x33\n        /* \"@openzeppelin/contracts-upgradeable@4.8.0/token/ERC20/ERC20Upgradeable.sol\":3843:3861  _balances[account] */\n      0x20\n      mstore\n      0x40\n      swap1\n      keccak256\n      sload\n      swap1\n        /* \"@openzeppelin/contracts-upgradeable@4.8.0/token/ERC20/ERC20Upgradeable.sol\":3743:3868  function balanceOf(address account) public view virtual override returns (uint256) {... */\n      jump\n        /* \"@openzeppelin/contracts-upgradeable@4.8.0/access/OwnableUpgradeable.sol\":2071:2172  function renounceOwnership() public virtual onlyOwner {... */\n    tag_17:\n      callvalue\n      dup1\n      iszero\n      tag_108\n      jumpi\n      0x00\n      dup1\n      revert\n    tag_108:\n      pop\n      tag_64\n      tag_110\n      jump\t// in\n        /* \"@openzeppelin/contracts-upgradeable@4.8.0/token/ERC20/extensions/ERC20BurnableUpgradeable.sol\":1243:1404  function burnFrom(address account, uint256 amount) public virtual {... */\n    tag_18:\n      callvalue\n      dup1\n      iszero\n      tag_111\n      jumpi\n      0x00\n      dup1\n      revert\n    tag_111:\n      pop\n      tag_64\n      tag_113\n      calldatasize\n      0x04\n      tag_43\n      jump\t// in\n    tag_113:\n      tag_114\n      jump\t// in\n        /* \"contracts/BRNKC.sol\":1308:1621  function initialize() initializer public {... */\n    tag_19:\n      callvalue\n      dup1\n      iszero\n      tag_115\n      jumpi\n      0x00\n      dup1\n      revert\n    tag_115:\n      pop\n      tag_64\n      tag_117\n      jump\t// in\n        /* \"contracts/BRNKC.sol\":1704:1765  function pause() public onlyOwner {... */\n    tag_20:\n      callvalue\n      dup1\n      iszero\n      tag_118\n      jumpi\n      0x00\n      dup1\n      revert\n    tag_118:\n      pop\n      tag_64\n      tag_120\n      jump\t// in\n        /* \"@openzeppelin/contracts-upgradeable@4.8.0/access/OwnableUpgradeable.sol\":1441:1526  function owner() public view virtual returns (address) {... */\n    tag_21:\n      callvalue\n      dup1\n      iszero\n      tag_121\n      jumpi\n      0x00\n      dup1\n      revert\n    tag_121:\n      pop\n        /* \"@openzeppelin/contracts-upgradeable@4.8.0/access/OwnableUpgradeable.sol\":1513:1519  _owner */\n      sload(0xc9)\n        /* \"@openzeppelin/contracts-upgradeable@4.8.0/access/OwnableUpgradeable.sol\":1441:1526  function owner() public view virtual returns (address) {... */\n      mload(0x40)\n      sub(shl(0xa0, 0x01), 0x01)\n        /* \"@openzeppelin/contracts-upgradeable@4.8.0/access/OwnableUpgradeable.sol\":1513:1519  _owner */\n      swap1\n      swap2\n      and\n        /* \"#utility.yul\":3839:3890   */\n      dup2\n      mstore\n        /* \"#utility.yul\":3827:3829   */\n      0x20\n        /* \"#utility.yul\":3812:3830   */\n      add\n        /* \"@openzeppelin/contracts-upgradeable@4.8.0/access/OwnableUpgradeable.sol\":1441:1526  function owner() public view virtual returns (address) {... */\n      tag_38\n        /* \"#utility.yul\":3693:3896   */\n      jump\n        /* \"@openzeppelin/contracts-upgradeable@4.8.0/token/ERC20/ERC20Upgradeable.sol\":2702:2804  function symbol() public view virtual override returns (string memory) {... */\n    tag_22:\n      callvalue\n      dup1\n      iszero\n      tag_126\n      jumpi\n      0x00\n      dup1\n      revert\n    tag_126:\n      pop\n      tag_36\n      tag_128\n      jump\t// in\n        /* \"contracts/BRNKC.sol\":1629:1696  function snapshot() public onlyOwner {... */\n    tag_23:\n      callvalue\n      dup1\n      iszero\n      tag_130\n      jumpi\n      0x00\n      dup1\n      revert\n    tag_130:\n      pop\n      tag_64\n      tag_132\n      jump\t// in\n        /* \"@openzeppelin/contracts-upgradeable@4.8.0/token/ERC20/extensions/ERC20SnapshotUpgradeable.sol\":5673:5903  function totalSupplyAt(uint256 snapshotId) public view virtual returns (uint256) {... */\n    tag_24:\n      callvalue\n      dup1\n      iszero\n      tag_133\n      jumpi\n      0x00\n      dup1\n      revert\n    tag_133:\n      pop\n      tag_48\n      tag_135\n      calldatasize\n      0x04\n      tag_83\n      jump\t// in\n    tag_135:\n      tag_136\n      jump\t// in\n        /* \"@openzeppelin/contracts-upgradeable@4.8.0/token/ERC20/ERC20Upgradeable.sol\":6929:7356  function decreaseAllowance(address spender, uint256 subtractedValue) public virtual returns (bool) {... */\n    tag_25:\n      callvalue\n      dup1\n      iszero\n      tag_138\n      jumpi\n      0x00\n      dup1\n      revert\n    tag_138:\n      pop\n      tag_41\n      tag_140\n      calldatasize\n      0x04\n      tag_43\n      jump\t// in\n    tag_140:\n      tag_141\n      jump\t// in\n        /* \"@openzeppelin/contracts-upgradeable@4.8.0/token/ERC20/ERC20Upgradeable.sol\":4064:4253  function transfer(address to, uint256 amount) public virtual override returns (bool) {... */\n    tag_26:\n      callvalue\n      dup1\n      iszero\n      tag_143\n      jumpi\n      0x00\n      dup1\n      revert\n    tag_143:\n      pop\n      tag_41\n      tag_145\n      calldatasize\n      0x04\n      tag_43\n      jump\t// in\n    tag_145:\n      tag_146\n      jump\t// in\n        /* \"@openzeppelin/contracts-upgradeable@4.8.0/token/ERC20/ERC20Upgradeable.sol\":4311:4460  function allowance(address owner, address spender) public view virtual override returns (uint256) {... */\n    tag_27:\n      callvalue\n      dup1\n      iszero\n      tag_148\n      jumpi\n      0x00\n      dup1\n      revert\n    tag_148:\n      pop\n      tag_48\n      tag_150\n      calldatasize\n      0x04\n      tag_151\n      jump\t// in\n    tag_150:\n      tag_152\n      jump\t// in\n        /* \"@openzeppelin/contracts-upgradeable@4.8.0/access/OwnableUpgradeable.sol\":2321:2519  function transferOwnership(address newOwner) public virtual onlyOwner {... */\n    tag_28:\n      callvalue\n      dup1\n      iszero\n      tag_154\n      jumpi\n      0x00\n      dup1\n      revert\n    tag_154:\n      pop\n      tag_64\n      tag_156\n      calldatasize\n      0x04\n      tag_66\n      jump\t// in\n    tag_156:\n      tag_157\n      jump\t// in\n        /* \"@openzeppelin/contracts-upgradeable@4.8.0/token/ERC20/ERC20Upgradeable.sol\":2491:2589  function name() public view virtual override returns (string memory) {... */\n    tag_37:\n        /* \"@openzeppelin/contracts-upgradeable@4.8.0/token/ERC20/ERC20Upgradeable.sol\":2545:2558  string memory */\n      0x60\n        /* \"@openzeppelin/contracts-upgradeable@4.8.0/token/ERC20/ERC20Upgradeable.sol\":2577:2582  _name */\n      0x36\n        /* \"@openzeppelin/contracts-upgradeable@4.8.0/token/ERC20/ERC20Upgradeable.sol\":2570:2582  return _name */\n      dup1\n      sload\n      tag_159\n      swap1\n      tag_160\n      jump\t// in\n    tag_159:\n      dup1\n      0x1f\n      add\n      0x20\n      dup1\n      swap2\n      div\n      mul\n      0x20\n      add\n      mload(0x40)\n      swap1\n      dup2\n      add\n      0x40\n      mstore\n      dup1\n      swap3\n      swap2\n      swap1\n      dup2\n      dup2\n      mstore\n      0x20\n      add\n      dup3\n      dup1\n      sload\n      tag_161\n      swap1\n      tag_160\n      jump\t// in\n    tag_161:\n      dup1\n      iszero\n      tag_162\n      jumpi\n      dup1\n      0x1f\n      lt\n      tag_163\n      jumpi\n      0x0100\n      dup1\n      dup4\n      sload\n      div\n      mul\n      dup4\n      mstore\n      swap2\n      0x20\n      add\n      swap2\n      jump(tag_162)\n    tag_163:\n      dup3\n      add\n      swap2\n      swap1\n      0x00\n      mstore\n      keccak256(0x00, 0x20)\n      swap1\n    tag_164:\n      dup2\n      sload\n      dup2\n      mstore\n      swap1\n      0x01\n      add\n      swap1\n      0x20\n      add\n      dup1\n      dup4\n      gt\n      tag_164\n      jumpi\n      dup3\n      swap1\n      sub\n      0x1f\n      and\n      dup3\n      add\n      swap2\n    tag_162:\n      pop\n      pop\n      pop\n      pop\n      pop\n      swap1\n      pop\n        /* \"@openzeppelin/contracts-upgradeable@4.8.0/token/ERC20/ERC20Upgradeable.sol\":2491:2589  function name() public view virtual override returns (string memory) {... */\n      swap1\n      jump\t// out\n        /* \"@openzeppelin/contracts-upgradeable@4.8.0/token/ERC20/ERC20Upgradeable.sol\":4768:4965  function approve(address spender, uint256 amount) public virtual override returns (bool) {... */\n    tag_44:\n        /* \"@openzeppelin/contracts-upgradeable@4.8.0/token/ERC20/ERC20Upgradeable.sol\":4851:4855  bool */\n      0x00\n        /* \"@openzeppelin/contracts-upgradeable@4.8.0/utils/ContextUpgradeable.sol\":929:939  msg.sender */\n      caller\n        /* \"@openzeppelin/contracts-upgradeable@4.8.0/token/ERC20/ERC20Upgradeable.sol\":4905:4937  _approve(owner, spender, amount) */\n      tag_168\n        /* \"@openzeppelin/contracts-upgradeable@4.8.0/utils/ContextUpgradeable.sol\":929:939  msg.sender */\n      dup2\n        /* \"@openzeppelin/contracts-upgradeable@4.8.0/token/ERC20/ERC20Upgradeable.sol\":4921:4928  spender */\n      dup6\n        /* \"@openzeppelin/contracts-upgradeable@4.8.0/token/ERC20/ERC20Upgradeable.sol\":4930:4936  amount */\n      dup6\n        /* \"@openzeppelin/contracts-upgradeable@4.8.0/token/ERC20/ERC20Upgradeable.sol\":4905:4913  _approve */\n      tag_169\n        /* \"@openzeppelin/contracts-upgradeable@4.8.0/token/ERC20/ERC20Upgradeable.sol\":4905:4937  _approve(owner, spender, amount) */\n      jump\t// in\n    tag_168:\n        /* \"@openzeppelin/contracts-upgradeable@4.8.0/token/ERC20/ERC20Upgradeable.sol\":4954:4958  true */\n      0x01\n        /* \"@openzeppelin/contracts-upgradeable@4.8.0/token/ERC20/ERC20Upgradeable.sol\":4947:4958  return true */\n      swap2\n      pop\n      pop\n        /* \"@openzeppelin/contracts-upgradeable@4.8.0/token/ERC20/ERC20Upgradeable.sol\":4768:4965  function approve(address spender, uint256 amount) public virtual override returns (bool) {... */\n    tag_165:\n      swap3\n      swap2\n      pop\n      pop\n      jump\t// out\n        /* \"@openzeppelin/contracts-upgradeable@4.8.0/token/ERC20/ERC20Upgradeable.sol\":5527:5813  function transferFrom(... */\n    tag_56:\n        /* \"@openzeppelin/contracts-upgradeable@4.8.0/token/ERC20/ERC20Upgradeable.sol\":5654:5658  bool */\n      0x00\n        /* \"@openzeppelin/contracts-upgradeable@4.8.0/utils/ContextUpgradeable.sol\":929:939  msg.sender */\n      caller\n        /* \"@openzeppelin/contracts-upgradeable@4.8.0/token/ERC20/ERC20Upgradeable.sol\":5710:5748  _spendAllowance(from, spender, amount) */\n      tag_173\n        /* \"@openzeppelin/contracts-upgradeable@4.8.0/token/ERC20/ERC20Upgradeable.sol\":5726:5730  from */\n      dup6\n        /* \"@openzeppelin/contracts-upgradeable@4.8.0/utils/ContextUpgradeable.sol\":929:939  msg.sender */\n      dup3\n        /* \"@openzeppelin/contracts-upgradeable@4.8.0/token/ERC20/ERC20Upgradeable.sol\":5741:5747  amount */\n      dup6\n        /* \"@openzeppelin/contracts-upgradeable@4.8.0/token/ERC20/ERC20Upgradeable.sol\":5710:5725  _spendAllowance */\n      tag_174\n        /* \"@openzeppelin/contracts-upgradeable@4.8.0/token/ERC20/ERC20Upgradeable.sol\":5710:5748  _spendAllowance(from, spender, amount) */\n      jump\t// in\n    tag_173:\n        /* \"@openzeppelin/contracts-upgradeable@4.8.0/token/ERC20/ERC20Upgradeable.sol\":5758:5785  _transfer(from, to, amount) */\n      tag_175\n        /* \"@openzeppelin/contracts-upgradeable@4.8.0/token/ERC20/ERC20Upgradeable.sol\":5768:5772  from */\n      dup6\n        /* \"@openzeppelin/contracts-upgradeable@4.8.0/token/ERC20/ERC20Upgradeable.sol\":5774:5776  to */\n      dup6\n        /* \"@openzeppelin/contracts-upgradeable@4.8.0/token/ERC20/ERC20Upgradeable.sol\":5778:5784  amount */\n      dup6\n        /* \"@openzeppelin/contracts-upgradeable@4.8.0/token/ERC20/ERC20Upgradeable.sol\":5758:5767  _transfer */\n      tag_176\n        /* \"@openzeppelin/contracts-upgradeable@4.8.0/token/ERC20/ERC20Upgradeable.sol\":5758:5785  _transfer(from, to, amount) */\n      jump\t// in\n    tag_175:\n        /* \"@openzeppelin/contracts-upgradeable@4.8.0/token/ERC20/ERC20Upgradeable.sol\":5802:5806  true */\n      0x01\n        /* \"@openzeppelin/contracts-upgradeable@4.8.0/token/ERC20/ERC20Upgradeable.sol\":5795:5806  return true */\n      swap2\n      pop\n      pop\n        /* \"@openzeppelin/contracts-upgradeable@4.8.0/token/ERC20/ERC20Upgradeable.sol\":5527:5813  function transferFrom(... */\n    tag_171:\n      swap4\n      swap3\n      pop\n      pop\n      pop\n      jump\t// out\n        /* \"@openzeppelin/contracts-upgradeable@4.8.0/proxy/utils/UUPSUpgradeable.sol\":3317:3514  function upgradeTo(address newImplementation) external virtual onlyProxy {... */\n    tag_67:\n      sub(shl(0xa0, 0x01), 0x01)\n        /* \"@openzeppelin/contracts-upgradeable@4.8.0/proxy/utils/UUPSUpgradeable.sol\":1898:1904  __self */\n      immutable(\"0x4c643d5d9b0441803235e222732b65e2dc488f209ae20302cca6cafc813933a8\")\n        /* \"@openzeppelin/contracts-upgradeable@4.8.0/proxy/utils/UUPSUpgradeable.sol\":1881:1904  address(this) != __self */\n      and\n        /* \"@openzeppelin/contracts-upgradeable@4.8.0/proxy/utils/UUPSUpgradeable.sol\":1889:1893  this */\n      address\n        /* \"@openzeppelin/contracts-upgradeable@4.8.0/proxy/utils/UUPSUpgradeable.sol\":1881:1904  address(this) != __self */\n      sub\n        /* \"@openzeppelin/contracts-upgradeable@4.8.0/proxy/utils/UUPSUpgradeable.sol\":1873:1953  require(address(this) != __self, \"Function must be called through delegatecall\") */\n      tag_179\n      jumpi\n      mload(0x40)\n      shl(0xe5, 0x461bcd)\n      dup2\n      mstore\n      0x04\n      add\n      tag_180\n      swap1\n      tag_181\n      jump\t// in\n    tag_180:\n      mload(0x40)\n      dup1\n      swap2\n      sub\n      swap1\n      revert\n    tag_179:\n        /* \"@openzeppelin/contracts-upgradeable@4.8.0/proxy/utils/UUPSUpgradeable.sol\":1995:2001  __self */\n      immutable(\"0x4c643d5d9b0441803235e222732b65e2dc488f209ae20302cca6cafc813933a8\")\n      sub(shl(0xa0, 0x01), 0x01)\n        /* \"@openzeppelin/contracts-upgradeable@4.8.0/proxy/utils/UUPSUpgradeable.sol\":1971:2001  _getImplementation() == __self */\n      and\n        /* \"@openzeppelin/contracts-upgradeable@4.8.0/proxy/utils/UUPSUpgradeable.sol\":1971:1991  _getImplementation() */\n      tag_182\n      0x00\n      dup1\n      mload\n      0x20\n      data_75b20eef8615de99c108b05f0dbda081c91897128caa336d75dffb97c4132b4d\n      dup4\n      codecopy\n      dup2\n      mload\n      swap2\n      mstore\n        /* \"@openzeppelin/contracts-upgradeable@4.8.0/proxy/ERC1967/ERC1967UpgradeUpgradeable.sol\":1642:1707  StorageSlotUpgradeable.getAddressSlot(_IMPLEMENTATION_SLOT).value */\n      sload\n      sub(shl(0xa0, 0x01), 0x01)\n      and\n      swap1\n        /* \"@openzeppelin/contracts-upgradeable@4.8.0/proxy/ERC1967/ERC1967UpgradeUpgradeable.sol\":1563:1714  function _getImplementation() internal view returns (address) {... */\n      jump\n        /* \"@openzeppelin/contracts-upgradeable@4.8.0/proxy/utils/UUPSUpgradeable.sol\":1971:1991  _getImplementation() */\n    tag_182:\n      sub(shl(0xa0, 0x01), 0x01)\n        /* \"@openzeppelin/contracts-upgradeable@4.8.0/proxy/utils/UUPSUpgradeable.sol\":1971:2001  _getImplementation() == __self */\n      and\n      eq\n        /* \"@openzeppelin/contracts-upgradeable@4.8.0/proxy/utils/UUPSUpgradeable.sol\":1963:2050  require(_getImplementation() == __self, \"Function must be called through active proxy\") */\n      tag_184\n      jumpi\n      mload(0x40)\n      shl(0xe5, 0x461bcd)\n      dup2\n      mstore\n      0x04\n      add\n      tag_180\n      swap1\n      tag_186\n      jump\t// in\n    tag_184:\n        /* \"@openzeppelin/contracts-upgradeable@4.8.0/proxy/utils/UUPSUpgradeable.sol\":3400:3436  _authorizeUpgrade(newImplementation) */\n      tag_188\n        /* \"@openzeppelin/contracts-upgradeable@4.8.0/proxy/utils/UUPSUpgradeable.sol\":3418:3435  newImplementation */\n      dup2\n        /* \"@openzeppelin/contracts-upgradeable@4.8.0/proxy/utils/UUPSUpgradeable.sol\":3400:3417  _authorizeUpgrade */\n      tag_189\n        /* \"@openzeppelin/contracts-upgradeable@4.8.0/proxy/utils/UUPSUpgradeable.sol\":3400:3436  _authorizeUpgrade(newImplementation) */\n      jump\t// in\n    tag_188:\n        /* \"@openzeppelin/contracts-upgradeable@4.8.0/proxy/utils/UUPSUpgradeable.sol\":3487:3499  new bytes(0) */\n      0x40\n      dup1\n      mload\n        /* \"@openzeppelin/contracts-upgradeable@4.8.0/proxy/utils/UUPSUpgradeable.sol\":3497:3498  0 */\n      0x00\n        /* \"@openzeppelin/contracts-upgradeable@4.8.0/proxy/utils/UUPSUpgradeable.sol\":3487:3499  new bytes(0) */\n      dup1\n      dup3\n      mstore\n      0x20\n      dup3\n      add\n      swap1\n      swap3\n      mstore\n        /* \"@openzeppelin/contracts-upgradeable@4.8.0/proxy/utils/UUPSUpgradeable.sol\":3446:3507  _upgradeToAndCallUUPS(newImplementation, new bytes(0), false) */\n      tag_190\n      swap2\n        /* \"@openzeppelin/contracts-upgradeable@4.8.0/proxy/utils/UUPSUpgradeable.sol\":3468:3485  newImplementation */\n      dup4\n      swap2\n        /* \"@openzeppelin/contracts-upgradeable@4.8.0/proxy/utils/UUPSUpgradeable.sol\":3487:3499  new bytes(0) */\n      swap1\n        /* \"@openzeppelin/contracts-upgradeable@4.8.0/proxy/utils/UUPSUpgradeable.sol\":3446:3467  _upgradeToAndCallUUPS */\n      tag_195\n        /* \"@openzeppelin/contracts-upgradeable@4.8.0/proxy/utils/UUPSUpgradeable.sol\":3446:3507  _upgradeToAndCallUUPS(newImplementation, new bytes(0), false) */\n      jump\t// in\n    tag_190:\n        /* \"@openzeppelin/contracts-upgradeable@4.8.0/proxy/utils/UUPSUpgradeable.sol\":3317:3514  function upgradeTo(address newImplementation) external virtual onlyProxy {... */\n      pop\n      jump\t// out\n        /* \"@openzeppelin/contracts-upgradeable@4.8.0/token/ERC20/ERC20Upgradeable.sol\":6208:6442  function increaseAllowance(address spender, uint256 addedValue) public virtual returns (bool) {... */\n    tag_71:\n        /* \"@openzeppelin/contracts-upgradeable@4.8.0/token/ERC20/ERC20Upgradeable.sol\":6296:6300  bool */\n      0x00\n        /* \"@openzeppelin/contracts-upgradeable@4.8.0/utils/ContextUpgradeable.sol\":929:939  msg.sender */\n      caller\n        /* \"@openzeppelin/contracts-upgradeable@4.8.0/token/ERC20/ERC20Upgradeable.sol\":6350:6414  _approve(owner, spender, allowance(owner, spender) + addedValue) */\n      tag_168\n        /* \"@openzeppelin/contracts-upgradeable@4.8.0/utils/ContextUpgradeable.sol\":929:939  msg.sender */\n      dup2\n        /* \"@openzeppelin/contracts-upgradeable@4.8.0/token/ERC20/ERC20Upgradeable.sol\":6366:6373  spender */\n      dup6\n        /* \"@openzeppelin/contracts-upgradeable@4.8.0/token/ERC20/ERC20Upgradeable.sol\":6403:6413  addedValue */\n      dup6\n        /* \"@openzeppelin/contracts-upgradeable@4.8.0/token/ERC20/ERC20Upgradeable.sol\":6375:6400  allowance(owner, spender) */\n      tag_199\n        /* \"@openzeppelin/contracts-upgradeable@4.8.0/utils/ContextUpgradeable.sol\":929:939  msg.sender */\n      dup4\n        /* \"@openzeppelin/contracts-upgradeable@4.8.0/token/ERC20/ERC20Upgradeable.sol\":6366:6373  spender */\n      dup4\n        /* \"@openzeppelin/contracts-upgradeable@4.8.0/token/ERC20/ERC20Upgradeable.sol\":6375:6384  allowance */\n      tag_152\n        /* \"@openzeppelin/contracts-upgradeable@4.8.0/token/ERC20/ERC20Upgradeable.sol\":6375:6400  allowance(owner, spender) */\n      jump\t// in\n    tag_199:\n        /* \"@openzeppelin/contracts-upgradeable@4.8.0/token/ERC20/ERC20Upgradeable.sol\":6375:6413  allowance(owner, spender) + addedValue */\n      tag_200\n      swap2\n      swap1\n      tag_201\n      jump\t// in\n    tag_200:\n        /* \"@openzeppelin/contracts-upgradeable@4.8.0/token/ERC20/ERC20Upgradeable.sol\":6350:6358  _approve */\n      tag_169\n        /* \"@openzeppelin/contracts-upgradeable@4.8.0/token/ERC20/ERC20Upgradeable.sol\":6350:6414  _approve(owner, spender, allowance(owner, spender) + addedValue) */\n      jump\t// in\n        /* \"contracts/BRNKC.sol\":1773:1838  function unpause() public onlyOwner {... */\n    tag_75:\n        /* \"@openzeppelin/contracts-upgradeable@4.8.0/access/OwnableUpgradeable.sol\":1334:1347  _checkOwner() */\n      tag_203\n        /* \"@openzeppelin/contracts-upgradeable@4.8.0/access/OwnableUpgradeable.sol\":1334:1345  _checkOwner */\n      tag_204\n        /* \"@openzeppelin/contracts-upgradeable@4.8.0/access/OwnableUpgradeable.sol\":1334:1347  _checkOwner() */\n      jump\t// in\n    tag_203:\n        /* \"contracts/BRNKC.sol\":1820:1830  _unpause() */\n      tag_206\n        /* \"contracts/BRNKC.sol\":1820:1828  _unpause */\n      tag_207\n        /* \"contracts/BRNKC.sol\":1820:1830  _unpause() */\n      jump\t// in\n    tag_206:\n        /* \"contracts/BRNKC.sol\":1773:1838  function unpause() public onlyOwner {... */\n      jump\t// out\n        /* \"contracts/BRNKC.sol\":1846:1941  function mint(address to, uint256 amount) public onlyOwner {... */\n    tag_79:\n        /* \"@openzeppelin/contracts-upgradeable@4.8.0/access/OwnableUpgradeable.sol\":1334:1347  _checkOwner() */\n      tag_209\n        /* \"@openzeppelin/contracts-upgradeable@4.8.0/access/OwnableUpgradeable.sol\":1334:1345  _checkOwner */\n      tag_204\n        /* \"@openzeppelin/contracts-upgradeable@4.8.0/access/OwnableUpgradeable.sol\":1334:1347  _checkOwner() */\n      jump\t// in\n    tag_209:\n        /* \"contracts/BRNKC.sol\":1916:1933  _mint(to, amount) */\n      tag_211\n        /* \"contracts/BRNKC.sol\":1922:1924  to */\n      dup3\n        /* \"contracts/BRNKC.sol\":1926:1932  amount */\n      dup3\n        /* \"contracts/BRNKC.sol\":1916:1921  _mint */\n      tag_212\n        /* \"contracts/BRNKC.sol\":1916:1933  _mint(to, amount) */\n      jump\t// in\n    tag_211:\n        /* \"contracts/BRNKC.sol\":1846:1941  function mint(address to, uint256 amount) public onlyOwner {... */\n      pop\n      pop\n      jump\t// out\n        /* \"@openzeppelin/contracts-upgradeable@4.8.0/token/ERC20/extensions/ERC20BurnableUpgradeable.sol\":848:937  function burn(uint256 amount) public virtual {... */\n    tag_84:\n        /* \"@openzeppelin/contracts-upgradeable@4.8.0/token/ERC20/extensions/ERC20BurnableUpgradeable.sol\":903:930  _burn(_msgSender(), amount) */\n      tag_190\n        /* \"@openzeppelin/contracts-upgradeable@4.8.0/utils/ContextUpgradeable.sol\":929:939  msg.sender */\n      caller\n        /* \"@openzeppelin/contracts-upgradeable@4.8.0/token/ERC20/extensions/ERC20BurnableUpgradeable.sol\":923:929  amount */\n      dup3\n        /* \"@openzeppelin/contracts-upgradeable@4.8.0/token/ERC20/extensions/ERC20BurnableUpgradeable.sol\":903:908  _burn */\n      tag_216\n        /* \"@openzeppelin/contracts-upgradeable@4.8.0/token/ERC20/extensions/ERC20BurnableUpgradeable.sol\":903:930  _burn(_msgSender(), amount) */\n      jump\t// in\n        /* \"@openzeppelin/contracts-upgradeable@4.8.0/token/ERC20/extensions/ERC20SnapshotUpgradeable.sol\":5312:5574  function balanceOfAt(address account, uint256 snapshotId) public view virtual returns (uint256) {... */\n    tag_88:\n      sub(shl(0xa0, 0x01), 0x01)\n        /* \"@openzeppelin/contracts-upgradeable@4.8.0/token/ERC20/extensions/ERC20SnapshotUpgradeable.sol\":5475:5508  _accountBalanceSnapshots[account] */\n      dup3\n      and\n        /* \"@openzeppelin/contracts-upgradeable@4.8.0/token/ERC20/extensions/ERC20SnapshotUpgradeable.sol\":5399:5406  uint256 */\n      0x00\n        /* \"@openzeppelin/contracts-upgradeable@4.8.0/token/ERC20/extensions/ERC20SnapshotUpgradeable.sol\":5475:5508  _accountBalanceSnapshots[account] */\n      swap1\n      dup2\n      mstore\n        /* \"@openzeppelin/contracts-upgradeable@4.8.0/token/ERC20/extensions/ERC20SnapshotUpgradeable.sol\":5475:5499  _accountBalanceSnapshots */\n      0x97\n        /* \"@openzeppelin/contracts-upgradeable@4.8.0/token/ERC20/extensions/ERC20SnapshotUpgradeable.sol\":5475:5508  _accountBalanceSnapshots[account] */\n      0x20\n      mstore\n      0x40\n      dup2\n      keccak256\n        /* \"@openzeppelin/contracts-upgradeable@4.8.0/token/ERC20/extensions/ERC20SnapshotUpgradeable.sol\":5399:5406  uint256 */\n      dup2\n      swap1\n      dup2\n      swap1\n        /* \"@openzeppelin/contracts-upgradeable@4.8.0/token/ERC20/extensions/ERC20SnapshotUpgradeable.sol\":5454:5509  _valueAt(snapshotId, _accountBalanceSnapshots[account]) */\n      tag_218\n      swap1\n        /* \"@openzeppelin/contracts-upgradeable@4.8.0/token/ERC20/extensions/ERC20SnapshotUpgradeable.sol\":5463:5473  snapshotId */\n      dup6\n      swap1\n        /* \"@openzeppelin/contracts-upgradeable@4.8.0/token/ERC20/extensions/ERC20SnapshotUpgradeable.sol\":5454:5462  _valueAt */\n      tag_219\n        /* \"@openzeppelin/contracts-upgradeable@4.8.0/token/ERC20/extensions/ERC20SnapshotUpgradeable.sol\":5454:5509  _valueAt(snapshotId, _accountBalanceSnapshots[account]) */\n      jump\t// in\n    tag_218:\n        /* \"@openzeppelin/contracts-upgradeable@4.8.0/token/ERC20/extensions/ERC20SnapshotUpgradeable.sol\":5418:5509  (bool snapshotted, uint256 value) = _valueAt(snapshotId, _accountBalanceSnapshots[account]) */\n      swap2\n      pop\n      swap2\n      pop\n        /* \"@openzeppelin/contracts-upgradeable@4.8.0/token/ERC20/extensions/ERC20SnapshotUpgradeable.sol\":5527:5538  snapshotted */\n      dup2\n        /* \"@openzeppelin/contracts-upgradeable@4.8.0/token/ERC20/extensions/ERC20SnapshotUpgradeable.sol\":5527:5567  snapshotted ? value : balanceOf(account) */\n      tag_220\n      jumpi\n      sub(shl(0xa0, 0x01), 0x01)\n        /* \"@openzeppelin/contracts-upgradeable@4.8.0/token/ERC20/ERC20Upgradeable.sol\":3843:3861  _balances[account] */\n      dup6\n      and\n        /* \"@openzeppelin/contracts-upgradeable@4.8.0/token/ERC20/ERC20Upgradeable.sol\":3817:3824  uint256 */\n      0x00\n        /* \"@openzeppelin/contracts-upgradeable@4.8.0/token/ERC20/ERC20Upgradeable.sol\":3843:3861  _balances[account] */\n      swap1\n      dup2\n      mstore\n        /* \"@openzeppelin/contracts-upgradeable@4.8.0/token/ERC20/ERC20Upgradeable.sol\":3843:3852  _balances */\n      0x33\n        /* \"@openzeppelin/contracts-upgradeable@4.8.0/token/ERC20/ERC20Upgradeable.sol\":3843:3861  _balances[account] */\n      0x20\n      mstore\n      0x40\n      swap1\n      keccak256\n      sload\n        /* \"@openzeppelin/contracts-upgradeable@4.8.0/token/ERC20/extensions/ERC20SnapshotUpgradeable.sol\":5527:5567  snapshotted ? value : balanceOf(account) */\n      jump(tag_222)\n    tag_220:\n        /* \"@openzeppelin/contracts-upgradeable@4.8.0/token/ERC20/extensions/ERC20SnapshotUpgradeable.sol\":5541:5546  value */\n      dup1\n        /* \"@openzeppelin/contracts-upgradeable@4.8.0/token/ERC20/extensions/ERC20SnapshotUpgradeable.sol\":5527:5567  snapshotted ? value : balanceOf(account) */\n    tag_222:\n        /* \"@openzeppelin/contracts-upgradeable@4.8.0/token/ERC20/extensions/ERC20SnapshotUpgradeable.sol\":5520:5567  return snapshotted ? value : balanceOf(account) */\n      swap6\n        /* \"@openzeppelin/contracts-upgradeable@4.8.0/token/ERC20/extensions/ERC20SnapshotUpgradeable.sol\":5312:5574  function balanceOfAt(address account, uint256 snapshotId) public view virtual returns (uint256) {... */\n      swap5\n      pop\n      pop\n      pop\n      pop\n      pop\n      jump\t// out\n        /* \"@openzeppelin/contracts-upgradeable@4.8.0/proxy/utils/UUPSUpgradeable.sol\":3763:3985  function upgradeToAndCall(address newImplementation, bytes memory data) external payable virtual onlyProxy {... */\n    tag_93:\n      sub(shl(0xa0, 0x01), 0x01)\n        /* \"@openzeppelin/contracts-upgradeable@4.8.0/proxy/utils/UUPSUpgradeable.sol\":1898:1904  __self */\n      immutable(\"0x4c643d5d9b0441803235e222732b65e2dc488f209ae20302cca6cafc813933a8\")\n        /* \"@openzeppelin/contracts-upgradeable@4.8.0/proxy/utils/UUPSUpgradeable.sol\":1881:1904  address(this) != __self */\n      and\n        /* \"@openzeppelin/contracts-upgradeable@4.8.0/proxy/utils/UUPSUpgradeable.sol\":1889:1893  this */\n      address\n        /* \"@openzeppelin/contracts-upgradeable@4.8.0/proxy/utils/UUPSUpgradeable.sol\":1881:1904  address(this) != __self */\n      sub\n        /* \"@openzeppelin/contracts-upgradeable@4.8.0/proxy/utils/UUPSUpgradeable.sol\":1873:1953  require(address(this) != __self, \"Function must be called through delegatecall\") */\n      tag_224\n      jumpi\n      mload(0x40)\n      shl(0xe5, 0x461bcd)\n      dup2\n      mstore\n      0x04\n      add\n      tag_180\n      swap1\n      tag_181\n      jump\t// in\n    tag_224:\n        /* \"@openzeppelin/contracts-upgradeable@4.8.0/proxy/utils/UUPSUpgradeable.sol\":1995:2001  __self */\n      immutable(\"0x4c643d5d9b0441803235e222732b65e2dc488f209ae20302cca6cafc813933a8\")\n      sub(shl(0xa0, 0x01), 0x01)\n        /* \"@openzeppelin/contracts-upgradeable@4.8.0/proxy/utils/UUPSUpgradeable.sol\":1971:2001  _getImplementation() == __self */\n      and\n        /* \"@openzeppelin/contracts-upgradeable@4.8.0/proxy/utils/UUPSUpgradeable.sol\":1971:1991  _getImplementation() */\n      tag_226\n      0x00\n      dup1\n      mload\n      0x20\n      data_75b20eef8615de99c108b05f0dbda081c91897128caa336d75dffb97c4132b4d\n      dup4\n      codecopy\n      dup2\n      mload\n      swap2\n      mstore\n        /* \"@openzeppelin/contracts-upgradeable@4.8.0/proxy/ERC1967/ERC1967UpgradeUpgradeable.sol\":1642:1707  StorageSlotUpgradeable.getAddressSlot(_IMPLEMENTATION_SLOT).value */\n      sload\n      sub(shl(0xa0, 0x01), 0x01)\n      and\n      swap1\n        /* \"@openzeppelin/contracts-upgradeable@4.8.0/proxy/ERC1967/ERC1967UpgradeUpgradeable.sol\":1563:1714  function _getImplementation() internal view returns (address) {... */\n      jump\n        /* \"@openzeppelin/contracts-upgradeable@4.8.0/proxy/utils/UUPSUpgradeable.sol\":1971:1991  _getImplementation() */\n    tag_226:\n      sub(shl(0xa0, 0x01), 0x01)\n        /* \"@openzeppelin/contracts-upgradeable@4.8.0/proxy/utils/UUPSUpgradeable.sol\":1971:2001  _getImplementation() == __self */\n      and\n      eq\n        /* \"@openzeppelin/contracts-upgradeable@4.8.0/proxy/utils/UUPSUpgradeable.sol\":1963:2050  require(_getImplementation() == __self, \"Function must be called through active proxy\") */\n      tag_227\n      jumpi\n      mload(0x40)\n      shl(0xe5, 0x461bcd)\n      dup2\n      mstore\n      0x04\n      add\n      tag_180\n      swap1\n      tag_186\n      jump\t// in\n    tag_227:\n        /* \"@openzeppelin/contracts-upgradeable@4.8.0/proxy/utils/UUPSUpgradeable.sol\":3880:3916  _authorizeUpgrade(newImplementation) */\n      tag_230\n        /* \"@openzeppelin/contracts-upgradeable@4.8.0/proxy/utils/UUPSUpgradeable.sol\":3898:3915  newImplementation */\n      dup3\n        /* \"@openzeppelin/contracts-upgradeable@4.8.0/proxy/utils/UUPSUpgradeable.sol\":3880:3897  _authorizeUpgrade */\n      tag_189\n        /* \"@openzeppelin/contracts-upgradeable@4.8.0/proxy/utils/UUPSUpgradeable.sol\":3880:3916  _authorizeUpgrade(newImplementation) */\n      jump\t// in\n    tag_230:\n        /* \"@openzeppelin/contracts-upgradeable@4.8.0/proxy/utils/UUPSUpgradeable.sol\":3926:3978  _upgradeToAndCallUUPS(newImplementation, data, true) */\n      tag_211\n        /* \"@openzeppelin/contracts-upgradeable@4.8.0/proxy/utils/UUPSUpgradeable.sol\":3948:3965  newImplementation */\n      dup3\n        /* \"@openzeppelin/contracts-upgradeable@4.8.0/proxy/utils/UUPSUpgradeable.sol\":3967:3971  data */\n      dup3\n        /* \"@openzeppelin/contracts-upgradeable@4.8.0/proxy/utils/UUPSUpgradeable.sol\":3973:3977  true */\n      0x01\n        /* \"@openzeppelin/contracts-upgradeable@4.8.0/proxy/utils/UUPSUpgradeable.sol\":3926:3947  _upgradeToAndCallUUPS */\n      tag_195\n        /* \"@openzeppelin/contracts-upgradeable@4.8.0/proxy/utils/UUPSUpgradeable.sol\":3926:3978  _upgradeToAndCallUUPS(newImplementation, data, true) */\n      jump\t// in\n        /* \"@openzeppelin/contracts-upgradeable@4.8.0/proxy/utils/UUPSUpgradeable.sol\":3006:3137  function proxiableUUID() external view virtual override notDelegated returns (bytes32) {... */\n    tag_96:\n        /* \"@openzeppelin/contracts-upgradeable@4.8.0/proxy/utils/UUPSUpgradeable.sol\":3084:3091  bytes32 */\n      0x00\n        /* \"@openzeppelin/contracts-upgradeable@4.8.0/proxy/utils/UUPSUpgradeable.sol\":2324:2328  this */\n      address\n      sub(shl(0xa0, 0x01), 0x01)\n        /* \"@openzeppelin/contracts-upgradeable@4.8.0/proxy/utils/UUPSUpgradeable.sol\":2333:2339  __self */\n      immutable(\"0x4c643d5d9b0441803235e222732b65e2dc488f209ae20302cca6cafc813933a8\")\n        /* \"@openzeppelin/contracts-upgradeable@4.8.0/proxy/utils/UUPSUpgradeable.sol\":2316:2339  address(this) == __self */\n      and\n      eq\n        /* \"@openzeppelin/contracts-upgradeable@4.8.0/proxy/utils/UUPSUpgradeable.sol\":2308:2400  require(address(this) == __self, \"UUPSUpgradeable: must not be called through delegatecall\") */\n      tag_233\n      jumpi\n      mload(0x40)\n      shl(0xe5, 0x461bcd)\n      dup2\n      mstore\n        /* \"#utility.yul\":5841:5843   */\n      0x20\n        /* \"@openzeppelin/contracts-upgradeable@4.8.0/proxy/utils/UUPSUpgradeable.sol\":2308:2400  require(address(this) == __self, \"UUPSUpgradeable: must not be called through delegatecall\") */\n      0x04\n      dup3\n      add\n        /* \"#utility.yul\":5823:5844   */\n      mstore\n        /* \"#utility.yul\":5880:5882   */\n      0x38\n        /* \"#utility.yul\":5860:5878   */\n      0x24\n      dup3\n      add\n        /* \"#utility.yul\":5853:5883   */\n      mstore\n        /* \"#utility.yul\":5919:5953   */\n      0x555550535570677261646561626c653a206d757374206e6f742062652063616c\n        /* \"#utility.yul\":5899:5917   */\n      0x44\n      dup3\n      add\n        /* \"#utility.yul\":5892:5954   */\n      mstore\n        /* \"#utility.yul\":5990:6016   */\n      0x6c6564207468726f7567682064656c656761746563616c6c0000000000000000\n        /* \"#utility.yul\":5970:5988   */\n      0x64\n      dup3\n      add\n        /* \"#utility.yul\":5963:6017   */\n      mstore\n        /* \"#utility.yul\":6034:6053   */\n      0x84\n      add\n        /* \"@openzeppelin/contracts-upgradeable@4.8.0/proxy/utils/UUPSUpgradeable.sol\":2308:2400  require(address(this) == __self, \"UUPSUpgradeable: must not be called through delegatecall\") */\n      tag_180\n        /* \"#utility.yul\":5639:6059   */\n      jump\n        /* \"@openzeppelin/contracts-upgradeable@4.8.0/proxy/utils/UUPSUpgradeable.sol\":2308:2400  require(address(this) == __self, \"UUPSUpgradeable: must not be called through delegatecall\") */\n    tag_233:\n      pop\n      0x00\n      dup1\n      mload\n      0x20\n      data_75b20eef8615de99c108b05f0dbda081c91897128caa336d75dffb97c4132b4d\n      dup4\n      codecopy\n      dup2\n      mload\n      swap2\n      mstore\n        /* \"@openzeppelin/contracts-upgradeable@4.8.0/proxy/utils/UUPSUpgradeable.sol\":3006:3137  function proxiableUUID() external view virtual override notDelegated returns (bytes32) {... */\n      swap1\n      jump\t// out\n        /* \"@openzeppelin/contracts-upgradeable@4.8.0/access/OwnableUpgradeable.sol\":2071:2172  function renounceOwnership() public virtual onlyOwner {... */\n    tag_110:\n        /* \"@openzeppelin/contracts-upgradeable@4.8.0/access/OwnableUpgradeable.sol\":1334:1347  _checkOwner() */\n      tag_240\n        /* \"@openzeppelin/contracts-upgradeable@4.8.0/access/OwnableUpgradeable.sol\":1334:1345  _checkOwner */\n      tag_204\n        /* \"@openzeppelin/contracts-upgradeable@4.8.0/access/OwnableUpgradeable.sol\":1334:1347  _checkOwner() */\n      jump\t// in\n    tag_240:\n        /* \"@openzeppelin/contracts-upgradeable@4.8.0/access/OwnableUpgradeable.sol\":2135:2165  _transferOwnership(address(0)) */\n      tag_206\n        /* \"@openzeppelin/contracts-upgradeable@4.8.0/access/OwnableUpgradeable.sol\":2162:2163  0 */\n      0x00\n        /* \"@openzeppelin/contracts-upgradeable@4.8.0/access/OwnableUpgradeable.sol\":2135:2153  _transferOwnership */\n      tag_243\n        /* \"@openzeppelin/contracts-upgradeable@4.8.0/access/OwnableUpgradeable.sol\":2135:2165  _transferOwnership(address(0)) */\n      jump\t// in\n        /* \"@openzeppelin/contracts-upgradeable@4.8.0/token/ERC20/extensions/ERC20BurnableUpgradeable.sol\":1243:1404  function burnFrom(address account, uint256 amount) public virtual {... */\n    tag_114:\n        /* \"@openzeppelin/contracts-upgradeable@4.8.0/token/ERC20/extensions/ERC20BurnableUpgradeable.sol\":1319:1365  _spendAllowance(account, _msgSender(), amount) */\n      tag_245\n        /* \"@openzeppelin/contracts-upgradeable@4.8.0/token/ERC20/extensions/ERC20BurnableUpgradeable.sol\":1335:1342  account */\n      dup3\n        /* \"@openzeppelin/contracts-upgradeable@4.8.0/utils/ContextUpgradeable.sol\":929:939  msg.sender */\n      caller\n        /* \"@openzeppelin/contracts-upgradeable@4.8.0/token/ERC20/extensions/ERC20BurnableUpgradeable.sol\":1358:1364  amount */\n      dup4\n        /* \"@openzeppelin/contracts-upgradeable@4.8.0/token/ERC20/extensions/ERC20BurnableUpgradeable.sol\":1319:1334  _spendAllowance */\n      tag_174\n        /* \"@openzeppelin/contracts-upgradeable@4.8.0/token/ERC20/extensions/ERC20BurnableUpgradeable.sol\":1319:1365  _spendAllowance(account, _msgSender(), amount) */\n      jump\t// in\n    tag_245:\n        /* \"@openzeppelin/contracts-upgradeable@4.8.0/token/ERC20/extensions/ERC20BurnableUpgradeable.sol\":1375:1397  _burn(account, amount) */\n      tag_211\n        /* \"@openzeppelin/contracts-upgradeable@4.8.0/token/ERC20/extensions/ERC20BurnableUpgradeable.sol\":1381:1388  account */\n      dup3\n        /* \"@openzeppelin/contracts-upgradeable@4.8.0/token/ERC20/extensions/ERC20BurnableUpgradeable.sol\":1390:1396  amount */\n      dup3\n        /* \"@openzeppelin/contracts-upgradeable@4.8.0/token/ERC20/extensions/ERC20BurnableUpgradeable.sol\":1375:1380  _burn */\n      tag_216\n        /* \"@openzeppelin/contracts-upgradeable@4.8.0/token/ERC20/extensions/ERC20BurnableUpgradeable.sol\":1375:1397  _burn(account, amount) */\n      jump\t// in\n        /* \"contracts/BRNKC.sol\":1308:1621  function initialize() initializer public {... */\n    tag_117:\n        /* \"@openzeppelin/contracts-upgradeable@4.8.0/proxy/utils/Initializable.sol\":3268:3287  bool isTopLevelCall */\n      0x00\n        /* \"@openzeppelin/contracts-upgradeable@4.8.0/proxy/utils/Initializable.sol\":3291:3304  _initializing */\n      sload\n      0x0100\n      swap1\n      div\n      0xff\n      and\n        /* \"@openzeppelin/contracts-upgradeable@4.8.0/proxy/utils/Initializable.sol\":3290:3304  !_initializing */\n      iszero\n      dup1\n        /* \"@openzeppelin/contracts-upgradeable@4.8.0/proxy/utils/Initializable.sol\":3336:3370  isTopLevelCall && _initialized < 1 */\n      dup1\n      iszero\n      tag_249\n      jumpi\n      pop\n        /* \"@openzeppelin/contracts-upgradeable@4.8.0/proxy/utils/Initializable.sol\":3354:3366  _initialized */\n      sload(0x00)\n        /* \"@openzeppelin/contracts-upgradeable@4.8.0/proxy/utils/Initializable.sol\":3369:3370  1 */\n      0x01\n        /* \"@openzeppelin/contracts-upgradeable@4.8.0/proxy/utils/Initializable.sol\":3354:3366  _initialized */\n      0xff\n      swap1\n      swap2\n      and\n        /* \"@openzeppelin/contracts-upgradeable@4.8.0/proxy/utils/Initializable.sol\":3354:3370  _initialized < 1 */\n      lt\n        /* \"@openzeppelin/contracts-upgradeable@4.8.0/proxy/utils/Initializable.sol\":3336:3370  isTopLevelCall && _initialized < 1 */\n    tag_249:\n        /* \"@openzeppelin/contracts-upgradeable@4.8.0/proxy/utils/Initializable.sol\":3335:3443  (isTopLevelCall && _initialized < 1) || (!AddressUpgradeable.isContract(address(this)) && _initialized == 1) */\n      dup1\n      tag_253\n      jumpi\n      pop\n        /* \"@openzeppelin/contracts-upgradeable@4.8.0/proxy/utils/Initializable.sol\":3415:3419  this */\n      address\n        /* \"@openzeppelin/contracts-upgradeable@4.8.0/utils/AddressUpgradeable.sol\":1476:1495  account.code.length */\n      extcodesize\n        /* \"@openzeppelin/contracts-upgradeable@4.8.0/utils/AddressUpgradeable.sol\":1476:1499  account.code.length > 0 */\n      iszero\n      dup1\n      iszero\n        /* \"@openzeppelin/contracts-upgradeable@4.8.0/proxy/utils/Initializable.sol\":3376:3442  !AddressUpgradeable.isContract(address(this)) && _initialized == 1 */\n      tag_253\n      jumpi\n      pop\n        /* \"@openzeppelin/contracts-upgradeable@4.8.0/proxy/utils/Initializable.sol\":3425:3437  _initialized */\n      and(0xff, sload(0x00))\n      0x01\n        /* \"@openzeppelin/contracts-upgradeable@4.8.0/proxy/utils/Initializable.sol\":3425:3442  _initialized == 1 */\n      eq\n        /* \"@openzeppelin/contracts-upgradeable@4.8.0/proxy/utils/Initializable.sol\":3376:3442  !AddressUpgradeable.isContract(address(this)) && _initialized == 1 */\n    tag_253:\n        /* \"@openzeppelin/contracts-upgradeable@4.8.0/proxy/utils/Initializable.sol\":3314:3515  require(... */\n      tag_254\n      jumpi\n      mload(0x40)\n      shl(0xe5, 0x461bcd)\n      dup2\n      mstore\n        /* \"#utility.yul\":6266:6268   */\n      0x20\n        /* \"@openzeppelin/contracts-upgradeable@4.8.0/proxy/utils/Initializable.sol\":3314:3515  require(... */\n      0x04\n      dup3\n      add\n        /* \"#utility.yul\":6248:6269   */\n      mstore\n        /* \"#utility.yul\":6305:6307   */\n      0x2e\n        /* \"#utility.yul\":6285:6303   */\n      0x24\n      dup3\n      add\n        /* \"#utility.yul\":6278:6308   */\n      mstore\n        /* \"#utility.yul\":6344:6378   */\n      0x496e697469616c697a61626c653a20636f6e747261637420697320616c726561\n        /* \"#utility.yul\":6324:6342   */\n      0x44\n      dup3\n      add\n        /* \"#utility.yul\":6317:6379   */\n      mstore\n      shl(0x92, 0x191e481a5b9a5d1a585b1a5e9959)\n        /* \"#utility.yul\":6395:6413   */\n      0x64\n      dup3\n      add\n        /* \"#utility.yul\":6388:6432   */\n      mstore\n        /* \"#utility.yul\":6449:6468   */\n      0x84\n      add\n        /* \"@openzeppelin/contracts-upgradeable@4.8.0/proxy/utils/Initializable.sol\":3314:3515  require(... */\n      tag_180\n        /* \"#utility.yul\":6064:6474   */\n      jump\n        /* \"@openzeppelin/contracts-upgradeable@4.8.0/proxy/utils/Initializable.sol\":3314:3515  require(... */\n    tag_254:\n        /* \"@openzeppelin/contracts-upgradeable@4.8.0/proxy/utils/Initializable.sol\":3525:3537  _initialized */\n      0x00\n        /* \"@openzeppelin/contracts-upgradeable@4.8.0/proxy/utils/Initializable.sol\":3525:3541  _initialized = 1 */\n      dup1\n      sload\n      not(0xff)\n      and\n        /* \"@openzeppelin/contracts-upgradeable@4.8.0/proxy/utils/Initializable.sol\":3540:3541  1 */\n      0x01\n        /* \"@openzeppelin/contracts-upgradeable@4.8.0/proxy/utils/Initializable.sol\":3525:3541  _initialized = 1 */\n      or\n      swap1\n      sstore\n        /* \"@openzeppelin/contracts-upgradeable@4.8.0/proxy/utils/Initializable.sol\":3551:3616  if (isTopLevelCall) {... */\n      dup1\n      iszero\n      tag_257\n      jumpi\n        /* \"@openzeppelin/contracts-upgradeable@4.8.0/proxy/utils/Initializable.sol\":3585:3598  _initializing */\n      0x00\n        /* \"@openzeppelin/contracts-upgradeable@4.8.0/proxy/utils/Initializable.sol\":3585:3605  _initializing = true */\n      dup1\n      sload\n      not(0xff00)\n      and\n      0x0100\n      or\n      swap1\n      sstore\n        /* \"@openzeppelin/contracts-upgradeable@4.8.0/proxy/utils/Initializable.sol\":3551:3616  if (isTopLevelCall) {... */\n    tag_257:\n        /* \"contracts/BRNKC.sol\":1360:1397  __ERC20_init(\"Bear Network\", \"BRNKC\") */\n      tag_259\n      mload(0x40)\n      dup1\n      0x40\n      add\n      0x40\n      mstore\n      dup1\n      0x0c\n      dup2\n      mstore\n      0x20\n      add\n      shl(0xa0, 0x42656172204e6574776f726b)\n      dup2\n      mstore\n      pop\n      mload(0x40)\n      dup1\n      0x40\n      add\n      0x40\n      mstore\n      dup1\n      0x05\n      dup2\n      mstore\n      0x20\n      add\n      shl(0xd8, 0x42524e4b43)\n      dup2\n      mstore\n      pop\n        /* \"contracts/BRNKC.sol\":1360:1372  __ERC20_init */\n      tag_260\n        /* \"contracts/BRNKC.sol\":1360:1397  __ERC20_init(\"Bear Network\", \"BRNKC\") */\n      jump\t// in\n    tag_259:\n        /* \"contracts/BRNKC.sol\":1408:1430  __ERC20Burnable_init() */\n      tag_261\n        /* \"contracts/BRNKC.sol\":1408:1428  __ERC20Burnable_init */\n      tag_262\n        /* \"contracts/BRNKC.sol\":1408:1430  __ERC20Burnable_init() */\n      jump\t// in\n    tag_261:\n        /* \"contracts/BRNKC.sol\":1441:1463  __ERC20Snapshot_init() */\n      tag_263\n        /* \"contracts/BRNKC.sol\":1441:1461  __ERC20Snapshot_init */\n      tag_262\n        /* \"contracts/BRNKC.sol\":1441:1463  __ERC20Snapshot_init() */\n      jump\t// in\n    tag_263:\n        /* \"contracts/BRNKC.sol\":1474:1490  __Ownable_init() */\n      tag_265\n        /* \"contracts/BRNKC.sol\":1474:1488  __Ownable_init */\n      tag_266\n        /* \"contracts/BRNKC.sol\":1474:1490  __Ownable_init() */\n      jump\t// in\n    tag_265:\n        /* \"contracts/BRNKC.sol\":1501:1518  __Pausable_init() */\n      tag_267\n        /* \"contracts/BRNKC.sol\":1501:1516  __Pausable_init */\n      tag_268\n        /* \"contracts/BRNKC.sol\":1501:1518  __Pausable_init() */\n      jump\t// in\n    tag_267:\n        /* \"contracts/BRNKC.sol\":1529:1553  __UUPSUpgradeable_init() */\n      tag_269\n        /* \"contracts/BRNKC.sol\":1529:1551  __UUPSUpgradeable_init */\n      tag_262\n        /* \"contracts/BRNKC.sol\":1529:1553  __UUPSUpgradeable_init() */\n      jump\t// in\n    tag_269:\n        /* \"contracts/BRNKC.sol\":1566:1613  _mint(msg.sender, 100000000 * 10 ** decimals()) */\n      tag_271\n        /* \"contracts/BRNKC.sol\":1572:1582  msg.sender */\n      caller\n        /* \"contracts/BRNKC.sol\":1596:1612  10 ** decimals() */\n      tag_273\n        /* \"@openzeppelin/contracts-upgradeable@4.8.0/token/ERC20/ERC20Upgradeable.sol\":3510:3512  18 */\n      0x12\n        /* \"contracts/BRNKC.sol\":1596:1598  10 */\n      0x0a\n        /* \"contracts/BRNKC.sol\":1596:1612  10 ** decimals() */\n      tag_274\n      jump\t// in\n    tag_273:\n        /* \"contracts/BRNKC.sol\":1584:1612  100000000 * 10 ** decimals() */\n      tag_275\n      swap1\n        /* \"contracts/BRNKC.sol\":1584:1593  100000000 */\n      0x05f5e100\n        /* \"contracts/BRNKC.sol\":1584:1612  100000000 * 10 ** decimals() */\n      tag_276\n      jump\t// in\n    tag_275:\n        /* \"contracts/BRNKC.sol\":1566:1571  _mint */\n      tag_212\n        /* \"contracts/BRNKC.sol\":1566:1613  _mint(msg.sender, 100000000 * 10 ** decimals()) */\n      jump\t// in\n    tag_271:\n        /* \"@openzeppelin/contracts-upgradeable@4.8.0/proxy/utils/Initializable.sol\":3640:3654  isTopLevelCall */\n      dup1\n        /* \"@openzeppelin/contracts-upgradeable@4.8.0/proxy/utils/Initializable.sol\":3636:3735  if (isTopLevelCall) {... */\n      iszero\n      tag_190\n      jumpi\n        /* \"@openzeppelin/contracts-upgradeable@4.8.0/proxy/utils/Initializable.sol\":3686:3691  false */\n      0x00\n        /* \"@openzeppelin/contracts-upgradeable@4.8.0/proxy/utils/Initializable.sol\":3670:3691  _initializing = false */\n      dup1\n      sload\n      not(0xff00)\n      and\n      swap1\n      sstore\n        /* \"@openzeppelin/contracts-upgradeable@4.8.0/proxy/utils/Initializable.sol\":3710:3724  Initialized(1) */\n      mload(0x40)\n      0x01\n        /* \"#utility.yul\":1956:1992   */\n      dup2\n      mstore\n        /* \"@openzeppelin/contracts-upgradeable@4.8.0/proxy/utils/Initializable.sol\":3710:3724  Initialized(1) */\n      0x7f26b83ff96e1f2b6a682f133852f6798a09c465da95921460cefb3847402498\n      swap1\n        /* \"#utility.yul\":1944:1946   */\n      0x20\n        /* \"#utility.yul\":1929:1947   */\n      add\n        /* \"@openzeppelin/contracts-upgradeable@4.8.0/proxy/utils/Initializable.sol\":3710:3724  Initialized(1) */\n      mload(0x40)\n      dup1\n      swap2\n      sub\n      swap1\n      log1\n        /* \"@openzeppelin/contracts-upgradeable@4.8.0/proxy/utils/Initializable.sol\":3258:3741  {... */\n      pop\n        /* \"contracts/BRNKC.sol\":1308:1621  function initialize() initializer public {... */\n      jump\t// out\n        /* \"contracts/BRNKC.sol\":1704:1765  function pause() public onlyOwner {... */\n    tag_120:\n        /* \"@openzeppelin/contracts-upgradeable@4.8.0/access/OwnableUpgradeable.sol\":1334:1347  _checkOwner() */\n      tag_281\n        /* \"@openzeppelin/contracts-upgradeable@4.8.0/access/OwnableUpgradeable.sol\":1334:1345  _checkOwner */\n      tag_204\n        /* \"@openzeppelin/contracts-upgradeable@4.8.0/access/OwnableUpgradeable.sol\":1334:1347  _checkOwner() */\n      jump\t// in\n    tag_281:\n        /* \"contracts/BRNKC.sol\":1749:1757  _pause() */\n      tag_206\n        /* \"contracts/BRNKC.sol\":1749:1755  _pause */\n      tag_284\n        /* \"contracts/BRNKC.sol\":1749:1757  _pause() */\n      jump\t// in\n        /* \"@openzeppelin/contracts-upgradeable@4.8.0/token/ERC20/ERC20Upgradeable.sol\":2702:2804  function symbol() public view virtual override returns (string memory) {... */\n    tag_128:\n        /* \"@openzeppelin/contracts-upgradeable@4.8.0/token/ERC20/ERC20Upgradeable.sol\":2758:2771  string memory */\n      0x60\n        /* \"@openzeppelin/contracts-upgradeable@4.8.0/token/ERC20/ERC20Upgradeable.sol\":2790:2797  _symbol */\n      0x37\n        /* \"@openzeppelin/contracts-upgradeable@4.8.0/token/ERC20/ERC20Upgradeable.sol\":2783:2797  return _symbol */\n      dup1\n      sload\n      tag_159\n      swap1\n      tag_160\n      jump\t// in\n        /* \"contracts/BRNKC.sol\":1629:1696  function snapshot() public onlyOwner {... */\n    tag_132:\n        /* \"@openzeppelin/contracts-upgradeable@4.8.0/access/OwnableUpgradeable.sol\":1334:1347  _checkOwner() */\n      tag_293\n        /* \"@openzeppelin/contracts-upgradeable@4.8.0/access/OwnableUpgradeable.sol\":1334:1345  _checkOwner */\n      tag_204\n        /* \"@openzeppelin/contracts-upgradeable@4.8.0/access/OwnableUpgradeable.sol\":1334:1347  _checkOwner() */\n      jump\t// in\n    tag_293:\n        /* \"contracts/BRNKC.sol\":1677:1688  _snapshot() */\n      tag_190\n        /* \"contracts/BRNKC.sol\":1677:1686  _snapshot */\n      tag_296\n        /* \"contracts/BRNKC.sol\":1677:1688  _snapshot() */\n      jump\t// in\n        /* \"@openzeppelin/contracts-upgradeable@4.8.0/token/ERC20/extensions/ERC20SnapshotUpgradeable.sol\":5673:5903  function totalSupplyAt(uint256 snapshotId) public view virtual returns (uint256) {... */\n    tag_136:\n        /* \"@openzeppelin/contracts-upgradeable@4.8.0/token/ERC20/extensions/ERC20SnapshotUpgradeable.sol\":5745:5752  uint256 */\n      0x00\n        /* \"@openzeppelin/contracts-upgradeable@4.8.0/token/ERC20/extensions/ERC20SnapshotUpgradeable.sol\":5765:5781  bool snapshotted */\n      dup1\n        /* \"@openzeppelin/contracts-upgradeable@4.8.0/token/ERC20/extensions/ERC20SnapshotUpgradeable.sol\":5783:5796  uint256 value */\n      0x00\n        /* \"@openzeppelin/contracts-upgradeable@4.8.0/token/ERC20/extensions/ERC20SnapshotUpgradeable.sol\":5800:5843  _valueAt(snapshotId, _totalSupplySnapshots) */\n      tag_298\n        /* \"@openzeppelin/contracts-upgradeable@4.8.0/token/ERC20/extensions/ERC20SnapshotUpgradeable.sol\":5809:5819  snapshotId */\n      dup5\n        /* \"@openzeppelin/contracts-upgradeable@4.8.0/token/ERC20/extensions/ERC20SnapshotUpgradeable.sol\":5821:5842  _totalSupplySnapshots */\n      0x98\n        /* \"@openzeppelin/contracts-upgradeable@4.8.0/token/ERC20/extensions/ERC20SnapshotUpgradeable.sol\":5800:5808  _valueAt */\n      tag_219\n        /* \"@openzeppelin/contracts-upgradeable@4.8.0/token/ERC20/extensions/ERC20SnapshotUpgradeable.sol\":5800:5843  _valueAt(snapshotId, _totalSupplySnapshots) */\n      jump\t// in\n    tag_298:\n        /* \"@openzeppelin/contracts-upgradeable@4.8.0/token/ERC20/extensions/ERC20SnapshotUpgradeable.sol\":5764:5843  (bool snapshotted, uint256 value) = _valueAt(snapshotId, _totalSupplySnapshots) */\n      swap2\n      pop\n      swap2\n      pop\n        /* \"@openzeppelin/contracts-upgradeable@4.8.0/token/ERC20/extensions/ERC20SnapshotUpgradeable.sol\":5861:5872  snapshotted */\n      dup2\n        /* \"@openzeppelin/contracts-upgradeable@4.8.0/token/ERC20/extensions/ERC20SnapshotUpgradeable.sol\":5861:5896  snapshotted ? value : totalSupply() */\n      tag_299\n      jumpi\n        /* \"@openzeppelin/contracts-upgradeable@4.8.0/token/ERC20/ERC20Upgradeable.sol\":3666:3678  _totalSupply */\n      sload(0x35)\n        /* \"@openzeppelin/contracts-upgradeable@4.8.0/token/ERC20/extensions/ERC20SnapshotUpgradeable.sol\":5861:5896  snapshotted ? value : totalSupply() */\n      jump(tag_301)\n    tag_299:\n        /* \"@openzeppelin/contracts-upgradeable@4.8.0/token/ERC20/extensions/ERC20SnapshotUpgradeable.sol\":5875:5880  value */\n      dup1\n        /* \"@openzeppelin/contracts-upgradeable@4.8.0/token/ERC20/extensions/ERC20SnapshotUpgradeable.sol\":5861:5896  snapshotted ? value : totalSupply() */\n    tag_301:\n        /* \"@openzeppelin/contracts-upgradeable@4.8.0/token/ERC20/extensions/ERC20SnapshotUpgradeable.sol\":5854:5896  return snapshotted ? value : totalSupply() */\n      swap5\n        /* \"@openzeppelin/contracts-upgradeable@4.8.0/token/ERC20/extensions/ERC20SnapshotUpgradeable.sol\":5673:5903  function totalSupplyAt(uint256 snapshotId) public view virtual returns (uint256) {... */\n      swap4\n      pop\n      pop\n      pop\n      pop\n      jump\t// out\n        /* \"@openzeppelin/contracts-upgradeable@4.8.0/token/ERC20/ERC20Upgradeable.sol\":6929:7356  function decreaseAllowance(address spender, uint256 subtractedValue) public virtual returns (bool) {... */\n    tag_141:\n        /* \"@openzeppelin/contracts-upgradeable@4.8.0/token/ERC20/ERC20Upgradeable.sol\":7022:7026  bool */\n      0x00\n        /* \"@openzeppelin/contracts-upgradeable@4.8.0/utils/ContextUpgradeable.sol\":929:939  msg.sender */\n      caller\n        /* \"@openzeppelin/contracts-upgradeable@4.8.0/token/ERC20/ERC20Upgradeable.sol\":7022:7026  bool */\n      dup2\n        /* \"@openzeppelin/contracts-upgradeable@4.8.0/token/ERC20/ERC20Upgradeable.sol\":7103:7128  allowance(owner, spender) */\n      tag_304\n        /* \"@openzeppelin/contracts-upgradeable@4.8.0/utils/ContextUpgradeable.sol\":929:939  msg.sender */\n      dup3\n        /* \"@openzeppelin/contracts-upgradeable@4.8.0/token/ERC20/ERC20Upgradeable.sol\":7120:7127  spender */\n      dup7\n        /* \"@openzeppelin/contracts-upgradeable@4.8.0/token/ERC20/ERC20Upgradeable.sol\":7103:7112  allowance */\n      tag_152\n        /* \"@openzeppelin/contracts-upgradeable@4.8.0/token/ERC20/ERC20Upgradeable.sol\":7103:7128  allowance(owner, spender) */\n      jump\t// in\n    tag_304:\n        /* \"@openzeppelin/contracts-upgradeable@4.8.0/token/ERC20/ERC20Upgradeable.sol\":7076:7128  uint256 currentAllowance = allowance(owner, spender) */\n      swap1\n      pop\n        /* \"@openzeppelin/contracts-upgradeable@4.8.0/token/ERC20/ERC20Upgradeable.sol\":7166:7181  subtractedValue */\n      dup4\n        /* \"@openzeppelin/contracts-upgradeable@4.8.0/token/ERC20/ERC20Upgradeable.sol\":7146:7162  currentAllowance */\n      dup2\n        /* \"@openzeppelin/contracts-upgradeable@4.8.0/token/ERC20/ERC20Upgradeable.sol\":7146:7181  currentAllowance >= subtractedValue */\n      lt\n      iszero\n        /* \"@openzeppelin/contracts-upgradeable@4.8.0/token/ERC20/ERC20Upgradeable.sol\":7138:7223  require(currentAllowance >= subtractedValue, \"ERC20: decreased allowance below zero\") */\n      tag_305\n      jumpi\n      mload(0x40)\n      shl(0xe5, 0x461bcd)\n      dup2\n      mstore\n        /* \"#utility.yul\":8436:8438   */\n      0x20\n        /* \"@openzeppelin/contracts-upgradeable@4.8.0/token/ERC20/ERC20Upgradeable.sol\":7138:7223  require(currentAllowance >= subtractedValue, \"ERC20: decreased allowance below zero\") */\n      0x04\n      dup3\n      add\n        /* \"#utility.yul\":8418:8439   */\n      mstore\n        /* \"#utility.yul\":8475:8477   */\n      0x25\n        /* \"#utility.yul\":8455:8473   */\n      0x24\n      dup3\n      add\n        /* \"#utility.yul\":8448:8478   */\n      mstore\n        /* \"#utility.yul\":8514:8548   */\n      0x45524332303a2064656372656173656420616c6c6f77616e63652062656c6f77\n        /* \"#utility.yul\":8494:8512   */\n      0x44\n      dup3\n      add\n        /* \"#utility.yul\":8487:8549   */\n      mstore\n      shl(0xd8, 0x207a65726f)\n        /* \"#utility.yul\":8565:8583   */\n      0x64\n      dup3\n      add\n        /* \"#utility.yul\":8558:8593   */\n      mstore\n        /* \"#utility.yul\":8610:8629   */\n      0x84\n      add\n        /* \"@openzeppelin/contracts-upgradeable@4.8.0/token/ERC20/ERC20Upgradeable.sol\":7138:7223  require(currentAllowance >= subtractedValue, \"ERC20: decreased allowance below zero\") */\n      tag_180\n        /* \"#utility.yul\":8234:8635   */\n      jump\n        /* \"@openzeppelin/contracts-upgradeable@4.8.0/token/ERC20/ERC20Upgradeable.sol\":7138:7223  require(currentAllowance >= subtractedValue, \"ERC20: decreased allowance below zero\") */\n    tag_305:\n        /* \"@openzeppelin/contracts-upgradeable@4.8.0/token/ERC20/ERC20Upgradeable.sol\":7257:7317  _approve(owner, spender, currentAllowance - subtractedValue) */\n      tag_308\n        /* \"@openzeppelin/contracts-upgradeable@4.8.0/token/ERC20/ERC20Upgradeable.sol\":7266:7271  owner */\n      dup3\n        /* \"@openzeppelin/contracts-upgradeable@4.8.0/token/ERC20/ERC20Upgradeable.sol\":7273:7280  spender */\n      dup7\n        /* \"@openzeppelin/contracts-upgradeable@4.8.0/token/ERC20/ERC20Upgradeable.sol\":7301:7316  subtractedValue */\n      dup7\n        /* \"@openzeppelin/contracts-upgradeable@4.8.0/token/ERC20/ERC20Upgradeable.sol\":7282:7298  currentAllowance */\n      dup5\n        /* \"@openzeppelin/contracts-upgradeable@4.8.0/token/ERC20/ERC20Upgradeable.sol\":7282:7316  currentAllowance - subtractedValue */\n      sub\n        /* \"@openzeppelin/contracts-upgradeable@4.8.0/token/ERC20/ERC20Upgradeable.sol\":7257:7265  _approve */\n      tag_169\n        /* \"@openzeppelin/contracts-upgradeable@4.8.0/token/ERC20/ERC20Upgradeable.sol\":7257:7317  _approve(owner, spender, currentAllowance - subtractedValue) */\n      jump\t// in\n    tag_308:\n      pop\n        /* \"@openzeppelin/contracts-upgradeable@4.8.0/token/ERC20/ERC20Upgradeable.sol\":7345:7349  true */\n      0x01\n      swap5\n        /* \"@openzeppelin/contracts-upgradeable@4.8.0/token/ERC20/ERC20Upgradeable.sol\":6929:7356  function decreaseAllowance(address spender, uint256 subtractedValue) public virtual returns (bool) {... */\n      swap4\n      pop\n      pop\n      pop\n      pop\n      jump\t// out\n        /* \"@openzeppelin/contracts-upgradeable@4.8.0/token/ERC20/ERC20Upgradeable.sol\":4064:4253  function transfer(address to, uint256 amount) public virtual override returns (bool) {... */\n    tag_146:\n        /* \"@openzeppelin/contracts-upgradeable@4.8.0/token/ERC20/ERC20Upgradeable.sol\":4143:4147  bool */\n      0x00\n        /* \"@openzeppelin/contracts-upgradeable@4.8.0/utils/ContextUpgradeable.sol\":929:939  msg.sender */\n      caller\n        /* \"@openzeppelin/contracts-upgradeable@4.8.0/token/ERC20/ERC20Upgradeable.sol\":4197:4225  _transfer(owner, to, amount) */\n      tag_168\n        /* \"@openzeppelin/contracts-upgradeable@4.8.0/utils/ContextUpgradeable.sol\":929:939  msg.sender */\n      dup2\n        /* \"@openzeppelin/contracts-upgradeable@4.8.0/token/ERC20/ERC20Upgradeable.sol\":4214:4216  to */\n      dup6\n        /* \"@openzeppelin/contracts-upgradeable@4.8.0/token/ERC20/ERC20Upgradeable.sol\":4218:4224  amount */\n      dup6\n        /* \"@openzeppelin/contracts-upgradeable@4.8.0/token/ERC20/ERC20Upgradeable.sol\":4197:4206  _transfer */\n      tag_176\n        /* \"@openzeppelin/contracts-upgradeable@4.8.0/token/ERC20/ERC20Upgradeable.sol\":4197:4225  _transfer(owner, to, amount) */\n      jump\t// in\n        /* \"@openzeppelin/contracts-upgradeable@4.8.0/token/ERC20/ERC20Upgradeable.sol\":4311:4460  function allowance(address owner, address spender) public view virtual override returns (uint256) {... */\n    tag_152:\n      sub(shl(0xa0, 0x01), 0x01)\n        /* \"@openzeppelin/contracts-upgradeable@4.8.0/token/ERC20/ERC20Upgradeable.sol\":4426:4444  _allowances[owner] */\n      swap2\n      dup3\n      and\n        /* \"@openzeppelin/contracts-upgradeable@4.8.0/token/ERC20/ERC20Upgradeable.sol\":4400:4407  uint256 */\n      0x00\n        /* \"@openzeppelin/contracts-upgradeable@4.8.0/token/ERC20/ERC20Upgradeable.sol\":4426:4444  _allowances[owner] */\n      swap1\n      dup2\n      mstore\n        /* \"@openzeppelin/contracts-upgradeable@4.8.0/token/ERC20/ERC20Upgradeable.sol\":4426:4437  _allowances */\n      0x34\n        /* \"@openzeppelin/contracts-upgradeable@4.8.0/token/ERC20/ERC20Upgradeable.sol\":4426:4444  _allowances[owner] */\n      0x20\n      swap1\n      dup2\n      mstore\n      0x40\n      dup1\n      dup4\n      keccak256\n        /* \"@openzeppelin/contracts-upgradeable@4.8.0/token/ERC20/ERC20Upgradeable.sol\":4426:4453  _allowances[owner][spender] */\n      swap4\n      swap1\n      swap5\n      and\n      dup3\n      mstore\n      swap2\n      swap1\n      swap2\n      mstore\n      keccak256\n      sload\n      swap1\n        /* \"@openzeppelin/contracts-upgradeable@4.8.0/token/ERC20/ERC20Upgradeable.sol\":4311:4460  function allowance(address owner, address spender) public view virtual override returns (uint256) {... */\n      jump\t// out\n        /* \"@openzeppelin/contracts-upgradeable@4.8.0/access/OwnableUpgradeable.sol\":2321:2519  function transferOwnership(address newOwner) public virtual onlyOwner {... */\n    tag_157:\n        /* \"@openzeppelin/contracts-upgradeable@4.8.0/access/OwnableUpgradeable.sol\":1334:1347  _checkOwner() */\n      tag_314\n        /* \"@openzeppelin/contracts-upgradeable@4.8.0/access/OwnableUpgradeable.sol\":1334:1345  _checkOwner */\n      tag_204\n        /* \"@openzeppelin/contracts-upgradeable@4.8.0/access/OwnableUpgradeable.sol\":1334:1347  _checkOwner() */\n      jump\t// in\n    tag_314:\n      sub(shl(0xa0, 0x01), 0x01)\n        /* \"@openzeppelin/contracts-upgradeable@4.8.0/access/OwnableUpgradeable.sol\":2409:2431  newOwner != address(0) */\n      dup2\n      and\n        /* \"@openzeppelin/contracts-upgradeable@4.8.0/access/OwnableUpgradeable.sol\":2401:2474  require(newOwner != address(0), \"Ownable: new owner is the zero address\") */\n      tag_316\n      jumpi\n      mload(0x40)\n      shl(0xe5, 0x461bcd)\n      dup2\n      mstore\n        /* \"#utility.yul\":8842:8844   */\n      0x20\n        /* \"@openzeppelin/contracts-upgradeable@4.8.0/access/OwnableUpgradeable.sol\":2401:2474  require(newOwner != address(0), \"Ownable: new owner is the zero address\") */\n      0x04\n      dup3\n      add\n        /* \"#utility.yul\":8824:8845   */\n      mstore\n        /* \"#utility.yul\":8881:8883   */\n      0x26\n        /* \"#utility.yul\":8861:8879   */\n      0x24\n      dup3\n      add\n        /* \"#utility.yul\":8854:8884   */\n      mstore\n        /* \"#utility.yul\":8920:8954   */\n      0x4f776e61626c653a206e6577206f776e657220697320746865207a65726f2061\n        /* \"#utility.yul\":8900:8918   */\n      0x44\n      dup3\n      add\n        /* \"#utility.yul\":8893:8955   */\n      mstore\n      shl(0xd0, 0x646472657373)\n        /* \"#utility.yul\":8971:8989   */\n      0x64\n      dup3\n      add\n        /* \"#utility.yul\":8964:9000   */\n      mstore\n        /* \"#utility.yul\":9017:9036   */\n      0x84\n      add\n        /* \"@openzeppelin/contracts-upgradeable@4.8.0/access/OwnableUpgradeable.sol\":2401:2474  require(newOwner != address(0), \"Ownable: new owner is the zero address\") */\n      tag_180\n        /* \"#utility.yul\":8640:9042   */\n      jump\n        /* \"@openzeppelin/contracts-upgradeable@4.8.0/access/OwnableUpgradeable.sol\":2401:2474  require(newOwner != address(0), \"Ownable: new owner is the zero address\") */\n    tag_316:\n        /* \"@openzeppelin/contracts-upgradeable@4.8.0/access/OwnableUpgradeable.sol\":2484:2512  _transferOwnership(newOwner) */\n      tag_190\n        /* \"@openzeppelin/contracts-upgradeable@4.8.0/access/OwnableUpgradeable.sol\":2503:2511  newOwner */\n      dup2\n        /* \"@openzeppelin/contracts-upgradeable@4.8.0/access/OwnableUpgradeable.sol\":2484:2502  _transferOwnership */\n      tag_243\n        /* \"@openzeppelin/contracts-upgradeable@4.8.0/access/OwnableUpgradeable.sol\":2484:2512  _transferOwnership(newOwner) */\n      jump\t// in\n        /* \"@openzeppelin/contracts-upgradeable@4.8.0/token/ERC20/ERC20Upgradeable.sol\":10841:11211  function _approve(... */\n    tag_169:\n      sub(shl(0xa0, 0x01), 0x01)\n        /* \"@openzeppelin/contracts-upgradeable@4.8.0/token/ERC20/ERC20Upgradeable.sol\":10972:10991  owner != address(0) */\n      dup4\n      and\n        /* \"@openzeppelin/contracts-upgradeable@4.8.0/token/ERC20/ERC20Upgradeable.sol\":10964:11032  require(owner != address(0), \"ERC20: approve from the zero address\") */\n      tag_322\n      jumpi\n      mload(0x40)\n      shl(0xe5, 0x461bcd)\n      dup2\n      mstore\n        /* \"#utility.yul\":9249:9251   */\n      0x20\n        /* \"@openzeppelin/contracts-upgradeable@4.8.0/token/ERC20/ERC20Upgradeable.sol\":10964:11032  require(owner != address(0), \"ERC20: approve from the zero address\") */\n      0x04\n      dup3\n      add\n        /* \"#utility.yul\":9231:9252   */\n      mstore\n        /* \"#utility.yul\":9288:9290   */\n      0x24\n        /* \"#utility.yul\":9268:9286   */\n      dup1\n      dup3\n      add\n        /* \"#utility.yul\":9261:9291   */\n      mstore\n        /* \"#utility.yul\":9327:9361   */\n      0x45524332303a20617070726f76652066726f6d20746865207a65726f20616464\n        /* \"#utility.yul\":9307:9325   */\n      0x44\n      dup3\n      add\n        /* \"#utility.yul\":9300:9362   */\n      mstore\n      shl(0xe0, 0x72657373)\n        /* \"#utility.yul\":9378:9396   */\n      0x64\n      dup3\n      add\n        /* \"#utility.yul\":9371:9405   */\n      mstore\n        /* \"#utility.yul\":9422:9441   */\n      0x84\n      add\n        /* \"@openzeppelin/contracts-upgradeable@4.8.0/token/ERC20/ERC20Upgradeable.sol\":10964:11032  require(owner != address(0), \"ERC20: approve from the zero address\") */\n      tag_180\n        /* \"#utility.yul\":9047:9447   */\n      jump\n        /* \"@openzeppelin/contracts-upgradeable@4.8.0/token/ERC20/ERC20Upgradeable.sol\":10964:11032  require(owner != address(0), \"ERC20: approve from the zero address\") */\n    tag_322:\n      sub(shl(0xa0, 0x01), 0x01)\n        /* \"@openzeppelin/contracts-upgradeable@4.8.0/token/ERC20/ERC20Upgradeable.sol\":11050:11071  spender != address(0) */\n      dup3\n      and\n        /* \"@openzeppelin/contracts-upgradeable@4.8.0/token/ERC20/ERC20Upgradeable.sol\":11042:11110  require(spender != address(0), \"ERC20: approve to the zero address\") */\n      tag_325\n      jumpi\n      mload(0x40)\n      shl(0xe5, 0x461bcd)\n      dup2\n      mstore\n        /* \"#utility.yul\":9654:9656   */\n      0x20\n        /* \"@openzeppelin/contracts-upgradeable@4.8.0/token/ERC20/ERC20Upgradeable.sol\":11042:11110  require(spender != address(0), \"ERC20: approve to the zero address\") */\n      0x04\n      dup3\n      add\n        /* \"#utility.yul\":9636:9657   */\n      mstore\n        /* \"#utility.yul\":9693:9695   */\n      0x22\n        /* \"#utility.yul\":9673:9691   */\n      0x24\n      dup3\n      add\n        /* \"#utility.yul\":9666:9696   */\n      mstore\n        /* \"#utility.yul\":9732:9766   */\n      0x45524332303a20617070726f766520746f20746865207a65726f206164647265\n        /* \"#utility.yul\":9712:9730   */\n      0x44\n      dup3\n      add\n        /* \"#utility.yul\":9705:9767   */\n      mstore\n      shl(0xf0, 0x7373)\n        /* \"#utility.yul\":9783:9801   */\n      0x64\n      dup3\n      add\n        /* \"#utility.yul\":9776:9808   */\n      mstore\n        /* \"#utility.yul\":9825:9844   */\n      0x84\n      add\n        /* \"@openzeppelin/contracts-upgradeable@4.8.0/token/ERC20/ERC20Upgradeable.sol\":11042:11110  require(spender != address(0), \"ERC20: approve to the zero address\") */\n      tag_180\n        /* \"#utility.yul\":9452:9850   */\n      jump\n        /* \"@openzeppelin/contracts-upgradeable@4.8.0/token/ERC20/ERC20Upgradeable.sol\":11042:11110  require(spender != address(0), \"ERC20: approve to the zero address\") */\n    tag_325:\n      sub(shl(0xa0, 0x01), 0x01)\n        /* \"@openzeppelin/contracts-upgradeable@4.8.0/token/ERC20/ERC20Upgradeable.sol\":11121:11139  _allowances[owner] */\n      dup4\n      dup2\n      and\n      0x00\n      dup2\n      dup2\n      mstore\n        /* \"@openzeppelin/contracts-upgradeable@4.8.0/token/ERC20/ERC20Upgradeable.sol\":11121:11132  _allowances */\n      0x34\n        /* \"@openzeppelin/contracts-upgradeable@4.8.0/token/ERC20/ERC20Upgradeable.sol\":11121:11139  _allowances[owner] */\n      0x20\n      swap1\n      dup2\n      mstore\n      0x40\n      dup1\n      dup4\n      keccak256\n        /* \"@openzeppelin/contracts-upgradeable@4.8.0/token/ERC20/ERC20Upgradeable.sol\":11121:11148  _allowances[owner][spender] */\n      swap5\n      dup8\n      and\n      dup1\n      dup5\n      mstore\n      swap5\n      dup3\n      mstore\n      swap2\n      dup3\n      swap1\n      keccak256\n        /* \"@openzeppelin/contracts-upgradeable@4.8.0/token/ERC20/ERC20Upgradeable.sol\":11121:11157  _allowances[owner][spender] = amount */\n      dup6\n      swap1\n      sstore\n        /* \"@openzeppelin/contracts-upgradeable@4.8.0/token/ERC20/ERC20Upgradeable.sol\":11172:11204  Approval(owner, spender, amount) */\n      swap1\n      mload\n        /* \"#utility.yul\":1445:1470   */\n      dup5\n      dup2\n      mstore\n        /* \"@openzeppelin/contracts-upgradeable@4.8.0/token/ERC20/ERC20Upgradeable.sol\":11172:11204  Approval(owner, spender, amount) */\n      0x8c5be1e5ebec7d5bd14f71427d1e84f3dd0314c0f7b2291e5b200ac8c7c3b925\n      swap2\n        /* \"#utility.yul\":1418:1436   */\n      add\n        /* \"@openzeppelin/contracts-upgradeable@4.8.0/token/ERC20/ERC20Upgradeable.sol\":11172:11204  Approval(owner, spender, amount) */\n      mload(0x40)\n      dup1\n      swap2\n      sub\n      swap1\n      log3\n        /* \"@openzeppelin/contracts-upgradeable@4.8.0/token/ERC20/ERC20Upgradeable.sol\":10841:11211  function _approve(... */\n      pop\n      pop\n      pop\n      jump\t// out\n        /* \"@openzeppelin/contracts-upgradeable@4.8.0/token/ERC20/ERC20Upgradeable.sol\":11492:11933  function _spendAllowance(... */\n    tag_174:\n        /* \"@openzeppelin/contracts-upgradeable@4.8.0/token/ERC20/ERC20Upgradeable.sol\":11622:11646  uint256 currentAllowance */\n      0x00\n        /* \"@openzeppelin/contracts-upgradeable@4.8.0/token/ERC20/ERC20Upgradeable.sol\":11649:11674  allowance(owner, spender) */\n      tag_330\n        /* \"@openzeppelin/contracts-upgradeable@4.8.0/token/ERC20/ERC20Upgradeable.sol\":11659:11664  owner */\n      dup5\n        /* \"@openzeppelin/contracts-upgradeable@4.8.0/token/ERC20/ERC20Upgradeable.sol\":11666:11673  spender */\n      dup5\n        /* \"@openzeppelin/contracts-upgradeable@4.8.0/token/ERC20/ERC20Upgradeable.sol\":11649:11658  allowance */\n      tag_152\n        /* \"@openzeppelin/contracts-upgradeable@4.8.0/token/ERC20/ERC20Upgradeable.sol\":11649:11674  allowance(owner, spender) */\n      jump\t// in\n    tag_330:\n        /* \"@openzeppelin/contracts-upgradeable@4.8.0/token/ERC20/ERC20Upgradeable.sol\":11622:11674  uint256 currentAllowance = allowance(owner, spender) */\n      swap1\n      pop\n      not(0x00)\n        /* \"@openzeppelin/contracts-upgradeable@4.8.0/token/ERC20/ERC20Upgradeable.sol\":11688:11704  currentAllowance */\n      dup2\n        /* \"@openzeppelin/contracts-upgradeable@4.8.0/token/ERC20/ERC20Upgradeable.sol\":11688:11725  currentAllowance != type(uint256).max */\n      eq\n        /* \"@openzeppelin/contracts-upgradeable@4.8.0/token/ERC20/ERC20Upgradeable.sol\":11684:11927  if (currentAllowance != type(uint256).max) {... */\n      tag_335\n      jumpi\n        /* \"@openzeppelin/contracts-upgradeable@4.8.0/token/ERC20/ERC20Upgradeable.sol\":11769:11775  amount */\n      dup2\n        /* \"@openzeppelin/contracts-upgradeable@4.8.0/token/ERC20/ERC20Upgradeable.sol\":11749:11765  currentAllowance */\n      dup2\n        /* \"@openzeppelin/contracts-upgradeable@4.8.0/token/ERC20/ERC20Upgradeable.sol\":11749:11775  currentAllowance >= amount */\n      lt\n      iszero\n        /* \"@openzeppelin/contracts-upgradeable@4.8.0/token/ERC20/ERC20Upgradeable.sol\":11741:11809  require(currentAllowance >= amount, \"ERC20: insufficient allowance\") */\n      tag_332\n      jumpi\n      mload(0x40)\n      shl(0xe5, 0x461bcd)\n      dup2\n      mstore\n        /* \"#utility.yul\":10057:10059   */\n      0x20\n        /* \"@openzeppelin/contracts-upgradeable@4.8.0/token/ERC20/ERC20Upgradeable.sol\":11741:11809  require(currentAllowance >= amount, \"ERC20: insufficient allowance\") */\n      0x04\n      dup3\n      add\n        /* \"#utility.yul\":10039:10060   */\n      mstore\n        /* \"#utility.yul\":10096:10098   */\n      0x1d\n        /* \"#utility.yul\":10076:10094   */\n      0x24\n      dup3\n      add\n        /* \"#utility.yul\":10069:10099   */\n      mstore\n        /* \"#utility.yul\":10135:10166   */\n      0x45524332303a20696e73756666696369656e7420616c6c6f77616e6365000000\n        /* \"#utility.yul\":10115:10133   */\n      0x44\n      dup3\n      add\n        /* \"#utility.yul\":10108:10167   */\n      mstore\n        /* \"#utility.yul\":10184:10202   */\n      0x64\n      add\n        /* \"@openzeppelin/contracts-upgradeable@4.8.0/token/ERC20/ERC20Upgradeable.sol\":11741:11809  require(currentAllowance >= amount, \"ERC20: insufficient allowance\") */\n      tag_180\n        /* \"#utility.yul\":9855:10208   */\n      jump\n        /* \"@openzeppelin/contracts-upgradeable@4.8.0/token/ERC20/ERC20Upgradeable.sol\":11741:11809  require(currentAllowance >= amount, \"ERC20: insufficient allowance\") */\n    tag_332:\n        /* \"@openzeppelin/contracts-upgradeable@4.8.0/token/ERC20/ERC20Upgradeable.sol\":11851:11902  _approve(owner, spender, currentAllowance - amount) */\n      tag_335\n        /* \"@openzeppelin/contracts-upgradeable@4.8.0/token/ERC20/ERC20Upgradeable.sol\":11860:11865  owner */\n      dup5\n        /* \"@openzeppelin/contracts-upgradeable@4.8.0/token/ERC20/ERC20Upgradeable.sol\":11867:11874  spender */\n      dup5\n        /* \"@openzeppelin/contracts-upgradeable@4.8.0/token/ERC20/ERC20Upgradeable.sol\":11895:11901  amount */\n      dup5\n        /* \"@openzeppelin/contracts-upgradeable@4.8.0/token/ERC20/ERC20Upgradeable.sol\":11876:11892  currentAllowance */\n      dup5\n        /* \"@openzeppelin/contracts-upgradeable@4.8.0/token/ERC20/ERC20Upgradeable.sol\":11876:11901  currentAllowance - amount */\n      sub\n        /* \"@openzeppelin/contracts-upgradeable@4.8.0/token/ERC20/ERC20Upgradeable.sol\":11851:11859  _approve */\n      tag_169\n        /* \"@openzeppelin/contracts-upgradeable@4.8.0/token/ERC20/ERC20Upgradeable.sol\":11851:11902  _approve(owner, spender, currentAllowance - amount) */\n      jump\t// in\n    tag_335:\n        /* \"@openzeppelin/contracts-upgradeable@4.8.0/token/ERC20/ERC20Upgradeable.sol\":11612:11933  {... */\n      pop\n        /* \"@openzeppelin/contracts-upgradeable@4.8.0/token/ERC20/ERC20Upgradeable.sol\":11492:11933  function _spendAllowance(... */\n      pop\n      pop\n      pop\n      jump\t// out\n        /* \"@openzeppelin/contracts-upgradeable@4.8.0/token/ERC20/ERC20Upgradeable.sol\":7810:8628  function _transfer(... */\n    tag_176:\n      sub(shl(0xa0, 0x01), 0x01)\n        /* \"@openzeppelin/contracts-upgradeable@4.8.0/token/ERC20/ERC20Upgradeable.sol\":7936:7954  from != address(0) */\n      dup4\n      and\n        /* \"@openzeppelin/contracts-upgradeable@4.8.0/token/ERC20/ERC20Upgradeable.sol\":7928:7996  require(from != address(0), \"ERC20: transfer from the zero address\") */\n      tag_337\n      jumpi\n      mload(0x40)\n      shl(0xe5, 0x461bcd)\n      dup2\n      mstore\n        /* \"#utility.yul\":10415:10417   */\n      0x20\n        /* \"@openzeppelin/contracts-upgradeable@4.8.0/token/ERC20/ERC20Upgradeable.sol\":7928:7996  require(from != address(0), \"ERC20: transfer from the zero address\") */\n      0x04\n      dup3\n      add\n        /* \"#utility.yul\":10397:10418   */\n      mstore\n        /* \"#utility.yul\":10454:10456   */\n      0x25\n        /* \"#utility.yul\":10434:10452   */\n      0x24\n      dup3\n      add\n        /* \"#utility.yul\":10427:10457   */\n      mstore\n        /* \"#utility.yul\":10493:10527   */\n      0x45524332303a207472616e736665722066726f6d20746865207a65726f206164\n        /* \"#utility.yul\":10473:10491   */\n      0x44\n      dup3\n      add\n        /* \"#utility.yul\":10466:10528   */\n      mstore\n      shl(0xd8, 0x6472657373)\n        /* \"#utility.yul\":10544:10562   */\n      0x64\n      dup3\n      add\n        /* \"#utility.yul\":10537:10572   */\n      mstore\n        /* \"#utility.yul\":10589:10608   */\n      0x84\n      add\n        /* \"@openzeppelin/contracts-upgradeable@4.8.0/token/ERC20/ERC20Upgradeable.sol\":7928:7996  require(from != address(0), \"ERC20: transfer from the zero address\") */\n      tag_180\n        /* \"#utility.yul\":10213:10614   */\n      jump\n        /* \"@openzeppelin/contracts-upgradeable@4.8.0/token/ERC20/ERC20Upgradeable.sol\":7928:7996  require(from != address(0), \"ERC20: transfer from the zero address\") */\n    tag_337:\n      sub(shl(0xa0, 0x01), 0x01)\n        /* \"@openzeppelin/contracts-upgradeable@4.8.0/token/ERC20/ERC20Upgradeable.sol\":8014:8030  to != address(0) */\n      dup3\n      and\n        /* \"@openzeppelin/contracts-upgradeable@4.8.0/token/ERC20/ERC20Upgradeable.sol\":8006:8070  require(to != address(0), \"ERC20: transfer to the zero address\") */\n      tag_340\n      jumpi\n      mload(0x40)\n      shl(0xe5, 0x461bcd)\n      dup2\n      mstore\n        /* \"#utility.yul\":10821:10823   */\n      0x20\n        /* \"@openzeppelin/contracts-upgradeable@4.8.0/token/ERC20/ERC20Upgradeable.sol\":8006:8070  require(to != address(0), \"ERC20: transfer to the zero address\") */\n      0x04\n      dup3\n      add\n        /* \"#utility.yul\":10803:10824   */\n      mstore\n        /* \"#utility.yul\":10860:10862   */\n      0x23\n        /* \"#utility.yul\":10840:10858   */\n      0x24\n      dup3\n      add\n        /* \"#utility.yul\":10833:10863   */\n      mstore\n        /* \"#utility.yul\":10899:10933   */\n      0x45524332303a207472616e7366657220746f20746865207a65726f2061646472\n        /* \"#utility.yul\":10879:10897   */\n      0x44\n      dup3\n      add\n        /* \"#utility.yul\":10872:10934   */\n      mstore\n      shl(0xe8, 0x657373)\n        /* \"#utility.yul\":10950:10968   */\n      0x64\n      dup3\n      add\n        /* \"#utility.yul\":10943:10976   */\n      mstore\n        /* \"#utility.yul\":10993:11012   */\n      0x84\n      add\n        /* \"@openzeppelin/contracts-upgradeable@4.8.0/token/ERC20/ERC20Upgradeable.sol\":8006:8070  require(to != address(0), \"ERC20: transfer to the zero address\") */\n      tag_180\n        /* \"#utility.yul\":10619:11018   */\n      jump\n        /* \"@openzeppelin/contracts-upgradeable@4.8.0/token/ERC20/ERC20Upgradeable.sol\":8006:8070  require(to != address(0), \"ERC20: transfer to the zero address\") */\n    tag_340:\n        /* \"@openzeppelin/contracts-upgradeable@4.8.0/token/ERC20/ERC20Upgradeable.sol\":8081:8119  _beforeTokenTransfer(from, to, amount) */\n      tag_343\n        /* \"@openzeppelin/contracts-upgradeable@4.8.0/token/ERC20/ERC20Upgradeable.sol\":8102:8106  from */\n      dup4\n        /* \"@openzeppelin/contracts-upgradeable@4.8.0/token/ERC20/ERC20Upgradeable.sol\":8108:8110  to */\n      dup4\n        /* \"@openzeppelin/contracts-upgradeable@4.8.0/token/ERC20/ERC20Upgradeable.sol\":8112:8118  amount */\n      dup4\n        /* \"@openzeppelin/contracts-upgradeable@4.8.0/token/ERC20/ERC20Upgradeable.sol\":8081:8101  _beforeTokenTransfer */\n      tag_344\n        /* \"@openzeppelin/contracts-upgradeable@4.8.0/token/ERC20/ERC20Upgradeable.sol\":8081:8119  _beforeTokenTransfer(from, to, amount) */\n      jump\t// in\n    tag_343:\n      sub(shl(0xa0, 0x01), 0x01)\n        /* \"@openzeppelin/contracts-upgradeable@4.8.0/token/ERC20/ERC20Upgradeable.sol\":8152:8167  _balances[from] */\n      dup4\n      and\n        /* \"@openzeppelin/contracts-upgradeable@4.8.0/token/ERC20/ERC20Upgradeable.sol\":8130:8149  uint256 fromBalance */\n      0x00\n        /* \"@openzeppelin/contracts-upgradeable@4.8.0/token/ERC20/ERC20Upgradeable.sol\":8152:8167  _balances[from] */\n      swap1\n      dup2\n      mstore\n        /* \"@openzeppelin/contracts-upgradeable@4.8.0/token/ERC20/ERC20Upgradeable.sol\":8152:8161  _balances */\n      0x33\n        /* \"@openzeppelin/contracts-upgradeable@4.8.0/token/ERC20/ERC20Upgradeable.sol\":8152:8167  _balances[from] */\n      0x20\n      mstore\n      0x40\n      swap1\n      keccak256\n      sload\n        /* \"@openzeppelin/contracts-upgradeable@4.8.0/token/ERC20/ERC20Upgradeable.sol\":8185:8206  fromBalance >= amount */\n      dup2\n      dup2\n      lt\n      iszero\n        /* \"@openzeppelin/contracts-upgradeable@4.8.0/token/ERC20/ERC20Upgradeable.sol\":8177:8249  require(fromBalance >= amount, \"ERC20: transfer amount exceeds balance\") */\n      tag_345\n      jumpi\n      mload(0x40)\n      shl(0xe5, 0x461bcd)\n      dup2\n      mstore\n        /* \"#utility.yul\":11225:11227   */\n      0x20\n        /* \"@openzeppelin/contracts-upgradeable@4.8.0/token/ERC20/ERC20Upgradeable.sol\":8177:8249  require(fromBalance >= amount, \"ERC20: transfer amount exceeds balance\") */\n      0x04\n      dup3\n      add\n        /* \"#utility.yul\":11207:11228   */\n      mstore\n        /* \"#utility.yul\":11264:11266   */\n      0x26\n        /* \"#utility.yul\":11244:11262   */\n      0x24\n      dup3\n      add\n        /* \"#utility.yul\":11237:11267   */\n      mstore\n        /* \"#utility.yul\":11303:11337   */\n      0x45524332303a207472616e7366657220616d6f756e7420657863656564732062\n        /* \"#utility.yul\":11283:11301   */\n      0x44\n      dup3\n      add\n        /* \"#utility.yul\":11276:11338   */\n      mstore\n      shl(0xd0, 0x616c616e6365)\n        /* \"#utility.yul\":11354:11372   */\n      0x64\n      dup3\n      add\n        /* \"#utility.yul\":11347:11383   */\n      mstore\n        /* \"#utility.yul\":11400:11419   */\n      0x84\n      add\n        /* \"@openzeppelin/contracts-upgradeable@4.8.0/token/ERC20/ERC20Upgradeable.sol\":8177:8249  require(fromBalance >= amount, \"ERC20: transfer amount exceeds balance\") */\n      tag_180\n        /* \"#utility.yul\":11023:11425   */\n      jump\n        /* \"@openzeppelin/contracts-upgradeable@4.8.0/token/ERC20/ERC20Upgradeable.sol\":8177:8249  require(fromBalance >= amount, \"ERC20: transfer amount exceeds balance\") */\n    tag_345:\n      sub(shl(0xa0, 0x01), 0x01)\n        /* \"@openzeppelin/contracts-upgradeable@4.8.0/token/ERC20/ERC20Upgradeable.sol\":8283:8298  _balances[from] */\n      dup1\n      dup6\n      and\n      0x00\n      dup2\n      dup2\n      mstore\n        /* \"@openzeppelin/contracts-upgradeable@4.8.0/token/ERC20/ERC20Upgradeable.sol\":8283:8292  _balances */\n      0x33\n        /* \"@openzeppelin/contracts-upgradeable@4.8.0/token/ERC20/ERC20Upgradeable.sol\":8283:8298  _balances[from] */\n      0x20\n      mstore\n      0x40\n      dup1\n      dup3\n      keccak256\n        /* \"@openzeppelin/contracts-upgradeable@4.8.0/token/ERC20/ERC20Upgradeable.sol\":8301:8321  fromBalance - amount */\n      dup7\n      dup7\n      sub\n        /* \"@openzeppelin/contracts-upgradeable@4.8.0/token/ERC20/ERC20Upgradeable.sol\":8283:8321  _balances[from] = fromBalance - amount */\n      swap1\n      sstore\n        /* \"@openzeppelin/contracts-upgradeable@4.8.0/token/ERC20/ERC20Upgradeable.sol\":8498:8511  _balances[to] */\n      swap3\n      dup7\n      and\n      dup1\n      dup3\n      mstore\n      swap1\n      dup4\n      swap1\n      keccak256\n        /* \"@openzeppelin/contracts-upgradeable@4.8.0/token/ERC20/ERC20Upgradeable.sol\":8498:8521  _balances[to] += amount */\n      dup1\n      sload\n      dup7\n      add\n      swap1\n      sstore\n        /* \"@openzeppelin/contracts-upgradeable@4.8.0/token/ERC20/ERC20Upgradeable.sol\":8547:8573  Transfer(from, to, amount) */\n      swap2\n      mload\n      0xddf252ad1be2c89b69c2b068fc378daa952ba7f163c4a11628f55a4df523b3ef\n      swap1\n      tag_348\n      swap1\n        /* \"@openzeppelin/contracts-upgradeable@4.8.0/token/ERC20/ERC20Upgradeable.sol\":8315:8321  amount */\n      dup7\n        /* \"#utility.yul\":1445:1470   */\n      dup2\n      mstore\n        /* \"#utility.yul\":1433:1435   */\n      0x20\n        /* \"#utility.yul\":1418:1436   */\n      add\n      swap1\n        /* \"#utility.yul\":1299:1476   */\n      jump\n        /* \"@openzeppelin/contracts-upgradeable@4.8.0/token/ERC20/ERC20Upgradeable.sol\":8547:8573  Transfer(from, to, amount) */\n    tag_348:\n      mload(0x40)\n      dup1\n      swap2\n      sub\n      swap1\n      log3\n        /* \"@openzeppelin/contracts-upgradeable@4.8.0/token/ERC20/ERC20Upgradeable.sol\":8584:8621  _afterTokenTransfer(from, to, amount) */\n      tag_335\n        /* \"@openzeppelin/contracts-upgradeable@4.8.0/proxy/ERC1967/ERC1967UpgradeUpgradeable.sol\":2938:3912  function _upgradeToAndCallUUPS(... */\n      jump\n        /* \"contracts/BRNKC.sol\":2200:2316  function _authorizeUpgrade(address newImplementation)... */\n    tag_189:\n        /* \"@openzeppelin/contracts-upgradeable@4.8.0/access/OwnableUpgradeable.sol\":1334:1347  _checkOwner() */\n      tag_190\n        /* \"@openzeppelin/contracts-upgradeable@4.8.0/access/OwnableUpgradeable.sol\":1334:1345  _checkOwner */\n      tag_204\n        /* \"@openzeppelin/contracts-upgradeable@4.8.0/access/OwnableUpgradeable.sol\":1334:1347  _checkOwner() */\n      jump\t// in\n        /* \"@openzeppelin/contracts-upgradeable@4.8.0/proxy/ERC1967/ERC1967UpgradeUpgradeable.sol\":2938:3912  function _upgradeToAndCallUUPS(... */\n    tag_195:\n        /* \"@openzeppelin/contracts-upgradeable@4.8.0/proxy/ERC1967/ERC1967UpgradeUpgradeable.sol\":951:1017  0x4910fdfa16fed3260ed0e7147f7cc6da11a60208b5b9406d12a635614ffd9143 */\n      0x4910fdfa16fed3260ed0e7147f7cc6da11a60208b5b9406d12a635614ffd9143\n        /* \"@openzeppelin/contracts-upgradeable@4.8.0/proxy/ERC1967/ERC1967UpgradeUpgradeable.sol\":3384:3443  StorageSlotUpgradeable.getBooleanSlot(_ROLLBACK_SLOT).value */\n      sload\n      0xff\n      and\n        /* \"@openzeppelin/contracts-upgradeable@4.8.0/proxy/ERC1967/ERC1967UpgradeUpgradeable.sol\":3380:3906  if (StorageSlotUpgradeable.getBooleanSlot(_ROLLBACK_SLOT).value) {... */\n      iszero\n      tag_360\n      jumpi\n        /* \"@openzeppelin/contracts-upgradeable@4.8.0/proxy/ERC1967/ERC1967UpgradeUpgradeable.sol\":3459:3496  _setImplementation(newImplementation) */\n      tag_361\n        /* \"@openzeppelin/contracts-upgradeable@4.8.0/proxy/ERC1967/ERC1967UpgradeUpgradeable.sol\":3478:3495  newImplementation */\n      dup4\n        /* \"@openzeppelin/contracts-upgradeable@4.8.0/proxy/ERC1967/ERC1967UpgradeUpgradeable.sol\":3459:3477  _setImplementation */\n      tag_362\n        /* \"@openzeppelin/contracts-upgradeable@4.8.0/proxy/ERC1967/ERC1967UpgradeUpgradeable.sol\":3459:3496  _setImplementation(newImplementation) */\n      jump\t// in\n    tag_361:\n        /* \"@openzeppelin/contracts-upgradeable@4.8.0/proxy/ERC1967/ERC1967UpgradeUpgradeable.sol\":2938:3912  function _upgradeToAndCallUUPS(... */\n      pop\n      pop\n      pop\n      jump\t// out\n        /* \"@openzeppelin/contracts-upgradeable@4.8.0/proxy/ERC1967/ERC1967UpgradeUpgradeable.sol\":3380:3906  if (StorageSlotUpgradeable.getBooleanSlot(_ROLLBACK_SLOT).value) {... */\n    tag_360:\n        /* \"@openzeppelin/contracts-upgradeable@4.8.0/proxy/ERC1967/ERC1967UpgradeUpgradeable.sol\":3560:3577  newImplementation */\n      dup3\n      sub(shl(0xa0, 0x01), 0x01)\n        /* \"@openzeppelin/contracts-upgradeable@4.8.0/proxy/ERC1967/ERC1967UpgradeUpgradeable.sol\":3531:3592  IERC1822ProxiableUpgradeable(newImplementation).proxiableUUID */\n      and\n      0x52d1902d\n        /* \"@openzeppelin/contracts-upgradeable@4.8.0/proxy/ERC1967/ERC1967UpgradeUpgradeable.sol\":3531:3594  IERC1822ProxiableUpgradeable(newImplementation).proxiableUUID() */\n      mload(0x40)\n      dup2\n      0xffffffff\n      and\n      0xe0\n      shl\n      dup2\n      mstore\n      0x04\n      add\n      0x20\n      mload(0x40)\n      dup1\n      dup4\n      sub\n      dup2\n      dup7\n      gas\n      staticcall\n      swap3\n      pop\n      pop\n      pop\n      dup1\n      iszero\n      tag_364\n      jumpi\n      pop\n      0x40\n      dup1\n      mload\n      0x1f\n      returndatasize\n      swap1\n      dup2\n      add\n      not(0x1f)\n      and\n      dup3\n      add\n      swap1\n      swap3\n      mstore\n      tag_365\n      swap2\n      dup2\n      add\n      swap1\n      tag_366\n      jump\t// in\n    tag_365:\n      0x01\n    tag_364:\n        /* \"@openzeppelin/contracts-upgradeable@4.8.0/proxy/ERC1967/ERC1967UpgradeUpgradeable.sol\":3527:3829  try IERC1822ProxiableUpgradeable(newImplementation).proxiableUUID() returns (bytes32 slot) {... */\n      tag_367\n      jumpi\n        /* \"@openzeppelin/contracts-upgradeable@4.8.0/proxy/ERC1967/ERC1967UpgradeUpgradeable.sol\":3758:3814  revert(\"ERC1967Upgrade: new implementation is not UUPS\") */\n      mload(0x40)\n      shl(0xe5, 0x461bcd)\n      dup2\n      mstore\n        /* \"#utility.yul\":11821:11823   */\n      0x20\n        /* \"@openzeppelin/contracts-upgradeable@4.8.0/proxy/ERC1967/ERC1967UpgradeUpgradeable.sol\":3758:3814  revert(\"ERC1967Upgrade: new implementation is not UUPS\") */\n      0x04\n      dup3\n      add\n        /* \"#utility.yul\":11803:11824   */\n      mstore\n        /* \"#utility.yul\":11860:11862   */\n      0x2e\n        /* \"#utility.yul\":11840:11858   */\n      0x24\n      dup3\n      add\n        /* \"#utility.yul\":11833:11863   */\n      mstore\n        /* \"#utility.yul\":11899:11933   */\n      0x45524331393637557067726164653a206e657720696d706c656d656e74617469\n        /* \"#utility.yul\":11879:11897   */\n      0x44\n      dup3\n      add\n        /* \"#utility.yul\":11872:11934   */\n      mstore\n      shl(0x90, 0x6f6e206973206e6f742055555053)\n        /* \"#utility.yul\":11950:11968   */\n      0x64\n      dup3\n      add\n        /* \"#utility.yul\":11943:11987   */\n      mstore\n        /* \"#utility.yul\":12004:12023   */\n      0x84\n      add\n        /* \"@openzeppelin/contracts-upgradeable@4.8.0/proxy/ERC1967/ERC1967UpgradeUpgradeable.sol\":3758:3814  revert(\"ERC1967Upgrade: new implementation is not UUPS\") */\n      tag_180\n        /* \"#utility.yul\":11619:12029   */\n      jump\n        /* \"@openzeppelin/contracts-upgradeable@4.8.0/proxy/ERC1967/ERC1967UpgradeUpgradeable.sol\":3527:3829  try IERC1822ProxiableUpgradeable(newImplementation).proxiableUUID() returns (bytes32 slot) {... */\n    tag_367:\n      0x00\n      dup1\n      mload\n      0x20\n      data_75b20eef8615de99c108b05f0dbda081c91897128caa336d75dffb97c4132b4d\n      dup4\n      codecopy\n      dup2\n      mload\n      swap2\n      mstore\n        /* \"@openzeppelin/contracts-upgradeable@4.8.0/proxy/ERC1967/ERC1967UpgradeUpgradeable.sol\":3644:3672  slot == _IMPLEMENTATION_SLOT */\n      dup2\n      eq\n        /* \"@openzeppelin/contracts-upgradeable@4.8.0/proxy/ERC1967/ERC1967UpgradeUpgradeable.sol\":3636:3718  require(slot == _IMPLEMENTATION_SLOT, \"ERC1967Upgrade: unsupported proxiableUUID\") */\n      tag_374\n      jumpi\n      mload(0x40)\n      shl(0xe5, 0x461bcd)\n      dup2\n      mstore\n        /* \"#utility.yul\":12236:12238   */\n      0x20\n        /* \"@openzeppelin/contracts-upgradeable@4.8.0/proxy/ERC1967/ERC1967UpgradeUpgradeable.sol\":3636:3718  require(slot == _IMPLEMENTATION_SLOT, \"ERC1967Upgrade: unsupported proxiableUUID\") */\n      0x04\n      dup3\n      add\n        /* \"#utility.yul\":12218:12239   */\n      mstore\n        /* \"#utility.yul\":12275:12277   */\n      0x29\n        /* \"#utility.yul\":12255:12273   */\n      0x24\n      dup3\n      add\n        /* \"#utility.yul\":12248:12278   */\n      mstore\n        /* \"#utility.yul\":12314:12348   */\n      0x45524331393637557067726164653a20756e737570706f727465642070726f78\n        /* \"#utility.yul\":12294:12312   */\n      0x44\n      dup3\n      add\n        /* \"#utility.yul\":12287:12349   */\n      mstore\n      shl(0xba, 0x1a58589b1955555251)\n        /* \"#utility.yul\":12365:12383   */\n      0x64\n      dup3\n      add\n        /* \"#utility.yul\":12358:12397   */\n      mstore\n        /* \"#utility.yul\":12414:12433   */\n      0x84\n      add\n        /* \"@openzeppelin/contracts-upgradeable@4.8.0/proxy/ERC1967/ERC1967UpgradeUpgradeable.sol\":3636:3718  require(slot == _IMPLEMENTATION_SLOT, \"ERC1967Upgrade: unsupported proxiableUUID\") */\n      tag_180\n        /* \"#utility.yul\":12034:12439   */\n      jump\n        /* \"@openzeppelin/contracts-upgradeable@4.8.0/proxy/ERC1967/ERC1967UpgradeUpgradeable.sol\":3636:3718  require(slot == _IMPLEMENTATION_SLOT, \"ERC1967Upgrade: unsupported proxiableUUID\") */\n    tag_374:\n        /* \"@openzeppelin/contracts-upgradeable@4.8.0/proxy/ERC1967/ERC1967UpgradeUpgradeable.sol\":3595:3733  returns (bytes32 slot) {... */\n      pop\n        /* \"@openzeppelin/contracts-upgradeable@4.8.0/proxy/ERC1967/ERC1967UpgradeUpgradeable.sol\":3842:3895  _upgradeToAndCall(newImplementation, data, forceCall) */\n      tag_361\n        /* \"@openzeppelin/contracts-upgradeable@4.8.0/proxy/ERC1967/ERC1967UpgradeUpgradeable.sol\":3860:3877  newImplementation */\n      dup4\n        /* \"@openzeppelin/contracts-upgradeable@4.8.0/proxy/ERC1967/ERC1967UpgradeUpgradeable.sol\":3879:3883  data */\n      dup4\n        /* \"@openzeppelin/contracts-upgradeable@4.8.0/proxy/ERC1967/ERC1967UpgradeUpgradeable.sol\":3885:3894  forceCall */\n      dup4\n        /* \"@openzeppelin/contracts-upgradeable@4.8.0/proxy/ERC1967/ERC1967UpgradeUpgradeable.sol\":3842:3859  _upgradeToAndCall */\n      tag_378\n        /* \"@openzeppelin/contracts-upgradeable@4.8.0/proxy/ERC1967/ERC1967UpgradeUpgradeable.sol\":3842:3895  _upgradeToAndCall(newImplementation, data, forceCall) */\n      jump\t// in\n        /* \"@openzeppelin/contracts-upgradeable@4.8.0/access/OwnableUpgradeable.sol\":1599:1729  function _checkOwner() internal view virtual {... */\n    tag_204:\n        /* \"@openzeppelin/contracts-upgradeable@4.8.0/access/OwnableUpgradeable.sol\":1513:1519  _owner */\n      and(sub(shl(0xa0, 0x01), 0x01), sload(0xc9))\n        /* \"@openzeppelin/contracts-upgradeable@4.8.0/utils/ContextUpgradeable.sol\":929:939  msg.sender */\n      caller\n        /* \"@openzeppelin/contracts-upgradeable@4.8.0/access/OwnableUpgradeable.sol\":1662:1685  owner() == _msgSender() */\n      eq\n        /* \"@openzeppelin/contracts-upgradeable@4.8.0/access/OwnableUpgradeable.sol\":1654:1722  require(owner() == _msgSender(), \"Ownable: caller is not the owner\") */\n      tag_206\n      jumpi\n      mload(0x40)\n      shl(0xe5, 0x461bcd)\n      dup2\n      mstore\n        /* \"#utility.yul\":12646:12648   */\n      0x20\n        /* \"@openzeppelin/contracts-upgradeable@4.8.0/access/OwnableUpgradeable.sol\":1654:1722  require(owner() == _msgSender(), \"Ownable: caller is not the owner\") */\n      0x04\n      dup3\n      add\n        /* \"#utility.yul\":12628:12649   */\n      dup2\n      swap1\n      mstore\n        /* \"#utility.yul\":12665:12683   */\n      0x24\n      dup3\n      add\n        /* \"#utility.yul\":12658:12688   */\n      mstore\n        /* \"#utility.yul\":12724:12758   */\n      0x4f776e61626c653a2063616c6c6572206973206e6f7420746865206f776e6572\n        /* \"#utility.yul\":12704:12722   */\n      0x44\n      dup3\n      add\n        /* \"#utility.yul\":12697:12759   */\n      mstore\n        /* \"#utility.yul\":12776:12794   */\n      0x64\n      add\n        /* \"@openzeppelin/contracts-upgradeable@4.8.0/access/OwnableUpgradeable.sol\":1654:1722  require(owner() == _msgSender(), \"Ownable: caller is not the owner\") */\n      tag_180\n        /* \"#utility.yul\":12444:12800   */\n      jump\n        /* \"@openzeppelin/contracts-upgradeable@4.8.0/security/PausableUpgradeable.sol\":2676:2793  function _unpause() internal virtual whenPaused {... */\n    tag_207:\n        /* \"@openzeppelin/contracts-upgradeable@4.8.0/security/PausableUpgradeable.sol\":1729:1745  _requirePaused() */\n      tag_386\n        /* \"@openzeppelin/contracts-upgradeable@4.8.0/security/PausableUpgradeable.sol\":1729:1743  _requirePaused */\n      tag_387\n        /* \"@openzeppelin/contracts-upgradeable@4.8.0/security/PausableUpgradeable.sol\":1729:1745  _requirePaused() */\n      jump\t// in\n    tag_386:\n        /* \"@openzeppelin/contracts-upgradeable@4.8.0/security/PausableUpgradeable.sol\":2734:2741  _paused */\n      0xfb\n        /* \"@openzeppelin/contracts-upgradeable@4.8.0/security/PausableUpgradeable.sol\":2734:2749  _paused = false */\n      dup1\n      sload\n      not(0xff)\n      and\n      swap1\n      sstore\n        /* \"@openzeppelin/contracts-upgradeable@4.8.0/security/PausableUpgradeable.sol\":2764:2786  Unpaused(_msgSender()) */\n      0x5db9ee0a495bf2e6ff9c91a7834c1ba4fdd244a5e8aa4e537bd38aeae4b073aa\n        /* \"@openzeppelin/contracts-upgradeable@4.8.0/utils/ContextUpgradeable.sol\":929:939  msg.sender */\n      caller\n        /* \"@openzeppelin/contracts-upgradeable@4.8.0/security/PausableUpgradeable.sol\":2773:2785  _msgSender() */\n    tag_389:\n        /* \"@openzeppelin/contracts-upgradeable@4.8.0/security/PausableUpgradeable.sol\":2764:2786  Unpaused(_msgSender()) */\n      mload(0x40)\n      sub(shl(0xa0, 0x01), 0x01)\n        /* \"#utility.yul\":3857:3889   */\n      swap1\n      swap2\n      and\n        /* \"#utility.yul\":3839:3890   */\n      dup2\n      mstore\n        /* \"#utility.yul\":3827:3829   */\n      0x20\n        /* \"#utility.yul\":3812:3830   */\n      add\n        /* \"@openzeppelin/contracts-upgradeable@4.8.0/security/PausableUpgradeable.sol\":2764:2786  Unpaused(_msgSender()) */\n      mload(0x40)\n      dup1\n      swap2\n      sub\n      swap1\n      log1\n        /* \"@openzeppelin/contracts-upgradeable@4.8.0/security/PausableUpgradeable.sol\":2676:2793  function _unpause() internal virtual whenPaused {... */\n      jump\t// out\n        /* \"@openzeppelin/contracts-upgradeable@4.8.0/token/ERC20/ERC20Upgradeable.sol\":8904:9439  function _mint(address account, uint256 amount) internal virtual {... */\n    tag_212:\n      sub(shl(0xa0, 0x01), 0x01)\n        /* \"@openzeppelin/contracts-upgradeable@4.8.0/token/ERC20/ERC20Upgradeable.sol\":8987:9008  account != address(0) */\n      dup3\n      and\n        /* \"@openzeppelin/contracts-upgradeable@4.8.0/token/ERC20/ERC20Upgradeable.sol\":8979:9044  require(account != address(0), \"ERC20: mint to the zero address\") */\n      tag_392\n      jumpi\n      mload(0x40)\n      shl(0xe5, 0x461bcd)\n      dup2\n      mstore\n        /* \"#utility.yul\":13007:13009   */\n      0x20\n        /* \"@openzeppelin/contracts-upgradeable@4.8.0/token/ERC20/ERC20Upgradeable.sol\":8979:9044  require(account != address(0), \"ERC20: mint to the zero address\") */\n      0x04\n      dup3\n      add\n        /* \"#utility.yul\":12989:13010   */\n      mstore\n        /* \"#utility.yul\":13046:13048   */\n      0x1f\n        /* \"#utility.yul\":13026:13044   */\n      0x24\n      dup3\n      add\n        /* \"#utility.yul\":13019:13049   */\n      mstore\n        /* \"#utility.yul\":13085:13118   */\n      0x45524332303a206d696e7420746f20746865207a65726f206164647265737300\n        /* \"#utility.yul\":13065:13083   */\n      0x44\n      dup3\n      add\n        /* \"#utility.yul\":13058:13119   */\n      mstore\n        /* \"#utility.yul\":13136:13154   */\n      0x64\n      add\n        /* \"@openzeppelin/contracts-upgradeable@4.8.0/token/ERC20/ERC20Upgradeable.sol\":8979:9044  require(account != address(0), \"ERC20: mint to the zero address\") */\n      tag_180\n        /* \"#utility.yul\":12805:13160   */\n      jump\n        /* \"@openzeppelin/contracts-upgradeable@4.8.0/token/ERC20/ERC20Upgradeable.sol\":8979:9044  require(account != address(0), \"ERC20: mint to the zero address\") */\n    tag_392:\n        /* \"@openzeppelin/contracts-upgradeable@4.8.0/token/ERC20/ERC20Upgradeable.sol\":9055:9104  _beforeTokenTransfer(address(0), account, amount) */\n      tag_395\n        /* \"@openzeppelin/contracts-upgradeable@4.8.0/token/ERC20/ERC20Upgradeable.sol\":9084:9085  0 */\n      0x00\n        /* \"@openzeppelin/contracts-upgradeable@4.8.0/token/ERC20/ERC20Upgradeable.sol\":9088:9095  account */\n      dup4\n        /* \"@openzeppelin/contracts-upgradeable@4.8.0/token/ERC20/ERC20Upgradeable.sol\":9097:9103  amount */\n      dup4\n        /* \"@openzeppelin/contracts-upgradeable@4.8.0/token/ERC20/ERC20Upgradeable.sol\":9055:9075  _beforeTokenTransfer */\n      tag_344\n        /* \"@openzeppelin/contracts-upgradeable@4.8.0/token/ERC20/ERC20Upgradeable.sol\":9055:9104  _beforeTokenTransfer(address(0), account, amount) */\n      jump\t// in\n    tag_395:\n        /* \"@openzeppelin/contracts-upgradeable@4.8.0/token/ERC20/ERC20Upgradeable.sol\":9131:9137  amount */\n      dup1\n        /* \"@openzeppelin/contracts-upgradeable@4.8.0/token/ERC20/ERC20Upgradeable.sol\":9115:9127  _totalSupply */\n      0x35\n      0x00\n        /* \"@openzeppelin/contracts-upgradeable@4.8.0/token/ERC20/ERC20Upgradeable.sol\":9115:9137  _totalSupply += amount */\n      dup3\n      dup3\n      sload\n      tag_396\n      swap2\n      swap1\n      tag_201\n      jump\t// in\n    tag_396:\n      swap1\n      swap2\n      sstore\n      pop\n      pop\n      sub(shl(0xa0, 0x01), 0x01)\n        /* \"@openzeppelin/contracts-upgradeable@4.8.0/token/ERC20/ERC20Upgradeable.sol\":9283:9301  _balances[account] */\n      dup3\n      and\n      0x00\n      dup2\n      dup2\n      mstore\n        /* \"@openzeppelin/contracts-upgradeable@4.8.0/token/ERC20/ERC20Upgradeable.sol\":9283:9292  _balances */\n      0x33\n        /* \"@openzeppelin/contracts-upgradeable@4.8.0/token/ERC20/ERC20Upgradeable.sol\":9283:9301  _balances[account] */\n      0x20\n      swap1\n      dup2\n      mstore\n      0x40\n      dup1\n      dup4\n      keccak256\n        /* \"@openzeppelin/contracts-upgradeable@4.8.0/token/ERC20/ERC20Upgradeable.sol\":9283:9311  _balances[account] += amount */\n      dup1\n      sload\n      dup7\n      add\n      swap1\n      sstore\n        /* \"@openzeppelin/contracts-upgradeable@4.8.0/token/ERC20/ERC20Upgradeable.sol\":9336:9373  Transfer(address(0), account, amount) */\n      mload\n        /* \"#utility.yul\":1445:1470   */\n      dup5\n      dup2\n      mstore\n        /* \"@openzeppelin/contracts-upgradeable@4.8.0/token/ERC20/ERC20Upgradeable.sol\":9336:9373  Transfer(address(0), account, amount) */\n      0xddf252ad1be2c89b69c2b068fc378daa952ba7f163c4a11628f55a4df523b3ef\n      swap2\n        /* \"#utility.yul\":1418:1436   */\n      add\n        /* \"@openzeppelin/contracts-upgradeable@4.8.0/token/ERC20/ERC20Upgradeable.sol\":9336:9373  Transfer(address(0), account, amount) */\n      mload(0x40)\n      dup1\n      swap2\n      sub\n      swap1\n      log3\n        /* \"contracts/BRNKC.sol\":1846:1941  function mint(address to, uint256 amount) public onlyOwner {... */\n      pop\n      pop\n      jump\t// out\n        /* \"@openzeppelin/contracts-upgradeable@4.8.0/token/ERC20/ERC20Upgradeable.sol\":9759:10418  function _burn(address account, uint256 amount) internal virtual {... */\n    tag_216:\n      sub(shl(0xa0, 0x01), 0x01)\n        /* \"@openzeppelin/contracts-upgradeable@4.8.0/token/ERC20/ERC20Upgradeable.sol\":9842:9863  account != address(0) */\n      dup3\n      and\n        /* \"@openzeppelin/contracts-upgradeable@4.8.0/token/ERC20/ERC20Upgradeable.sol\":9834:9901  require(account != address(0), \"ERC20: burn from the zero address\") */\n      tag_400\n      jumpi\n      mload(0x40)\n      shl(0xe5, 0x461bcd)\n      dup2\n      mstore\n        /* \"#utility.yul\":13367:13369   */\n      0x20\n        /* \"@openzeppelin/contracts-upgradeable@4.8.0/token/ERC20/ERC20Upgradeable.sol\":9834:9901  require(account != address(0), \"ERC20: burn from the zero address\") */\n      0x04\n      dup3\n      add\n        /* \"#utility.yul\":13349:13370   */\n      mstore\n        /* \"#utility.yul\":13406:13408   */\n      0x21\n        /* \"#utility.yul\":13386:13404   */\n      0x24\n      dup3\n      add\n        /* \"#utility.yul\":13379:13409   */\n      mstore\n        /* \"#utility.yul\":13445:13479   */\n      0x45524332303a206275726e2066726f6d20746865207a65726f20616464726573\n        /* \"#utility.yul\":13425:13443   */\n      0x44\n      dup3\n      add\n        /* \"#utility.yul\":13418:13480   */\n      mstore\n      shl(0xf8, 0x73)\n        /* \"#utility.yul\":13496:13514   */\n      0x64\n      dup3\n      add\n        /* \"#utility.yul\":13489:13520   */\n      mstore\n        /* \"#utility.yul\":13537:13556   */\n      0x84\n      add\n        /* \"@openzeppelin/contracts-upgradeable@4.8.0/token/ERC20/ERC20Upgradeable.sol\":9834:9901  require(account != address(0), \"ERC20: burn from the zero address\") */\n      tag_180\n        /* \"#utility.yul\":13165:13562   */\n      jump\n        /* \"@openzeppelin/contracts-upgradeable@4.8.0/token/ERC20/ERC20Upgradeable.sol\":9834:9901  require(account != address(0), \"ERC20: burn from the zero address\") */\n    tag_400:\n        /* \"@openzeppelin/contracts-upgradeable@4.8.0/token/ERC20/ERC20Upgradeable.sol\":9912:9961  _beforeTokenTransfer(account, address(0), amount) */\n      tag_403\n        /* \"@openzeppelin/contracts-upgradeable@4.8.0/token/ERC20/ERC20Upgradeable.sol\":9933:9940  account */\n      dup3\n        /* \"@openzeppelin/contracts-upgradeable@4.8.0/token/ERC20/ERC20Upgradeable.sol\":9950:9951  0 */\n      0x00\n        /* \"@openzeppelin/contracts-upgradeable@4.8.0/token/ERC20/ERC20Upgradeable.sol\":9954:9960  amount */\n      dup4\n        /* \"@openzeppelin/contracts-upgradeable@4.8.0/token/ERC20/ERC20Upgradeable.sol\":9912:9932  _beforeTokenTransfer */\n      tag_344\n        /* \"@openzeppelin/contracts-upgradeable@4.8.0/token/ERC20/ERC20Upgradeable.sol\":9912:9961  _beforeTokenTransfer(account, address(0), amount) */\n      jump\t// in\n    tag_403:\n      sub(shl(0xa0, 0x01), 0x01)\n        /* \"@openzeppelin/contracts-upgradeable@4.8.0/token/ERC20/ERC20Upgradeable.sol\":9997:10015  _balances[account] */\n      dup3\n      and\n        /* \"@openzeppelin/contracts-upgradeable@4.8.0/token/ERC20/ERC20Upgradeable.sol\":9972:9994  uint256 accountBalance */\n      0x00\n        /* \"@openzeppelin/contracts-upgradeable@4.8.0/token/ERC20/ERC20Upgradeable.sol\":9997:10015  _balances[account] */\n      swap1\n      dup2\n      mstore\n        /* \"@openzeppelin/contracts-upgradeable@4.8.0/token/ERC20/ERC20Upgradeable.sol\":9997:10006  _balances */\n      0x33\n        /* \"@openzeppelin/contracts-upgradeable@4.8.0/token/ERC20/ERC20Upgradeable.sol\":9997:10015  _balances[account] */\n      0x20\n      mstore\n      0x40\n      swap1\n      keccak256\n      sload\n        /* \"@openzeppelin/contracts-upgradeable@4.8.0/token/ERC20/ERC20Upgradeable.sol\":10033:10057  accountBalance >= amount */\n      dup2\n      dup2\n      lt\n      iszero\n        /* \"@openzeppelin/contracts-upgradeable@4.8.0/token/ERC20/ERC20Upgradeable.sol\":10025:10096  require(accountBalance >= amount, \"ERC20: burn amount exceeds balance\") */\n      tag_404\n      jumpi\n      mload(0x40)\n      shl(0xe5, 0x461bcd)\n      dup2\n      mstore\n        /* \"#utility.yul\":13769:13771   */\n      0x20\n        /* \"@openzeppelin/contracts-upgradeable@4.8.0/token/ERC20/ERC20Upgradeable.sol\":10025:10096  require(accountBalance >= amount, \"ERC20: burn amount exceeds balance\") */\n      0x04\n      dup3\n      add\n        /* \"#utility.yul\":13751:13772   */\n      mstore\n        /* \"#utility.yul\":13808:13810   */\n      0x22\n        /* \"#utility.yul\":13788:13806   */\n      0x24\n      dup3\n      add\n        /* \"#utility.yul\":13781:13811   */\n      mstore\n        /* \"#utility.yul\":13847:13881   */\n      0x45524332303a206275726e20616d6f756e7420657863656564732062616c616e\n        /* \"#utility.yul\":13827:13845   */\n      0x44\n      dup3\n      add\n        /* \"#utility.yul\":13820:13882   */\n      mstore\n      shl(0xf0, 0x6365)\n        /* \"#utility.yul\":13898:13916   */\n      0x64\n      dup3\n      add\n        /* \"#utility.yul\":13891:13923   */\n      mstore\n        /* \"#utility.yul\":13940:13959   */\n      0x84\n      add\n        /* \"@openzeppelin/contracts-upgradeable@4.8.0/token/ERC20/ERC20Upgradeable.sol\":10025:10096  require(accountBalance >= amount, \"ERC20: burn amount exceeds balance\") */\n      tag_180\n        /* \"#utility.yul\":13567:13965   */\n      jump\n        /* \"@openzeppelin/contracts-upgradeable@4.8.0/token/ERC20/ERC20Upgradeable.sol\":10025:10096  require(accountBalance >= amount, \"ERC20: burn amount exceeds balance\") */\n    tag_404:\n      sub(shl(0xa0, 0x01), 0x01)\n        /* \"@openzeppelin/contracts-upgradeable@4.8.0/token/ERC20/ERC20Upgradeable.sol\":10130:10148  _balances[account] */\n      dup4\n      and\n      0x00\n      dup2\n      dup2\n      mstore\n        /* \"@openzeppelin/contracts-upgradeable@4.8.0/token/ERC20/ERC20Upgradeable.sol\":10130:10139  _balances */\n      0x33\n        /* \"@openzeppelin/contracts-upgradeable@4.8.0/token/ERC20/ERC20Upgradeable.sol\":10130:10148  _balances[account] */\n      0x20\n      swap1\n      dup2\n      mstore\n      0x40\n      dup1\n      dup4\n      keccak256\n        /* \"@openzeppelin/contracts-upgradeable@4.8.0/token/ERC20/ERC20Upgradeable.sol\":10151:10174  accountBalance - amount */\n      dup7\n      dup7\n      sub\n        /* \"@openzeppelin/contracts-upgradeable@4.8.0/token/ERC20/ERC20Upgradeable.sol\":10130:10174  _balances[account] = accountBalance - amount */\n      swap1\n      sstore\n        /* \"@openzeppelin/contracts-upgradeable@4.8.0/token/ERC20/ERC20Upgradeable.sol\":10267:10279  _totalSupply */\n      0x35\n        /* \"@openzeppelin/contracts-upgradeable@4.8.0/token/ERC20/ERC20Upgradeable.sol\":10267:10289  _totalSupply -= amount */\n      dup1\n      sload\n      dup8\n      swap1\n      sub\n      swap1\n      sstore\n        /* \"@openzeppelin/contracts-upgradeable@4.8.0/token/ERC20/ERC20Upgradeable.sol\":10315:10352  Transfer(account, address(0), amount) */\n      mload\n        /* \"#utility.yul\":1445:1470   */\n      dup6\n      dup2\n      mstore\n        /* \"@openzeppelin/contracts-upgradeable@4.8.0/token/ERC20/ERC20Upgradeable.sol\":10130:10148  _balances[account] */\n      swap2\n      swap3\n      swap2\n        /* \"@openzeppelin/contracts-upgradeable@4.8.0/token/ERC20/ERC20Upgradeable.sol\":10315:10352  Transfer(account, address(0), amount) */\n      0xddf252ad1be2c89b69c2b068fc378daa952ba7f163c4a11628f55a4df523b3ef\n      swap2\n        /* \"#utility.yul\":1418:1436   */\n      add\n        /* \"@openzeppelin/contracts-upgradeable@4.8.0/token/ERC20/ERC20Upgradeable.sol\":10315:10352  Transfer(account, address(0), amount) */\n      mload(0x40)\n      dup1\n      swap2\n      sub\n      swap1\n      log3\n        /* \"@openzeppelin/contracts-upgradeable@4.8.0/proxy/ERC1967/ERC1967UpgradeUpgradeable.sol\":2938:3912  function _upgradeToAndCallUUPS(... */\n      pop\n      pop\n      pop\n      jump\t// out\n        /* \"@openzeppelin/contracts-upgradeable@4.8.0/token/ERC20/extensions/ERC20SnapshotUpgradeable.sol\":6724:8318  function _valueAt(uint256 snapshotId, Snapshots storage snapshots) private view returns (bool, uint256) {... */\n    tag_219:\n        /* \"@openzeppelin/contracts-upgradeable@4.8.0/token/ERC20/extensions/ERC20SnapshotUpgradeable.sol\":6813:6817  bool */\n      0x00\n        /* \"@openzeppelin/contracts-upgradeable@4.8.0/token/ERC20/extensions/ERC20SnapshotUpgradeable.sol\":6819:6826  uint256 */\n      dup1\n        /* \"@openzeppelin/contracts-upgradeable@4.8.0/token/ERC20/extensions/ERC20SnapshotUpgradeable.sol\":6859:6860  0 */\n      0x00\n        /* \"@openzeppelin/contracts-upgradeable@4.8.0/token/ERC20/extensions/ERC20SnapshotUpgradeable.sol\":6846:6856  snapshotId */\n      dup5\n        /* \"@openzeppelin/contracts-upgradeable@4.8.0/token/ERC20/extensions/ERC20SnapshotUpgradeable.sol\":6846:6860  snapshotId > 0 */\n      gt\n        /* \"@openzeppelin/contracts-upgradeable@4.8.0/token/ERC20/extensions/ERC20SnapshotUpgradeable.sol\":6838:6887  require(snapshotId > 0, \"ERC20Snapshot: id is 0\") */\n      tag_410\n      jumpi\n      mload(0x40)\n      shl(0xe5, 0x461bcd)\n      dup2\n      mstore\n        /* \"#utility.yul\":14172:14174   */\n      0x20\n        /* \"@openzeppelin/contracts-upgradeable@4.8.0/token/ERC20/extensions/ERC20SnapshotUpgradeable.sol\":6838:6887  require(snapshotId > 0, \"ERC20Snapshot: id is 0\") */\n      0x04\n      dup3\n      add\n        /* \"#utility.yul\":14154:14175   */\n      mstore\n        /* \"#utility.yul\":14211:14213   */\n      0x16\n        /* \"#utility.yul\":14191:14209   */\n      0x24\n      dup3\n      add\n        /* \"#utility.yul\":14184:14214   */\n      mstore\n      shl(0x54, 0x04552433230536e617073686f743a206964206973203)\n        /* \"#utility.yul\":14230:14248   */\n      0x44\n      dup3\n      add\n        /* \"#utility.yul\":14223:14275   */\n      mstore\n        /* \"#utility.yul\":14292:14310   */\n      0x64\n      add\n        /* \"@openzeppelin/contracts-upgradeable@4.8.0/token/ERC20/extensions/ERC20SnapshotUpgradeable.sol\":6838:6887  require(snapshotId > 0, \"ERC20Snapshot: id is 0\") */\n      tag_180\n        /* \"#utility.yul\":13970:14316   */\n      jump\n        /* \"@openzeppelin/contracts-upgradeable@4.8.0/token/ERC20/extensions/ERC20SnapshotUpgradeable.sol\":6838:6887  require(snapshotId > 0, \"ERC20Snapshot: id is 0\") */\n    tag_410:\n        /* \"@openzeppelin/contracts-upgradeable@4.8.0/token/ERC20/extensions/ERC20SnapshotUpgradeable.sol\":6919:6942  _getCurrentSnapshotId() */\n      tag_413\n        /* \"@openzeppelin/contracts-upgradeable@4.8.0/token/ERC20/extensions/ERC20SnapshotUpgradeable.sol\":6919:6940  _getCurrentSnapshotId */\n      tag_414\n        /* \"@openzeppelin/contracts-upgradeable@4.8.0/token/ERC20/extensions/ERC20SnapshotUpgradeable.sol\":6919:6942  _getCurrentSnapshotId() */\n      jump\t// in\n    tag_413:\n        /* \"@openzeppelin/contracts-upgradeable@4.8.0/token/ERC20/extensions/ERC20SnapshotUpgradeable.sol\":6905:6915  snapshotId */\n      dup5\n        /* \"@openzeppelin/contracts-upgradeable@4.8.0/token/ERC20/extensions/ERC20SnapshotUpgradeable.sol\":6905:6942  snapshotId <= _getCurrentSnapshotId() */\n      gt\n      iszero\n        /* \"@openzeppelin/contracts-upgradeable@4.8.0/token/ERC20/extensions/ERC20SnapshotUpgradeable.sol\":6897:6976  require(snapshotId <= _getCurrentSnapshotId(), \"ERC20Snapshot: nonexistent id\") */\n      tag_415\n      jumpi\n      mload(0x40)\n      shl(0xe5, 0x461bcd)\n      dup2\n      mstore\n        /* \"#utility.yul\":14523:14525   */\n      0x20\n        /* \"@openzeppelin/contracts-upgradeable@4.8.0/token/ERC20/extensions/ERC20SnapshotUpgradeable.sol\":6897:6976  require(snapshotId <= _getCurrentSnapshotId(), \"ERC20Snapshot: nonexistent id\") */\n      0x04\n      dup3\n      add\n        /* \"#utility.yul\":14505:14526   */\n      mstore\n        /* \"#utility.yul\":14562:14564   */\n      0x1d\n        /* \"#utility.yul\":14542:14560   */\n      0x24\n      dup3\n      add\n        /* \"#utility.yul\":14535:14565   */\n      mstore\n        /* \"#utility.yul\":14601:14632   */\n      0x4552433230536e617073686f743a206e6f6e6578697374656e74206964000000\n        /* \"#utility.yul\":14581:14599   */\n      0x44\n      dup3\n      add\n        /* \"#utility.yul\":14574:14633   */\n      mstore\n        /* \"#utility.yul\":14650:14668   */\n      0x64\n      add\n        /* \"@openzeppelin/contracts-upgradeable@4.8.0/token/ERC20/extensions/ERC20SnapshotUpgradeable.sol\":6897:6976  require(snapshotId <= _getCurrentSnapshotId(), \"ERC20Snapshot: nonexistent id\") */\n      tag_180\n        /* \"#utility.yul\":14321:14674   */\n      jump\n        /* \"@openzeppelin/contracts-upgradeable@4.8.0/token/ERC20/extensions/ERC20SnapshotUpgradeable.sol\":6897:6976  require(snapshotId <= _getCurrentSnapshotId(), \"ERC20Snapshot: nonexistent id\") */\n    tag_415:\n        /* \"@openzeppelin/contracts-upgradeable@4.8.0/token/ERC20/extensions/ERC20SnapshotUpgradeable.sol\":8099:8112  uint256 index */\n      0x00\n        /* \"@openzeppelin/contracts-upgradeable@4.8.0/token/ERC20/extensions/ERC20SnapshotUpgradeable.sol\":8115:8155  snapshots.ids.findUpperBound(snapshotId) */\n      tag_418\n        /* \"@openzeppelin/contracts-upgradeable@4.8.0/token/ERC20/extensions/ERC20SnapshotUpgradeable.sol\":8115:8124  snapshots */\n      dup5\n        /* \"@openzeppelin/contracts-upgradeable@4.8.0/token/ERC20/extensions/ERC20SnapshotUpgradeable.sol\":8144:8154  snapshotId */\n      dup7\n        /* \"@openzeppelin/contracts-upgradeable@4.8.0/token/ERC20/extensions/ERC20SnapshotUpgradeable.sol\":8115:8143  snapshots.ids.findUpperBound */\n      tag_419\n        /* \"@openzeppelin/contracts-upgradeable@4.8.0/token/ERC20/extensions/ERC20SnapshotUpgradeable.sol\":8115:8155  snapshots.ids.findUpperBound(snapshotId) */\n      jump\t// in\n    tag_418:\n        /* \"@openzeppelin/contracts-upgradeable@4.8.0/token/ERC20/extensions/ERC20SnapshotUpgradeable.sol\":8179:8199  snapshots.ids.length */\n      dup5\n      sload\n        /* \"@openzeppelin/contracts-upgradeable@4.8.0/token/ERC20/extensions/ERC20SnapshotUpgradeable.sol\":8099:8155  uint256 index = snapshots.ids.findUpperBound(snapshotId) */\n      swap1\n      swap2\n      pop\n        /* \"@openzeppelin/contracts-upgradeable@4.8.0/token/ERC20/extensions/ERC20SnapshotUpgradeable.sol\":8170:8199  index == snapshots.ids.length */\n      dup2\n      sub\n        /* \"@openzeppelin/contracts-upgradeable@4.8.0/token/ERC20/extensions/ERC20SnapshotUpgradeable.sol\":8166:8312  if (index == snapshots.ids.length) {... */\n      tag_420\n      jumpi\n        /* \"@openzeppelin/contracts-upgradeable@4.8.0/token/ERC20/extensions/ERC20SnapshotUpgradeable.sol\":8223:8228  false */\n      0x00\n        /* \"@openzeppelin/contracts-upgradeable@4.8.0/token/ERC20/extensions/ERC20SnapshotUpgradeable.sol\":8230:8231  0 */\n      dup1\n        /* \"@openzeppelin/contracts-upgradeable@4.8.0/token/ERC20/extensions/ERC20SnapshotUpgradeable.sol\":8215:8232  return (false, 0) */\n      swap3\n      pop\n      swap3\n      pop\n      pop\n      jump(tag_409)\n        /* \"@openzeppelin/contracts-upgradeable@4.8.0/token/ERC20/extensions/ERC20SnapshotUpgradeable.sol\":8166:8312  if (index == snapshots.ids.length) {... */\n    tag_420:\n        /* \"@openzeppelin/contracts-upgradeable@4.8.0/token/ERC20/extensions/ERC20SnapshotUpgradeable.sol\":8271:8275  true */\n      0x01\n        /* \"@openzeppelin/contracts-upgradeable@4.8.0/token/ERC20/extensions/ERC20SnapshotUpgradeable.sol\":8277:8286  snapshots */\n      dup5\n        /* \"@openzeppelin/contracts-upgradeable@4.8.0/token/ERC20/extensions/ERC20SnapshotUpgradeable.sol\":8277:8293  snapshots.values */\n      0x01\n      add\n        /* \"@openzeppelin/contracts-upgradeable@4.8.0/token/ERC20/extensions/ERC20SnapshotUpgradeable.sol\":8294:8299  index */\n      dup3\n        /* \"@openzeppelin/contracts-upgradeable@4.8.0/token/ERC20/extensions/ERC20SnapshotUpgradeable.sol\":8277:8300  snapshots.values[index] */\n      dup2\n      sload\n      dup2\n      lt\n      tag_423\n      jumpi\n      tag_423\n      tag_424\n      jump\t// in\n    tag_423:\n      swap1\n      0x00\n      mstore\n      keccak256(0x00, 0x20)\n      add\n      sload\n        /* \"@openzeppelin/contracts-upgradeable@4.8.0/token/ERC20/extensions/ERC20SnapshotUpgradeable.sol\":8263:8301  return (true, snapshots.values[index]) */\n      swap3\n      pop\n      swap3\n      pop\n      pop\n      jump(tag_409)\n        /* \"@openzeppelin/contracts-upgradeable@4.8.0/token/ERC20/extensions/ERC20SnapshotUpgradeable.sol\":8166:8312  if (index == snapshots.ids.length) {... */\n    tag_421:\n        /* \"@openzeppelin/contracts-upgradeable@4.8.0/token/ERC20/extensions/ERC20SnapshotUpgradeable.sol\":6828:8318  {... */\n      pop\n        /* \"@openzeppelin/contracts-upgradeable@4.8.0/token/ERC20/extensions/ERC20SnapshotUpgradeable.sol\":6724:8318  function _valueAt(uint256 snapshotId, Snapshots storage snapshots) private view returns (bool, uint256) {... */\n    tag_409:\n      swap3\n      pop\n      swap3\n      swap1\n      pop\n      jump\t// out\n        /* \"@openzeppelin/contracts-upgradeable@4.8.0/access/OwnableUpgradeable.sol\":2673:2860  function _transferOwnership(address newOwner) internal virtual {... */\n    tag_243:\n        /* \"@openzeppelin/contracts-upgradeable@4.8.0/access/OwnableUpgradeable.sol\":2765:2771  _owner */\n      0xc9\n      dup1\n      sload\n      sub(shl(0xa0, 0x01), 0x01)\n        /* \"@openzeppelin/contracts-upgradeable@4.8.0/access/OwnableUpgradeable.sol\":2781:2798  _owner = newOwner */\n      dup4\n      dup2\n      and\n      not(sub(shl(0xa0, 0x01), 0x01))\n      dup4\n      and\n      dup2\n      or\n      swap1\n      swap4\n      sstore\n        /* \"@openzeppelin/contracts-upgradeable@4.8.0/access/OwnableUpgradeable.sol\":2813:2853  OwnershipTransferred(oldOwner, newOwner) */\n      mload(0x40)\n        /* \"@openzeppelin/contracts-upgradeable@4.8.0/access/OwnableUpgradeable.sol\":2765:2771  _owner */\n      swap2\n      and\n      swap2\n        /* \"@openzeppelin/contracts-upgradeable@4.8.0/access/OwnableUpgradeable.sol\":2781:2798  _owner = newOwner */\n      swap1\n        /* \"@openzeppelin/contracts-upgradeable@4.8.0/access/OwnableUpgradeable.sol\":2765:2771  _owner */\n      dup3\n      swap1\n        /* \"@openzeppelin/contracts-upgradeable@4.8.0/access/OwnableUpgradeable.sol\":2813:2853  OwnershipTransferred(oldOwner, newOwner) */\n      0x8be0079c531659141344cd1fd0a4f28419497f9722a3daafe3b4186f6b6457e0\n      swap1\n        /* \"@openzeppelin/contracts-upgradeable@4.8.0/access/OwnableUpgradeable.sol\":2746:2762  address oldOwner */\n      0x00\n      swap1\n        /* \"@openzeppelin/contracts-upgradeable@4.8.0/access/OwnableUpgradeable.sol\":2813:2853  OwnershipTransferred(oldOwner, newOwner) */\n      log3\n        /* \"@openzeppelin/contracts-upgradeable@4.8.0/access/OwnableUpgradeable.sol\":2736:2860  {... */\n      pop\n        /* \"@openzeppelin/contracts-upgradeable@4.8.0/access/OwnableUpgradeable.sol\":2673:2860  function _transferOwnership(address newOwner) internal virtual {... */\n      pop\n      jump\t// out\n        /* \"@openzeppelin/contracts-upgradeable@4.8.0/token/ERC20/ERC20Upgradeable.sol\":2114:2261  function __ERC20_init(string memory name_, string memory symbol_) internal onlyInitializing {... */\n    tag_260:\n        /* \"@openzeppelin/contracts-upgradeable@4.8.0/proxy/utils/Initializable.sol\":5363:5376  _initializing */\n      sload(0x00)\n      0x0100\n      swap1\n      div\n      0xff\n      and\n        /* \"@openzeppelin/contracts-upgradeable@4.8.0/proxy/utils/Initializable.sol\":5355:5424  require(_initializing, \"Initializable: contract is not initializing\") */\n      tag_429\n      jumpi\n      mload(0x40)\n      shl(0xe5, 0x461bcd)\n      dup2\n      mstore\n      0x04\n      add\n      tag_180\n      swap1\n      tag_431\n      jump\t// in\n    tag_429:\n        /* \"@openzeppelin/contracts-upgradeable@4.8.0/token/ERC20/ERC20Upgradeable.sol\":2216:2254  __ERC20_init_unchained(name_, symbol_) */\n      tag_211\n        /* \"@openzeppelin/contracts-upgradeable@4.8.0/token/ERC20/ERC20Upgradeable.sol\":2239:2244  name_ */\n      dup3\n        /* \"@openzeppelin/contracts-upgradeable@4.8.0/token/ERC20/ERC20Upgradeable.sol\":2246:2253  symbol_ */\n      dup3\n        /* \"@openzeppelin/contracts-upgradeable@4.8.0/token/ERC20/ERC20Upgradeable.sol\":2216:2238  __ERC20_init_unchained */\n      tag_434\n        /* \"@openzeppelin/contracts-upgradeable@4.8.0/token/ERC20/ERC20Upgradeable.sol\":2216:2254  __ERC20_init_unchained(name_, symbol_) */\n      jump\t// in\n        /* \"@openzeppelin/contracts-upgradeable@4.8.0/token/ERC20/extensions/ERC20BurnableUpgradeable.sol\":594:659  function __ERC20Burnable_init() internal onlyInitializing {... */\n    tag_262:\n        /* \"@openzeppelin/contracts-upgradeable@4.8.0/proxy/utils/Initializable.sol\":5363:5376  _initializing */\n      sload(0x00)\n      0x0100\n      swap1\n      div\n      0xff\n      and\n        /* \"@openzeppelin/contracts-upgradeable@4.8.0/proxy/utils/Initializable.sol\":5355:5424  require(_initializing, \"Initializable: contract is not initializing\") */\n      tag_206\n      jumpi\n      mload(0x40)\n      shl(0xe5, 0x461bcd)\n      dup2\n      mstore\n      0x04\n      add\n      tag_180\n      swap1\n      tag_431\n      jump\t// in\n        /* \"@openzeppelin/contracts-upgradeable@4.8.0/access/OwnableUpgradeable.sol\":1003:1098  function __Ownable_init() internal onlyInitializing {... */\n    tag_266:\n        /* \"@openzeppelin/contracts-upgradeable@4.8.0/proxy/utils/Initializable.sol\":5363:5376  _initializing */\n      sload(0x00)\n      0x0100\n      swap1\n      div\n      0xff\n      and\n        /* \"@openzeppelin/contracts-upgradeable@4.8.0/proxy/utils/Initializable.sol\":5355:5424  require(_initializing, \"Initializable: contract is not initializing\") */\n      tag_444\n      jumpi\n      mload(0x40)\n      shl(0xe5, 0x461bcd)\n      dup2\n      mstore\n      0x04\n      add\n      tag_180\n      swap1\n      tag_431\n      jump\t// in\n    tag_444:\n        /* \"@openzeppelin/contracts-upgradeable@4.8.0/access/OwnableUpgradeable.sol\":1065:1091  __Ownable_init_unchained() */\n      tag_206\n        /* \"@openzeppelin/contracts-upgradeable@4.8.0/access/OwnableUpgradeable.sol\":1065:1089  __Ownable_init_unchained */\n      tag_448\n        /* \"@openzeppelin/contracts-upgradeable@4.8.0/access/OwnableUpgradeable.sol\":1065:1091  __Ownable_init_unchained() */\n      jump\t// in\n        /* \"@openzeppelin/contracts-upgradeable@4.8.0/security/PausableUpgradeable.sol\":1063:1160  function __Pausable_init() internal onlyInitializing {... */\n    tag_268:\n        /* \"@openzeppelin/contracts-upgradeable@4.8.0/proxy/utils/Initializable.sol\":5363:5376  _initializing */\n      sload(0x00)\n      0x0100\n      swap1\n      div\n      0xff\n      and\n        /* \"@openzeppelin/contracts-upgradeable@4.8.0/proxy/utils/Initializable.sol\":5355:5424  require(_initializing, \"Initializable: contract is not initializing\") */\n      tag_450\n      jumpi\n      mload(0x40)\n      shl(0xe5, 0x461bcd)\n      dup2\n      mstore\n      0x04\n      add\n      tag_180\n      swap1\n      tag_431\n      jump\t// in\n    tag_450:\n        /* \"@openzeppelin/contracts-upgradeable@4.8.0/security/PausableUpgradeable.sol\":1126:1153  __Pausable_init_unchained() */\n      tag_206\n        /* \"@openzeppelin/contracts-upgradeable@4.8.0/security/PausableUpgradeable.sol\":1126:1151  __Pausable_init_unchained */\n      tag_454\n        /* \"@openzeppelin/contracts-upgradeable@4.8.0/security/PausableUpgradeable.sol\":1126:1153  __Pausable_init_unchained() */\n      jump\t// in\n        /* \"@openzeppelin/contracts-upgradeable@4.8.0/security/PausableUpgradeable.sol\":2429:2544  function _pause() internal virtual whenNotPaused {... */\n    tag_284:\n        /* \"@openzeppelin/contracts-upgradeable@4.8.0/security/PausableUpgradeable.sol\":1482:1501  _requireNotPaused() */\n      tag_460\n        /* \"@openzeppelin/contracts-upgradeable@4.8.0/security/PausableUpgradeable.sol\":1482:1499  _requireNotPaused */\n      tag_461\n        /* \"@openzeppelin/contracts-upgradeable@4.8.0/security/PausableUpgradeable.sol\":1482:1501  _requireNotPaused() */\n      jump\t// in\n    tag_460:\n        /* \"@openzeppelin/contracts-upgradeable@4.8.0/security/PausableUpgradeable.sol\":2488:2495  _paused */\n      0xfb\n        /* \"@openzeppelin/contracts-upgradeable@4.8.0/security/PausableUpgradeable.sol\":2488:2502  _paused = true */\n      dup1\n      sload\n      not(0xff)\n      and\n        /* \"@openzeppelin/contracts-upgradeable@4.8.0/security/PausableUpgradeable.sol\":2498:2502  true */\n      0x01\n        /* \"@openzeppelin/contracts-upgradeable@4.8.0/security/PausableUpgradeable.sol\":2488:2502  _paused = true */\n      or\n      swap1\n      sstore\n        /* \"@openzeppelin/contracts-upgradeable@4.8.0/security/PausableUpgradeable.sol\":2517:2537  Paused(_msgSender()) */\n      0x62e78cea01bee320cd4e420270b5ea74000d11b0c9f74754ebdbfc544b05a258\n        /* \"@openzeppelin/contracts-upgradeable@4.8.0/security/PausableUpgradeable.sol\":2524:2536  _msgSender() */\n      tag_389\n        /* \"@openzeppelin/contracts-upgradeable@4.8.0/utils/ContextUpgradeable.sol\":929:939  msg.sender */\n      caller\n      swap1\n        /* \"@openzeppelin/contracts-upgradeable@4.8.0/utils/ContextUpgradeable.sol\":850:946  function _msgSender() internal view virtual returns (address) {... */\n      jump\n        /* \"@openzeppelin/contracts-upgradeable@4.8.0/token/ERC20/extensions/ERC20SnapshotUpgradeable.sol\":4802:5019  function _snapshot() internal virtual returns (uint256) {... */\n    tag_296:\n        /* \"@openzeppelin/contracts-upgradeable@4.8.0/token/ERC20/extensions/ERC20SnapshotUpgradeable.sol\":4849:4856  uint256 */\n      0x00\n        /* \"@openzeppelin/contracts-upgradeable@4.8.0/token/ERC20/extensions/ERC20SnapshotUpgradeable.sol\":4868:4898  _currentSnapshotId.increment() */\n      tag_466\n        /* \"@openzeppelin/contracts-upgradeable@4.8.0/token/ERC20/extensions/ERC20SnapshotUpgradeable.sol\":4868:4886  _currentSnapshotId */\n      0x9a\n        /* \"@openzeppelin/contracts-upgradeable@4.8.0/utils/CountersUpgradeable.sol\":1043:1062  counter._value += 1 */\n      dup1\n      sload\n        /* \"@openzeppelin/contracts-upgradeable@4.8.0/utils/CountersUpgradeable.sol\":1061:1062  1 */\n      0x01\n        /* \"@openzeppelin/contracts-upgradeable@4.8.0/utils/CountersUpgradeable.sol\":1043:1062  counter._value += 1 */\n      add\n      swap1\n      sstore\n        /* \"@openzeppelin/contracts-upgradeable@4.8.0/utils/CountersUpgradeable.sol\":956:1079  function increment(Counter storage counter) internal {... */\n      jump\n        /* \"@openzeppelin/contracts-upgradeable@4.8.0/token/ERC20/extensions/ERC20SnapshotUpgradeable.sol\":4868:4898  _currentSnapshotId.increment() */\n    tag_466:\n        /* \"@openzeppelin/contracts-upgradeable@4.8.0/token/ERC20/extensions/ERC20SnapshotUpgradeable.sol\":4909:4926  uint256 currentId */\n      0x00\n        /* \"@openzeppelin/contracts-upgradeable@4.8.0/token/ERC20/extensions/ERC20SnapshotUpgradeable.sol\":4929:4952  _getCurrentSnapshotId() */\n      tag_468\n        /* \"@openzeppelin/contracts-upgradeable@4.8.0/token/ERC20/extensions/ERC20SnapshotUpgradeable.sol\":4929:4950  _getCurrentSnapshotId */\n      tag_414\n        /* \"@openzeppelin/contracts-upgradeable@4.8.0/token/ERC20/extensions/ERC20SnapshotUpgradeable.sol\":4929:4952  _getCurrentSnapshotId() */\n      jump\t// in\n    tag_468:\n        /* \"@openzeppelin/contracts-upgradeable@4.8.0/token/ERC20/extensions/ERC20SnapshotUpgradeable.sol\":4909:4952  uint256 currentId = _getCurrentSnapshotId() */\n      swap1\n      pop\n        /* \"@openzeppelin/contracts-upgradeable@4.8.0/token/ERC20/extensions/ERC20SnapshotUpgradeable.sol\":4967:4986  Snapshot(currentId) */\n      0x8030e83b04d87bef53480e26263266d6ca66863aa8506aca6f2559d18aa1cb67\n        /* \"@openzeppelin/contracts-upgradeable@4.8.0/token/ERC20/extensions/ERC20SnapshotUpgradeable.sol\":4976:4985  currentId */\n      dup2\n        /* \"@openzeppelin/contracts-upgradeable@4.8.0/token/ERC20/extensions/ERC20SnapshotUpgradeable.sol\":4967:4986  Snapshot(currentId) */\n      mload(0x40)\n      tag_469\n      swap2\n        /* \"#utility.yul\":1445:1470   */\n      dup2\n      mstore\n        /* \"#utility.yul\":1433:1435   */\n      0x20\n        /* \"#utility.yul\":1418:1436   */\n      add\n      swap1\n        /* \"#utility.yul\":1299:1476   */\n      jump\n        /* \"@openzeppelin/contracts-upgradeable@4.8.0/token/ERC20/extensions/ERC20SnapshotUpgradeable.sol\":4967:4986  Snapshot(currentId) */\n    tag_469:\n      mload(0x40)\n      dup1\n      swap2\n      sub\n      swap1\n      log1\n        /* \"@openzeppelin/contracts-upgradeable@4.8.0/token/ERC20/extensions/ERC20SnapshotUpgradeable.sol\":5003:5012  currentId */\n      swap2\n        /* \"@openzeppelin/contracts-upgradeable@4.8.0/token/ERC20/extensions/ERC20SnapshotUpgradeable.sol\":4802:5019  function _snapshot() internal virtual returns (uint256) {... */\n      swap1\n      pop\n      jump\t// out\n        /* \"contracts/BRNKC.sol\":1949:2192  function _beforeTokenTransfer(address from, address to, uint256 amount)... */\n    tag_344:\n        /* \"@openzeppelin/contracts-upgradeable@4.8.0/security/PausableUpgradeable.sol\":1482:1501  _requireNotPaused() */\n      tag_471\n        /* \"@openzeppelin/contracts-upgradeable@4.8.0/security/PausableUpgradeable.sol\":1482:1499  _requireNotPaused */\n      tag_461\n        /* \"@openzeppelin/contracts-upgradeable@4.8.0/security/PausableUpgradeable.sol\":1482:1501  _requireNotPaused() */\n      jump\t// in\n    tag_471:\n        /* \"contracts/BRNKC.sol\":2140:2184  super._beforeTokenTransfer(from, to, amount) */\n      tag_361\n        /* \"contracts/BRNKC.sol\":2167:2171  from */\n      dup4\n        /* \"contracts/BRNKC.sol\":2173:2175  to */\n      dup4\n        /* \"contracts/BRNKC.sol\":2177:2183  amount */\n      dup4\n        /* \"contracts/BRNKC.sol\":2140:2166  super._beforeTokenTransfer */\n      tag_474\n        /* \"contracts/BRNKC.sol\":2140:2184  super._beforeTokenTransfer(from, to, amount) */\n      jump\t// in\n        /* \"@openzeppelin/contracts-upgradeable@4.8.0/proxy/ERC1967/ERC1967UpgradeUpgradeable.sol\":1805:2086  function _setImplementation(address newImplementation) private {... */\n    tag_362:\n      sub(shl(0xa0, 0x01), 0x01)\n        /* \"@openzeppelin/contracts-upgradeable@4.8.0/utils/AddressUpgradeable.sol\":1476:1495  account.code.length */\n      dup2\n      and\n      extcodesize\n        /* \"@openzeppelin/contracts-upgradeable@4.8.0/proxy/ERC1967/ERC1967UpgradeUpgradeable.sol\":1878:1984  require(AddressUpgradeable.isContract(newImplementation), \"ERC1967: new implementation is not a contract\") */\n      tag_480\n      jumpi\n      mload(0x40)\n      shl(0xe5, 0x461bcd)\n      dup2\n      mstore\n        /* \"#utility.yul\":15425:15427   */\n      0x20\n        /* \"@openzeppelin/contracts-upgradeable@4.8.0/proxy/ERC1967/ERC1967UpgradeUpgradeable.sol\":1878:1984  require(AddressUpgradeable.isContract(newImplementation), \"ERC1967: new implementation is not a contract\") */\n      0x04\n      dup3\n      add\n        /* \"#utility.yul\":15407:15428   */\n      mstore\n        /* \"#utility.yul\":15464:15466   */\n      0x2d\n        /* \"#utility.yul\":15444:15462   */\n      0x24\n      dup3\n      add\n        /* \"#utility.yul\":15437:15467   */\n      mstore\n        /* \"#utility.yul\":15503:15537   */\n      0x455243313936373a206e657720696d706c656d656e746174696f6e206973206e\n        /* \"#utility.yul\":15483:15501   */\n      0x44\n      dup3\n      add\n        /* \"#utility.yul\":15476:15538   */\n      mstore\n      shl(0x9a, 0x1bdd08184818dbdb9d1c9858dd)\n        /* \"#utility.yul\":15554:15572   */\n      0x64\n      dup3\n      add\n        /* \"#utility.yul\":15547:15590   */\n      mstore\n        /* \"#utility.yul\":15607:15626   */\n      0x84\n      add\n        /* \"@openzeppelin/contracts-upgradeable@4.8.0/proxy/ERC1967/ERC1967UpgradeUpgradeable.sol\":1878:1984  require(AddressUpgradeable.isContract(newImplementation), \"ERC1967: new implementation is not a contract\") */\n      tag_180\n        /* \"#utility.yul\":15223:15632   */\n      jump\n        /* \"@openzeppelin/contracts-upgradeable@4.8.0/proxy/ERC1967/ERC1967UpgradeUpgradeable.sol\":1878:1984  require(AddressUpgradeable.isContract(newImplementation), \"ERC1967: new implementation is not a contract\") */\n    tag_480:\n      0x00\n      dup1\n      mload\n      0x20\n      data_75b20eef8615de99c108b05f0dbda081c91897128caa336d75dffb97c4132b4d\n      dup4\n      codecopy\n      dup2\n      mload\n      swap2\n      mstore\n        /* \"@openzeppelin/contracts-upgradeable@4.8.0/proxy/ERC1967/ERC1967UpgradeUpgradeable.sol\":1994:2079  StorageSlotUpgradeable.getAddressSlot(_IMPLEMENTATION_SLOT).value = newImplementation */\n      dup1\n      sload\n      not(sub(shl(0xa0, 0x01), 0x01))\n      and\n      sub(shl(0xa0, 0x01), 0x01)\n      swap3\n      swap1\n      swap3\n      and\n      swap2\n      swap1\n      swap2\n      or\n      swap1\n      sstore\n        /* \"@openzeppelin/contracts-upgradeable@4.8.0/proxy/ERC1967/ERC1967UpgradeUpgradeable.sol\":1805:2086  function _setImplementation(address newImplementation) private {... */\n      jump\t// out\n        /* \"@openzeppelin/contracts-upgradeable@4.8.0/proxy/ERC1967/ERC1967UpgradeUpgradeable.sol\":2478:2766  function _upgradeToAndCall(... */\n    tag_378:\n        /* \"@openzeppelin/contracts-upgradeable@4.8.0/proxy/ERC1967/ERC1967UpgradeUpgradeable.sol\":2616:2645  _upgradeTo(newImplementation) */\n      tag_485\n        /* \"@openzeppelin/contracts-upgradeable@4.8.0/proxy/ERC1967/ERC1967UpgradeUpgradeable.sol\":2627:2644  newImplementation */\n      dup4\n        /* \"@openzeppelin/contracts-upgradeable@4.8.0/proxy/ERC1967/ERC1967UpgradeUpgradeable.sol\":2616:2626  _upgradeTo */\n      tag_486\n        /* \"@openzeppelin/contracts-upgradeable@4.8.0/proxy/ERC1967/ERC1967UpgradeUpgradeable.sol\":2616:2645  _upgradeTo(newImplementation) */\n      jump\t// in\n    tag_485:\n        /* \"@openzeppelin/contracts-upgradeable@4.8.0/proxy/ERC1967/ERC1967UpgradeUpgradeable.sol\":2673:2674  0 */\n      0x00\n        /* \"@openzeppelin/contracts-upgradeable@4.8.0/proxy/ERC1967/ERC1967UpgradeUpgradeable.sol\":2659:2663  data */\n      dup3\n        /* \"@openzeppelin/contracts-upgradeable@4.8.0/proxy/ERC1967/ERC1967UpgradeUpgradeable.sol\":2659:2670  data.length */\n      mload\n        /* \"@openzeppelin/contracts-upgradeable@4.8.0/proxy/ERC1967/ERC1967UpgradeUpgradeable.sol\":2659:2674  data.length > 0 */\n      gt\n        /* \"@openzeppelin/contracts-upgradeable@4.8.0/proxy/ERC1967/ERC1967UpgradeUpgradeable.sol\":2659:2687  data.length > 0 || forceCall */\n      dup1\n      tag_487\n      jumpi\n      pop\n        /* \"@openzeppelin/contracts-upgradeable@4.8.0/proxy/ERC1967/ERC1967UpgradeUpgradeable.sol\":2678:2687  forceCall */\n      dup1\n        /* \"@openzeppelin/contracts-upgradeable@4.8.0/proxy/ERC1967/ERC1967UpgradeUpgradeable.sol\":2659:2687  data.length > 0 || forceCall */\n    tag_487:\n        /* \"@openzeppelin/contracts-upgradeable@4.8.0/proxy/ERC1967/ERC1967UpgradeUpgradeable.sol\":2655:2760  if (data.length > 0 || forceCall) {... */\n      iszero\n      tag_361\n      jumpi\n        /* \"@openzeppelin/contracts-upgradeable@4.8.0/proxy/ERC1967/ERC1967UpgradeUpgradeable.sol\":2703:2749  _functionDelegateCall(newImplementation, data) */\n      tag_335\n        /* \"@openzeppelin/contracts-upgradeable@4.8.0/proxy/ERC1967/ERC1967UpgradeUpgradeable.sol\":2725:2742  newImplementation */\n      dup4\n        /* \"@openzeppelin/contracts-upgradeable@4.8.0/proxy/ERC1967/ERC1967UpgradeUpgradeable.sol\":2744:2748  data */\n      dup4\n        /* \"@openzeppelin/contracts-upgradeable@4.8.0/proxy/ERC1967/ERC1967UpgradeUpgradeable.sol\":2703:2724  _functionDelegateCall */\n      tag_490\n        /* \"@openzeppelin/contracts-upgradeable@4.8.0/proxy/ERC1967/ERC1967UpgradeUpgradeable.sol\":2703:2749  _functionDelegateCall(newImplementation, data) */\n      jump\t// in\n        /* \"@openzeppelin/contracts-upgradeable@4.8.0/security/PausableUpgradeable.sol\":2188:2294  function _requirePaused() internal view virtual {... */\n    tag_387:\n        /* \"@openzeppelin/contracts-upgradeable@4.8.0/security/PausableUpgradeable.sol\":1928:1935  _paused */\n      and(0xff, sload(0xfb))\n        /* \"@openzeppelin/contracts-upgradeable@4.8.0/security/PausableUpgradeable.sol\":2246:2287  require(paused(), \"Pausable: not paused\") */\n      tag_206\n      jumpi\n      mload(0x40)\n      shl(0xe5, 0x461bcd)\n      dup2\n      mstore\n        /* \"#utility.yul\":15839:15841   */\n      0x20\n        /* \"@openzeppelin/contracts-upgradeable@4.8.0/security/PausableUpgradeable.sol\":2246:2287  require(paused(), \"Pausable: not paused\") */\n      0x04\n      dup3\n      add\n        /* \"#utility.yul\":15821:15842   */\n      mstore\n        /* \"#utility.yul\":15878:15880   */\n      0x14\n        /* \"#utility.yul\":15858:15876   */\n      0x24\n      dup3\n      add\n        /* \"#utility.yul\":15851:15881   */\n      mstore\n      shl(0x62, 0x14185d5cd8589b194e881b9bdd081c185d5cd959)\n        /* \"#utility.yul\":15897:15915   */\n      0x44\n      dup3\n      add\n        /* \"#utility.yul\":15890:15940   */\n      mstore\n        /* \"#utility.yul\":15957:15975   */\n      0x64\n      add\n        /* \"@openzeppelin/contracts-upgradeable@4.8.0/security/PausableUpgradeable.sol\":2246:2287  require(paused(), \"Pausable: not paused\") */\n      tag_180\n        /* \"#utility.yul\":15637:15981   */\n      jump\n        /* \"@openzeppelin/contracts-upgradeable@4.8.0/token/ERC20/extensions/ERC20SnapshotUpgradeable.sol\":5080:5205  function _getCurrentSnapshotId() internal view virtual returns (uint256) {... */\n    tag_414:\n        /* \"@openzeppelin/contracts-upgradeable@4.8.0/token/ERC20/extensions/ERC20SnapshotUpgradeable.sol\":5144:5151  uint256 */\n      0x00\n        /* \"@openzeppelin/contracts-upgradeable@4.8.0/token/ERC20/extensions/ERC20SnapshotUpgradeable.sol\":5170:5198  _currentSnapshotId.current() */\n      tag_497\n        /* \"@openzeppelin/contracts-upgradeable@4.8.0/token/ERC20/extensions/ERC20SnapshotUpgradeable.sol\":5170:5188  _currentSnapshotId */\n      0x9a\n        /* \"@openzeppelin/contracts-upgradeable@4.8.0/utils/CountersUpgradeable.sol\":929:943  counter._value */\n      sload\n      swap1\n        /* \"@openzeppelin/contracts-upgradeable@4.8.0/utils/CountersUpgradeable.sol\":838:950  function current(Counter storage counter) internal view returns (uint256) {... */\n      jump\n        /* \"@openzeppelin/contracts-upgradeable@4.8.0/token/ERC20/extensions/ERC20SnapshotUpgradeable.sol\":5170:5198  _currentSnapshotId.current() */\n    tag_497:\n        /* \"@openzeppelin/contracts-upgradeable@4.8.0/token/ERC20/extensions/ERC20SnapshotUpgradeable.sol\":5163:5198  return _currentSnapshotId.current() */\n      swap1\n      pop\n        /* \"@openzeppelin/contracts-upgradeable@4.8.0/token/ERC20/extensions/ERC20SnapshotUpgradeable.sol\":5080:5205  function _getCurrentSnapshotId() internal view virtual returns (uint256) {... */\n      swap1\n      jump\t// out\n        /* \"@openzeppelin/contracts-upgradeable@4.8.0/utils/ArraysUpgradeable.sol\":757:1700  function findUpperBound(uint256[] storage array, uint256 element) internal view returns (uint256) {... */\n    tag_419:\n        /* \"@openzeppelin/contracts-upgradeable@4.8.0/utils/ArraysUpgradeable.sol\":869:881  array.length */\n      dup2\n      sload\n        /* \"@openzeppelin/contracts-upgradeable@4.8.0/utils/ArraysUpgradeable.sol\":846:853  uint256 */\n      0x00\n      swap1\n        /* \"@openzeppelin/contracts-upgradeable@4.8.0/utils/ArraysUpgradeable.sol\":869:886  array.length == 0 */\n      dup2\n      sub\n        /* \"@openzeppelin/contracts-upgradeable@4.8.0/utils/ArraysUpgradeable.sol\":865:921  if (array.length == 0) {... */\n      tag_500\n      jumpi\n      pop\n        /* \"@openzeppelin/contracts-upgradeable@4.8.0/utils/ArraysUpgradeable.sol\":909:910  0 */\n      0x00\n        /* \"@openzeppelin/contracts-upgradeable@4.8.0/utils/ArraysUpgradeable.sol\":902:910  return 0 */\n      jump(tag_165)\n        /* \"@openzeppelin/contracts-upgradeable@4.8.0/utils/ArraysUpgradeable.sol\":865:921  if (array.length == 0) {... */\n    tag_500:\n        /* \"@openzeppelin/contracts-upgradeable@4.8.0/utils/ArraysUpgradeable.sol\":971:983  array.length */\n      dup3\n      sload\n        /* \"@openzeppelin/contracts-upgradeable@4.8.0/utils/ArraysUpgradeable.sol\":931:942  uint256 low */\n      0x00\n      swap1\n        /* \"@openzeppelin/contracts-upgradeable@4.8.0/utils/ArraysUpgradeable.sol\":994:1439  while (low < high) {... */\n    tag_501:\n        /* \"@openzeppelin/contracts-upgradeable@4.8.0/utils/ArraysUpgradeable.sol\":1007:1011  high */\n      dup1\n        /* \"@openzeppelin/contracts-upgradeable@4.8.0/utils/ArraysUpgradeable.sol\":1001:1004  low */\n      dup3\n        /* \"@openzeppelin/contracts-upgradeable@4.8.0/utils/ArraysUpgradeable.sol\":1001:1011  low < high */\n      lt\n        /* \"@openzeppelin/contracts-upgradeable@4.8.0/utils/ArraysUpgradeable.sol\":994:1439  while (low < high) {... */\n      iszero\n      tag_502\n      jumpi\n        /* \"@openzeppelin/contracts-upgradeable@4.8.0/utils/ArraysUpgradeable.sol\":1027:1038  uint256 mid */\n      0x00\n        /* \"@openzeppelin/contracts-upgradeable@4.8.0/utils/ArraysUpgradeable.sol\":1041:1075  MathUpgradeable.average(low, high) */\n      tag_503\n        /* \"@openzeppelin/contracts-upgradeable@4.8.0/utils/ArraysUpgradeable.sol\":1065:1068  low */\n      dup4\n        /* \"@openzeppelin/contracts-upgradeable@4.8.0/utils/ArraysUpgradeable.sol\":1070:1074  high */\n      dup4\n        /* \"@openzeppelin/contracts-upgradeable@4.8.0/utils/ArraysUpgradeable.sol\":1041:1064  MathUpgradeable.average */\n      tag_504\n        /* \"@openzeppelin/contracts-upgradeable@4.8.0/utils/ArraysUpgradeable.sol\":1041:1075  MathUpgradeable.average(low, high) */\n      jump\t// in\n    tag_503:\n        /* \"@openzeppelin/contracts-upgradeable@4.8.0/utils/ArraysUpgradeable.sol\":3077:3119  StorageSlotUpgradeable.Uint256Slot storage */\n      0x00\n        /* \"@openzeppelin/contracts-upgradeable@4.8.0/utils/ArraysUpgradeable.sol\":3219:3238  mstore(0, arr.slot) */\n      dup8\n      dup2\n      mstore\n        /* \"@openzeppelin/contracts-upgradeable@4.8.0/utils/ArraysUpgradeable.sol\":3276:3280  0x20 */\n      0x20\n        /* \"@openzeppelin/contracts-upgradeable@4.8.0/utils/ArraysUpgradeable.sol\":3263:3281  keccak256(0, 0x20) */\n      swap1\n      keccak256\n        /* \"@openzeppelin/contracts-upgradeable@4.8.0/utils/ArraysUpgradeable.sol\":1027:1075  uint256 mid = MathUpgradeable.average(low, high) */\n      swap1\n      swap2\n      pop\n        /* \"@openzeppelin/contracts-upgradeable@4.8.0/utils/ArraysUpgradeable.sol\":1325:1332  element */\n      dup6\n      swap1\n        /* \"@openzeppelin/contracts-upgradeable@4.8.0/utils/ArraysUpgradeable.sol\":3259:3287  add(keccak256(0, 0x20), pos) */\n      dup3\n      add\n        /* \"@openzeppelin/contracts-upgradeable@4.8.0/utils/ArraysUpgradeable.sol\":1292:1322  unsafeAccess(array, mid).value */\n      sload\n        /* \"@openzeppelin/contracts-upgradeable@4.8.0/utils/ArraysUpgradeable.sol\":1292:1332  unsafeAccess(array, mid).value > element */\n      gt\n        /* \"@openzeppelin/contracts-upgradeable@4.8.0/utils/ArraysUpgradeable.sol\":1288:1429  if (unsafeAccess(array, mid).value > element) {... */\n      iszero\n      tag_507\n      jumpi\n        /* \"@openzeppelin/contracts-upgradeable@4.8.0/utils/ArraysUpgradeable.sol\":1359:1362  mid */\n      dup1\n        /* \"@openzeppelin/contracts-upgradeable@4.8.0/utils/ArraysUpgradeable.sol\":1352:1362  high = mid */\n      swap2\n      pop\n        /* \"@openzeppelin/contracts-upgradeable@4.8.0/utils/ArraysUpgradeable.sol\":1288:1429  if (unsafeAccess(array, mid).value > element) {... */\n      jump(tag_508)\n    tag_507:\n        /* \"@openzeppelin/contracts-upgradeable@4.8.0/utils/ArraysUpgradeable.sol\":1407:1414  mid + 1 */\n      tag_509\n        /* \"@openzeppelin/contracts-upgradeable@4.8.0/utils/ArraysUpgradeable.sol\":1407:1410  mid */\n      dup2\n        /* \"@openzeppelin/contracts-upgradeable@4.8.0/utils/ArraysUpgradeable.sol\":1413:1414  1 */\n      0x01\n        /* \"@openzeppelin/contracts-upgradeable@4.8.0/utils/ArraysUpgradeable.sol\":1407:1414  mid + 1 */\n      tag_201\n      jump\t// in\n    tag_509:\n        /* \"@openzeppelin/contracts-upgradeable@4.8.0/utils/ArraysUpgradeable.sol\":1401:1414  low = mid + 1 */\n      swap3\n      pop\n        /* \"@openzeppelin/contracts-upgradeable@4.8.0/utils/ArraysUpgradeable.sol\":1288:1429  if (unsafeAccess(array, mid).value > element) {... */\n    tag_508:\n        /* \"@openzeppelin/contracts-upgradeable@4.8.0/utils/ArraysUpgradeable.sol\":1013:1439  {... */\n      pop\n        /* \"@openzeppelin/contracts-upgradeable@4.8.0/utils/ArraysUpgradeable.sol\":994:1439  while (low < high) {... */\n      jump(tag_501)\n    tag_502:\n        /* \"@openzeppelin/contracts-upgradeable@4.8.0/utils/ArraysUpgradeable.sol\":1562:1563  0 */\n      0x00\n        /* \"@openzeppelin/contracts-upgradeable@4.8.0/utils/ArraysUpgradeable.sol\":1556:1559  low */\n      dup3\n        /* \"@openzeppelin/contracts-upgradeable@4.8.0/utils/ArraysUpgradeable.sol\":1556:1563  low > 0 */\n      gt\n        /* \"@openzeppelin/contracts-upgradeable@4.8.0/utils/ArraysUpgradeable.sol\":1556:1612  low > 0 && unsafeAccess(array, low - 1).value == element */\n      dup1\n      iszero\n      tag_510\n      jumpi\n      pop\n        /* \"@openzeppelin/contracts-upgradeable@4.8.0/utils/ArraysUpgradeable.sol\":1605:1612  element */\n      dup4\n        /* \"@openzeppelin/contracts-upgradeable@4.8.0/utils/ArraysUpgradeable.sol\":1567:1595  unsafeAccess(array, low - 1) */\n      tag_511\n        /* \"@openzeppelin/contracts-upgradeable@4.8.0/utils/ArraysUpgradeable.sol\":1580:1585  array */\n      dup7\n        /* \"@openzeppelin/contracts-upgradeable@4.8.0/utils/ArraysUpgradeable.sol\":1587:1594  low - 1 */\n      tag_512\n        /* \"@openzeppelin/contracts-upgradeable@4.8.0/utils/ArraysUpgradeable.sol\":1593:1594  1 */\n      0x01\n        /* \"@openzeppelin/contracts-upgradeable@4.8.0/utils/ArraysUpgradeable.sol\":1587:1590  low */\n      dup7\n        /* \"@openzeppelin/contracts-upgradeable@4.8.0/utils/ArraysUpgradeable.sol\":1587:1594  low - 1 */\n      tag_513\n      jump\t// in\n    tag_512:\n        /* \"@openzeppelin/contracts-upgradeable@4.8.0/utils/ArraysUpgradeable.sol\":3077:3119  StorageSlotUpgradeable.Uint256Slot storage */\n      0x00\n        /* \"@openzeppelin/contracts-upgradeable@4.8.0/utils/ArraysUpgradeable.sol\":3219:3238  mstore(0, arr.slot) */\n      swap2\n      dup3\n      mstore\n        /* \"@openzeppelin/contracts-upgradeable@4.8.0/utils/ArraysUpgradeable.sol\":3276:3280  0x20 */\n      0x20\n        /* \"@openzeppelin/contracts-upgradeable@4.8.0/utils/ArraysUpgradeable.sol\":3263:3281  keccak256(0, 0x20) */\n      swap1\n      swap2\n      keccak256\n        /* \"@openzeppelin/contracts-upgradeable@4.8.0/utils/ArraysUpgradeable.sol\":3259:3287  add(keccak256(0, 0x20), pos) */\n      add\n      swap1\n        /* \"@openzeppelin/contracts-upgradeable@4.8.0/utils/ArraysUpgradeable.sol\":2996:3341  function unsafeAccess(uint256[] storage arr, uint256 pos) internal pure returns (StorageSlotUpgradeable.Uint256Slot storage) {... */\n      jump\n        /* \"@openzeppelin/contracts-upgradeable@4.8.0/utils/ArraysUpgradeable.sol\":1567:1595  unsafeAccess(array, low - 1) */\n    tag_511:\n        /* \"@openzeppelin/contracts-upgradeable@4.8.0/utils/ArraysUpgradeable.sol\":1567:1601  unsafeAccess(array, low - 1).value */\n      sload\n        /* \"@openzeppelin/contracts-upgradeable@4.8.0/utils/ArraysUpgradeable.sol\":1567:1612  unsafeAccess(array, low - 1).value == element */\n      eq\n        /* \"@openzeppelin/contracts-upgradeable@4.8.0/utils/ArraysUpgradeable.sol\":1556:1612  low > 0 && unsafeAccess(array, low - 1).value == element */\n    tag_510:\n        /* \"@openzeppelin/contracts-upgradeable@4.8.0/utils/ArraysUpgradeable.sol\":1552:1694  if (low > 0 && unsafeAccess(array, low - 1).value == element) {... */\n      iszero\n      tag_514\n      jumpi\n        /* \"@openzeppelin/contracts-upgradeable@4.8.0/utils/ArraysUpgradeable.sol\":1635:1642  low - 1 */\n      tag_515\n        /* \"@openzeppelin/contracts-upgradeable@4.8.0/utils/ArraysUpgradeable.sol\":1641:1642  1 */\n      0x01\n        /* \"@openzeppelin/contracts-upgradeable@4.8.0/utils/ArraysUpgradeable.sol\":1635:1638  low */\n      dup4\n        /* \"@openzeppelin/contracts-upgradeable@4.8.0/utils/ArraysUpgradeable.sol\":1635:1642  low - 1 */\n      tag_513\n      jump\t// in\n    tag_515:\n        /* \"@openzeppelin/contracts-upgradeable@4.8.0/utils/ArraysUpgradeable.sol\":1628:1642  return low - 1 */\n      swap3\n      pop\n      pop\n      pop\n      jump(tag_165)\n        /* \"@openzeppelin/contracts-upgradeable@4.8.0/utils/ArraysUpgradeable.sol\":1552:1694  if (low > 0 && unsafeAccess(array, low - 1).value == element) {... */\n    tag_514:\n      pop\n        /* \"@openzeppelin/contracts-upgradeable@4.8.0/utils/ArraysUpgradeable.sol\":1680:1683  low */\n      swap1\n      pop\n        /* \"@openzeppelin/contracts-upgradeable@4.8.0/utils/ArraysUpgradeable.sol\":1673:1683  return low */\n      jump(tag_165)\n        /* \"@openzeppelin/contracts-upgradeable@4.8.0/token/ERC20/ERC20Upgradeable.sol\":2267:2426  function __ERC20_init_unchained(string memory name_, string memory symbol_) internal onlyInitializing {... */\n    tag_434:\n        /* \"@openzeppelin/contracts-upgradeable@4.8.0/proxy/utils/Initializable.sol\":5363:5376  _initializing */\n      sload(0x00)\n      0x0100\n      swap1\n      div\n      0xff\n      and\n        /* \"@openzeppelin/contracts-upgradeable@4.8.0/proxy/utils/Initializable.sol\":5355:5424  require(_initializing, \"Initializable: contract is not initializing\") */\n      tag_518\n      jumpi\n      mload(0x40)\n      shl(0xe5, 0x461bcd)\n      dup2\n      mstore\n      0x04\n      add\n      tag_180\n      swap1\n      tag_431\n      jump\t// in\n    tag_518:\n        /* \"@openzeppelin/contracts-upgradeable@4.8.0/token/ERC20/ERC20Upgradeable.sol\":2379:2384  _name */\n      0x36\n        /* \"@openzeppelin/contracts-upgradeable@4.8.0/token/ERC20/ERC20Upgradeable.sol\":2379:2392  _name = name_ */\n      tag_521\n        /* \"@openzeppelin/contracts-upgradeable@4.8.0/token/ERC20/ERC20Upgradeable.sol\":2387:2392  name_ */\n      dup4\n        /* \"@openzeppelin/contracts-upgradeable@4.8.0/token/ERC20/ERC20Upgradeable.sol\":2379:2384  _name */\n      dup3\n        /* \"@openzeppelin/contracts-upgradeable@4.8.0/token/ERC20/ERC20Upgradeable.sol\":2379:2392  _name = name_ */\n      tag_522\n      jump\t// in\n    tag_521:\n      pop\n        /* \"@openzeppelin/contracts-upgradeable@4.8.0/token/ERC20/ERC20Upgradeable.sol\":2402:2409  _symbol */\n      0x37\n        /* \"@openzeppelin/contracts-upgradeable@4.8.0/token/ERC20/ERC20Upgradeable.sol\":2402:2419  _symbol = symbol_ */\n      tag_361\n        /* \"@openzeppelin/contracts-upgradeable@4.8.0/token/ERC20/ERC20Upgradeable.sol\":2412:2419  symbol_ */\n      dup3\n        /* \"@openzeppelin/contracts-upgradeable@4.8.0/token/ERC20/ERC20Upgradeable.sol\":2402:2409  _symbol */\n      dup3\n        /* \"@openzeppelin/contracts-upgradeable@4.8.0/token/ERC20/ERC20Upgradeable.sol\":2402:2419  _symbol = symbol_ */\n      tag_522\n      jump\t// in\n        /* \"@openzeppelin/contracts-upgradeable@4.8.0/access/OwnableUpgradeable.sol\":1104:1215  function __Ownable_init_unchained() internal onlyInitializing {... */\n    tag_448:\n        /* \"@openzeppelin/contracts-upgradeable@4.8.0/proxy/utils/Initializable.sol\":5363:5376  _initializing */\n      sload(0x00)\n      0x0100\n      swap1\n      div\n      0xff\n      and\n        /* \"@openzeppelin/contracts-upgradeable@4.8.0/proxy/utils/Initializable.sol\":5355:5424  require(_initializing, \"Initializable: contract is not initializing\") */\n      tag_525\n      jumpi\n      mload(0x40)\n      shl(0xe5, 0x461bcd)\n      dup2\n      mstore\n      0x04\n      add\n      tag_180\n      swap1\n      tag_431\n      jump\t// in\n    tag_525:\n        /* \"@openzeppelin/contracts-upgradeable@4.8.0/access/OwnableUpgradeable.sol\":1176:1208  _transferOwnership(_msgSender()) */\n      tag_206\n        /* \"@openzeppelin/contracts-upgradeable@4.8.0/utils/ContextUpgradeable.sol\":929:939  msg.sender */\n      caller\n        /* \"@openzeppelin/contracts-upgradeable@4.8.0/access/OwnableUpgradeable.sol\":1176:1194  _transferOwnership */\n      tag_243\n        /* \"@openzeppelin/contracts-upgradeable@4.8.0/access/OwnableUpgradeable.sol\":1176:1208  _transferOwnership(_msgSender()) */\n      jump\t// in\n        /* \"@openzeppelin/contracts-upgradeable@4.8.0/security/PausableUpgradeable.sol\":1166:1261  function __Pausable_init_unchained() internal onlyInitializing {... */\n    tag_454:\n        /* \"@openzeppelin/contracts-upgradeable@4.8.0/proxy/utils/Initializable.sol\":5363:5376  _initializing */\n      sload(0x00)\n      0x0100\n      swap1\n      div\n      0xff\n      and\n        /* \"@openzeppelin/contracts-upgradeable@4.8.0/proxy/utils/Initializable.sol\":5355:5424  require(_initializing, \"Initializable: contract is not initializing\") */\n      tag_531\n      jumpi\n      mload(0x40)\n      shl(0xe5, 0x461bcd)\n      dup2\n      mstore\n      0x04\n      add\n      tag_180\n      swap1\n      tag_431\n      jump\t// in\n    tag_531:\n        /* \"@openzeppelin/contracts-upgradeable@4.8.0/security/PausableUpgradeable.sol\":1239:1246  _paused */\n      0xfb\n        /* \"@openzeppelin/contracts-upgradeable@4.8.0/security/PausableUpgradeable.sol\":1239:1254  _paused = false */\n      dup1\n      sload\n      not(0xff)\n      and\n      swap1\n      sstore\n        /* \"@openzeppelin/contracts-upgradeable@4.8.0/security/PausableUpgradeable.sol\":1166:1261  function __Pausable_init_unchained() internal onlyInitializing {... */\n      jump\t// out\n        /* \"@openzeppelin/contracts-upgradeable@4.8.0/security/PausableUpgradeable.sol\":2010:2116  function _requireNotPaused() internal view virtual {... */\n    tag_461:\n        /* \"@openzeppelin/contracts-upgradeable@4.8.0/security/PausableUpgradeable.sol\":1928:1935  _paused */\n      and(0xff, sload(0xfb))\n        /* \"@openzeppelin/contracts-upgradeable@4.8.0/security/PausableUpgradeable.sol\":2079:2088  !paused() */\n      iszero\n        /* \"@openzeppelin/contracts-upgradeable@4.8.0/security/PausableUpgradeable.sol\":2071:2109  require(!paused(), \"Pausable: paused\") */\n      tag_206\n      jumpi\n      mload(0x40)\n      shl(0xe5, 0x461bcd)\n      dup2\n      mstore\n        /* \"#utility.yul\":18525:18527   */\n      0x20\n        /* \"@openzeppelin/contracts-upgradeable@4.8.0/security/PausableUpgradeable.sol\":2071:2109  require(!paused(), \"Pausable: paused\") */\n      0x04\n      dup3\n      add\n        /* \"#utility.yul\":18507:18528   */\n      mstore\n        /* \"#utility.yul\":18564:18566   */\n      0x10\n        /* \"#utility.yul\":18544:18562   */\n      0x24\n      dup3\n      add\n        /* \"#utility.yul\":18537:18567   */\n      mstore\n      shl(0x82, 0x14185d5cd8589b194e881c185d5cd959)\n        /* \"#utility.yul\":18583:18601   */\n      0x44\n      dup3\n      add\n        /* \"#utility.yul\":18576:18622   */\n      mstore\n        /* \"#utility.yul\":18639:18657   */\n      0x64\n      add\n        /* \"@openzeppelin/contracts-upgradeable@4.8.0/security/PausableUpgradeable.sol\":2071:2109  require(!paused(), \"Pausable: paused\") */\n      tag_180\n        /* \"#utility.yul\":18323:18663   */\n      jump\n        /* \"@openzeppelin/contracts-upgradeable@4.8.0/token/ERC20/extensions/ERC20SnapshotUpgradeable.sol\":6116:6718  function _beforeTokenTransfer(... */\n    tag_474:\n      sub(shl(0xa0, 0x01), 0x01)\n        /* \"@openzeppelin/contracts-upgradeable@4.8.0/token/ERC20/extensions/ERC20SnapshotUpgradeable.sol\":6313:6331  from == address(0) */\n      dup4\n      and\n        /* \"@openzeppelin/contracts-upgradeable@4.8.0/token/ERC20/extensions/ERC20SnapshotUpgradeable.sol\":6309:6712  if (from == address(0)) {... */\n      tag_543\n      jumpi\n        /* \"@openzeppelin/contracts-upgradeable@4.8.0/token/ERC20/extensions/ERC20SnapshotUpgradeable.sol\":6367:6393  _updateAccountSnapshot(to) */\n      tag_544\n        /* \"@openzeppelin/contracts-upgradeable@4.8.0/token/ERC20/extensions/ERC20SnapshotUpgradeable.sol\":6390:6392  to */\n      dup3\n        /* \"@openzeppelin/contracts-upgradeable@4.8.0/token/ERC20/extensions/ERC20SnapshotUpgradeable.sol\":6367:6389  _updateAccountSnapshot */\n      tag_545\n        /* \"@openzeppelin/contracts-upgradeable@4.8.0/token/ERC20/extensions/ERC20SnapshotUpgradeable.sol\":6367:6393  _updateAccountSnapshot(to) */\n      jump\t// in\n    tag_544:\n        /* \"@openzeppelin/contracts-upgradeable@4.8.0/token/ERC20/extensions/ERC20SnapshotUpgradeable.sol\":6407:6435  _updateTotalSupplySnapshot() */\n      tag_361\n        /* \"@openzeppelin/contracts-upgradeable@4.8.0/token/ERC20/extensions/ERC20SnapshotUpgradeable.sol\":6407:6433  _updateTotalSupplySnapshot */\n      tag_547\n        /* \"@openzeppelin/contracts-upgradeable@4.8.0/token/ERC20/extensions/ERC20SnapshotUpgradeable.sol\":6407:6435  _updateTotalSupplySnapshot() */\n      jump\t// in\n        /* \"@openzeppelin/contracts-upgradeable@4.8.0/token/ERC20/extensions/ERC20SnapshotUpgradeable.sol\":6309:6712  if (from == address(0)) {... */\n    tag_543:\n      sub(shl(0xa0, 0x01), 0x01)\n        /* \"@openzeppelin/contracts-upgradeable@4.8.0/token/ERC20/extensions/ERC20SnapshotUpgradeable.sol\":6456:6472  to == address(0) */\n      dup3\n      and\n        /* \"@openzeppelin/contracts-upgradeable@4.8.0/token/ERC20/extensions/ERC20SnapshotUpgradeable.sol\":6452:6712  if (to == address(0)) {... */\n      tag_549\n      jumpi\n        /* \"@openzeppelin/contracts-upgradeable@4.8.0/token/ERC20/extensions/ERC20SnapshotUpgradeable.sol\":6508:6536  _updateAccountSnapshot(from) */\n      tag_544\n        /* \"@openzeppelin/contracts-upgradeable@4.8.0/token/ERC20/extensions/ERC20SnapshotUpgradeable.sol\":6531:6535  from */\n      dup4\n        /* \"@openzeppelin/contracts-upgradeable@4.8.0/token/ERC20/extensions/ERC20SnapshotUpgradeable.sol\":6508:6530  _updateAccountSnapshot */\n      tag_545\n        /* \"@openzeppelin/contracts-upgradeable@4.8.0/token/ERC20/extensions/ERC20SnapshotUpgradeable.sol\":6508:6536  _updateAccountSnapshot(from) */\n      jump\t// in\n        /* \"@openzeppelin/contracts-upgradeable@4.8.0/token/ERC20/extensions/ERC20SnapshotUpgradeable.sol\":6452:6712  if (to == address(0)) {... */\n    tag_549:\n        /* \"@openzeppelin/contracts-upgradeable@4.8.0/token/ERC20/extensions/ERC20SnapshotUpgradeable.sol\":6633:6661  _updateAccountSnapshot(from) */\n      tag_553\n        /* \"@openzeppelin/contracts-upgradeable@4.8.0/token/ERC20/extensions/ERC20SnapshotUpgradeable.sol\":6656:6660  from */\n      dup4\n        /* \"@openzeppelin/contracts-upgradeable@4.8.0/token/ERC20/extensions/ERC20SnapshotUpgradeable.sol\":6633:6655  _updateAccountSnapshot */\n      tag_545\n        /* \"@openzeppelin/contracts-upgradeable@4.8.0/token/ERC20/extensions/ERC20SnapshotUpgradeable.sol\":6633:6661  _updateAccountSnapshot(from) */\n      jump\t// in\n    tag_553:\n        /* \"@openzeppelin/contracts-upgradeable@4.8.0/token/ERC20/extensions/ERC20SnapshotUpgradeable.sol\":6675:6701  _updateAccountSnapshot(to) */\n      tag_361\n        /* \"@openzeppelin/contracts-upgradeable@4.8.0/token/ERC20/extensions/ERC20SnapshotUpgradeable.sol\":6698:6700  to */\n      dup3\n        /* \"@openzeppelin/contracts-upgradeable@4.8.0/token/ERC20/extensions/ERC20SnapshotUpgradeable.sol\":6675:6697  _updateAccountSnapshot */\n      tag_545\n        /* \"@openzeppelin/contracts-upgradeable@4.8.0/token/ERC20/extensions/ERC20SnapshotUpgradeable.sol\":6675:6701  _updateAccountSnapshot(to) */\n      jump\t// in\n        /* \"@openzeppelin/contracts-upgradeable@4.8.0/proxy/ERC1967/ERC1967UpgradeUpgradeable.sol\":2192:2344  function _upgradeTo(address newImplementation) internal {... */\n    tag_486:\n        /* \"@openzeppelin/contracts-upgradeable@4.8.0/proxy/ERC1967/ERC1967UpgradeUpgradeable.sol\":2258:2295  _setImplementation(newImplementation) */\n      tag_556\n        /* \"@openzeppelin/contracts-upgradeable@4.8.0/proxy/ERC1967/ERC1967UpgradeUpgradeable.sol\":2277:2294  newImplementation */\n      dup2\n        /* \"@openzeppelin/contracts-upgradeable@4.8.0/proxy/ERC1967/ERC1967UpgradeUpgradeable.sol\":2258:2276  _setImplementation */\n      tag_362\n        /* \"@openzeppelin/contracts-upgradeable@4.8.0/proxy/ERC1967/ERC1967UpgradeUpgradeable.sol\":2258:2295  _setImplementation(newImplementation) */\n      jump\t// in\n    tag_556:\n        /* \"@openzeppelin/contracts-upgradeable@4.8.0/proxy/ERC1967/ERC1967UpgradeUpgradeable.sol\":2310:2337  Upgraded(newImplementation) */\n      mload(0x40)\n      sub(shl(0xa0, 0x01), 0x01)\n      dup3\n      and\n      swap1\n      0xbc7cd75a20ee27fd9adebab32041f755214dbc6bffa90cc0225b39da2e5c2d3b\n      swap1\n      0x00\n      swap1\n      log2\n        /* \"@openzeppelin/contracts-upgradeable@4.8.0/proxy/ERC1967/ERC1967UpgradeUpgradeable.sol\":2192:2344  function _upgradeTo(address newImplementation) internal {... */\n      pop\n      jump\t// out\n        /* \"@openzeppelin/contracts-upgradeable@4.8.0/proxy/ERC1967/ERC1967UpgradeUpgradeable.sol\":7088:7543  function _functionDelegateCall(address target, bytes memory data) private returns (bytes memory) {... */\n    tag_490:\n        /* \"@openzeppelin/contracts-upgradeable@4.8.0/proxy/ERC1967/ERC1967UpgradeUpgradeable.sol\":7171:7183  bytes memory */\n      0x60\n      sub(shl(0xa0, 0x01), 0x01)\n        /* \"@openzeppelin/contracts-upgradeable@4.8.0/utils/AddressUpgradeable.sol\":1476:1495  account.code.length */\n      dup4\n      and\n      extcodesize\n        /* \"@openzeppelin/contracts-upgradeable@4.8.0/proxy/ERC1967/ERC1967UpgradeUpgradeable.sol\":7195:7283  require(AddressUpgradeable.isContract(target), \"Address: delegate call to non-contract\") */\n      tag_559\n      jumpi\n      mload(0x40)\n      shl(0xe5, 0x461bcd)\n      dup2\n      mstore\n        /* \"#utility.yul\":18870:18872   */\n      0x20\n        /* \"@openzeppelin/contracts-upgradeable@4.8.0/proxy/ERC1967/ERC1967UpgradeUpgradeable.sol\":7195:7283  require(AddressUpgradeable.isContract(target), \"Address: delegate call to non-contract\") */\n      0x04\n      dup3\n      add\n        /* \"#utility.yul\":18852:18873   */\n      mstore\n        /* \"#utility.yul\":18909:18911   */\n      0x26\n        /* \"#utility.yul\":18889:18907   */\n      0x24\n      dup3\n      add\n        /* \"#utility.yul\":18882:18912   */\n      mstore\n        /* \"#utility.yul\":18948:18982   */\n      0x416464726573733a2064656c65676174652063616c6c20746f206e6f6e2d636f\n        /* \"#utility.yul\":18928:18946   */\n      0x44\n      dup3\n      add\n        /* \"#utility.yul\":18921:18983   */\n      mstore\n      shl(0xd2, 0x1b9d1c9858dd)\n        /* \"#utility.yul\":18999:19017   */\n      0x64\n      dup3\n      add\n        /* \"#utility.yul\":18992:19028   */\n      mstore\n        /* \"#utility.yul\":19045:19064   */\n      0x84\n      add\n        /* \"@openzeppelin/contracts-upgradeable@4.8.0/proxy/ERC1967/ERC1967UpgradeUpgradeable.sol\":7195:7283  require(AddressUpgradeable.isContract(target), \"Address: delegate call to non-contract\") */\n      tag_180\n        /* \"#utility.yul\":18668:19070   */\n      jump\n        /* \"@openzeppelin/contracts-upgradeable@4.8.0/proxy/ERC1967/ERC1967UpgradeUpgradeable.sol\":7195:7283  require(AddressUpgradeable.isContract(target), \"Address: delegate call to non-contract\") */\n    tag_559:\n        /* \"@openzeppelin/contracts-upgradeable@4.8.0/proxy/ERC1967/ERC1967UpgradeUpgradeable.sol\":7354:7366  bool success */\n      0x00\n        /* \"@openzeppelin/contracts-upgradeable@4.8.0/proxy/ERC1967/ERC1967UpgradeUpgradeable.sol\":7368:7391  bytes memory returndata */\n      dup1\n        /* \"@openzeppelin/contracts-upgradeable@4.8.0/proxy/ERC1967/ERC1967UpgradeUpgradeable.sol\":7395:7401  target */\n      dup5\n      sub(shl(0xa0, 0x01), 0x01)\n        /* \"@openzeppelin/contracts-upgradeable@4.8.0/proxy/ERC1967/ERC1967UpgradeUpgradeable.sol\":7395:7414  target.delegatecall */\n      and\n        /* \"@openzeppelin/contracts-upgradeable@4.8.0/proxy/ERC1967/ERC1967UpgradeUpgradeable.sol\":7415:7419  data */\n      dup5\n        /* \"@openzeppelin/contracts-upgradeable@4.8.0/proxy/ERC1967/ERC1967UpgradeUpgradeable.sol\":7395:7420  target.delegatecall(data) */\n      mload(0x40)\n      tag_562\n      swap2\n      swap1\n      tag_563\n      jump\t// in\n    tag_562:\n      0x00\n      mload(0x40)\n      dup1\n      dup4\n      sub\n      dup2\n      dup6\n      gas\n      delegatecall\n      swap2\n      pop\n      pop\n      returndatasize\n      dup1\n      0x00\n      dup2\n      eq\n      tag_566\n      jumpi\n      mload(0x40)\n      swap2\n      pop\n      and(add(returndatasize, 0x3f), not(0x1f))\n      dup3\n      add\n      0x40\n      mstore\n      returndatasize\n      dup3\n      mstore\n      returndatasize\n      0x00\n      0x20\n      dup5\n      add\n      returndatacopy\n      jump(tag_565)\n    tag_566:\n      0x60\n      swap2\n      pop\n    tag_565:\n      pop\n        /* \"@openzeppelin/contracts-upgradeable@4.8.0/proxy/ERC1967/ERC1967UpgradeUpgradeable.sol\":7353:7420  (bool success, bytes memory returndata) = target.delegatecall(data) */\n      swap2\n      pop\n      swap2\n      pop\n        /* \"@openzeppelin/contracts-upgradeable@4.8.0/proxy/ERC1967/ERC1967UpgradeUpgradeable.sol\":7437:7536  AddressUpgradeable.verifyCallResult(success, returndata, \"Address: low-level delegate call failed\") */\n      tag_222\n        /* \"@openzeppelin/contracts-upgradeable@4.8.0/proxy/ERC1967/ERC1967UpgradeUpgradeable.sol\":7473:7480  success */\n      dup3\n        /* \"@openzeppelin/contracts-upgradeable@4.8.0/proxy/ERC1967/ERC1967UpgradeUpgradeable.sol\":7482:7492  returndata */\n      dup3\n        /* \"@openzeppelin/contracts-upgradeable@4.8.0/proxy/ERC1967/ERC1967UpgradeUpgradeable.sol\":7437:7536  AddressUpgradeable.verifyCallResult(success, returndata, \"Address: low-level delegate call failed\") */\n      mload(0x40)\n      dup1\n      0x60\n      add\n      0x40\n      mstore\n      dup1\n      0x27\n      dup2\n      mstore\n      0x20\n      add\n      data_9fdcd12e4b726339b32a442b0a448365d5d85c96b2d2cff917b4f66c63110398\n      0x27\n      swap2\n      codecopy\n        /* \"@openzeppelin/contracts-upgradeable@4.8.0/proxy/ERC1967/ERC1967UpgradeUpgradeable.sol\":7437:7472  AddressUpgradeable.verifyCallResult */\n      tag_568\n        /* \"@openzeppelin/contracts-upgradeable@4.8.0/proxy/ERC1967/ERC1967UpgradeUpgradeable.sol\":7437:7536  AddressUpgradeable.verifyCallResult(success, returndata, \"Address: low-level delegate call failed\") */\n      jump\t// in\n        /* \"@openzeppelin/contracts-upgradeable@4.8.0/utils/math/MathUpgradeable.sol\":816:969  function average(uint256 a, uint256 b) internal pure returns (uint256) {... */\n    tag_504:\n        /* \"@openzeppelin/contracts-upgradeable@4.8.0/utils/math/MathUpgradeable.sol\":878:885  uint256 */\n      0x00\n        /* \"@openzeppelin/contracts-upgradeable@4.8.0/utils/math/MathUpgradeable.sol\":951:962  (a ^ b) / 2 */\n      tag_571\n        /* \"@openzeppelin/contracts-upgradeable@4.8.0/utils/math/MathUpgradeable.sol\":961:962  2 */\n      0x02\n        /* \"@openzeppelin/contracts-upgradeable@4.8.0/utils/math/MathUpgradeable.sol\":952:957  a ^ b */\n      dup5\n      dup5\n      xor\n        /* \"@openzeppelin/contracts-upgradeable@4.8.0/utils/math/MathUpgradeable.sol\":951:962  (a ^ b) / 2 */\n      tag_572\n      jump\t// in\n    tag_571:\n        /* \"@openzeppelin/contracts-upgradeable@4.8.0/utils/math/MathUpgradeable.sol\":941:962  (a & b) + (a ^ b) / 2 */\n      tag_171\n      swap1\n        /* \"@openzeppelin/contracts-upgradeable@4.8.0/utils/math/MathUpgradeable.sol\":942:947  a & b */\n      dup5\n      dup5\n      and\n        /* \"@openzeppelin/contracts-upgradeable@4.8.0/utils/math/MathUpgradeable.sol\":941:962  (a & b) + (a ^ b) / 2 */\n      tag_201\n      jump\t// in\n        /* \"@openzeppelin/contracts-upgradeable@4.8.0/token/ERC20/extensions/ERC20SnapshotUpgradeable.sol\":8324:8468  function _updateAccountSnapshot(address account) private {... */\n    tag_545:\n      sub(shl(0xa0, 0x01), 0x01)\n        /* \"@openzeppelin/contracts-upgradeable@4.8.0/token/ERC20/extensions/ERC20SnapshotUpgradeable.sol\":8407:8440  _accountBalanceSnapshots[account] */\n      dup2\n      and\n      0x00\n      swap1\n      dup2\n      mstore\n        /* \"@openzeppelin/contracts-upgradeable@4.8.0/token/ERC20/extensions/ERC20SnapshotUpgradeable.sol\":8407:8431  _accountBalanceSnapshots */\n      0x97\n        /* \"@openzeppelin/contracts-upgradeable@4.8.0/token/ERC20/extensions/ERC20SnapshotUpgradeable.sol\":8407:8440  _accountBalanceSnapshots[account] */\n      0x20\n      swap1\n      dup2\n      mstore\n      0x40\n      dup1\n      dup4\n      keccak256\n        /* \"@openzeppelin/contracts-upgradeable@4.8.0/token/ERC20/ERC20Upgradeable.sol\":3843:3852  _balances */\n      0x33\n        /* \"@openzeppelin/contracts-upgradeable@4.8.0/token/ERC20/ERC20Upgradeable.sol\":3843:3861  _balances[account] */\n      swap1\n      swap3\n      mstore\n      swap1\n      swap2\n      keccak256\n      sload\n        /* \"@openzeppelin/contracts-upgradeable@4.8.0/token/ERC20/extensions/ERC20SnapshotUpgradeable.sol\":8391:8461  _updateSnapshot(_accountBalanceSnapshots[account], balanceOf(account)) */\n      tag_190\n      swap2\n        /* \"@openzeppelin/contracts-upgradeable@4.8.0/token/ERC20/extensions/ERC20SnapshotUpgradeable.sol\":8407:8440  _accountBalanceSnapshots[account] */\n      swap1\n        /* \"@openzeppelin/contracts-upgradeable@4.8.0/token/ERC20/extensions/ERC20SnapshotUpgradeable.sol\":8391:8406  _updateSnapshot */\n      tag_581\n        /* \"@openzeppelin/contracts-upgradeable@4.8.0/token/ERC20/extensions/ERC20SnapshotUpgradeable.sol\":8391:8461  _updateSnapshot(_accountBalanceSnapshots[account], balanceOf(account)) */\n      jump\t// in\n        /* \"@openzeppelin/contracts-upgradeable@4.8.0/token/ERC20/extensions/ERC20SnapshotUpgradeable.sol\":8442:8460  balanceOf(account) */\n    tag_580:\n        /* \"@openzeppelin/contracts-upgradeable@4.8.0/token/ERC20/extensions/ERC20SnapshotUpgradeable.sol\":8391:8406  _updateSnapshot */\n      tag_581\n        /* \"@openzeppelin/contracts-upgradeable@4.8.0/token/ERC20/extensions/ERC20SnapshotUpgradeable.sol\":8391:8461  _updateSnapshot(_accountBalanceSnapshots[account], balanceOf(account)) */\n      jump\t// in\n        /* \"@openzeppelin/contracts-upgradeable@4.8.0/token/ERC20/extensions/ERC20SnapshotUpgradeable.sol\":8474:8590  function _updateTotalSupplySnapshot() private {... */\n    tag_547:\n        /* \"@openzeppelin/contracts-upgradeable@4.8.0/token/ERC20/extensions/ERC20SnapshotUpgradeable.sol\":8530:8583  _updateSnapshot(_totalSupplySnapshots, totalSupply()) */\n      tag_206\n        /* \"@openzeppelin/contracts-upgradeable@4.8.0/token/ERC20/extensions/ERC20SnapshotUpgradeable.sol\":8546:8567  _totalSupplySnapshots */\n      0x98\n        /* \"@openzeppelin/contracts-upgradeable@4.8.0/token/ERC20/extensions/ERC20SnapshotUpgradeable.sol\":8569:8582  totalSupply() */\n      tag_580\n        /* \"@openzeppelin/contracts-upgradeable@4.8.0/token/ERC20/ERC20Upgradeable.sol\":3666:3678  _totalSupply */\n      sload(0x35)\n      swap1\n        /* \"@openzeppelin/contracts-upgradeable@4.8.0/token/ERC20/ERC20Upgradeable.sol\":3579:3685  function totalSupply() public view virtual override returns (uint256) {... */\n      jump\n        /* \"@openzeppelin/contracts-upgradeable@4.8.0/utils/AddressUpgradeable.sol\":7438:7733  function verifyCallResult(... */\n    tag_568:\n        /* \"@openzeppelin/contracts-upgradeable@4.8.0/utils/AddressUpgradeable.sol\":7584:7596  bytes memory */\n      0x60\n        /* \"@openzeppelin/contracts-upgradeable@4.8.0/utils/AddressUpgradeable.sol\":7612:7619  success */\n      dup4\n        /* \"@openzeppelin/contracts-upgradeable@4.8.0/utils/AddressUpgradeable.sol\":7608:7727  if (success) {... */\n      iszero\n      tag_586\n      jumpi\n      pop\n        /* \"@openzeppelin/contracts-upgradeable@4.8.0/utils/AddressUpgradeable.sol\":7642:7652  returndata */\n      dup2\n        /* \"@openzeppelin/contracts-upgradeable@4.8.0/utils/AddressUpgradeable.sol\":7635:7652  return returndata */\n      jump(tag_171)\n        /* \"@openzeppelin/contracts-upgradeable@4.8.0/utils/AddressUpgradeable.sol\":7608:7727  if (success) {... */\n    tag_586:\n        /* \"@openzeppelin/contracts-upgradeable@4.8.0/utils/AddressUpgradeable.sol\":7683:7716  _revert(returndata, errorMessage) */\n      tag_171\n        /* \"@openzeppelin/contracts-upgradeable@4.8.0/utils/AddressUpgradeable.sol\":7691:7701  returndata */\n      dup4\n        /* \"@openzeppelin/contracts-upgradeable@4.8.0/utils/AddressUpgradeable.sol\":7703:7715  errorMessage */\n      dup4\n        /* \"@openzeppelin/contracts-upgradeable@4.8.0/utils/AddressUpgradeable.sol\":7683:7690  _revert */\n      tag_589\n        /* \"@openzeppelin/contracts-upgradeable@4.8.0/utils/AddressUpgradeable.sol\":7683:7716  _revert(returndata, errorMessage) */\n      jump\t// in\n        /* \"@openzeppelin/contracts-upgradeable@4.8.0/token/ERC20/extensions/ERC20SnapshotUpgradeable.sol\":8596:8900  function _updateSnapshot(Snapshots storage snapshots, uint256 currentValue) private {... */\n    tag_581:\n        /* \"@openzeppelin/contracts-upgradeable@4.8.0/token/ERC20/extensions/ERC20SnapshotUpgradeable.sol\":8690:8707  uint256 currentId */\n      0x00\n        /* \"@openzeppelin/contracts-upgradeable@4.8.0/token/ERC20/extensions/ERC20SnapshotUpgradeable.sol\":8710:8733  _getCurrentSnapshotId() */\n      tag_592\n        /* \"@openzeppelin/contracts-upgradeable@4.8.0/token/ERC20/extensions/ERC20SnapshotUpgradeable.sol\":8710:8731  _getCurrentSnapshotId */\n      tag_414\n        /* \"@openzeppelin/contracts-upgradeable@4.8.0/token/ERC20/extensions/ERC20SnapshotUpgradeable.sol\":8710:8733  _getCurrentSnapshotId() */\n      jump\t// in\n    tag_592:\n        /* \"@openzeppelin/contracts-upgradeable@4.8.0/token/ERC20/extensions/ERC20SnapshotUpgradeable.sol\":8690:8733  uint256 currentId = _getCurrentSnapshotId() */\n      swap1\n      pop\n      dup1\n        /* \"@openzeppelin/contracts-upgradeable@4.8.0/token/ERC20/extensions/ERC20SnapshotUpgradeable.sol\":8747:8777  _lastSnapshotId(snapshots.ids) */\n      tag_593\n        /* \"@openzeppelin/contracts-upgradeable@4.8.0/token/ERC20/extensions/ERC20SnapshotUpgradeable.sol\":8763:8772  snapshots */\n      dup5\n        /* \"@openzeppelin/contracts-upgradeable@4.8.0/token/ERC20/extensions/ERC20SnapshotUpgradeable.sol\":8747:8762  _lastSnapshotId */\n      tag_594\n        /* \"@openzeppelin/contracts-upgradeable@4.8.0/token/ERC20/extensions/ERC20SnapshotUpgradeable.sol\":8747:8777  _lastSnapshotId(snapshots.ids) */\n      jump\t// in\n    tag_593:\n        /* \"@openzeppelin/contracts-upgradeable@4.8.0/token/ERC20/extensions/ERC20SnapshotUpgradeable.sol\":8747:8789  _lastSnapshotId(snapshots.ids) < currentId */\n      lt\n        /* \"@openzeppelin/contracts-upgradeable@4.8.0/token/ERC20/extensions/ERC20SnapshotUpgradeable.sol\":8743:8894  if (_lastSnapshotId(snapshots.ids) < currentId) {... */\n      iszero\n      tag_361\n      jumpi\n        /* \"@openzeppelin/contracts-upgradeable@4.8.0/token/ERC20/extensions/ERC20SnapshotUpgradeable.sol\":8805:8834  snapshots.ids.push(currentId) */\n      dup3\n      sload\n      0x01\n      dup1\n      dup3\n      add\n      dup6\n      sstore\n      0x00\n      dup6\n      dup2\n      mstore\n      0x20\n      dup1\n      dup3\n      keccak256\n      swap1\n      swap4\n      add\n      swap4\n      swap1\n      swap4\n      sstore\n        /* \"@openzeppelin/contracts-upgradeable@4.8.0/token/ERC20/extensions/ERC20SnapshotUpgradeable.sol\":8848:8864  snapshots.values */\n      swap4\n      dup5\n      add\n        /* \"@openzeppelin/contracts-upgradeable@4.8.0/token/ERC20/extensions/ERC20SnapshotUpgradeable.sol\":8848:8883  snapshots.values.push(currentValue) */\n      dup1\n      sload\n      swap5\n      dup6\n      add\n      dup2\n      sstore\n      dup3\n      mstore\n      swap1\n      keccak256\n      swap1\n      swap2\n      add\n      sstore\n        /* \"@openzeppelin/contracts-upgradeable@4.8.0/token/ERC20/extensions/ERC20SnapshotUpgradeable.sol\":8596:8900  function _updateSnapshot(Snapshots storage snapshots, uint256 currentValue) private {... */\n      jump\t// out\n        /* \"@openzeppelin/contracts-upgradeable@4.8.0/utils/AddressUpgradeable.sol\":7739:8279  function _revert(bytes memory returndata, string memory errorMessage) private pure {... */\n    tag_589:\n        /* \"@openzeppelin/contracts-upgradeable@4.8.0/utils/AddressUpgradeable.sol\":7898:7915  returndata.length */\n      dup2\n      mload\n        /* \"@openzeppelin/contracts-upgradeable@4.8.0/utils/AddressUpgradeable.sol\":7898:7919  returndata.length > 0 */\n      iszero\n        /* \"@openzeppelin/contracts-upgradeable@4.8.0/utils/AddressUpgradeable.sol\":7894:8273  if (returndata.length > 0) {... */\n      tag_599\n      jumpi\n        /* \"@openzeppelin/contracts-upgradeable@4.8.0/utils/AddressUpgradeable.sol\":8126:8136  returndata */\n      dup2\n        /* \"@openzeppelin/contracts-upgradeable@4.8.0/utils/AddressUpgradeable.sol\":8120:8137  mload(returndata) */\n      mload\n        /* \"@openzeppelin/contracts-upgradeable@4.8.0/utils/AddressUpgradeable.sol\":8182:8197  returndata_size */\n      dup1\n        /* \"@openzeppelin/contracts-upgradeable@4.8.0/utils/AddressUpgradeable.sol\":8169:8179  returndata */\n      dup4\n        /* \"@openzeppelin/contracts-upgradeable@4.8.0/utils/AddressUpgradeable.sol\":8165:8167  32 */\n      0x20\n        /* \"@openzeppelin/contracts-upgradeable@4.8.0/utils/AddressUpgradeable.sol\":8161:8180  add(32, returndata) */\n      add\n        /* \"@openzeppelin/contracts-upgradeable@4.8.0/utils/AddressUpgradeable.sol\":8154:8198  revert(add(32, returndata), returndata_size) */\n      revert\n        /* \"@openzeppelin/contracts-upgradeable@4.8.0/utils/AddressUpgradeable.sol\":7894:8273  if (returndata.length > 0) {... */\n    tag_599:\n        /* \"@openzeppelin/contracts-upgradeable@4.8.0/utils/AddressUpgradeable.sol\":8249:8261  errorMessage */\n      dup1\n        /* \"@openzeppelin/contracts-upgradeable@4.8.0/utils/AddressUpgradeable.sol\":8242:8262  revert(errorMessage) */\n      mload(0x40)\n      shl(0xe5, 0x461bcd)\n      dup2\n      mstore\n      0x04\n      add\n      tag_180\n      swap2\n      swap1\n      tag_39\n      jump\t// in\n        /* \"@openzeppelin/contracts-upgradeable@4.8.0/token/ERC20/extensions/ERC20SnapshotUpgradeable.sol\":8906:9112  function _lastSnapshotId(uint256[] storage ids) private view returns (uint256) {... */\n    tag_594:\n        /* \"@openzeppelin/contracts-upgradeable@4.8.0/token/ERC20/extensions/ERC20SnapshotUpgradeable.sol\":8999:9009  ids.length */\n      dup1\n      sload\n        /* \"@openzeppelin/contracts-upgradeable@4.8.0/token/ERC20/extensions/ERC20SnapshotUpgradeable.sol\":8976:8983  uint256 */\n      0x00\n      swap1\n        /* \"@openzeppelin/contracts-upgradeable@4.8.0/token/ERC20/extensions/ERC20SnapshotUpgradeable.sol\":8999:9014  ids.length == 0 */\n      dup2\n      sub\n        /* \"@openzeppelin/contracts-upgradeable@4.8.0/token/ERC20/extensions/ERC20SnapshotUpgradeable.sol\":8995:9106  if (ids.length == 0) {... */\n      tag_603\n      jumpi\n      pop\n        /* \"@openzeppelin/contracts-upgradeable@4.8.0/token/ERC20/extensions/ERC20SnapshotUpgradeable.sol\":9037:9038  0 */\n      0x00\n      swap2\n        /* \"@openzeppelin/contracts-upgradeable@4.8.0/token/ERC20/extensions/ERC20SnapshotUpgradeable.sol\":8906:9112  function _lastSnapshotId(uint256[] storage ids) private view returns (uint256) {... */\n      swap1\n      pop\n      jump\t// out\n        /* \"@openzeppelin/contracts-upgradeable@4.8.0/token/ERC20/extensions/ERC20SnapshotUpgradeable.sol\":8995:9106  if (ids.length == 0) {... */\n    tag_603:\n        /* \"@openzeppelin/contracts-upgradeable@4.8.0/token/ERC20/extensions/ERC20SnapshotUpgradeable.sol\":9080:9090  ids.length */\n      dup2\n      sload\n        /* \"@openzeppelin/contracts-upgradeable@4.8.0/token/ERC20/extensions/ERC20SnapshotUpgradeable.sol\":9076:9079  ids */\n      dup3\n      swap1\n        /* \"@openzeppelin/contracts-upgradeable@4.8.0/token/ERC20/extensions/ERC20SnapshotUpgradeable.sol\":9080:9094  ids.length - 1 */\n      tag_605\n      swap1\n        /* \"@openzeppelin/contracts-upgradeable@4.8.0/token/ERC20/extensions/ERC20SnapshotUpgradeable.sol\":9093:9094  1 */\n      0x01\n      swap1\n        /* \"@openzeppelin/contracts-upgradeable@4.8.0/token/ERC20/extensions/ERC20SnapshotUpgradeable.sol\":9080:9094  ids.length - 1 */\n      tag_513\n      jump\t// in\n    tag_605:\n        /* \"@openzeppelin/contracts-upgradeable@4.8.0/token/ERC20/extensions/ERC20SnapshotUpgradeable.sol\":9076:9095  ids[ids.length - 1] */\n      dup2\n      sload\n      dup2\n      lt\n      tag_607\n      jumpi\n      tag_607\n      tag_424\n      jump\t// in\n    tag_607:\n      swap1\n      0x00\n      mstore\n      keccak256(0x00, 0x20)\n      add\n      sload\n        /* \"@openzeppelin/contracts-upgradeable@4.8.0/token/ERC20/extensions/ERC20SnapshotUpgradeable.sol\":9069:9095  return ids[ids.length - 1] */\n      swap1\n      pop\n        /* \"@openzeppelin/contracts-upgradeable@4.8.0/token/ERC20/extensions/ERC20SnapshotUpgradeable.sol\":8906:9112  function _lastSnapshotId(uint256[] storage ids) private view returns (uint256) {... */\n      swap2\n      swap1\n      pop\n      jump\t// out\n        /* \"@openzeppelin/contracts-upgradeable@4.8.0/token/ERC20/extensions/ERC20SnapshotUpgradeable.sol\":8995:9106  if (ids.length == 0) {... */\n    tag_604:\n        /* \"@openzeppelin/contracts-upgradeable@4.8.0/token/ERC20/extensions/ERC20SnapshotUpgradeable.sol\":8906:9112  function _lastSnapshotId(uint256[] storage ids) private view returns (uint256) {... */\n      swap2\n      swap1\n      pop\n      jump\t// out\n        /* \"#utility.yul\":14:264   */\n    tag_609:\n        /* \"#utility.yul\":99:100   */\n      0x00\n        /* \"#utility.yul\":109:222   */\n    tag_619:\n        /* \"#utility.yul\":123:129   */\n      dup4\n        /* \"#utility.yul\":120:121   */\n      dup2\n        /* \"#utility.yul\":117:130   */\n      lt\n        /* \"#utility.yul\":109:222   */\n      iszero\n      tag_621\n      jumpi\n        /* \"#utility.yul\":199:210   */\n      dup2\n      dup2\n      add\n        /* \"#utility.yul\":193:211   */\n      mload\n        /* \"#utility.yul\":180:191   */\n      dup4\n      dup3\n      add\n        /* \"#utility.yul\":173:212   */\n      mstore\n        /* \"#utility.yul\":145:147   */\n      0x20\n        /* \"#utility.yul\":138:148   */\n      add\n        /* \"#utility.yul\":109:222   */\n      jump(tag_619)\n    tag_621:\n      pop\n      pop\n        /* \"#utility.yul\":256:257   */\n      0x00\n        /* \"#utility.yul\":238:254   */\n      swap2\n      add\n        /* \"#utility.yul\":231:258   */\n      mstore\n        /* \"#utility.yul\":14:264   */\n      jump\t// out\n        /* \"#utility.yul\":269:665   */\n    tag_39:\n        /* \"#utility.yul\":418:420   */\n      0x20\n        /* \"#utility.yul\":407:416   */\n      dup2\n        /* \"#utility.yul\":400:421   */\n      mstore\n        /* \"#utility.yul\":381:385   */\n      0x00\n        /* \"#utility.yul\":450:456   */\n      dup3\n        /* \"#utility.yul\":444:457   */\n      mload\n        /* \"#utility.yul\":493:499   */\n      dup1\n        /* \"#utility.yul\":488:490   */\n      0x20\n        /* \"#utility.yul\":477:486   */\n      dup5\n        /* \"#utility.yul\":473:491   */\n      add\n        /* \"#utility.yul\":466:500   */\n      mstore\n        /* \"#utility.yul\":509:588   */\n      tag_623\n        /* \"#utility.yul\":581:587   */\n      dup2\n        /* \"#utility.yul\":576:578   */\n      0x40\n        /* \"#utility.yul\":565:574   */\n      dup6\n        /* \"#utility.yul\":561:579   */\n      add\n        /* \"#utility.yul\":556:558   */\n      0x20\n        /* \"#utility.yul\":548:554   */\n      dup8\n        /* \"#utility.yul\":544:559   */\n      add\n        /* \"#utility.yul\":509:588   */\n      tag_609\n      jump\t// in\n    tag_623:\n        /* \"#utility.yul\":649:651   */\n      0x1f\n        /* \"#utility.yul\":628:643   */\n      add\n      not(0x1f)\n        /* \"#utility.yul\":624:653   */\n      and\n        /* \"#utility.yul\":609:654   */\n      swap2\n      swap1\n      swap2\n      add\n        /* \"#utility.yul\":656:658   */\n      0x40\n        /* \"#utility.yul\":605:659   */\n      add\n      swap3\n        /* \"#utility.yul\":269:665   */\n      swap2\n      pop\n      pop\n      jump\t// out\n        /* \"#utility.yul\":670:843   */\n    tag_610:\n        /* \"#utility.yul\":738:758   */\n      dup1\n      calldataload\n      sub(shl(0xa0, 0x01), 0x01)\n        /* \"#utility.yul\":787:818   */\n      dup2\n      and\n        /* \"#utility.yul\":777:819   */\n      dup2\n      eq\n        /* \"#utility.yul\":767:837   */\n      tag_604\n      jumpi\n        /* \"#utility.yul\":833:834   */\n      0x00\n        /* \"#utility.yul\":830:831   */\n      dup1\n        /* \"#utility.yul\":823:835   */\n      revert\n        /* \"#utility.yul\":848:1102   */\n    tag_43:\n        /* \"#utility.yul\":916:922   */\n      0x00\n        /* \"#utility.yul\":924:930   */\n      dup1\n        /* \"#utility.yul\":977:979   */\n      0x40\n        /* \"#utility.yul\":965:974   */\n      dup4\n        /* \"#utility.yul\":956:963   */\n      dup6\n        /* \"#utility.yul\":952:975   */\n      sub\n        /* \"#utility.yul\":948:980   */\n      slt\n        /* \"#utility.yul\":945:997   */\n      iszero\n      tag_627\n      jumpi\n        /* \"#utility.yul\":993:994   */\n      0x00\n        /* \"#utility.yul\":990:991   */\n      dup1\n        /* \"#utility.yul\":983:995   */\n      revert\n        /* \"#utility.yul\":945:997   */\n    tag_627:\n        /* \"#utility.yul\":1016:1045   */\n      tag_628\n        /* \"#utility.yul\":1035:1044   */\n      dup4\n        /* \"#utility.yul\":1016:1045   */\n      tag_610\n      jump\t// in\n    tag_628:\n        /* \"#utility.yul\":1006:1045   */\n      swap5\n        /* \"#utility.yul\":1092:1094   */\n      0x20\n        /* \"#utility.yul\":1077:1095   */\n      swap4\n      swap1\n      swap4\n      add\n        /* \"#utility.yul\":1064:1096   */\n      calldataload\n      swap4\n      pop\n      pop\n      pop\n        /* \"#utility.yul\":848:1102   */\n      jump\t// out\n        /* \"#utility.yul\":1481:1809   */\n    tag_55:\n        /* \"#utility.yul\":1558:1564   */\n      0x00\n        /* \"#utility.yul\":1566:1572   */\n      dup1\n        /* \"#utility.yul\":1574:1580   */\n      0x00\n        /* \"#utility.yul\":1627:1629   */\n      0x60\n        /* \"#utility.yul\":1615:1624   */\n      dup5\n        /* \"#utility.yul\":1606:1613   */\n      dup7\n        /* \"#utility.yul\":1602:1625   */\n      sub\n        /* \"#utility.yul\":1598:1630   */\n      slt\n        /* \"#utility.yul\":1595:1647   */\n      iszero\n      tag_632\n      jumpi\n        /* \"#utility.yul\":1643:1644   */\n      0x00\n        /* \"#utility.yul\":1640:1641   */\n      dup1\n        /* \"#utility.yul\":1633:1645   */\n      revert\n        /* \"#utility.yul\":1595:1647   */\n    tag_632:\n        /* \"#utility.yul\":1666:1695   */\n      tag_633\n        /* \"#utility.yul\":1685:1694   */\n      dup5\n        /* \"#utility.yul\":1666:1695   */\n      tag_610\n      jump\t// in\n    tag_633:\n        /* \"#utility.yul\":1656:1695   */\n      swap3\n      pop\n        /* \"#utility.yul\":1714:1752   */\n      tag_634\n        /* \"#utility.yul\":1748:1750   */\n      0x20\n        /* \"#utility.yul\":1737:1746   */\n      dup6\n        /* \"#utility.yul\":1733:1751   */\n      add\n        /* \"#utility.yul\":1714:1752   */\n      tag_610\n      jump\t// in\n    tag_634:\n        /* \"#utility.yul\":1704:1752   */\n      swap2\n      pop\n        /* \"#utility.yul\":1799:1801   */\n      0x40\n        /* \"#utility.yul\":1788:1797   */\n      dup5\n        /* \"#utility.yul\":1784:1802   */\n      add\n        /* \"#utility.yul\":1771:1803   */\n      calldataload\n        /* \"#utility.yul\":1761:1803   */\n      swap1\n      pop\n        /* \"#utility.yul\":1481:1809   */\n      swap3\n      pop\n      swap3\n      pop\n      swap3\n      jump\t// out\n        /* \"#utility.yul\":2003:2189   */\n    tag_66:\n        /* \"#utility.yul\":2062:2068   */\n      0x00\n        /* \"#utility.yul\":2115:2117   */\n      0x20\n        /* \"#utility.yul\":2103:2112   */\n      dup3\n        /* \"#utility.yul\":2094:2101   */\n      dup5\n        /* \"#utility.yul\":2090:2113   */\n      sub\n        /* \"#utility.yul\":2086:2118   */\n      slt\n        /* \"#utility.yul\":2083:2135   */\n      iszero\n      tag_637\n      jumpi\n        /* \"#utility.yul\":2131:2132   */\n      0x00\n        /* \"#utility.yul\":2128:2129   */\n      dup1\n        /* \"#utility.yul\":2121:2133   */\n      revert\n        /* \"#utility.yul\":2083:2135   */\n    tag_637:\n        /* \"#utility.yul\":2154:2183   */\n      tag_171\n        /* \"#utility.yul\":2173:2182   */\n      dup3\n        /* \"#utility.yul\":2154:2183   */\n      tag_610\n      jump\t// in\n        /* \"#utility.yul\":2194:2374   */\n    tag_83:\n        /* \"#utility.yul\":2253:2259   */\n      0x00\n        /* \"#utility.yul\":2306:2308   */\n      0x20\n        /* \"#utility.yul\":2294:2303   */\n      dup3\n        /* \"#utility.yul\":2285:2292   */\n      dup5\n        /* \"#utility.yul\":2281:2304   */\n      sub\n        /* \"#utility.yul\":2277:2309   */\n      slt\n        /* \"#utility.yul\":2274:2326   */\n      iszero\n      tag_640\n      jumpi\n        /* \"#utility.yul\":2322:2323   */\n      0x00\n        /* \"#utility.yul\":2319:2320   */\n      dup1\n        /* \"#utility.yul\":2312:2324   */\n      revert\n        /* \"#utility.yul\":2274:2326   */\n    tag_640:\n      pop\n        /* \"#utility.yul\":2345:2368   */\n      calldataload\n      swap2\n        /* \"#utility.yul\":2194:2374   */\n      swap1\n      pop\n      jump\t// out\n        /* \"#utility.yul\":2379:2506   */\n    tag_193:\n        /* \"#utility.yul\":2440:2450   */\n      0x4e487b71\n        /* \"#utility.yul\":2435:2438   */\n      0xe0\n        /* \"#utility.yul\":2431:2451   */\n      shl\n        /* \"#utility.yul\":2428:2429   */\n      0x00\n        /* \"#utility.yul\":2421:2452   */\n      mstore\n        /* \"#utility.yul\":2471:2475   */\n      0x41\n        /* \"#utility.yul\":2468:2469   */\n      0x04\n        /* \"#utility.yul\":2461:2476   */\n      mstore\n        /* \"#utility.yul\":2495:2499   */\n      0x24\n        /* \"#utility.yul\":2492:2493   */\n      0x00\n        /* \"#utility.yul\":2485:2500   */\n      revert\n        /* \"#utility.yul\":2511:3506   */\n    tag_92:\n        /* \"#utility.yul\":2588:2594   */\n      0x00\n        /* \"#utility.yul\":2596:2602   */\n      dup1\n        /* \"#utility.yul\":2649:2651   */\n      0x40\n        /* \"#utility.yul\":2637:2646   */\n      dup4\n        /* \"#utility.yul\":2628:2635   */\n      dup6\n        /* \"#utility.yul\":2624:2647   */\n      sub\n        /* \"#utility.yul\":2620:2652   */\n      slt\n        /* \"#utility.yul\":2617:2669   */\n      iszero\n      tag_643\n      jumpi\n        /* \"#utility.yul\":2665:2666   */\n      0x00\n        /* \"#utility.yul\":2662:2663   */\n      dup1\n        /* \"#utility.yul\":2655:2667   */\n      revert\n        /* \"#utility.yul\":2617:2669   */\n    tag_643:\n        /* \"#utility.yul\":2688:2717   */\n      tag_644\n        /* \"#utility.yul\":2707:2716   */\n      dup4\n        /* \"#utility.yul\":2688:2717   */\n      tag_610\n      jump\t// in\n    tag_644:\n        /* \"#utility.yul\":2678:2717   */\n      swap2\n      pop\n        /* \"#utility.yul\":2768:2770   */\n      0x20\n        /* \"#utility.yul\":2757:2766   */\n      dup4\n        /* \"#utility.yul\":2753:2771   */\n      add\n        /* \"#utility.yul\":2740:2772   */\n      calldataload\n        /* \"#utility.yul\":2791:2809   */\n      0xffffffffffffffff\n        /* \"#utility.yul\":2832:2834   */\n      dup1\n        /* \"#utility.yul\":2824:2830   */\n      dup3\n        /* \"#utility.yul\":2821:2835   */\n      gt\n        /* \"#utility.yul\":2818:2852   */\n      iszero\n      tag_645\n      jumpi\n        /* \"#utility.yul\":2848:2849   */\n      0x00\n        /* \"#utility.yul\":2845:2846   */\n      dup1\n        /* \"#utility.yul\":2838:2850   */\n      revert\n        /* \"#utility.yul\":2818:2852   */\n    tag_645:\n        /* \"#utility.yul\":2886:2892   */\n      dup2\n        /* \"#utility.yul\":2875:2884   */\n      dup6\n        /* \"#utility.yul\":2871:2893   */\n      add\n        /* \"#utility.yul\":2861:2893   */\n      swap2\n      pop\n        /* \"#utility.yul\":2931:2938   */\n      dup6\n        /* \"#utility.yul\":2924:2928   */\n      0x1f\n        /* \"#utility.yul\":2920:2922   */\n      dup4\n        /* \"#utility.yul\":2916:2929   */\n      add\n        /* \"#utility.yul\":2912:2939   */\n      slt\n        /* \"#utility.yul\":2902:2957   */\n      tag_646\n      jumpi\n        /* \"#utility.yul\":2953:2954   */\n      0x00\n        /* \"#utility.yul\":2950:2951   */\n      dup1\n        /* \"#utility.yul\":2943:2955   */\n      revert\n        /* \"#utility.yul\":2902:2957   */\n    tag_646:\n        /* \"#utility.yul\":2989:2991   */\n      dup2\n        /* \"#utility.yul\":2976:2992   */\n      calldataload\n        /* \"#utility.yul\":3011:3013   */\n      dup2\n        /* \"#utility.yul\":3007:3009   */\n      dup2\n        /* \"#utility.yul\":3004:3014   */\n      gt\n        /* \"#utility.yul\":3001:3037   */\n      iszero\n      tag_648\n      jumpi\n        /* \"#utility.yul\":3017:3035   */\n      tag_648\n      tag_193\n      jump\t// in\n    tag_648:\n        /* \"#utility.yul\":3092:3094   */\n      0x40\n        /* \"#utility.yul\":3086:3095   */\n      mload\n        /* \"#utility.yul\":3060:3062   */\n      0x1f\n        /* \"#utility.yul\":3146:3159   */\n      dup3\n      add\n      not(0x1f)\n        /* \"#utility.yul\":3142:3164   */\n      swap1\n      dup2\n      and\n        /* \"#utility.yul\":3166:3168   */\n      0x3f\n        /* \"#utility.yul\":3138:3169   */\n      add\n        /* \"#utility.yul\":3134:3174   */\n      and\n        /* \"#utility.yul\":3122:3175   */\n      dup2\n      add\n      swap1\n        /* \"#utility.yul\":3190:3208   */\n      dup4\n      dup3\n      gt\n        /* \"#utility.yul\":3210:3232   */\n      dup2\n      dup4\n      lt\n        /* \"#utility.yul\":3187:3233   */\n      or\n        /* \"#utility.yul\":3184:3256   */\n      iszero\n      tag_650\n      jumpi\n        /* \"#utility.yul\":3236:3254   */\n      tag_650\n      tag_193\n      jump\t// in\n    tag_650:\n        /* \"#utility.yul\":3276:3286   */\n      dup2\n        /* \"#utility.yul\":3272:3274   */\n      0x40\n        /* \"#utility.yul\":3265:3287   */\n      mstore\n        /* \"#utility.yul\":3311:3313   */\n      dup3\n        /* \"#utility.yul\":3303:3309   */\n      dup2\n        /* \"#utility.yul\":3296:3314   */\n      mstore\n        /* \"#utility.yul\":3351:3358   */\n      dup9\n        /* \"#utility.yul\":3346:3348   */\n      0x20\n        /* \"#utility.yul\":3341:3343   */\n      dup5\n        /* \"#utility.yul\":3337:3339   */\n      dup8\n        /* \"#utility.yul\":3333:3344   */\n      add\n        /* \"#utility.yul\":3329:3349   */\n      add\n        /* \"#utility.yul\":3326:3359   */\n      gt\n        /* \"#utility.yul\":3323:3376   */\n      iszero\n      tag_651\n      jumpi\n        /* \"#utility.yul\":3372:3373   */\n      0x00\n        /* \"#utility.yul\":3369:3370   */\n      dup1\n        /* \"#utility.yul\":3362:3374   */\n      revert\n        /* \"#utility.yul\":3323:3376   */\n    tag_651:\n        /* \"#utility.yul\":3428:3430   */\n      dup3\n        /* \"#utility.yul\":3423:3425   */\n      0x20\n        /* \"#utility.yul\":3419:3421   */\n      dup7\n        /* \"#utility.yul\":3415:3426   */\n      add\n        /* \"#utility.yul\":3410:3412   */\n      0x20\n        /* \"#utility.yul\":3402:3408   */\n      dup4\n        /* \"#utility.yul\":3398:3413   */\n      add\n        /* \"#utility.yul\":3385:3431   */\n      calldatacopy\n        /* \"#utility.yul\":3473:3474   */\n      0x00\n        /* \"#utility.yul\":3468:3470   */\n      0x20\n        /* \"#utility.yul\":3463:3465   */\n      dup5\n        /* \"#utility.yul\":3455:3461   */\n      dup4\n        /* \"#utility.yul\":3451:3466   */\n      add\n        /* \"#utility.yul\":3447:3471   */\n      add\n        /* \"#utility.yul\":3440:3475   */\n      mstore\n        /* \"#utility.yul\":3494:3500   */\n      dup1\n        /* \"#utility.yul\":3484:3500   */\n      swap6\n      pop\n      pop\n      pop\n      pop\n      pop\n      pop\n        /* \"#utility.yul\":2511:3506   */\n      swap3\n      pop\n      swap3\n      swap1\n      pop\n      jump\t// out\n        /* \"#utility.yul\":3901:4161   */\n    tag_151:\n        /* \"#utility.yul\":3969:3975   */\n      0x00\n        /* \"#utility.yul\":3977:3983   */\n      dup1\n        /* \"#utility.yul\":4030:4032   */\n      0x40\n        /* \"#utility.yul\":4018:4027   */\n      dup4\n        /* \"#utility.yul\":4009:4016   */\n      dup6\n        /* \"#utility.yul\":4005:4028   */\n      sub\n        /* \"#utility.yul\":4001:4033   */\n      slt\n        /* \"#utility.yul\":3998:4050   */\n      iszero\n      tag_655\n      jumpi\n        /* \"#utility.yul\":4046:4047   */\n      0x00\n        /* \"#utility.yul\":4043:4044   */\n      dup1\n        /* \"#utility.yul\":4036:4048   */\n      revert\n        /* \"#utility.yul\":3998:4050   */\n    tag_655:\n        /* \"#utility.yul\":4069:4098   */\n      tag_656\n        /* \"#utility.yul\":4088:4097   */\n      dup4\n        /* \"#utility.yul\":4069:4098   */\n      tag_610\n      jump\t// in\n    tag_656:\n        /* \"#utility.yul\":4059:4098   */\n      swap2\n      pop\n        /* \"#utility.yul\":4117:4155   */\n      tag_657\n        /* \"#utility.yul\":4151:4153   */\n      0x20\n        /* \"#utility.yul\":4140:4149   */\n      dup5\n        /* \"#utility.yul\":4136:4154   */\n      add\n        /* \"#utility.yul\":4117:4155   */\n      tag_610\n      jump\t// in\n    tag_657:\n        /* \"#utility.yul\":4107:4155   */\n      swap1\n      pop\n        /* \"#utility.yul\":3901:4161   */\n      swap3\n      pop\n      swap3\n      swap1\n      pop\n      jump\t// out\n        /* \"#utility.yul\":4166:4546   */\n    tag_160:\n        /* \"#utility.yul\":4245:4246   */\n      0x01\n        /* \"#utility.yul\":4241:4253   */\n      dup2\n      dup2\n      shr\n      swap1\n        /* \"#utility.yul\":4288:4300   */\n      dup3\n      and\n      dup1\n        /* \"#utility.yul\":4309:4370   */\n      tag_659\n      jumpi\n        /* \"#utility.yul\":4363:4367   */\n      0x7f\n        /* \"#utility.yul\":4355:4361   */\n      dup3\n        /* \"#utility.yul\":4351:4368   */\n      and\n        /* \"#utility.yul\":4341:4368   */\n      swap2\n      pop\n        /* \"#utility.yul\":4309:4370   */\n    tag_659:\n        /* \"#utility.yul\":4416:4418   */\n      0x20\n        /* \"#utility.yul\":4408:4414   */\n      dup3\n        /* \"#utility.yul\":4405:4419   */\n      lt\n        /* \"#utility.yul\":4385:4403   */\n      dup2\n        /* \"#utility.yul\":4382:4420   */\n      sub\n        /* \"#utility.yul\":4379:4540   */\n      tag_660\n      jumpi\n        /* \"#utility.yul\":4462:4472   */\n      0x4e487b71\n        /* \"#utility.yul\":4457:4460   */\n      0xe0\n        /* \"#utility.yul\":4453:4473   */\n      shl\n        /* \"#utility.yul\":4450:4451   */\n      0x00\n        /* \"#utility.yul\":4443:4474   */\n      mstore\n        /* \"#utility.yul\":4497:4501   */\n      0x22\n        /* \"#utility.yul\":4494:4495   */\n      0x04\n        /* \"#utility.yul\":4487:4502   */\n      mstore\n        /* \"#utility.yul\":4525:4529   */\n      0x24\n        /* \"#utility.yul\":4522:4523   */\n      0x00\n        /* \"#utility.yul\":4515:4530   */\n      revert\n        /* \"#utility.yul\":4379:4540   */\n    tag_660:\n      pop\n        /* \"#utility.yul\":4166:4546   */\n      swap2\n      swap1\n      pop\n      jump\t// out\n        /* \"#utility.yul\":4551:4959   */\n    tag_181:\n        /* \"#utility.yul\":4753:4755   */\n      0x20\n        /* \"#utility.yul\":4735:4756   */\n      dup1\n      dup3\n      mstore\n        /* \"#utility.yul\":4792:4794   */\n      0x2c\n        /* \"#utility.yul\":4772:4790   */\n      swap1\n      dup3\n      add\n        /* \"#utility.yul\":4765:4795   */\n      mstore\n        /* \"#utility.yul\":4831:4865   */\n      0x46756e6374696f6e206d7573742062652063616c6c6564207468726f75676820\n        /* \"#utility.yul\":4826:4828   */\n      0x40\n        /* \"#utility.yul\":4811:4829   */\n      dup3\n      add\n        /* \"#utility.yul\":4804:4866   */\n      mstore\n      shl(0xa2, 0x19195b1959d85d1958d85b1b)\n        /* \"#utility.yul\":4897:4899   */\n      0x60\n        /* \"#utility.yul\":4882:4900   */\n      dup3\n      add\n        /* \"#utility.yul\":4875:4917   */\n      mstore\n        /* \"#utility.yul\":4949:4952   */\n      0x80\n        /* \"#utility.yul\":4934:4953   */\n      add\n      swap1\n        /* \"#utility.yul\":4551:4959   */\n      jump\t// out\n        /* \"#utility.yul\":4964:5372   */\n    tag_186:\n        /* \"#utility.yul\":5166:5168   */\n      0x20\n        /* \"#utility.yul\":5148:5169   */\n      dup1\n      dup3\n      mstore\n        /* \"#utility.yul\":5205:5207   */\n      0x2c\n        /* \"#utility.yul\":5185:5203   */\n      swap1\n      dup3\n      add\n        /* \"#utility.yul\":5178:5208   */\n      mstore\n        /* \"#utility.yul\":5244:5278   */\n      0x46756e6374696f6e206d7573742062652063616c6c6564207468726f75676820\n        /* \"#utility.yul\":5239:5241   */\n      0x40\n        /* \"#utility.yul\":5224:5242   */\n      dup3\n      add\n        /* \"#utility.yul\":5217:5279   */\n      mstore\n      shl(0xa0, 0x6163746976652070726f7879)\n        /* \"#utility.yul\":5310:5312   */\n      0x60\n        /* \"#utility.yul\":5295:5313   */\n      dup3\n      add\n        /* \"#utility.yul\":5288:5330   */\n      mstore\n        /* \"#utility.yul\":5362:5365   */\n      0x80\n        /* \"#utility.yul\":5347:5366   */\n      add\n      swap1\n        /* \"#utility.yul\":4964:5372   */\n      jump\t// out\n        /* \"#utility.yul\":5377:5504   */\n    tag_611:\n        /* \"#utility.yul\":5438:5448   */\n      0x4e487b71\n        /* \"#utility.yul\":5433:5436   */\n      0xe0\n        /* \"#utility.yul\":5429:5449   */\n      shl\n        /* \"#utility.yul\":5426:5427   */\n      0x00\n        /* \"#utility.yul\":5419:5450   */\n      mstore\n        /* \"#utility.yul\":5469:5473   */\n      0x11\n        /* \"#utility.yul\":5466:5467   */\n      0x04\n        /* \"#utility.yul\":5459:5474   */\n      mstore\n        /* \"#utility.yul\":5493:5497   */\n      0x24\n        /* \"#utility.yul\":5490:5491   */\n      0x00\n        /* \"#utility.yul\":5483:5498   */\n      revert\n        /* \"#utility.yul\":5509:5634   */\n    tag_201:\n        /* \"#utility.yul\":5574:5583   */\n      dup1\n      dup3\n      add\n        /* \"#utility.yul\":5595:5605   */\n      dup1\n      dup3\n      gt\n        /* \"#utility.yul\":5592:5628   */\n      iszero\n      tag_165\n      jumpi\n        /* \"#utility.yul\":5608:5626   */\n      tag_165\n      tag_611\n      jump\t// in\n        /* \"#utility.yul\":6479:6901   */\n    tag_612:\n        /* \"#utility.yul\":6568:6569   */\n      0x01\n        /* \"#utility.yul\":6611:6616   */\n      dup2\n        /* \"#utility.yul\":6568:6569   */\n      dup2\n        /* \"#utility.yul\":6625:6895   */\n    tag_670:\n        /* \"#utility.yul\":6646:6653   */\n      dup1\n        /* \"#utility.yul\":6636:6644   */\n      dup6\n        /* \"#utility.yul\":6633:6654   */\n      gt\n        /* \"#utility.yul\":6625:6895   */\n      iszero\n      tag_421\n      jumpi\n        /* \"#utility.yul\":6705:6709   */\n      dup2\n        /* \"#utility.yul\":6701:6702   */\n      0x00\n        /* \"#utility.yul\":6697:6703   */\n      not\n        /* \"#utility.yul\":6693:6710   */\n      div\n        /* \"#utility.yul\":6687:6691   */\n      dup3\n        /* \"#utility.yul\":6684:6711   */\n      gt\n        /* \"#utility.yul\":6681:6734   */\n      iszero\n      tag_674\n      jumpi\n        /* \"#utility.yul\":6714:6732   */\n      tag_674\n      tag_611\n      jump\t// in\n    tag_674:\n        /* \"#utility.yul\":6764:6771   */\n      dup1\n        /* \"#utility.yul\":6754:6762   */\n      dup6\n        /* \"#utility.yul\":6750:6772   */\n      and\n        /* \"#utility.yul\":6747:6802   */\n      iszero\n      tag_675\n      jumpi\n        /* \"#utility.yul\":6784:6800   */\n      swap2\n      dup2\n      mul\n      swap2\n        /* \"#utility.yul\":6747:6802   */\n    tag_675:\n        /* \"#utility.yul\":6863:6885   */\n      swap4\n      dup5\n      shr\n      swap4\n        /* \"#utility.yul\":6823:6838   */\n      swap1\n      dup1\n      mul\n      swap1\n        /* \"#utility.yul\":6625:6895   */\n      jump(tag_670)\n        /* \"#utility.yul\":6906:7712   */\n    tag_613:\n        /* \"#utility.yul\":6955:6960   */\n      0x00\n        /* \"#utility.yul\":6985:6993   */\n      dup3\n        /* \"#utility.yul\":6975:7055   */\n      tag_677\n      jumpi\n      pop\n        /* \"#utility.yul\":7026:7027   */\n      0x01\n        /* \"#utility.yul\":7040:7045   */\n      jump(tag_165)\n        /* \"#utility.yul\":6975:7055   */\n    tag_677:\n        /* \"#utility.yul\":7074:7078   */\n      dup2\n        /* \"#utility.yul\":7064:7140   */\n      tag_678\n      jumpi\n      pop\n        /* \"#utility.yul\":7111:7112   */\n      0x00\n        /* \"#utility.yul\":7125:7130   */\n      jump(tag_165)\n        /* \"#utility.yul\":7064:7140   */\n    tag_678:\n        /* \"#utility.yul\":7156:7160   */\n      dup2\n        /* \"#utility.yul\":7174:7175   */\n      0x01\n        /* \"#utility.yul\":7169:7228   */\n      dup2\n      eq\n      tag_680\n      jumpi\n        /* \"#utility.yul\":7242:7243   */\n      0x02\n        /* \"#utility.yul\":7237:7367   */\n      dup2\n      eq\n      tag_681\n      jumpi\n        /* \"#utility.yul\":7149:7367   */\n      jump(tag_679)\n        /* \"#utility.yul\":7169:7228   */\n    tag_680:\n        /* \"#utility.yul\":7199:7200   */\n      0x01\n        /* \"#utility.yul\":7190:7200   */\n      swap2\n      pop\n        /* \"#utility.yul\":7213:7218   */\n      pop\n      jump(tag_165)\n        /* \"#utility.yul\":7237:7367   */\n    tag_681:\n        /* \"#utility.yul\":7274:7277   */\n      0xff\n        /* \"#utility.yul\":7264:7272   */\n      dup5\n        /* \"#utility.yul\":7261:7278   */\n      gt\n        /* \"#utility.yul\":7258:7301   */\n      iszero\n      tag_683\n      jumpi\n        /* \"#utility.yul\":7281:7299   */\n      tag_683\n      tag_611\n      jump\t// in\n    tag_683:\n      pop\n      pop\n        /* \"#utility.yul\":7337:7338   */\n      0x01\n        /* \"#utility.yul\":7323:7339   */\n      dup3\n      shl\n        /* \"#utility.yul\":7352:7357   */\n      jump(tag_165)\n        /* \"#utility.yul\":7149:7367   */\n    tag_679:\n      pop\n        /* \"#utility.yul\":7451:7453   */\n      0x20\n        /* \"#utility.yul\":7441:7449   */\n      dup4\n        /* \"#utility.yul\":7438:7454   */\n      lt\n        /* \"#utility.yul\":7432:7435   */\n      0x0133\n        /* \"#utility.yul\":7426:7430   */\n      dup4\n        /* \"#utility.yul\":7423:7436   */\n      lt\n        /* \"#utility.yul\":7419:7455   */\n      and\n        /* \"#utility.yul\":7413:7415   */\n      0x4e\n        /* \"#utility.yul\":7403:7411   */\n      dup5\n        /* \"#utility.yul\":7400:7416   */\n      lt\n        /* \"#utility.yul\":7395:7397   */\n      0x0b\n        /* \"#utility.yul\":7389:7393   */\n      dup5\n        /* \"#utility.yul\":7386:7398   */\n      lt\n        /* \"#utility.yul\":7382:7417   */\n      and\n        /* \"#utility.yul\":7379:7456   */\n      or\n        /* \"#utility.yul\":7376:7535   */\n      iszero\n      tag_684\n      jumpi\n      pop\n        /* \"#utility.yul\":7488:7507   */\n      dup2\n      dup2\n      exp\n        /* \"#utility.yul\":7520:7525   */\n      jump(tag_165)\n        /* \"#utility.yul\":7376:7535   */\n    tag_684:\n        /* \"#utility.yul\":7567:7601   */\n      tag_685\n        /* \"#utility.yul\":7592:7600   */\n      dup4\n        /* \"#utility.yul\":7586:7590   */\n      dup4\n        /* \"#utility.yul\":7567:7601   */\n      tag_612\n      jump\t// in\n    tag_685:\n        /* \"#utility.yul\":7637:7643   */\n      dup1\n        /* \"#utility.yul\":7633:7634   */\n      0x00\n        /* \"#utility.yul\":7629:7635   */\n      not\n        /* \"#utility.yul\":7625:7644   */\n      div\n        /* \"#utility.yul\":7616:7623   */\n      dup3\n        /* \"#utility.yul\":7613:7645   */\n      gt\n        /* \"#utility.yul\":7610:7668   */\n      iszero\n      tag_687\n      jumpi\n        /* \"#utility.yul\":7648:7666   */\n      tag_687\n      tag_611\n      jump\t// in\n    tag_687:\n        /* \"#utility.yul\":7686:7706   */\n      mul\n      swap4\n        /* \"#utility.yul\":6906:7712   */\n      swap3\n      pop\n      pop\n      pop\n      jump\t// out\n        /* \"#utility.yul\":7717:7857   */\n    tag_274:\n        /* \"#utility.yul\":7775:7780   */\n      0x00\n        /* \"#utility.yul\":7804:7851   */\n      tag_171\n        /* \"#utility.yul\":7845:7849   */\n      0xff\n        /* \"#utility.yul\":7835:7843   */\n      dup5\n        /* \"#utility.yul\":7831:7850   */\n      and\n        /* \"#utility.yul\":7825:7829   */\n      dup4\n        /* \"#utility.yul\":7804:7851   */\n      tag_613\n      jump\t// in\n        /* \"#utility.yul\":7862:8030   */\n    tag_276:\n        /* \"#utility.yul\":7935:7944   */\n      dup1\n      dup3\n      mul\n        /* \"#utility.yul\":7966:7975   */\n      dup2\n      iszero\n        /* \"#utility.yul\":7983:7998   */\n      dup3\n      dup3\n      div\n        /* \"#utility.yul\":7977:7999   */\n      dup5\n      eq\n        /* \"#utility.yul\":7963:8000   */\n      or\n        /* \"#utility.yul\":7953:8024   */\n      tag_165\n      jumpi\n        /* \"#utility.yul\":8004:8022   */\n      tag_165\n      tag_611\n      jump\t// in\n        /* \"#utility.yul\":11430:11614   */\n    tag_366:\n        /* \"#utility.yul\":11500:11506   */\n      0x00\n        /* \"#utility.yul\":11553:11555   */\n      0x20\n        /* \"#utility.yul\":11541:11550   */\n      dup3\n        /* \"#utility.yul\":11532:11539   */\n      dup5\n        /* \"#utility.yul\":11528:11551   */\n      sub\n        /* \"#utility.yul\":11524:11556   */\n      slt\n        /* \"#utility.yul\":11521:11573   */\n      iszero\n      tag_703\n      jumpi\n        /* \"#utility.yul\":11569:11570   */\n      0x00\n        /* \"#utility.yul\":11566:11567   */\n      dup1\n        /* \"#utility.yul\":11559:11571   */\n      revert\n        /* \"#utility.yul\":11521:11573   */\n    tag_703:\n      pop\n        /* \"#utility.yul\":11592:11608   */\n      mload\n      swap2\n        /* \"#utility.yul\":11430:11614   */\n      swap1\n      pop\n      jump\t// out\n        /* \"#utility.yul\":14679:14806   */\n    tag_424:\n        /* \"#utility.yul\":14740:14750   */\n      0x4e487b71\n        /* \"#utility.yul\":14735:14738   */\n      0xe0\n        /* \"#utility.yul\":14731:14751   */\n      shl\n        /* \"#utility.yul\":14728:14729   */\n      0x00\n        /* \"#utility.yul\":14721:14752   */\n      mstore\n        /* \"#utility.yul\":14771:14775   */\n      0x32\n        /* \"#utility.yul\":14768:14769   */\n      0x04\n        /* \"#utility.yul\":14761:14776   */\n      mstore\n        /* \"#utility.yul\":14795:14799   */\n      0x24\n        /* \"#utility.yul\":14792:14793   */\n      0x00\n        /* \"#utility.yul\":14785:14800   */\n      revert\n        /* \"#utility.yul\":14811:15218   */\n    tag_431:\n        /* \"#utility.yul\":15013:15015   */\n      0x20\n        /* \"#utility.yul\":14995:15016   */\n      dup1\n      dup3\n      mstore\n        /* \"#utility.yul\":15052:15054   */\n      0x2b\n        /* \"#utility.yul\":15032:15050   */\n      swap1\n      dup3\n      add\n        /* \"#utility.yul\":15025:15055   */\n      mstore\n        /* \"#utility.yul\":15091:15125   */\n      0x496e697469616c697a61626c653a20636f6e7472616374206973206e6f742069\n        /* \"#utility.yul\":15086:15088   */\n      0x40\n        /* \"#utility.yul\":15071:15089   */\n      dup3\n      add\n        /* \"#utility.yul\":15064:15126   */\n      mstore\n      shl(0xa8, 0x6e697469616c697a696e67)\n        /* \"#utility.yul\":15157:15159   */\n      0x60\n        /* \"#utility.yul\":15142:15160   */\n      dup3\n      add\n        /* \"#utility.yul\":15135:15176   */\n      mstore\n        /* \"#utility.yul\":15208:15211   */\n      0x80\n        /* \"#utility.yul\":15193:15212   */\n      add\n      swap1\n        /* \"#utility.yul\":14811:15218   */\n      jump\t// out\n        /* \"#utility.yul\":15986:16114   */\n    tag_513:\n        /* \"#utility.yul\":16053:16062   */\n      dup2\n      dup2\n      sub\n        /* \"#utility.yul\":16074:16085   */\n      dup2\n      dup2\n      gt\n        /* \"#utility.yul\":16071:16108   */\n      iszero\n      tag_165\n      jumpi\n        /* \"#utility.yul\":16088:16106   */\n      tag_165\n      tag_611\n      jump\t// in\n        /* \"#utility.yul\":16245:16790   */\n    tag_615:\n        /* \"#utility.yul\":16347:16349   */\n      0x1f\n        /* \"#utility.yul\":16342:16345   */\n      dup3\n        /* \"#utility.yul\":16339:16350   */\n      gt\n        /* \"#utility.yul\":16336:16784   */\n      iszero\n      tag_361\n      jumpi\n        /* \"#utility.yul\":16383:16384   */\n      0x00\n        /* \"#utility.yul\":16408:16413   */\n      dup2\n        /* \"#utility.yul\":16404:16406   */\n      dup2\n        /* \"#utility.yul\":16397:16414   */\n      mstore\n        /* \"#utility.yul\":16453:16457   */\n      0x20\n        /* \"#utility.yul\":16449:16451   */\n      dup2\n        /* \"#utility.yul\":16439:16458   */\n      keccak256\n        /* \"#utility.yul\":16523:16525   */\n      0x1f\n        /* \"#utility.yul\":16511:16521   */\n      dup6\n        /* \"#utility.yul\":16507:16526   */\n      add\n        /* \"#utility.yul\":16504:16505   */\n      0x05\n        /* \"#utility.yul\":16500:16527   */\n      shr\n        /* \"#utility.yul\":16494:16498   */\n      dup2\n        /* \"#utility.yul\":16490:16528   */\n      add\n        /* \"#utility.yul\":16559:16563   */\n      0x20\n        /* \"#utility.yul\":16547:16557   */\n      dup7\n        /* \"#utility.yul\":16544:16564   */\n      lt\n        /* \"#utility.yul\":16541:16588   */\n      iszero\n      tag_722\n      jumpi\n      pop\n        /* \"#utility.yul\":16582:16586   */\n      dup1\n        /* \"#utility.yul\":16541:16588   */\n    tag_722:\n        /* \"#utility.yul\":16637:16639   */\n      0x1f\n        /* \"#utility.yul\":16632:16635   */\n      dup6\n        /* \"#utility.yul\":16628:16640   */\n      add\n        /* \"#utility.yul\":16625:16626   */\n      0x05\n        /* \"#utility.yul\":16621:16641   */\n      shr\n        /* \"#utility.yul\":16615:16619   */\n      dup3\n        /* \"#utility.yul\":16611:16642   */\n      add\n        /* \"#utility.yul\":16601:16642   */\n      swap2\n      pop\n        /* \"#utility.yul\":16692:16774   */\n    tag_723:\n        /* \"#utility.yul\":16710:16712   */\n      dup2\n        /* \"#utility.yul\":16703:16708   */\n      dup2\n        /* \"#utility.yul\":16700:16713   */\n      lt\n        /* \"#utility.yul\":16692:16774   */\n      iszero\n      tag_725\n      jumpi\n        /* \"#utility.yul\":16755:16772   */\n      dup3\n      dup2\n      sstore\n        /* \"#utility.yul\":16736:16737   */\n      0x01\n        /* \"#utility.yul\":16725:16738   */\n      add\n        /* \"#utility.yul\":16692:16774   */\n      jump(tag_723)\n    tag_725:\n        /* \"#utility.yul\":16696:16699   */\n      pop\n      pop\n      pop\n        /* \"#utility.yul\":16245:16790   */\n      pop\n      pop\n      pop\n      jump\t// out\n        /* \"#utility.yul\":16966:18318   */\n    tag_522:\n        /* \"#utility.yul\":17092:17095   */\n      dup2\n        /* \"#utility.yul\":17086:17096   */\n      mload\n        /* \"#utility.yul\":17119:17137   */\n      0xffffffffffffffff\n        /* \"#utility.yul\":17111:17117   */\n      dup2\n        /* \"#utility.yul\":17108:17138   */\n      gt\n        /* \"#utility.yul\":17105:17161   */\n      iszero\n      tag_729\n      jumpi\n        /* \"#utility.yul\":17141:17159   */\n      tag_729\n      tag_193\n      jump\t// in\n    tag_729:\n        /* \"#utility.yul\":17170:17267   */\n      tag_730\n        /* \"#utility.yul\":17260:17266   */\n      dup2\n        /* \"#utility.yul\":17220:17258   */\n      tag_731\n        /* \"#utility.yul\":17252:17256   */\n      dup5\n        /* \"#utility.yul\":17246:17257   */\n      sload\n        /* \"#utility.yul\":17220:17258   */\n      tag_160\n      jump\t// in\n    tag_731:\n        /* \"#utility.yul\":17214:17218   */\n      dup5\n        /* \"#utility.yul\":17170:17267   */\n      tag_615\n      jump\t// in\n    tag_730:\n        /* \"#utility.yul\":17322:17326   */\n      0x20\n      dup1\n        /* \"#utility.yul\":17386:17388   */\n      0x1f\n        /* \"#utility.yul\":17375:17389   */\n      dup4\n      gt\n        /* \"#utility.yul\":17403:17404   */\n      0x01\n        /* \"#utility.yul\":17398:18061   */\n      dup2\n      eq\n      tag_733\n      jumpi\n        /* \"#utility.yul\":18105:18106   */\n      0x00\n        /* \"#utility.yul\":18122:18128   */\n      dup5\n        /* \"#utility.yul\":18119:18208   */\n      iszero\n      tag_734\n      jumpi\n      pop\n        /* \"#utility.yul\":18174:18193   */\n      dup6\n      dup4\n      add\n        /* \"#utility.yul\":18168:18194   */\n      mload\n        /* \"#utility.yul\":18119:18208   */\n    tag_734:\n      not(0x00)\n        /* \"#utility.yul\":16923:16924   */\n      0x03\n        /* \"#utility.yul\":16919:16930   */\n      dup7\n      swap1\n      shl\n        /* \"#utility.yul\":16915:16939   */\n      shr\n        /* \"#utility.yul\":16911:16940   */\n      not\n        /* \"#utility.yul\":16901:16941   */\n      and\n        /* \"#utility.yul\":16947:16948   */\n      0x01\n        /* \"#utility.yul\":16943:16954   */\n      dup6\n      swap1\n      shl\n        /* \"#utility.yul\":16898:16955   */\n      or\n        /* \"#utility.yul\":18221:18302   */\n      dup6\n      sstore\n        /* \"#utility.yul\":17368:18312   */\n      jump(tag_725)\n        /* \"#utility.yul\":17398:18061   */\n    tag_733:\n        /* \"#utility.yul\":16192:16193   */\n      0x00\n        /* \"#utility.yul\":16185:16199   */\n      dup6\n      dup2\n      mstore\n        /* \"#utility.yul\":16229:16233   */\n      0x20\n        /* \"#utility.yul\":16216:16234   */\n      dup2\n      keccak256\n      not(0x1f)\n        /* \"#utility.yul\":17434:17454   */\n      dup7\n      and\n      swap2\n        /* \"#utility.yul\":17552:17788   */\n    tag_737:\n        /* \"#utility.yul\":17566:17573   */\n      dup3\n        /* \"#utility.yul\":17563:17564   */\n      dup2\n        /* \"#utility.yul\":17560:17574   */\n      lt\n        /* \"#utility.yul\":17552:17788   */\n      iszero\n      tag_739\n      jumpi\n        /* \"#utility.yul\":17655:17674   */\n      dup9\n      dup7\n      add\n        /* \"#utility.yul\":17649:17675   */\n      mload\n        /* \"#utility.yul\":17634:17676   */\n      dup3\n      sstore\n        /* \"#utility.yul\":17747:17774   */\n      swap5\n      dup5\n      add\n      swap5\n        /* \"#utility.yul\":17715:17716   */\n      0x01\n        /* \"#utility.yul\":17703:17717   */\n      swap1\n      swap2\n      add\n      swap1\n        /* \"#utility.yul\":17582:17601   */\n      dup5\n      add\n        /* \"#utility.yul\":17552:17788   */\n      jump(tag_737)\n    tag_739:\n        /* \"#utility.yul\":17556:17559   */\n      pop\n        /* \"#utility.yul\":17816:17822   */\n      dup6\n        /* \"#utility.yul\":17807:17814   */\n      dup3\n        /* \"#utility.yul\":17804:17823   */\n      lt\n        /* \"#utility.yul\":17801:18002   */\n      iszero\n      tag_740\n      jumpi\n        /* \"#utility.yul\":17877:17896   */\n      dup8\n      dup6\n      add\n        /* \"#utility.yul\":17871:17897   */\n      mload\n      not(0x00)\n        /* \"#utility.yul\":17960:17961   */\n      0x03\n        /* \"#utility.yul\":17956:17970   */\n      dup9\n      swap1\n      shl\n        /* \"#utility.yul\":17972:17975   */\n      0xf8\n        /* \"#utility.yul\":17952:17976   */\n      and\n        /* \"#utility.yul\":17948:17985   */\n      shr\n        /* \"#utility.yul\":17944:17986   */\n      not\n        /* \"#utility.yul\":17929:17987   */\n      and\n        /* \"#utility.yul\":17914:17988   */\n      dup2\n      sstore\n        /* \"#utility.yul\":17801:18002   */\n    tag_740:\n      pop\n      pop\n      pop\n      pop\n      pop\n        /* \"#utility.yul\":18048:18049   */\n      0x01\n        /* \"#utility.yul\":18032:18046   */\n      swap1\n      dup2\n      shl\n        /* \"#utility.yul\":18028:18050   */\n      add\n        /* \"#utility.yul\":18015:18051   */\n      swap1\n      sstore\n      pop\n        /* \"#utility.yul\":16966:18318   */\n      jump\t// out\n        /* \"#utility.yul\":19075:19362   */\n    tag_563:\n        /* \"#utility.yul\":19204:19207   */\n      0x00\n        /* \"#utility.yul\":19242:19248   */\n      dup3\n        /* \"#utility.yul\":19236:19249   */\n      mload\n        /* \"#utility.yul\":19258:19324   */\n      tag_744\n        /* \"#utility.yul\":19317:19323   */\n      dup2\n        /* \"#utility.yul\":19312:19315   */\n      dup5\n        /* \"#utility.yul\":19305:19309   */\n      0x20\n        /* \"#utility.yul\":19297:19303   */\n      dup8\n        /* \"#utility.yul\":19293:19310   */\n      add\n        /* \"#utility.yul\":19258:19324   */\n      tag_609\n      jump\t// in\n    tag_744:\n        /* \"#utility.yul\":19340:19356   */\n      swap2\n      swap1\n      swap2\n      add\n      swap3\n        /* \"#utility.yul\":19075:19362   */\n      swap2\n      pop\n      pop\n      jump\t// out\n        /* \"#utility.yul\":19367:19584   */\n    tag_572:\n        /* \"#utility.yul\":19407:19408   */\n      0x00\n        /* \"#utility.yul\":19433:19434   */\n      dup3\n        /* \"#utility.yul\":19423:19555   */\n      tag_746\n      jumpi\n        /* \"#utility.yul\":19477:19487   */\n      0x4e487b71\n        /* \"#utility.yul\":19472:19475   */\n      0xe0\n        /* \"#utility.yul\":19468:19488   */\n      shl\n        /* \"#utility.yul\":19465:19466   */\n      0x00\n        /* \"#utility.yul\":19458:19489   */\n      mstore\n        /* \"#utility.yul\":19512:19516   */\n      0x12\n        /* \"#utility.yul\":19509:19510   */\n      0x04\n        /* \"#utility.yul\":19502:19517   */\n      mstore\n        /* \"#utility.yul\":19540:19544   */\n      0x24\n        /* \"#utility.yul\":19537:19538   */\n      0x00\n        /* \"#utility.yul\":19530:19545   */\n      revert\n        /* \"#utility.yul\":19423:19555   */\n    tag_746:\n      pop\n        /* \"#utility.yul\":19569:19578   */\n      div\n      swap1\n        /* \"#utility.yul\":19367:19584   */\n      jump\t// out\n    stop\n    data_75b20eef8615de99c108b05f0dbda081c91897128caa336d75dffb97c4132b4d 360894a13ba1a3210667c828492db98dca3e2076cc3735a920a3ca505d382bbc\n    data_9fdcd12e4b726339b32a442b0a448365d5d85c96b2d2cff917b4f66c63110398 416464726573733a206c6f772d6c6576656c2064656c65676174652063616c6c206661696c6564\n\n    auxdata: 0xa2646970667358221220e998b0591bc15c686d6dea8bfcf04d2db1fe35cbe25211987ec7f6ac98c3ca2f64736f6c63430008110033\n}\n",
				"bytecode": {
					"linkReferences": {},
					"object": "60a06040523060805234801561001457600080fd5b5061001d610022565b6100e2565b600054610100900460ff161561008e5760405162461bcd60e51b815260206004820152602760248201527f496e697469616c697a61626c653a20636f6e747261637420697320696e697469604482015266616c697a696e6760c81b606482015260840160405180910390fd5b60005460ff90811610156100e0576000805460ff191660ff9081179091556040519081527f7f26b83ff96e1f2b6a682f133852f6798a09c465da95921460cefb38474024989060200160405180910390a15b565b6080516121fe6200011a600039600081816105b1015281816105fa0152818161074601528181610786015261081501526121fe6000f3fe60806040526004361061019c5760003560e01c80635c975abb116100ec57806395d89b411161008a578063a457c2d711610064578063a457c2d714610455578063a9059cbb14610475578063dd62ed3e14610495578063f2fde38b146104b557600080fd5b806395d89b411461040b5780639711715a14610420578063981b24d01461043557600080fd5b806379cc6790116100c657806379cc6790146103995780638129fc1c146103b95780638456cb59146103ce5780638da5cb5b146103e357600080fd5b80635c975abb1461033657806370a082311461034e578063715018a61461038457600080fd5b8063395093511161015957806342966c681161013357806342966c68146102ce5780634ee2cd7e146102ee5780634f1ef2861461030e57806352d1902d1461032157600080fd5b806339509351146102795780633f4ba83a1461029957806340c10f19146102ae57600080fd5b806306fdde03146101a1578063095ea7b3146101cc57806318160ddd146101fc57806323b872dd1461021b578063313ce5671461023b5780633659cfe614610257575b600080fd5b3480156101ad57600080fd5b506101b66104d5565b6040516101c39190611bbc565b60405180910390f35b3480156101d857600080fd5b506101ec6101e7366004611c06565b610567565b60405190151581526020016101c3565b34801561020857600080fd5b506035545b6040519081526020016101c3565b34801561022757600080fd5b506101ec610236366004611c30565b610581565b34801561024757600080fd5b50604051601281526020016101c3565b34801561026357600080fd5b50610277610272366004611c6c565b6105a7565b005b34801561028557600080fd5b506101ec610294366004611c06565b61068f565b3480156102a557600080fd5b506102776106b1565b3480156102ba57600080fd5b506102776102c9366004611c06565b6106c3565b3480156102da57600080fd5b506102776102e9366004611c87565b6106d9565b3480156102fa57600080fd5b5061020d610309366004611c06565b6106e3565b61027761031c366004611cb6565b61073c565b34801561032d57600080fd5b5061020d610808565b34801561034257600080fd5b5060fb5460ff166101ec565b34801561035a57600080fd5b5061020d610369366004611c6c565b6001600160a01b031660009081526033602052604090205490565b34801561039057600080fd5b506102776108bb565b3480156103a557600080fd5b506102776103b4366004611c06565b6108cd565b3480156103c557600080fd5b506102776108e2565b3480156103da57600080fd5b50610277610a80565b3480156103ef57600080fd5b5060c9546040516001600160a01b0390911681526020016101c3565b34801561041757600080fd5b506101b6610a90565b34801561042c57600080fd5b50610277610a9f565b34801561044157600080fd5b5061020d610450366004611c87565b610aaf565b34801561046157600080fd5b506101ec610470366004611c06565b610ada565b34801561048157600080fd5b506101ec610490366004611c06565b610b60565b3480156104a157600080fd5b5061020d6104b0366004611d78565b610b6e565b3480156104c157600080fd5b506102776104d0366004611c6c565b610b99565b6060603680546104e490611dab565b80601f016020809104026020016040519081016040528092919081815260200182805461051090611dab565b801561055d5780601f106105325761010080835404028352916020019161055d565b820191906000526020600020905b81548152906001019060200180831161054057829003601f168201915b5050505050905090565b600033610575818585610c0f565b60019150505b92915050565b60003361058f858285610d33565b61059a858585610dad565b60019150505b9392505050565b6001600160a01b037f00000000000000000000000000000000000000000000000000000000000000001630036105f85760405162461bcd60e51b81526004016105ef90611de5565b60405180910390fd5b7f00000000000000000000000000000000000000000000000000000000000000006001600160a01b0316610641600080516020612182833981519152546001600160a01b031690565b6001600160a01b0316146106675760405162461bcd60e51b81526004016105ef90611e31565b61067081610f63565b6040805160008082526020820190925261068c91839190610f6b565b50565b6000336105758185856106a28383610b6e565b6106ac9190611e93565b610c0f565b6106b96110db565b6106c1611135565b565b6106cb6110db565b6106d58282611187565b5050565b61068c3382611254565b6001600160a01b03821660009081526097602052604081208190819061070a908590611394565b9150915081610731576001600160a01b038516600090815260336020526040902054610733565b805b95945050505050565b6001600160a01b037f00000000000000000000000000000000000000000000000000000000000000001630036107845760405162461bcd60e51b81526004016105ef90611de5565b7f00000000000000000000000000000000000000000000000000000000000000006001600160a01b03166107cd600080516020612182833981519152546001600160a01b031690565b6001600160a01b0316146107f35760405162461bcd60e51b81526004016105ef90611e31565b6107fc82610f63565b6106d582826001610f6b565b6000306001600160a01b037f000000000000000000000000000000000000000000000000000000000000000016146108a85760405162461bcd60e51b815260206004820152603860248201527f555550535570677261646561626c653a206d757374206e6f742062652063616c60448201527f6c6564207468726f7567682064656c656761746563616c6c000000000000000060648201526084016105ef565b5060008051602061218283398151915290565b6108c36110db565b6106c16000611490565b6108d8823383610d33565b6106d58282611254565b600054610100900460ff16158080156109025750600054600160ff909116105b8061091c5750303b15801561091c575060005460ff166001145b61097f5760405162461bcd60e51b815260206004820152602e60248201527f496e697469616c697a61626c653a20636f6e747261637420697320616c72656160448201526d191e481a5b9a5d1a585b1a5e995960921b60648201526084016105ef565b6000805460ff1916600117905580156109a2576000805461ff0019166101001790555b6109ed6040518060400160405280600c81526020016b42656172204e6574776f726b60a01b8152506040518060400160405280600581526020016442524e4b4360d81b8152506114e2565b6109f5611513565b6109fd611513565b610a0561153a565b610a0d611569565b610a15611513565b610a3833610a256012600a611f82565b610a33906305f5e100611f91565b611187565b801561068c576000805461ff0019169055604051600181527f7f26b83ff96e1f2b6a682f133852f6798a09c465da95921460cefb38474024989060200160405180910390a150565b610a886110db565b6106c1611598565b6060603780546104e490611dab565b610aa76110db565b61068c6115d5565b6000806000610abf846098611394565b9150915081610ad057603554610ad2565b805b949350505050565b60003381610ae88286610b6e565b905083811015610b485760405162461bcd60e51b815260206004820152602560248201527f45524332303a2064656372656173656420616c6c6f77616e63652062656c6f77604482015264207a65726f60d81b60648201526084016105ef565b610b558286868403610c0f565b506001949350505050565b600033610575818585610dad565b6001600160a01b03918216600090815260346020908152604080832093909416825291909152205490565b610ba16110db565b6001600160a01b038116610c065760405162461bcd60e51b815260206004820152602660248201527f4f776e61626c653a206e6577206f776e657220697320746865207a65726f206160448201526564647265737360d01b60648201526084016105ef565b61068c81611490565b6001600160a01b038316610c715760405162461bcd60e51b8152602060048201526024808201527f45524332303a20617070726f76652066726f6d20746865207a65726f206164646044820152637265737360e01b60648201526084016105ef565b6001600160a01b038216610cd25760405162461bcd60e51b815260206004820152602260248201527f45524332303a20617070726f766520746f20746865207a65726f206164647265604482015261737360f01b60648201526084016105ef565b6001600160a01b0383811660008181526034602090815260408083209487168084529482529182902085905590518481527f8c5be1e5ebec7d5bd14f71427d1e84f3dd0314c0f7b2291e5b200ac8c7c3b925910160405180910390a3505050565b6000610d3f8484610b6e565b90506000198114610da75781811015610d9a5760405162461bcd60e51b815260206004820152601d60248201527f45524332303a20696e73756666696369656e7420616c6c6f77616e636500000060448201526064016105ef565b610da78484848403610c0f565b50505050565b6001600160a01b038316610e115760405162461bcd60e51b815260206004820152602560248201527f45524332303a207472616e736665722066726f6d20746865207a65726f206164604482015264647265737360d81b60648201526084016105ef565b6001600160a01b038216610e735760405162461bcd60e51b815260206004820152602360248201527f45524332303a207472616e7366657220746f20746865207a65726f206164647260448201526265737360e81b60648201526084016105ef565b610e7e83838361162f565b6001600160a01b03831660009081526033602052604090205481811015610ef65760405162461bcd60e51b815260206004820152602660248201527f45524332303a207472616e7366657220616d6f756e7420657863656564732062604482015265616c616e636560d01b60648201526084016105ef565b6001600160a01b0380851660008181526033602052604080822086860390559286168082529083902080548601905591517fddf252ad1be2c89b69c2b068fc378daa952ba7f163c4a11628f55a4df523b3ef90610f569086815260200190565b60405180910390a3610da7565b61068c6110db565b7f4910fdfa16fed3260ed0e7147f7cc6da11a60208b5b9406d12a635614ffd91435460ff1615610fa357610f9e83611642565b505050565b826001600160a01b03166352d1902d6040518163ffffffff1660e01b8152600401602060405180830381865afa925050508015610ffd575060408051601f3d908101601f19168201909252610ffa91810190611fa8565b60015b6110605760405162461bcd60e51b815260206004820152602e60248201527f45524331393637557067726164653a206e657720696d706c656d656e7461746960448201526d6f6e206973206e6f74205555505360901b60648201526084016105ef565b60008051602061218283398151915281146110cf5760405162461bcd60e51b815260206004820152602960248201527f45524331393637557067726164653a20756e737570706f727465642070726f786044820152681a58589b195555525160ba1b60648201526084016105ef565b50610f9e8383836116de565b60c9546001600160a01b031633146106c15760405162461bcd60e51b815260206004820181905260248201527f4f776e61626c653a2063616c6c6572206973206e6f7420746865206f776e657260448201526064016105ef565b61113d611703565b60fb805460ff191690557f5db9ee0a495bf2e6ff9c91a7834c1ba4fdd244a5e8aa4e537bd38aeae4b073aa335b6040516001600160a01b03909116815260200160405180910390a1565b6001600160a01b0382166111dd5760405162461bcd60e51b815260206004820152601f60248201527f45524332303a206d696e7420746f20746865207a65726f20616464726573730060448201526064016105ef565b6111e96000838361162f565b80603560008282546111fb9190611e93565b90915550506001600160a01b0382166000818152603360209081526040808320805486019055518481527fddf252ad1be2c89b69c2b068fc378daa952ba7f163c4a11628f55a4df523b3ef910160405180910390a35050565b6001600160a01b0382166112b45760405162461bcd60e51b815260206004820152602160248201527f45524332303a206275726e2066726f6d20746865207a65726f206164647265736044820152607360f81b60648201526084016105ef565b6112c08260008361162f565b6001600160a01b038216600090815260336020526040902054818110156113345760405162461bcd60e51b815260206004820152602260248201527f45524332303a206275726e20616d6f756e7420657863656564732062616c616e604482015261636560f01b60648201526084016105ef565b6001600160a01b03831660008181526033602090815260408083208686039055603580548790039055518581529192917fddf252ad1be2c89b69c2b068fc378daa952ba7f163c4a11628f55a4df523b3ef910160405180910390a3505050565b600080600084116113e05760405162461bcd60e51b815260206004820152601660248201527504552433230536e617073686f743a20696420697320360541b60448201526064016105ef565b6113e861174c565b8411156114375760405162461bcd60e51b815260206004820152601d60248201527f4552433230536e617073686f743a206e6f6e6578697374656e7420696400000060448201526064016105ef565b6000611443848661175c565b8454909150810361145b576000809250925050611489565b600184600101828154811061147257611472611fc1565b90600052602060002001549250925050611489565b505b9250929050565b60c980546001600160a01b038381166001600160a01b0319831681179093556040519116919082907f8be0079c531659141344cd1fd0a4f28419497f9722a3daafe3b4186f6b6457e090600090a35050565b600054610100900460ff166115095760405162461bcd60e51b81526004016105ef90611fd7565b6106d58282611809565b600054610100900460ff166106c15760405162461bcd60e51b81526004016105ef90611fd7565b600054610100900460ff166115615760405162461bcd60e51b81526004016105ef90611fd7565b6106c1611849565b600054610100900460ff166115905760405162461bcd60e51b81526004016105ef90611fd7565b6106c1611879565b6115a06118ac565b60fb805460ff191660011790557f62e78cea01bee320cd4e420270b5ea74000d11b0c9f74754ebdbfc544b05a25861116a3390565b60006115e5609a80546001019055565b60006115ef61174c565b90507f8030e83b04d87bef53480e26263266d6ca66863aa8506aca6f2559d18aa1cb678160405161162291815260200190565b60405180910390a1919050565b6116376118ac565b610f9e8383836118f2565b6001600160a01b0381163b6116af5760405162461bcd60e51b815260206004820152602d60248201527f455243313936373a206e657720696d706c656d656e746174696f6e206973206e60448201526c1bdd08184818dbdb9d1c9858dd609a1b60648201526084016105ef565b60008051602061218283398151915280546001600160a01b0319166001600160a01b0392909216919091179055565b6116e78361193a565b6000825111806116f45750805b15610f9e57610da7838361197a565b60fb5460ff166106c15760405162461bcd60e51b815260206004820152601460248201527314185d5cd8589b194e881b9bdd081c185d5cd95960621b60448201526064016105ef565b6000611757609a5490565b905090565b8154600090810361176f5750600061057b565b82546000905b808210156117bc5760006117898383611a65565b600087815260209020909150859082015411156117a8578091506117b6565b6117b3816001611e93565b92505b50611775565b6000821180156117e85750836117e5866117d7600186612022565b600091825260209091200190565b54145b15611801576117f8600183612022565b9250505061057b565b50905061057b565b600054610100900460ff166118305760405162461bcd60e51b81526004016105ef90611fd7565b603661183c8382612083565b506037610f9e8282612083565b600054610100900460ff166118705760405162461bcd60e51b81526004016105ef90611fd7565b6106c133611490565b600054610100900460ff166118a05760405162461bcd60e51b81526004016105ef90611fd7565b60fb805460ff19169055565b60fb5460ff16156106c15760405162461bcd60e51b815260206004820152601060248201526f14185d5cd8589b194e881c185d5cd95960821b60448201526064016105ef565b6001600160a01b0383166119115761190982611a80565b610f9e611ab3565b6001600160a01b0382166119285761190983611a80565b61193183611a80565b610f9e82611a80565b61194381611642565b6040516001600160a01b038216907fbc7cd75a20ee27fd9adebab32041f755214dbc6bffa90cc0225b39da2e5c2d3b90600090a250565b60606001600160a01b0383163b6119e25760405162461bcd60e51b815260206004820152602660248201527f416464726573733a2064656c65676174652063616c6c20746f206e6f6e2d636f6044820152651b9d1c9858dd60d21b60648201526084016105ef565b600080846001600160a01b0316846040516119fd9190612143565b600060405180830381855af49150503d8060008114611a38576040519150601f19603f3d011682016040523d82523d6000602084013e611a3d565b606091505b509150915061073382826040518060600160405280602781526020016121a260279139611ac1565b6000611a74600284841861215f565b6105a090848416611e93565b6001600160a01b038116600090815260976020908152604080832060339092529091205461068c9190611ada565b611ada565b6106c16098611aae60355490565b60608315611ad05750816105a0565b6105a08383611b24565b6000611ae461174c565b905080611af084611b4e565b1015610f9e578254600180820185556000858152602080822090930193909355938401805494850181558252902090910155565b815115611b345781518083602001fd5b8060405162461bcd60e51b81526004016105ef9190611bbc565b80546000908103611b6157506000919050565b81548290611b7190600190612022565b81548110611b8157611b81611fc1565b90600052602060002001549050919050565b919050565b60005b83811015611bb3578181015183820152602001611b9b565b50506000910152565b6020815260008251806020840152611bdb816040850160208701611b98565b601f01601f19169190910160400192915050565b80356001600160a01b0381168114611b9357600080fd5b60008060408385031215611c1957600080fd5b611c2283611bef565b946020939093013593505050565b600080600060608486031215611c4557600080fd5b611c4e84611bef565b9250611c5c60208501611bef565b9150604084013590509250925092565b600060208284031215611c7e57600080fd5b6105a082611bef565b600060208284031215611c9957600080fd5b5035919050565b634e487b7160e01b600052604160045260246000fd5b60008060408385031215611cc957600080fd5b611cd283611bef565b9150602083013567ffffffffffffffff80821115611cef57600080fd5b818501915085601f830112611d0357600080fd5b813581811115611d1557611d15611ca0565b604051601f8201601f19908116603f01168101908382118183101715611d3d57611d3d611ca0565b81604052828152886020848701011115611d5657600080fd5b8260208601602083013760006020848301015280955050505050509250929050565b60008060408385031215611d8b57600080fd5b611d9483611bef565b9150611da260208401611bef565b90509250929050565b600181811c90821680611dbf57607f821691505b602082108103611ddf57634e487b7160e01b600052602260045260246000fd5b50919050565b6020808252602c908201527f46756e6374696f6e206d7573742062652063616c6c6564207468726f7567682060408201526b19195b1959d85d1958d85b1b60a21b606082015260800190565b6020808252602c908201527f46756e6374696f6e206d7573742062652063616c6c6564207468726f7567682060408201526b6163746976652070726f787960a01b606082015260800190565b634e487b7160e01b600052601160045260246000fd5b8082018082111561057b5761057b611e7d565b600181815b80851115611487578160001904821115611ec757611ec7611e7d565b80851615611ed457918102915b93841c9390800290611eab565b600082611ef05750600161057b565b81611efd5750600061057b565b8160018114611f135760028114611f1d57611f39565b600191505061057b565b60ff841115611f2e57611f2e611e7d565b50506001821b61057b565b5060208310610133831016604e8410600b8410161715611f5c575081810a61057b565b611f668383611ea6565b8060001904821115611f7a57611f7a611e7d565b029392505050565b60006105a060ff841683611ee1565b808202811582820484141761057b5761057b611e7d565b600060208284031215611fba57600080fd5b5051919050565b634e487b7160e01b600052603260045260246000fd5b6020808252602b908201527f496e697469616c697a61626c653a20636f6e7472616374206973206e6f74206960408201526a6e697469616c697a696e6760a81b606082015260800190565b8181038181111561057b5761057b611e7d565b601f821115610f9e57600081815260208120601f850160051c8101602086101561205c5750805b601f850160051c820191505b8181101561207b57828155600101612068565b505050505050565b815167ffffffffffffffff81111561209d5761209d611ca0565b6120b1816120ab8454611dab565b84612035565b602080601f8311600181146120e657600084156120ce5750858301515b600019600386901b1c1916600185901b17855561207b565b600085815260208120601f198616915b82811015612115578886015182559484019460019091019084016120f6565b50858210156121335787850151600019600388901b60f8161c191681555b5050505050600190811b01905550565b60008251612155818460208701611b98565b9190910192915050565b60008261217c57634e487b7160e01b600052601260045260246000fd5b50049056fe360894a13ba1a3210667c828492db98dca3e2076cc3735a920a3ca505d382bbc416464726573733a206c6f772d6c6576656c2064656c65676174652063616c6c206661696c6564a2646970667358221220e998b0591bc15c686d6dea8bfcf04d2db1fe35cbe25211987ec7f6ac98c3ca2f64736f6c63430008110033",
					"opcodes": "PUSH1 0xA0 PUSH1 0x40 MSTORE ADDRESS PUSH1 0x80 MSTORE CALLVALUE DUP1 ISZERO PUSH2 0x14 JUMPI PUSH1 0x0 DUP1 REVERT JUMPDEST POP PUSH2 0x1D PUSH2 0x22 JUMP JUMPDEST PUSH2 0xE2 JUMP JUMPDEST PUSH1 0x0 SLOAD PUSH2 0x100 SWAP1 DIV PUSH1 0xFF AND ISZERO PUSH2 0x8E JUMPI PUSH1 0x40 MLOAD PUSH3 0x461BCD PUSH1 0xE5 SHL DUP2 MSTORE PUSH1 0x20 PUSH1 0x4 DUP3 ADD MSTORE PUSH1 0x27 PUSH1 0x24 DUP3 ADD MSTORE PUSH32 0x496E697469616C697A61626C653A20636F6E747261637420697320696E697469 PUSH1 0x44 DUP3 ADD MSTORE PUSH7 0x616C697A696E67 PUSH1 0xC8 SHL PUSH1 0x64 DUP3 ADD MSTORE PUSH1 0x84 ADD PUSH1 0x40 MLOAD DUP1 SWAP2 SUB SWAP1 REVERT JUMPDEST PUSH1 0x0 SLOAD PUSH1 0xFF SWAP1 DUP2 AND LT ISZERO PUSH2 0xE0 JUMPI PUSH1 0x0 DUP1 SLOAD PUSH1 0xFF NOT AND PUSH1 0xFF SWAP1 DUP2 OR SWAP1 SWAP2 SSTORE PUSH1 0x40 MLOAD SWAP1 DUP2 MSTORE PUSH32 0x7F26B83FF96E1F2B6A682F133852F6798A09C465DA95921460CEFB3847402498 SWAP1 PUSH1 0x20 ADD PUSH1 0x40 MLOAD DUP1 SWAP2 SUB SWAP1 LOG1 JUMPDEST JUMP JUMPDEST PUSH1 0x80 MLOAD PUSH2 0x21FE PUSH3 0x11A PUSH1 0x0 CODECOPY PUSH1 0x0 DUP2 DUP2 PUSH2 0x5B1 ADD MSTORE DUP2 DUP2 PUSH2 0x5FA ADD MSTORE DUP2 DUP2 PUSH2 0x746 ADD MSTORE DUP2 DUP2 PUSH2 0x786 ADD MSTORE PUSH2 0x815 ADD MSTORE PUSH2 0x21FE PUSH1 0x0 RETURN INVALID PUSH1 0x80 PUSH1 0x40 MSTORE PUSH1 0x4 CALLDATASIZE LT PUSH2 0x19C JUMPI PUSH1 0x0 CALLDATALOAD PUSH1 0xE0 SHR DUP1 PUSH4 0x5C975ABB GT PUSH2 0xEC JUMPI DUP1 PUSH4 0x95D89B41 GT PUSH2 0x8A JUMPI DUP1 PUSH4 0xA457C2D7 GT PUSH2 0x64 JUMPI DUP1 PUSH4 0xA457C2D7 EQ PUSH2 0x455 JUMPI DUP1 PUSH4 0xA9059CBB EQ PUSH2 0x475 JUMPI DUP1 PUSH4 0xDD62ED3E EQ PUSH2 0x495 JUMPI DUP1 PUSH4 0xF2FDE38B EQ PUSH2 0x4B5 JUMPI PUSH1 0x0 DUP1 REVERT JUMPDEST DUP1 PUSH4 0x95D89B41 EQ PUSH2 0x40B JUMPI DUP1 PUSH4 0x9711715A EQ PUSH2 0x420 JUMPI DUP1 PUSH4 0x981B24D0 EQ PUSH2 0x435 JUMPI PUSH1 0x0 DUP1 REVERT JUMPDEST DUP1 PUSH4 0x79CC6790 GT PUSH2 0xC6 JUMPI DUP1 PUSH4 0x79CC6790 EQ PUSH2 0x399 JUMPI DUP1 PUSH4 0x8129FC1C EQ PUSH2 0x3B9 JUMPI DUP1 PUSH4 0x8456CB59 EQ PUSH2 0x3CE JUMPI DUP1 PUSH4 0x8DA5CB5B EQ PUSH2 0x3E3 JUMPI PUSH1 0x0 DUP1 REVERT JUMPDEST DUP1 PUSH4 0x5C975ABB EQ PUSH2 0x336 JUMPI DUP1 PUSH4 0x70A08231 EQ PUSH2 0x34E JUMPI DUP1 PUSH4 0x715018A6 EQ PUSH2 0x384 JUMPI PUSH1 0x0 DUP1 REVERT JUMPDEST DUP1 PUSH4 0x39509351 GT PUSH2 0x159 JUMPI DUP1 PUSH4 0x42966C68 GT PUSH2 0x133 JUMPI DUP1 PUSH4 0x42966C68 EQ PUSH2 0x2CE JUMPI DUP1 PUSH4 0x4EE2CD7E EQ PUSH2 0x2EE JUMPI DUP1 PUSH4 0x4F1EF286 EQ PUSH2 0x30E JUMPI DUP1 PUSH4 0x52D1902D EQ PUSH2 0x321 JUMPI PUSH1 0x0 DUP1 REVERT JUMPDEST DUP1 PUSH4 0x39509351 EQ PUSH2 0x279 JUMPI DUP1 PUSH4 0x3F4BA83A EQ PUSH2 0x299 JUMPI DUP1 PUSH4 0x40C10F19 EQ PUSH2 0x2AE JUMPI PUSH1 0x0 DUP1 REVERT JUMPDEST DUP1 PUSH4 0x6FDDE03 EQ PUSH2 0x1A1 JUMPI DUP1 PUSH4 0x95EA7B3 EQ PUSH2 0x1CC JUMPI DUP1 PUSH4 0x18160DDD EQ PUSH2 0x1FC JUMPI DUP1 PUSH4 0x23B872DD EQ PUSH2 0x21B JUMPI DUP1 PUSH4 0x313CE567 EQ PUSH2 0x23B JUMPI DUP1 PUSH4 0x3659CFE6 EQ PUSH2 0x257 JUMPI JUMPDEST PUSH1 0x0 DUP1 REVERT JUMPDEST CALLVALUE DUP1 ISZERO PUSH2 0x1AD JUMPI PUSH1 0x0 DUP1 REVERT JUMPDEST POP PUSH2 0x1B6 PUSH2 0x4D5 JUMP JUMPDEST PUSH1 0x40 MLOAD PUSH2 0x1C3 SWAP2 SWAP1 PUSH2 0x1BBC JUMP JUMPDEST PUSH1 0x40 MLOAD DUP1 SWAP2 SUB SWAP1 RETURN JUMPDEST CALLVALUE DUP1 ISZERO PUSH2 0x1D8 JUMPI PUSH1 0x0 DUP1 REVERT JUMPDEST POP PUSH2 0x1EC PUSH2 0x1E7 CALLDATASIZE PUSH1 0x4 PUSH2 0x1C06 JUMP JUMPDEST PUSH2 0x567 JUMP JUMPDEST PUSH1 0x40 MLOAD SWAP1 ISZERO ISZERO DUP2 MSTORE PUSH1 0x20 ADD PUSH2 0x1C3 JUMP JUMPDEST CALLVALUE DUP1 ISZERO PUSH2 0x208 JUMPI PUSH1 0x0 DUP1 REVERT JUMPDEST POP PUSH1 0x35 SLOAD JUMPDEST PUSH1 0x40 MLOAD SWAP1 DUP2 MSTORE PUSH1 0x20 ADD PUSH2 0x1C3 JUMP JUMPDEST CALLVALUE DUP1 ISZERO PUSH2 0x227 JUMPI PUSH1 0x0 DUP1 REVERT JUMPDEST POP PUSH2 0x1EC PUSH2 0x236 CALLDATASIZE PUSH1 0x4 PUSH2 0x1C30 JUMP JUMPDEST PUSH2 0x581 JUMP JUMPDEST CALLVALUE DUP1 ISZERO PUSH2 0x247 JUMPI PUSH1 0x0 DUP1 REVERT JUMPDEST POP PUSH1 0x40 MLOAD PUSH1 0x12 DUP2 MSTORE PUSH1 0x20 ADD PUSH2 0x1C3 JUMP JUMPDEST CALLVALUE DUP1 ISZERO PUSH2 0x263 JUMPI PUSH1 0x0 DUP1 REVERT JUMPDEST POP PUSH2 0x277 PUSH2 0x272 CALLDATASIZE PUSH1 0x4 PUSH2 0x1C6C JUMP JUMPDEST PUSH2 0x5A7 JUMP JUMPDEST STOP JUMPDEST CALLVALUE DUP1 ISZERO PUSH2 0x285 JUMPI PUSH1 0x0 DUP1 REVERT JUMPDEST POP PUSH2 0x1EC PUSH2 0x294 CALLDATASIZE PUSH1 0x4 PUSH2 0x1C06 JUMP JUMPDEST PUSH2 0x68F JUMP JUMPDEST CALLVALUE DUP1 ISZERO PUSH2 0x2A5 JUMPI PUSH1 0x0 DUP1 REVERT JUMPDEST POP PUSH2 0x277 PUSH2 0x6B1 JUMP JUMPDEST CALLVALUE DUP1 ISZERO PUSH2 0x2BA JUMPI PUSH1 0x0 DUP1 REVERT JUMPDEST POP PUSH2 0x277 PUSH2 0x2C9 CALLDATASIZE PUSH1 0x4 PUSH2 0x1C06 JUMP JUMPDEST PUSH2 0x6C3 JUMP JUMPDEST CALLVALUE DUP1 ISZERO PUSH2 0x2DA JUMPI PUSH1 0x0 DUP1 REVERT JUMPDEST POP PUSH2 0x277 PUSH2 0x2E9 CALLDATASIZE PUSH1 0x4 PUSH2 0x1C87 JUMP JUMPDEST PUSH2 0x6D9 JUMP JUMPDEST CALLVALUE DUP1 ISZERO PUSH2 0x2FA JUMPI PUSH1 0x0 DUP1 REVERT JUMPDEST POP PUSH2 0x20D PUSH2 0x309 CALLDATASIZE PUSH1 0x4 PUSH2 0x1C06 JUMP JUMPDEST PUSH2 0x6E3 JUMP JUMPDEST PUSH2 0x277 PUSH2 0x31C CALLDATASIZE PUSH1 0x4 PUSH2 0x1CB6 JUMP JUMPDEST PUSH2 0x73C JUMP JUMPDEST CALLVALUE DUP1 ISZERO PUSH2 0x32D JUMPI PUSH1 0x0 DUP1 REVERT JUMPDEST POP PUSH2 0x20D PUSH2 0x808 JUMP JUMPDEST CALLVALUE DUP1 ISZERO PUSH2 0x342 JUMPI PUSH1 0x0 DUP1 REVERT JUMPDEST POP PUSH1 0xFB SLOAD PUSH1 0xFF AND PUSH2 0x1EC JUMP JUMPDEST CALLVALUE DUP1 ISZERO PUSH2 0x35A JUMPI PUSH1 0x0 DUP1 REVERT JUMPDEST POP PUSH2 0x20D PUSH2 0x369 CALLDATASIZE PUSH1 0x4 PUSH2 0x1C6C JUMP JUMPDEST PUSH1 0x1 PUSH1 0x1 PUSH1 0xA0 SHL SUB AND PUSH1 0x0 SWAP1 DUP2 MSTORE PUSH1 0x33 PUSH1 0x20 MSTORE PUSH1 0x40 SWAP1 KECCAK256 SLOAD SWAP1 JUMP JUMPDEST CALLVALUE DUP1 ISZERO PUSH2 0x390 JUMPI PUSH1 0x0 DUP1 REVERT JUMPDEST POP PUSH2 0x277 PUSH2 0x8BB JUMP JUMPDEST CALLVALUE DUP1 ISZERO PUSH2 0x3A5 JUMPI PUSH1 0x0 DUP1 REVERT JUMPDEST POP PUSH2 0x277 PUSH2 0x3B4 CALLDATASIZE PUSH1 0x4 PUSH2 0x1C06 JUMP JUMPDEST PUSH2 0x8CD JUMP JUMPDEST CALLVALUE DUP1 ISZERO PUSH2 0x3C5 JUMPI PUSH1 0x0 DUP1 REVERT JUMPDEST POP PUSH2 0x277 PUSH2 0x8E2 JUMP JUMPDEST CALLVALUE DUP1 ISZERO PUSH2 0x3DA JUMPI PUSH1 0x0 DUP1 REVERT JUMPDEST POP PUSH2 0x277 PUSH2 0xA80 JUMP JUMPDEST CALLVALUE DUP1 ISZERO PUSH2 0x3EF JUMPI PUSH1 0x0 DUP1 REVERT JUMPDEST POP PUSH1 0xC9 SLOAD PUSH1 0x40 MLOAD PUSH1 0x1 PUSH1 0x1 PUSH1 0xA0 SHL SUB SWAP1 SWAP2 AND DUP2 MSTORE PUSH1 0x20 ADD PUSH2 0x1C3 JUMP JUMPDEST CALLVALUE DUP1 ISZERO PUSH2 0x417 JUMPI PUSH1 0x0 DUP1 REVERT JUMPDEST POP PUSH2 0x1B6 PUSH2 0xA90 JUMP JUMPDEST CALLVALUE DUP1 ISZERO PUSH2 0x42C JUMPI PUSH1 0x0 DUP1 REVERT JUMPDEST POP PUSH2 0x277 PUSH2 0xA9F JUMP JUMPDEST CALLVALUE DUP1 ISZERO PUSH2 0x441 JUMPI PUSH1 0x0 DUP1 REVERT JUMPDEST POP PUSH2 0x20D PUSH2 0x450 CALLDATASIZE PUSH1 0x4 PUSH2 0x1C87 JUMP JUMPDEST PUSH2 0xAAF JUMP JUMPDEST CALLVALUE DUP1 ISZERO PUSH2 0x461 JUMPI PUSH1 0x0 DUP1 REVERT JUMPDEST POP PUSH2 0x1EC PUSH2 0x470 CALLDATASIZE PUSH1 0x4 PUSH2 0x1C06 JUMP JUMPDEST PUSH2 0xADA JUMP JUMPDEST CALLVALUE DUP1 ISZERO PUSH2 0x481 JUMPI PUSH1 0x0 DUP1 REVERT JUMPDEST POP PUSH2 0x1EC PUSH2 0x490 CALLDATASIZE PUSH1 0x4 PUSH2 0x1C06 JUMP JUMPDEST PUSH2 0xB60 JUMP JUMPDEST CALLVALUE DUP1 ISZERO PUSH2 0x4A1 JUMPI PUSH1 0x0 DUP1 REVERT JUMPDEST POP PUSH2 0x20D PUSH2 0x4B0 CALLDATASIZE PUSH1 0x4 PUSH2 0x1D78 JUMP JUMPDEST PUSH2 0xB6E JUMP JUMPDEST CALLVALUE DUP1 ISZERO PUSH2 0x4C1 JUMPI PUSH1 0x0 DUP1 REVERT JUMPDEST POP PUSH2 0x277 PUSH2 0x4D0 CALLDATASIZE PUSH1 0x4 PUSH2 0x1C6C JUMP JUMPDEST PUSH2 0xB99 JUMP JUMPDEST PUSH1 0x60 PUSH1 0x36 DUP1 SLOAD PUSH2 0x4E4 SWAP1 PUSH2 0x1DAB JUMP JUMPDEST DUP1 PUSH1 0x1F ADD PUSH1 0x20 DUP1 SWAP2 DIV MUL PUSH1 0x20 ADD PUSH1 0x40 MLOAD SWAP1 DUP2 ADD PUSH1 0x40 MSTORE DUP1 SWAP3 SWAP2 SWAP1 DUP2 DUP2 MSTORE PUSH1 0x20 ADD DUP3 DUP1 SLOAD PUSH2 0x510 SWAP1 PUSH2 0x1DAB JUMP JUMPDEST DUP1 ISZERO PUSH2 0x55D JUMPI DUP1 PUSH1 0x1F LT PUSH2 0x532 JUMPI PUSH2 0x100 DUP1 DUP4 SLOAD DIV MUL DUP4 MSTORE SWAP2 PUSH1 0x20 ADD SWAP2 PUSH2 0x55D JUMP JUMPDEST DUP3 ADD SWAP2 SWAP1 PUSH1 0x0 MSTORE PUSH1 0x20 PUSH1 0x0 KECCAK256 SWAP1 JUMPDEST DUP2 SLOAD DUP2 MSTORE SWAP1 PUSH1 0x1 ADD SWAP1 PUSH1 0x20 ADD DUP1 DUP4 GT PUSH2 0x540 JUMPI DUP3 SWAP1 SUB PUSH1 0x1F AND DUP3 ADD SWAP2 JUMPDEST POP POP POP POP POP SWAP1 POP SWAP1 JUMP JUMPDEST PUSH1 0x0 CALLER PUSH2 0x575 DUP2 DUP6 DUP6 PUSH2 0xC0F JUMP JUMPDEST PUSH1 0x1 SWAP2 POP POP JUMPDEST SWAP3 SWAP2 POP POP JUMP JUMPDEST PUSH1 0x0 CALLER PUSH2 0x58F DUP6 DUP3 DUP6 PUSH2 0xD33 JUMP JUMPDEST PUSH2 0x59A DUP6 DUP6 DUP6 PUSH2 0xDAD JUMP JUMPDEST PUSH1 0x1 SWAP2 POP POP JUMPDEST SWAP4 SWAP3 POP POP POP JUMP JUMPDEST PUSH1 0x1 PUSH1 0x1 PUSH1 0xA0 SHL SUB PUSH32 0x0 AND ADDRESS SUB PUSH2 0x5F8 JUMPI PUSH1 0x40 MLOAD PUSH3 0x461BCD PUSH1 0xE5 SHL DUP2 MSTORE PUSH1 0x4 ADD PUSH2 0x5EF SWAP1 PUSH2 0x1DE5 JUMP JUMPDEST PUSH1 0x40 MLOAD DUP1 SWAP2 SUB SWAP1 REVERT JUMPDEST PUSH32 0x0 PUSH1 0x1 PUSH1 0x1 PUSH1 0xA0 SHL SUB AND PUSH2 0x641 PUSH1 0x0 DUP1 MLOAD PUSH1 0x20 PUSH2 0x2182 DUP4 CODECOPY DUP2 MLOAD SWAP2 MSTORE SLOAD PUSH1 0x1 PUSH1 0x1 PUSH1 0xA0 SHL SUB AND SWAP1 JUMP JUMPDEST PUSH1 0x1 PUSH1 0x1 PUSH1 0xA0 SHL SUB AND EQ PUSH2 0x667 JUMPI PUSH1 0x40 MLOAD PUSH3 0x461BCD PUSH1 0xE5 SHL DUP2 MSTORE PUSH1 0x4 ADD PUSH2 0x5EF SWAP1 PUSH2 0x1E31 JUMP JUMPDEST PUSH2 0x670 DUP2 PUSH2 0xF63 JUMP JUMPDEST PUSH1 0x40 DUP1 MLOAD PUSH1 0x0 DUP1 DUP3 MSTORE PUSH1 0x20 DUP3 ADD SWAP1 SWAP3 MSTORE PUSH2 0x68C SWAP2 DUP4 SWAP2 SWAP1 PUSH2 0xF6B JUMP JUMPDEST POP JUMP JUMPDEST PUSH1 0x0 CALLER PUSH2 0x575 DUP2 DUP6 DUP6 PUSH2 0x6A2 DUP4 DUP4 PUSH2 0xB6E JUMP JUMPDEST PUSH2 0x6AC SWAP2 SWAP1 PUSH2 0x1E93 JUMP JUMPDEST PUSH2 0xC0F JUMP JUMPDEST PUSH2 0x6B9 PUSH2 0x10DB JUMP JUMPDEST PUSH2 0x6C1 PUSH2 0x1135 JUMP JUMPDEST JUMP JUMPDEST PUSH2 0x6CB PUSH2 0x10DB JUMP JUMPDEST PUSH2 0x6D5 DUP3 DUP3 PUSH2 0x1187 JUMP JUMPDEST POP POP JUMP JUMPDEST PUSH2 0x68C CALLER DUP3 PUSH2 0x1254 JUMP JUMPDEST PUSH1 0x1 PUSH1 0x1 PUSH1 0xA0 SHL SUB DUP3 AND PUSH1 0x0 SWAP1 DUP2 MSTORE PUSH1 0x97 PUSH1 0x20 MSTORE PUSH1 0x40 DUP2 KECCAK256 DUP2 SWAP1 DUP2 SWAP1 PUSH2 0x70A SWAP1 DUP6 SWAP1 PUSH2 0x1394 JUMP JUMPDEST SWAP2 POP SWAP2 POP DUP2 PUSH2 0x731 JUMPI PUSH1 0x1 PUSH1 0x1 PUSH1 0xA0 SHL SUB DUP6 AND PUSH1 0x0 SWAP1 DUP2 MSTORE PUSH1 0x33 PUSH1 0x20 MSTORE PUSH1 0x40 SWAP1 KECCAK256 SLOAD PUSH2 0x733 JUMP JUMPDEST DUP1 JUMPDEST SWAP6 SWAP5 POP POP POP POP POP JUMP JUMPDEST PUSH1 0x1 PUSH1 0x1 PUSH1 0xA0 SHL SUB PUSH32 0x0 AND ADDRESS SUB PUSH2 0x784 JUMPI PUSH1 0x40 MLOAD PUSH3 0x461BCD PUSH1 0xE5 SHL DUP2 MSTORE PUSH1 0x4 ADD PUSH2 0x5EF SWAP1 PUSH2 0x1DE5 JUMP JUMPDEST PUSH32 0x0 PUSH1 0x1 PUSH1 0x1 PUSH1 0xA0 SHL SUB AND PUSH2 0x7CD PUSH1 0x0 DUP1 MLOAD PUSH1 0x20 PUSH2 0x2182 DUP4 CODECOPY DUP2 MLOAD SWAP2 MSTORE SLOAD PUSH1 0x1 PUSH1 0x1 PUSH1 0xA0 SHL SUB AND SWAP1 JUMP JUMPDEST PUSH1 0x1 PUSH1 0x1 PUSH1 0xA0 SHL SUB AND EQ PUSH2 0x7F3 JUMPI PUSH1 0x40 MLOAD PUSH3 0x461BCD PUSH1 0xE5 SHL DUP2 MSTORE PUSH1 0x4 ADD PUSH2 0x5EF SWAP1 PUSH2 0x1E31 JUMP JUMPDEST PUSH2 0x7FC DUP3 PUSH2 0xF63 JUMP JUMPDEST PUSH2 0x6D5 DUP3 DUP3 PUSH1 0x1 PUSH2 0xF6B JUMP JUMPDEST PUSH1 0x0 ADDRESS PUSH1 0x1 PUSH1 0x1 PUSH1 0xA0 SHL SUB PUSH32 0x0 AND EQ PUSH2 0x8A8 JUMPI PUSH1 0x40 MLOAD PUSH3 0x461BCD PUSH1 0xE5 SHL DUP2 MSTORE PUSH1 0x20 PUSH1 0x4 DUP3 ADD MSTORE PUSH1 0x38 PUSH1 0x24 DUP3 ADD MSTORE PUSH32 0x555550535570677261646561626C653A206D757374206E6F742062652063616C PUSH1 0x44 DUP3 ADD MSTORE PUSH32 0x6C6564207468726F7567682064656C656761746563616C6C0000000000000000 PUSH1 0x64 DUP3 ADD MSTORE PUSH1 0x84 ADD PUSH2 0x5EF JUMP JUMPDEST POP PUSH1 0x0 DUP1 MLOAD PUSH1 0x20 PUSH2 0x2182 DUP4 CODECOPY DUP2 MLOAD SWAP2 MSTORE SWAP1 JUMP JUMPDEST PUSH2 0x8C3 PUSH2 0x10DB JUMP JUMPDEST PUSH2 0x6C1 PUSH1 0x0 PUSH2 0x1490 JUMP JUMPDEST PUSH2 0x8D8 DUP3 CALLER DUP4 PUSH2 0xD33 JUMP JUMPDEST PUSH2 0x6D5 DUP3 DUP3 PUSH2 0x1254 JUMP JUMPDEST PUSH1 0x0 SLOAD PUSH2 0x100 SWAP1 DIV PUSH1 0xFF AND ISZERO DUP1 DUP1 ISZERO PUSH2 0x902 JUMPI POP PUSH1 0x0 SLOAD PUSH1 0x1 PUSH1 0xFF SWAP1 SWAP2 AND LT JUMPDEST DUP1 PUSH2 0x91C JUMPI POP ADDRESS EXTCODESIZE ISZERO DUP1 ISZERO PUSH2 0x91C JUMPI POP PUSH1 0x0 SLOAD PUSH1 0xFF AND PUSH1 0x1 EQ JUMPDEST PUSH2 0x97F JUMPI PUSH1 0x40 MLOAD PUSH3 0x461BCD PUSH1 0xE5 SHL DUP2 MSTORE PUSH1 0x20 PUSH1 0x4 DUP3 ADD MSTORE PUSH1 0x2E PUSH1 0x24 DUP3 ADD MSTORE PUSH32 0x496E697469616C697A61626C653A20636F6E747261637420697320616C726561 PUSH1 0x44 DUP3 ADD MSTORE PUSH14 0x191E481A5B9A5D1A585B1A5E9959 PUSH1 0x92 SHL PUSH1 0x64 DUP3 ADD MSTORE PUSH1 0x84 ADD PUSH2 0x5EF JUMP JUMPDEST PUSH1 0x0 DUP1 SLOAD PUSH1 0xFF NOT AND PUSH1 0x1 OR SWAP1 SSTORE DUP1 ISZERO PUSH2 0x9A2 JUMPI PUSH1 0x0 DUP1 SLOAD PUSH2 0xFF00 NOT AND PUSH2 0x100 OR SWAP1 SSTORE JUMPDEST PUSH2 0x9ED PUSH1 0x40 MLOAD DUP1 PUSH1 0x40 ADD PUSH1 0x40 MSTORE DUP1 PUSH1 0xC DUP2 MSTORE PUSH1 0x20 ADD PUSH12 0x42656172204E6574776F726B PUSH1 0xA0 SHL DUP2 MSTORE POP PUSH1 0x40 MLOAD DUP1 PUSH1 0x40 ADD PUSH1 0x40 MSTORE DUP1 PUSH1 0x5 DUP2 MSTORE PUSH1 0x20 ADD PUSH5 0x42524E4B43 PUSH1 0xD8 SHL DUP2 MSTORE POP PUSH2 0x14E2 JUMP JUMPDEST PUSH2 0x9F5 PUSH2 0x1513 JUMP JUMPDEST PUSH2 0x9FD PUSH2 0x1513 JUMP JUMPDEST PUSH2 0xA05 PUSH2 0x153A JUMP JUMPDEST PUSH2 0xA0D PUSH2 0x1569 JUMP JUMPDEST PUSH2 0xA15 PUSH2 0x1513 JUMP JUMPDEST PUSH2 0xA38 CALLER PUSH2 0xA25 PUSH1 0x12 PUSH1 0xA PUSH2 0x1F82 JUMP JUMPDEST PUSH2 0xA33 SWAP1 PUSH4 0x5F5E100 PUSH2 0x1F91 JUMP JUMPDEST PUSH2 0x1187 JUMP JUMPDEST DUP1 ISZERO PUSH2 0x68C JUMPI PUSH1 0x0 DUP1 SLOAD PUSH2 0xFF00 NOT AND SWAP1 SSTORE PUSH1 0x40 MLOAD PUSH1 0x1 DUP2 MSTORE PUSH32 0x7F26B83FF96E1F2B6A682F133852F6798A09C465DA95921460CEFB3847402498 SWAP1 PUSH1 0x20 ADD PUSH1 0x40 MLOAD DUP1 SWAP2 SUB SWAP1 LOG1 POP JUMP JUMPDEST PUSH2 0xA88 PUSH2 0x10DB JUMP JUMPDEST PUSH2 0x6C1 PUSH2 0x1598 JUMP JUMPDEST PUSH1 0x60 PUSH1 0x37 DUP1 SLOAD PUSH2 0x4E4 SWAP1 PUSH2 0x1DAB JUMP JUMPDEST PUSH2 0xAA7 PUSH2 0x10DB JUMP JUMPDEST PUSH2 0x68C PUSH2 0x15D5 JUMP JUMPDEST PUSH1 0x0 DUP1 PUSH1 0x0 PUSH2 0xABF DUP5 PUSH1 0x98 PUSH2 0x1394 JUMP JUMPDEST SWAP2 POP SWAP2 POP DUP2 PUSH2 0xAD0 JUMPI PUSH1 0x35 SLOAD PUSH2 0xAD2 JUMP JUMPDEST DUP1 JUMPDEST SWAP5 SWAP4 POP POP POP POP JUMP JUMPDEST PUSH1 0x0 CALLER DUP2 PUSH2 0xAE8 DUP3 DUP7 PUSH2 0xB6E JUMP JUMPDEST SWAP1 POP DUP4 DUP2 LT ISZERO PUSH2 0xB48 JUMPI PUSH1 0x40 MLOAD PUSH3 0x461BCD PUSH1 0xE5 SHL DUP2 MSTORE PUSH1 0x20 PUSH1 0x4 DUP3 ADD MSTORE PUSH1 0x25 PUSH1 0x24 DUP3 ADD MSTORE PUSH32 0x45524332303A2064656372656173656420616C6C6F77616E63652062656C6F77 PUSH1 0x44 DUP3 ADD MSTORE PUSH5 0x207A65726F PUSH1 0xD8 SHL PUSH1 0x64 DUP3 ADD MSTORE PUSH1 0x84 ADD PUSH2 0x5EF JUMP JUMPDEST PUSH2 0xB55 DUP3 DUP7 DUP7 DUP5 SUB PUSH2 0xC0F JUMP JUMPDEST POP PUSH1 0x1 SWAP5 SWAP4 POP POP POP POP JUMP JUMPDEST PUSH1 0x0 CALLER PUSH2 0x575 DUP2 DUP6 DUP6 PUSH2 0xDAD JUMP JUMPDEST PUSH1 0x1 PUSH1 0x1 PUSH1 0xA0 SHL SUB SWAP2 DUP3 AND PUSH1 0x0 SWAP1 DUP2 MSTORE PUSH1 0x34 PUSH1 0x20 SWAP1 DUP2 MSTORE PUSH1 0x40 DUP1 DUP4 KECCAK256 SWAP4 SWAP1 SWAP5 AND DUP3 MSTORE SWAP2 SWAP1 SWAP2 MSTORE KECCAK256 SLOAD SWAP1 JUMP JUMPDEST PUSH2 0xBA1 PUSH2 0x10DB JUMP JUMPDEST PUSH1 0x1 PUSH1 0x1 PUSH1 0xA0 SHL SUB DUP2 AND PUSH2 0xC06 JUMPI PUSH1 0x40 MLOAD PUSH3 0x461BCD PUSH1 0xE5 SHL DUP2 MSTORE PUSH1 0x20 PUSH1 0x4 DUP3 ADD MSTORE PUSH1 0x26 PUSH1 0x24 DUP3 ADD MSTORE PUSH32 0x4F776E61626C653A206E6577206F776E657220697320746865207A65726F2061 PUSH1 0x44 DUP3 ADD MSTORE PUSH6 0x646472657373 PUSH1 0xD0 SHL PUSH1 0x64 DUP3 ADD MSTORE PUSH1 0x84 ADD PUSH2 0x5EF JUMP JUMPDEST PUSH2 0x68C DUP2 PUSH2 0x1490 JUMP JUMPDEST PUSH1 0x1 PUSH1 0x1 PUSH1 0xA0 SHL SUB DUP4 AND PUSH2 0xC71 JUMPI PUSH1 0x40 MLOAD PUSH3 0x461BCD PUSH1 0xE5 SHL DUP2 MSTORE PUSH1 0x20 PUSH1 0x4 DUP3 ADD MSTORE PUSH1 0x24 DUP1 DUP3 ADD MSTORE PUSH32 0x45524332303A20617070726F76652066726F6D20746865207A65726F20616464 PUSH1 0x44 DUP3 ADD MSTORE PUSH4 0x72657373 PUSH1 0xE0 SHL PUSH1 0x64 DUP3 ADD MSTORE PUSH1 0x84 ADD PUSH2 0x5EF JUMP JUMPDEST PUSH1 0x1 PUSH1 0x1 PUSH1 0xA0 SHL SUB DUP3 AND PUSH2 0xCD2 JUMPI PUSH1 0x40 MLOAD PUSH3 0x461BCD PUSH1 0xE5 SHL DUP2 MSTORE PUSH1 0x20 PUSH1 0x4 DUP3 ADD MSTORE PUSH1 0x22 PUSH1 0x24 DUP3 ADD MSTORE PUSH32 0x45524332303A20617070726F766520746F20746865207A65726F206164647265 PUSH1 0x44 DUP3 ADD MSTORE PUSH2 0x7373 PUSH1 0xF0 SHL PUSH1 0x64 DUP3 ADD MSTORE PUSH1 0x84 ADD PUSH2 0x5EF JUMP JUMPDEST PUSH1 0x1 PUSH1 0x1 PUSH1 0xA0 SHL SUB DUP4 DUP2 AND PUSH1 0x0 DUP2 DUP2 MSTORE PUSH1 0x34 PUSH1 0x20 SWAP1 DUP2 MSTORE PUSH1 0x40 DUP1 DUP4 KECCAK256 SWAP5 DUP8 AND DUP1 DUP5 MSTORE SWAP5 DUP3 MSTORE SWAP2 DUP3 SWAP1 KECCAK256 DUP6 SWAP1 SSTORE SWAP1 MLOAD DUP5 DUP2 MSTORE PUSH32 0x8C5BE1E5EBEC7D5BD14F71427D1E84F3DD0314C0F7B2291E5B200AC8C7C3B925 SWAP2 ADD PUSH1 0x40 MLOAD DUP1 SWAP2 SUB SWAP1 LOG3 POP POP POP JUMP JUMPDEST PUSH1 0x0 PUSH2 0xD3F DUP5 DUP5 PUSH2 0xB6E JUMP JUMPDEST SWAP1 POP PUSH1 0x0 NOT DUP2 EQ PUSH2 0xDA7 JUMPI DUP2 DUP2 LT ISZERO PUSH2 0xD9A JUMPI PUSH1 0x40 MLOAD PUSH3 0x461BCD PUSH1 0xE5 SHL DUP2 MSTORE PUSH1 0x20 PUSH1 0x4 DUP3 ADD MSTORE PUSH1 0x1D PUSH1 0x24 DUP3 ADD MSTORE PUSH32 0x45524332303A20696E73756666696369656E7420616C6C6F77616E6365000000 PUSH1 0x44 DUP3 ADD MSTORE PUSH1 0x64 ADD PUSH2 0x5EF JUMP JUMPDEST PUSH2 0xDA7 DUP5 DUP5 DUP5 DUP5 SUB PUSH2 0xC0F JUMP JUMPDEST POP POP POP POP JUMP JUMPDEST PUSH1 0x1 PUSH1 0x1 PUSH1 0xA0 SHL SUB DUP4 AND PUSH2 0xE11 JUMPI PUSH1 0x40 MLOAD PUSH3 0x461BCD PUSH1 0xE5 SHL DUP2 MSTORE PUSH1 0x20 PUSH1 0x4 DUP3 ADD MSTORE PUSH1 0x25 PUSH1 0x24 DUP3 ADD MSTORE PUSH32 0x45524332303A207472616E736665722066726F6D20746865207A65726F206164 PUSH1 0x44 DUP3 ADD MSTORE PUSH5 0x6472657373 PUSH1 0xD8 SHL PUSH1 0x64 DUP3 ADD MSTORE PUSH1 0x84 ADD PUSH2 0x5EF JUMP JUMPDEST PUSH1 0x1 PUSH1 0x1 PUSH1 0xA0 SHL SUB DUP3 AND PUSH2 0xE73 JUMPI PUSH1 0x40 MLOAD PUSH3 0x461BCD PUSH1 0xE5 SHL DUP2 MSTORE PUSH1 0x20 PUSH1 0x4 DUP3 ADD MSTORE PUSH1 0x23 PUSH1 0x24 DUP3 ADD MSTORE PUSH32 0x45524332303A207472616E7366657220746F20746865207A65726F2061646472 PUSH1 0x44 DUP3 ADD MSTORE PUSH3 0x657373 PUSH1 0xE8 SHL PUSH1 0x64 DUP3 ADD MSTORE PUSH1 0x84 ADD PUSH2 0x5EF JUMP JUMPDEST PUSH2 0xE7E DUP4 DUP4 DUP4 PUSH2 0x162F JUMP JUMPDEST PUSH1 0x1 PUSH1 0x1 PUSH1 0xA0 SHL SUB DUP4 AND PUSH1 0x0 SWAP1 DUP2 MSTORE PUSH1 0x33 PUSH1 0x20 MSTORE PUSH1 0x40 SWAP1 KECCAK256 SLOAD DUP2 DUP2 LT ISZERO PUSH2 0xEF6 JUMPI PUSH1 0x40 MLOAD PUSH3 0x461BCD PUSH1 0xE5 SHL DUP2 MSTORE PUSH1 0x20 PUSH1 0x4 DUP3 ADD MSTORE PUSH1 0x26 PUSH1 0x24 DUP3 ADD MSTORE PUSH32 0x45524332303A207472616E7366657220616D6F756E7420657863656564732062 PUSH1 0x44 DUP3 ADD MSTORE PUSH6 0x616C616E6365 PUSH1 0xD0 SHL PUSH1 0x64 DUP3 ADD MSTORE PUSH1 0x84 ADD PUSH2 0x5EF JUMP JUMPDEST PUSH1 0x1 PUSH1 0x1 PUSH1 0xA0 SHL SUB DUP1 DUP6 AND PUSH1 0x0 DUP2 DUP2 MSTORE PUSH1 0x33 PUSH1 0x20 MSTORE PUSH1 0x40 DUP1 DUP3 KECCAK256 DUP7 DUP7 SUB SWAP1 SSTORE SWAP3 DUP7 AND DUP1 DUP3 MSTORE SWAP1 DUP4 SWAP1 KECCAK256 DUP1 SLOAD DUP7 ADD SWAP1 SSTORE SWAP2 MLOAD PUSH32 0xDDF252AD1BE2C89B69C2B068FC378DAA952BA7F163C4A11628F55A4DF523B3EF SWAP1 PUSH2 0xF56 SWAP1 DUP7 DUP2 MSTORE PUSH1 0x20 ADD SWAP1 JUMP JUMPDEST PUSH1 0x40 MLOAD DUP1 SWAP2 SUB SWAP1 LOG3 PUSH2 0xDA7 JUMP JUMPDEST PUSH2 0x68C PUSH2 0x10DB JUMP JUMPDEST PUSH32 0x4910FDFA16FED3260ED0E7147F7CC6DA11A60208B5B9406D12A635614FFD9143 SLOAD PUSH1 0xFF AND ISZERO PUSH2 0xFA3 JUMPI PUSH2 0xF9E DUP4 PUSH2 0x1642 JUMP JUMPDEST POP POP POP JUMP JUMPDEST DUP3 PUSH1 0x1 PUSH1 0x1 PUSH1 0xA0 SHL SUB AND PUSH4 0x52D1902D PUSH1 0x40 MLOAD DUP2 PUSH4 0xFFFFFFFF AND PUSH1 0xE0 SHL DUP2 MSTORE PUSH1 0x4 ADD PUSH1 0x20 PUSH1 0x40 MLOAD DUP1 DUP4 SUB DUP2 DUP7 GAS STATICCALL SWAP3 POP POP POP DUP1 ISZERO PUSH2 0xFFD JUMPI POP PUSH1 0x40 DUP1 MLOAD PUSH1 0x1F RETURNDATASIZE SWAP1 DUP2 ADD PUSH1 0x1F NOT AND DUP3 ADD SWAP1 SWAP3 MSTORE PUSH2 0xFFA SWAP2 DUP2 ADD SWAP1 PUSH2 0x1FA8 JUMP JUMPDEST PUSH1 0x1 JUMPDEST PUSH2 0x1060 JUMPI PUSH1 0x40 MLOAD PUSH3 0x461BCD PUSH1 0xE5 SHL DUP2 MSTORE PUSH1 0x20 PUSH1 0x4 DUP3 ADD MSTORE PUSH1 0x2E PUSH1 0x24 DUP3 ADD MSTORE PUSH32 0x45524331393637557067726164653A206E657720696D706C656D656E74617469 PUSH1 0x44 DUP3 ADD MSTORE PUSH14 0x6F6E206973206E6F742055555053 PUSH1 0x90 SHL PUSH1 0x64 DUP3 ADD MSTORE PUSH1 0x84 ADD PUSH2 0x5EF JUMP JUMPDEST PUSH1 0x0 DUP1 MLOAD PUSH1 0x20 PUSH2 0x2182 DUP4 CODECOPY DUP2 MLOAD SWAP2 MSTORE DUP2 EQ PUSH2 0x10CF JUMPI PUSH1 0x40 MLOAD PUSH3 0x461BCD PUSH1 0xE5 SHL DUP2 MSTORE PUSH1 0x20 PUSH1 0x4 DUP3 ADD MSTORE PUSH1 0x29 PUSH1 0x24 DUP3 ADD MSTORE PUSH32 0x45524331393637557067726164653A20756E737570706F727465642070726F78 PUSH1 0x44 DUP3 ADD MSTORE PUSH9 0x1A58589B1955555251 PUSH1 0xBA SHL PUSH1 0x64 DUP3 ADD MSTORE PUSH1 0x84 ADD PUSH2 0x5EF JUMP JUMPDEST POP PUSH2 0xF9E DUP4 DUP4 DUP4 PUSH2 0x16DE JUMP JUMPDEST PUSH1 0xC9 SLOAD PUSH1 0x1 PUSH1 0x1 PUSH1 0xA0 SHL SUB AND CALLER EQ PUSH2 0x6C1 JUMPI PUSH1 0x40 MLOAD PUSH3 0x461BCD PUSH1 0xE5 SHL DUP2 MSTORE PUSH1 0x20 PUSH1 0x4 DUP3 ADD DUP2 SWAP1 MSTORE PUSH1 0x24 DUP3 ADD MSTORE PUSH32 0x4F776E61626C653A2063616C6C6572206973206E6F7420746865206F776E6572 PUSH1 0x44 DUP3 ADD MSTORE PUSH1 0x64 ADD PUSH2 0x5EF JUMP JUMPDEST PUSH2 0x113D PUSH2 0x1703 JUMP JUMPDEST PUSH1 0xFB DUP1 SLOAD PUSH1 0xFF NOT AND SWAP1 SSTORE PUSH32 0x5DB9EE0A495BF2E6FF9C91A7834C1BA4FDD244A5E8AA4E537BD38AEAE4B073AA CALLER JUMPDEST PUSH1 0x40 MLOAD PUSH1 0x1 PUSH1 0x1 PUSH1 0xA0 SHL SUB SWAP1 SWAP2 AND DUP2 MSTORE PUSH1 0x20 ADD PUSH1 0x40 MLOAD DUP1 SWAP2 SUB SWAP1 LOG1 JUMP JUMPDEST PUSH1 0x1 PUSH1 0x1 PUSH1 0xA0 SHL SUB DUP3 AND PUSH2 0x11DD JUMPI PUSH1 0x40 MLOAD PUSH3 0x461BCD PUSH1 0xE5 SHL DUP2 MSTORE PUSH1 0x20 PUSH1 0x4 DUP3 ADD MSTORE PUSH1 0x1F PUSH1 0x24 DUP3 ADD MSTORE PUSH32 0x45524332303A206D696E7420746F20746865207A65726F206164647265737300 PUSH1 0x44 DUP3 ADD MSTORE PUSH1 0x64 ADD PUSH2 0x5EF JUMP JUMPDEST PUSH2 0x11E9 PUSH1 0x0 DUP4 DUP4 PUSH2 0x162F JUMP JUMPDEST DUP1 PUSH1 0x35 PUSH1 0x0 DUP3 DUP3 SLOAD PUSH2 0x11FB SWAP2 SWAP1 PUSH2 0x1E93 JUMP JUMPDEST SWAP1 SWAP2 SSTORE POP POP PUSH1 0x1 PUSH1 0x1 PUSH1 0xA0 SHL SUB DUP3 AND PUSH1 0x0 DUP2 DUP2 MSTORE PUSH1 0x33 PUSH1 0x20 SWAP1 DUP2 MSTORE PUSH1 0x40 DUP1 DUP4 KECCAK256 DUP1 SLOAD DUP7 ADD SWAP1 SSTORE MLOAD DUP5 DUP2 MSTORE PUSH32 0xDDF252AD1BE2C89B69C2B068FC378DAA952BA7F163C4A11628F55A4DF523B3EF SWAP2 ADD PUSH1 0x40 MLOAD DUP1 SWAP2 SUB SWAP1 LOG3 POP POP JUMP JUMPDEST PUSH1 0x1 PUSH1 0x1 PUSH1 0xA0 SHL SUB DUP3 AND PUSH2 0x12B4 JUMPI PUSH1 0x40 MLOAD PUSH3 0x461BCD PUSH1 0xE5 SHL DUP2 MSTORE PUSH1 0x20 PUSH1 0x4 DUP3 ADD MSTORE PUSH1 0x21 PUSH1 0x24 DUP3 ADD MSTORE PUSH32 0x45524332303A206275726E2066726F6D20746865207A65726F20616464726573 PUSH1 0x44 DUP3 ADD MSTORE PUSH1 0x73 PUSH1 0xF8 SHL PUSH1 0x64 DUP3 ADD MSTORE PUSH1 0x84 ADD PUSH2 0x5EF JUMP JUMPDEST PUSH2 0x12C0 DUP3 PUSH1 0x0 DUP4 PUSH2 0x162F JUMP JUMPDEST PUSH1 0x1 PUSH1 0x1 PUSH1 0xA0 SHL SUB DUP3 AND PUSH1 0x0 SWAP1 DUP2 MSTORE PUSH1 0x33 PUSH1 0x20 MSTORE PUSH1 0x40 SWAP1 KECCAK256 SLOAD DUP2 DUP2 LT ISZERO PUSH2 0x1334 JUMPI PUSH1 0x40 MLOAD PUSH3 0x461BCD PUSH1 0xE5 SHL DUP2 MSTORE PUSH1 0x20 PUSH1 0x4 DUP3 ADD MSTORE PUSH1 0x22 PUSH1 0x24 DUP3 ADD MSTORE PUSH32 0x45524332303A206275726E20616D6F756E7420657863656564732062616C616E PUSH1 0x44 DUP3 ADD MSTORE PUSH2 0x6365 PUSH1 0xF0 SHL PUSH1 0x64 DUP3 ADD MSTORE PUSH1 0x84 ADD PUSH2 0x5EF JUMP JUMPDEST PUSH1 0x1 PUSH1 0x1 PUSH1 0xA0 SHL SUB DUP4 AND PUSH1 0x0 DUP2 DUP2 MSTORE PUSH1 0x33 PUSH1 0x20 SWAP1 DUP2 MSTORE PUSH1 0x40 DUP1 DUP4 KECCAK256 DUP7 DUP7 SUB SWAP1 SSTORE PUSH1 0x35 DUP1 SLOAD DUP8 SWAP1 SUB SWAP1 SSTORE MLOAD DUP6 DUP2 MSTORE SWAP2 SWAP3 SWAP2 PUSH32 0xDDF252AD1BE2C89B69C2B068FC378DAA952BA7F163C4A11628F55A4DF523B3EF SWAP2 ADD PUSH1 0x40 MLOAD DUP1 SWAP2 SUB SWAP1 LOG3 POP POP POP JUMP JUMPDEST PUSH1 0x0 DUP1 PUSH1 0x0 DUP5 GT PUSH2 0x13E0 JUMPI PUSH1 0x40 MLOAD PUSH3 0x461BCD PUSH1 0xE5 SHL DUP2 MSTORE PUSH1 0x20 PUSH1 0x4 DUP3 ADD MSTORE PUSH1 0x16 PUSH1 0x24 DUP3 ADD MSTORE PUSH22 0x4552433230536E617073686F743A206964206973203 PUSH1 0x54 SHL PUSH1 0x44 DUP3 ADD MSTORE PUSH1 0x64 ADD PUSH2 0x5EF JUMP JUMPDEST PUSH2 0x13E8 PUSH2 0x174C JUMP JUMPDEST DUP5 GT ISZERO PUSH2 0x1437 JUMPI PUSH1 0x40 MLOAD PUSH3 0x461BCD PUSH1 0xE5 SHL DUP2 MSTORE PUSH1 0x20 PUSH1 0x4 DUP3 ADD MSTORE PUSH1 0x1D PUSH1 0x24 DUP3 ADD MSTORE PUSH32 0x4552433230536E617073686F743A206E6F6E6578697374656E74206964000000 PUSH1 0x44 DUP3 ADD MSTORE PUSH1 0x64 ADD PUSH2 0x5EF JUMP JUMPDEST PUSH1 0x0 PUSH2 0x1443 DUP5 DUP7 PUSH2 0x175C JUMP JUMPDEST DUP5 SLOAD SWAP1 SWAP2 POP DUP2 SUB PUSH2 0x145B JUMPI PUSH1 0x0 DUP1 SWAP3 POP SWAP3 POP POP PUSH2 0x1489 JUMP JUMPDEST PUSH1 0x1 DUP5 PUSH1 0x1 ADD DUP3 DUP2 SLOAD DUP2 LT PUSH2 0x1472 JUMPI PUSH2 0x1472 PUSH2 0x1FC1 JUMP JUMPDEST SWAP1 PUSH1 0x0 MSTORE PUSH1 0x20 PUSH1 0x0 KECCAK256 ADD SLOAD SWAP3 POP SWAP3 POP POP PUSH2 0x1489 JUMP JUMPDEST POP JUMPDEST SWAP3 POP SWAP3 SWAP1 POP JUMP JUMPDEST PUSH1 0xC9 DUP1 SLOAD PUSH1 0x1 PUSH1 0x1 PUSH1 0xA0 SHL SUB DUP4 DUP2 AND PUSH1 0x1 PUSH1 0x1 PUSH1 0xA0 SHL SUB NOT DUP4 AND DUP2 OR SWAP1 SWAP4 SSTORE PUSH1 0x40 MLOAD SWAP2 AND SWAP2 SWAP1 DUP3 SWAP1 PUSH32 0x8BE0079C531659141344CD1FD0A4F28419497F9722A3DAAFE3B4186F6B6457E0 SWAP1 PUSH1 0x0 SWAP1 LOG3 POP POP JUMP JUMPDEST PUSH1 0x0 SLOAD PUSH2 0x100 SWAP1 DIV PUSH1 0xFF AND PUSH2 0x1509 JUMPI PUSH1 0x40 MLOAD PUSH3 0x461BCD PUSH1 0xE5 SHL DUP2 MSTORE PUSH1 0x4 ADD PUSH2 0x5EF SWAP1 PUSH2 0x1FD7 JUMP JUMPDEST PUSH2 0x6D5 DUP3 DUP3 PUSH2 0x1809 JUMP JUMPDEST PUSH1 0x0 SLOAD PUSH2 0x100 SWAP1 DIV PUSH1 0xFF AND PUSH2 0x6C1 JUMPI PUSH1 0x40 MLOAD PUSH3 0x461BCD PUSH1 0xE5 SHL DUP2 MSTORE PUSH1 0x4 ADD PUSH2 0x5EF SWAP1 PUSH2 0x1FD7 JUMP JUMPDEST PUSH1 0x0 SLOAD PUSH2 0x100 SWAP1 DIV PUSH1 0xFF AND PUSH2 0x1561 JUMPI PUSH1 0x40 MLOAD PUSH3 0x461BCD PUSH1 0xE5 SHL DUP2 MSTORE PUSH1 0x4 ADD PUSH2 0x5EF SWAP1 PUSH2 0x1FD7 JUMP JUMPDEST PUSH2 0x6C1 PUSH2 0x1849 JUMP JUMPDEST PUSH1 0x0 SLOAD PUSH2 0x100 SWAP1 DIV PUSH1 0xFF AND PUSH2 0x1590 JUMPI PUSH1 0x40 MLOAD PUSH3 0x461BCD PUSH1 0xE5 SHL DUP2 MSTORE PUSH1 0x4 ADD PUSH2 0x5EF SWAP1 PUSH2 0x1FD7 JUMP JUMPDEST PUSH2 0x6C1 PUSH2 0x1879 JUMP JUMPDEST PUSH2 0x15A0 PUSH2 0x18AC JUMP JUMPDEST PUSH1 0xFB DUP1 SLOAD PUSH1 0xFF NOT AND PUSH1 0x1 OR SWAP1 SSTORE PUSH32 0x62E78CEA01BEE320CD4E420270B5EA74000D11B0C9F74754EBDBFC544B05A258 PUSH2 0x116A CALLER SWAP1 JUMP JUMPDEST PUSH1 0x0 PUSH2 0x15E5 PUSH1 0x9A DUP1 SLOAD PUSH1 0x1 ADD SWAP1 SSTORE JUMP JUMPDEST PUSH1 0x0 PUSH2 0x15EF PUSH2 0x174C JUMP JUMPDEST SWAP1 POP PUSH32 0x8030E83B04D87BEF53480E26263266D6CA66863AA8506ACA6F2559D18AA1CB67 DUP2 PUSH1 0x40 MLOAD PUSH2 0x1622 SWAP2 DUP2 MSTORE PUSH1 0x20 ADD SWAP1 JUMP JUMPDEST PUSH1 0x40 MLOAD DUP1 SWAP2 SUB SWAP1 LOG1 SWAP2 SWAP1 POP JUMP JUMPDEST PUSH2 0x1637 PUSH2 0x18AC JUMP JUMPDEST PUSH2 0xF9E DUP4 DUP4 DUP4 PUSH2 0x18F2 JUMP JUMPDEST PUSH1 0x1 PUSH1 0x1 PUSH1 0xA0 SHL SUB DUP2 AND EXTCODESIZE PUSH2 0x16AF JUMPI PUSH1 0x40 MLOAD PUSH3 0x461BCD PUSH1 0xE5 SHL DUP2 MSTORE PUSH1 0x20 PUSH1 0x4 DUP3 ADD MSTORE PUSH1 0x2D PUSH1 0x24 DUP3 ADD MSTORE PUSH32 0x455243313936373A206E657720696D706C656D656E746174696F6E206973206E PUSH1 0x44 DUP3 ADD MSTORE PUSH13 0x1BDD08184818DBDB9D1C9858DD PUSH1 0x9A SHL PUSH1 0x64 DUP3 ADD MSTORE PUSH1 0x84 ADD PUSH2 0x5EF JUMP JUMPDEST PUSH1 0x0 DUP1 MLOAD PUSH1 0x20 PUSH2 0x2182 DUP4 CODECOPY DUP2 MLOAD SWAP2 MSTORE DUP1 SLOAD PUSH1 0x1 PUSH1 0x1 PUSH1 0xA0 SHL SUB NOT AND PUSH1 0x1 PUSH1 0x1 PUSH1 0xA0 SHL SUB SWAP3 SWAP1 SWAP3 AND SWAP2 SWAP1 SWAP2 OR SWAP1 SSTORE JUMP JUMPDEST PUSH2 0x16E7 DUP4 PUSH2 0x193A JUMP JUMPDEST PUSH1 0x0 DUP3 MLOAD GT DUP1 PUSH2 0x16F4 JUMPI POP DUP1 JUMPDEST ISZERO PUSH2 0xF9E JUMPI PUSH2 0xDA7 DUP4 DUP4 PUSH2 0x197A JUMP JUMPDEST PUSH1 0xFB SLOAD PUSH1 0xFF AND PUSH2 0x6C1 JUMPI PUSH1 0x40 MLOAD PUSH3 0x461BCD PUSH1 0xE5 SHL DUP2 MSTORE PUSH1 0x20 PUSH1 0x4 DUP3 ADD MSTORE PUSH1 0x14 PUSH1 0x24 DUP3 ADD MSTORE PUSH20 0x14185D5CD8589B194E881B9BDD081C185D5CD959 PUSH1 0x62 SHL PUSH1 0x44 DUP3 ADD MSTORE PUSH1 0x64 ADD PUSH2 0x5EF JUMP JUMPDEST PUSH1 0x0 PUSH2 0x1757 PUSH1 0x9A SLOAD SWAP1 JUMP JUMPDEST SWAP1 POP SWAP1 JUMP JUMPDEST DUP2 SLOAD PUSH1 0x0 SWAP1 DUP2 SUB PUSH2 0x176F JUMPI POP PUSH1 0x0 PUSH2 0x57B JUMP JUMPDEST DUP3 SLOAD PUSH1 0x0 SWAP1 JUMPDEST DUP1 DUP3 LT ISZERO PUSH2 0x17BC JUMPI PUSH1 0x0 PUSH2 0x1789 DUP4 DUP4 PUSH2 0x1A65 JUMP JUMPDEST PUSH1 0x0 DUP8 DUP2 MSTORE PUSH1 0x20 SWAP1 KECCAK256 SWAP1 SWAP2 POP DUP6 SWAP1 DUP3 ADD SLOAD GT ISZERO PUSH2 0x17A8 JUMPI DUP1 SWAP2 POP PUSH2 0x17B6 JUMP JUMPDEST PUSH2 0x17B3 DUP2 PUSH1 0x1 PUSH2 0x1E93 JUMP JUMPDEST SWAP3 POP JUMPDEST POP PUSH2 0x1775 JUMP JUMPDEST PUSH1 0x0 DUP3 GT DUP1 ISZERO PUSH2 0x17E8 JUMPI POP DUP4 PUSH2 0x17E5 DUP7 PUSH2 0x17D7 PUSH1 0x1 DUP7 PUSH2 0x2022 JUMP JUMPDEST PUSH1 0x0 SWAP2 DUP3 MSTORE PUSH1 0x20 SWAP1 SWAP2 KECCAK256 ADD SWAP1 JUMP JUMPDEST SLOAD EQ JUMPDEST ISZERO PUSH2 0x1801 JUMPI PUSH2 0x17F8 PUSH1 0x1 DUP4 PUSH2 0x2022 JUMP JUMPDEST SWAP3 POP POP POP PUSH2 0x57B JUMP JUMPDEST POP SWAP1 POP PUSH2 0x57B JUMP JUMPDEST PUSH1 0x0 SLOAD PUSH2 0x100 SWAP1 DIV PUSH1 0xFF AND PUSH2 0x1830 JUMPI PUSH1 0x40 MLOAD PUSH3 0x461BCD PUSH1 0xE5 SHL DUP2 MSTORE PUSH1 0x4 ADD PUSH2 0x5EF SWAP1 PUSH2 0x1FD7 JUMP JUMPDEST PUSH1 0x36 PUSH2 0x183C DUP4 DUP3 PUSH2 0x2083 JUMP JUMPDEST POP PUSH1 0x37 PUSH2 0xF9E DUP3 DUP3 PUSH2 0x2083 JUMP JUMPDEST PUSH1 0x0 SLOAD PUSH2 0x100 SWAP1 DIV PUSH1 0xFF AND PUSH2 0x1870 JUMPI PUSH1 0x40 MLOAD PUSH3 0x461BCD PUSH1 0xE5 SHL DUP2 MSTORE PUSH1 0x4 ADD PUSH2 0x5EF SWAP1 PUSH2 0x1FD7 JUMP JUMPDEST PUSH2 0x6C1 CALLER PUSH2 0x1490 JUMP JUMPDEST PUSH1 0x0 SLOAD PUSH2 0x100 SWAP1 DIV PUSH1 0xFF AND PUSH2 0x18A0 JUMPI PUSH1 0x40 MLOAD PUSH3 0x461BCD PUSH1 0xE5 SHL DUP2 MSTORE PUSH1 0x4 ADD PUSH2 0x5EF SWAP1 PUSH2 0x1FD7 JUMP JUMPDEST PUSH1 0xFB DUP1 SLOAD PUSH1 0xFF NOT AND SWAP1 SSTORE JUMP JUMPDEST PUSH1 0xFB SLOAD PUSH1 0xFF AND ISZERO PUSH2 0x6C1 JUMPI PUSH1 0x40 MLOAD PUSH3 0x461BCD PUSH1 0xE5 SHL DUP2 MSTORE PUSH1 0x20 PUSH1 0x4 DUP3 ADD MSTORE PUSH1 0x10 PUSH1 0x24 DUP3 ADD MSTORE PUSH16 0x14185D5CD8589B194E881C185D5CD959 PUSH1 0x82 SHL PUSH1 0x44 DUP3 ADD MSTORE PUSH1 0x64 ADD PUSH2 0x5EF JUMP JUMPDEST PUSH1 0x1 PUSH1 0x1 PUSH1 0xA0 SHL SUB DUP4 AND PUSH2 0x1911 JUMPI PUSH2 0x1909 DUP3 PUSH2 0x1A80 JUMP JUMPDEST PUSH2 0xF9E PUSH2 0x1AB3 JUMP JUMPDEST PUSH1 0x1 PUSH1 0x1 PUSH1 0xA0 SHL SUB DUP3 AND PUSH2 0x1928 JUMPI PUSH2 0x1909 DUP4 PUSH2 0x1A80 JUMP JUMPDEST PUSH2 0x1931 DUP4 PUSH2 0x1A80 JUMP JUMPDEST PUSH2 0xF9E DUP3 PUSH2 0x1A80 JUMP JUMPDEST PUSH2 0x1943 DUP2 PUSH2 0x1642 JUMP JUMPDEST PUSH1 0x40 MLOAD PUSH1 0x1 PUSH1 0x1 PUSH1 0xA0 SHL SUB DUP3 AND SWAP1 PUSH32 0xBC7CD75A20EE27FD9ADEBAB32041F755214DBC6BFFA90CC0225B39DA2E5C2D3B SWAP1 PUSH1 0x0 SWAP1 LOG2 POP JUMP JUMPDEST PUSH1 0x60 PUSH1 0x1 PUSH1 0x1 PUSH1 0xA0 SHL SUB DUP4 AND EXTCODESIZE PUSH2 0x19E2 JUMPI PUSH1 0x40 MLOAD PUSH3 0x461BCD PUSH1 0xE5 SHL DUP2 MSTORE PUSH1 0x20 PUSH1 0x4 DUP3 ADD MSTORE PUSH1 0x26 PUSH1 0x24 DUP3 ADD MSTORE PUSH32 0x416464726573733A2064656C65676174652063616C6C20746F206E6F6E2D636F PUSH1 0x44 DUP3 ADD MSTORE PUSH6 0x1B9D1C9858DD PUSH1 0xD2 SHL PUSH1 0x64 DUP3 ADD MSTORE PUSH1 0x84 ADD PUSH2 0x5EF JUMP JUMPDEST PUSH1 0x0 DUP1 DUP5 PUSH1 0x1 PUSH1 0x1 PUSH1 0xA0 SHL SUB AND DUP5 PUSH1 0x40 MLOAD PUSH2 0x19FD SWAP2 SWAP1 PUSH2 0x2143 JUMP JUMPDEST PUSH1 0x0 PUSH1 0x40 MLOAD DUP1 DUP4 SUB DUP2 DUP6 GAS DELEGATECALL SWAP2 POP POP RETURNDATASIZE DUP1 PUSH1 0x0 DUP2 EQ PUSH2 0x1A38 JUMPI PUSH1 0x40 MLOAD SWAP2 POP PUSH1 0x1F NOT PUSH1 0x3F RETURNDATASIZE ADD AND DUP3 ADD PUSH1 0x40 MSTORE RETURNDATASIZE DUP3 MSTORE RETURNDATASIZE PUSH1 0x0 PUSH1 0x20 DUP5 ADD RETURNDATACOPY PUSH2 0x1A3D JUMP JUMPDEST PUSH1 0x60 SWAP2 POP JUMPDEST POP SWAP2 POP SWAP2 POP PUSH2 0x733 DUP3 DUP3 PUSH1 0x40 MLOAD DUP1 PUSH1 0x60 ADD PUSH1 0x40 MSTORE DUP1 PUSH1 0x27 DUP2 MSTORE PUSH1 0x20 ADD PUSH2 0x21A2 PUSH1 0x27 SWAP2 CODECOPY PUSH2 0x1AC1 JUMP JUMPDEST PUSH1 0x0 PUSH2 0x1A74 PUSH1 0x2 DUP5 DUP5 XOR PUSH2 0x215F JUMP JUMPDEST PUSH2 0x5A0 SWAP1 DUP5 DUP5 AND PUSH2 0x1E93 JUMP JUMPDEST PUSH1 0x1 PUSH1 0x1 PUSH1 0xA0 SHL SUB DUP2 AND PUSH1 0x0 SWAP1 DUP2 MSTORE PUSH1 0x97 PUSH1 0x20 SWAP1 DUP2 MSTORE PUSH1 0x40 DUP1 DUP4 KECCAK256 PUSH1 0x33 SWAP1 SWAP3 MSTORE SWAP1 SWAP2 KECCAK256 SLOAD PUSH2 0x68C SWAP2 SWAP1 PUSH2 0x1ADA JUMP JUMPDEST PUSH2 0x1ADA JUMP JUMPDEST PUSH2 0x6C1 PUSH1 0x98 PUSH2 0x1AAE PUSH1 0x35 SLOAD SWAP1 JUMP JUMPDEST PUSH1 0x60 DUP4 ISZERO PUSH2 0x1AD0 JUMPI POP DUP2 PUSH2 0x5A0 JUMP JUMPDEST PUSH2 0x5A0 DUP4 DUP4 PUSH2 0x1B24 JUMP JUMPDEST PUSH1 0x0 PUSH2 0x1AE4 PUSH2 0x174C JUMP JUMPDEST SWAP1 POP DUP1 PUSH2 0x1AF0 DUP5 PUSH2 0x1B4E JUMP JUMPDEST LT ISZERO PUSH2 0xF9E JUMPI DUP3 SLOAD PUSH1 0x1 DUP1 DUP3 ADD DUP6 SSTORE PUSH1 0x0 DUP6 DUP2 MSTORE PUSH1 0x20 DUP1 DUP3 KECCAK256 SWAP1 SWAP4 ADD SWAP4 SWAP1 SWAP4 SSTORE SWAP4 DUP5 ADD DUP1 SLOAD SWAP5 DUP6 ADD DUP2 SSTORE DUP3 MSTORE SWAP1 KECCAK256 SWAP1 SWAP2 ADD SSTORE JUMP JUMPDEST DUP2 MLOAD ISZERO PUSH2 0x1B34 JUMPI DUP2 MLOAD DUP1 DUP4 PUSH1 0x20 ADD REVERT JUMPDEST DUP1 PUSH1 0x40 MLOAD PUSH3 0x461BCD PUSH1 0xE5 SHL DUP2 MSTORE PUSH1 0x4 ADD PUSH2 0x5EF SWAP2 SWAP1 PUSH2 0x1BBC JUMP JUMPDEST DUP1 SLOAD PUSH1 0x0 SWAP1 DUP2 SUB PUSH2 0x1B61 JUMPI POP PUSH1 0x0 SWAP2 SWAP1 POP JUMP JUMPDEST DUP2 SLOAD DUP3 SWAP1 PUSH2 0x1B71 SWAP1 PUSH1 0x1 SWAP1 PUSH2 0x2022 JUMP JUMPDEST DUP2 SLOAD DUP2 LT PUSH2 0x1B81 JUMPI PUSH2 0x1B81 PUSH2 0x1FC1 JUMP JUMPDEST SWAP1 PUSH1 0x0 MSTORE PUSH1 0x20 PUSH1 0x0 KECCAK256 ADD SLOAD SWAP1 POP SWAP2 SWAP1 POP JUMP JUMPDEST SWAP2 SWAP1 POP JUMP JUMPDEST PUSH1 0x0 JUMPDEST DUP4 DUP2 LT ISZERO PUSH2 0x1BB3 JUMPI DUP2 DUP2 ADD MLOAD DUP4 DUP3 ADD MSTORE PUSH1 0x20 ADD PUSH2 0x1B9B JUMP JUMPDEST POP POP PUSH1 0x0 SWAP2 ADD MSTORE JUMP JUMPDEST PUSH1 0x20 DUP2 MSTORE PUSH1 0x0 DUP3 MLOAD DUP1 PUSH1 0x20 DUP5 ADD MSTORE PUSH2 0x1BDB DUP2 PUSH1 0x40 DUP6 ADD PUSH1 0x20 DUP8 ADD PUSH2 0x1B98 JUMP JUMPDEST PUSH1 0x1F ADD PUSH1 0x1F NOT AND SWAP2 SWAP1 SWAP2 ADD PUSH1 0x40 ADD SWAP3 SWAP2 POP POP JUMP JUMPDEST DUP1 CALLDATALOAD PUSH1 0x1 PUSH1 0x1 PUSH1 0xA0 SHL SUB DUP2 AND DUP2 EQ PUSH2 0x1B93 JUMPI PUSH1 0x0 DUP1 REVERT JUMPDEST PUSH1 0x0 DUP1 PUSH1 0x40 DUP4 DUP6 SUB SLT ISZERO PUSH2 0x1C19 JUMPI PUSH1 0x0 DUP1 REVERT JUMPDEST PUSH2 0x1C22 DUP4 PUSH2 0x1BEF JUMP JUMPDEST SWAP5 PUSH1 0x20 SWAP4 SWAP1 SWAP4 ADD CALLDATALOAD SWAP4 POP POP POP JUMP JUMPDEST PUSH1 0x0 DUP1 PUSH1 0x0 PUSH1 0x60 DUP5 DUP7 SUB SLT ISZERO PUSH2 0x1C45 JUMPI PUSH1 0x0 DUP1 REVERT JUMPDEST PUSH2 0x1C4E DUP5 PUSH2 0x1BEF JUMP JUMPDEST SWAP3 POP PUSH2 0x1C5C PUSH1 0x20 DUP6 ADD PUSH2 0x1BEF JUMP JUMPDEST SWAP2 POP PUSH1 0x40 DUP5 ADD CALLDATALOAD SWAP1 POP SWAP3 POP SWAP3 POP SWAP3 JUMP JUMPDEST PUSH1 0x0 PUSH1 0x20 DUP3 DUP5 SUB SLT ISZERO PUSH2 0x1C7E JUMPI PUSH1 0x0 DUP1 REVERT JUMPDEST PUSH2 0x5A0 DUP3 PUSH2 0x1BEF JUMP JUMPDEST PUSH1 0x0 PUSH1 0x20 DUP3 DUP5 SUB SLT ISZERO PUSH2 0x1C99 JUMPI PUSH1 0x0 DUP1 REVERT JUMPDEST POP CALLDATALOAD SWAP2 SWAP1 POP JUMP JUMPDEST PUSH4 0x4E487B71 PUSH1 0xE0 SHL PUSH1 0x0 MSTORE PUSH1 0x41 PUSH1 0x4 MSTORE PUSH1 0x24 PUSH1 0x0 REVERT JUMPDEST PUSH1 0x0 DUP1 PUSH1 0x40 DUP4 DUP6 SUB SLT ISZERO PUSH2 0x1CC9 JUMPI PUSH1 0x0 DUP1 REVERT JUMPDEST PUSH2 0x1CD2 DUP4 PUSH2 0x1BEF JUMP JUMPDEST SWAP2 POP PUSH1 0x20 DUP4 ADD CALLDATALOAD PUSH8 0xFFFFFFFFFFFFFFFF DUP1 DUP3 GT ISZERO PUSH2 0x1CEF JUMPI PUSH1 0x0 DUP1 REVERT JUMPDEST DUP2 DUP6 ADD SWAP2 POP DUP6 PUSH1 0x1F DUP4 ADD SLT PUSH2 0x1D03 JUMPI PUSH1 0x0 DUP1 REVERT JUMPDEST DUP2 CALLDATALOAD DUP2 DUP2 GT ISZERO PUSH2 0x1D15 JUMPI PUSH2 0x1D15 PUSH2 0x1CA0 JUMP JUMPDEST PUSH1 0x40 MLOAD PUSH1 0x1F DUP3 ADD PUSH1 0x1F NOT SWAP1 DUP2 AND PUSH1 0x3F ADD AND DUP2 ADD SWAP1 DUP4 DUP3 GT DUP2 DUP4 LT OR ISZERO PUSH2 0x1D3D JUMPI PUSH2 0x1D3D PUSH2 0x1CA0 JUMP JUMPDEST DUP2 PUSH1 0x40 MSTORE DUP3 DUP2 MSTORE DUP9 PUSH1 0x20 DUP5 DUP8 ADD ADD GT ISZERO PUSH2 0x1D56 JUMPI PUSH1 0x0 DUP1 REVERT JUMPDEST DUP3 PUSH1 0x20 DUP7 ADD PUSH1 0x20 DUP4 ADD CALLDATACOPY PUSH1 0x0 PUSH1 0x20 DUP5 DUP4 ADD ADD MSTORE DUP1 SWAP6 POP POP POP POP POP POP SWAP3 POP SWAP3 SWAP1 POP JUMP JUMPDEST PUSH1 0x0 DUP1 PUSH1 0x40 DUP4 DUP6 SUB SLT ISZERO PUSH2 0x1D8B JUMPI PUSH1 0x0 DUP1 REVERT JUMPDEST PUSH2 0x1D94 DUP4 PUSH2 0x1BEF JUMP JUMPDEST SWAP2 POP PUSH2 0x1DA2 PUSH1 0x20 DUP5 ADD PUSH2 0x1BEF JUMP JUMPDEST SWAP1 POP SWAP3 POP SWAP3 SWAP1 POP JUMP JUMPDEST PUSH1 0x1 DUP2 DUP2 SHR SWAP1 DUP3 AND DUP1 PUSH2 0x1DBF JUMPI PUSH1 0x7F DUP3 AND SWAP2 POP JUMPDEST PUSH1 0x20 DUP3 LT DUP2 SUB PUSH2 0x1DDF JUMPI PUSH4 0x4E487B71 PUSH1 0xE0 SHL PUSH1 0x0 MSTORE PUSH1 0x22 PUSH1 0x4 MSTORE PUSH1 0x24 PUSH1 0x0 REVERT JUMPDEST POP SWAP2 SWAP1 POP JUMP JUMPDEST PUSH1 0x20 DUP1 DUP3 MSTORE PUSH1 0x2C SWAP1 DUP3 ADD MSTORE PUSH32 0x46756E6374696F6E206D7573742062652063616C6C6564207468726F75676820 PUSH1 0x40 DUP3 ADD MSTORE PUSH12 0x19195B1959D85D1958D85B1B PUSH1 0xA2 SHL PUSH1 0x60 DUP3 ADD MSTORE PUSH1 0x80 ADD SWAP1 JUMP JUMPDEST PUSH1 0x20 DUP1 DUP3 MSTORE PUSH1 0x2C SWAP1 DUP3 ADD MSTORE PUSH32 0x46756E6374696F6E206D7573742062652063616C6C6564207468726F75676820 PUSH1 0x40 DUP3 ADD MSTORE PUSH12 0x6163746976652070726F7879 PUSH1 0xA0 SHL PUSH1 0x60 DUP3 ADD MSTORE PUSH1 0x80 ADD SWAP1 JUMP JUMPDEST PUSH4 0x4E487B71 PUSH1 0xE0 SHL PUSH1 0x0 MSTORE PUSH1 0x11 PUSH1 0x4 MSTORE PUSH1 0x24 PUSH1 0x0 REVERT JUMPDEST DUP1 DUP3 ADD DUP1 DUP3 GT ISZERO PUSH2 0x57B JUMPI PUSH2 0x57B PUSH2 0x1E7D JUMP JUMPDEST PUSH1 0x1 DUP2 DUP2 JUMPDEST DUP1 DUP6 GT ISZERO PUSH2 0x1487 JUMPI DUP2 PUSH1 0x0 NOT DIV DUP3 GT ISZERO PUSH2 0x1EC7 JUMPI PUSH2 0x1EC7 PUSH2 0x1E7D JUMP JUMPDEST DUP1 DUP6 AND ISZERO PUSH2 0x1ED4 JUMPI SWAP2 DUP2 MUL SWAP2 JUMPDEST SWAP4 DUP5 SHR SWAP4 SWAP1 DUP1 MUL SWAP1 PUSH2 0x1EAB JUMP JUMPDEST PUSH1 0x0 DUP3 PUSH2 0x1EF0 JUMPI POP PUSH1 0x1 PUSH2 0x57B JUMP JUMPDEST DUP2 PUSH2 0x1EFD JUMPI POP PUSH1 0x0 PUSH2 0x57B JUMP JUMPDEST DUP2 PUSH1 0x1 DUP2 EQ PUSH2 0x1F13 JUMPI PUSH1 0x2 DUP2 EQ PUSH2 0x1F1D JUMPI PUSH2 0x1F39 JUMP JUMPDEST PUSH1 0x1 SWAP2 POP POP PUSH2 0x57B JUMP JUMPDEST PUSH1 0xFF DUP5 GT ISZERO PUSH2 0x1F2E JUMPI PUSH2 0x1F2E PUSH2 0x1E7D JUMP JUMPDEST POP POP PUSH1 0x1 DUP3 SHL PUSH2 0x57B JUMP JUMPDEST POP PUSH1 0x20 DUP4 LT PUSH2 0x133 DUP4 LT AND PUSH1 0x4E DUP5 LT PUSH1 0xB DUP5 LT AND OR ISZERO PUSH2 0x1F5C JUMPI POP DUP2 DUP2 EXP PUSH2 0x57B JUMP JUMPDEST PUSH2 0x1F66 DUP4 DUP4 PUSH2 0x1EA6 JUMP JUMPDEST DUP1 PUSH1 0x0 NOT DIV DUP3 GT ISZERO PUSH2 0x1F7A JUMPI PUSH2 0x1F7A PUSH2 0x1E7D JUMP JUMPDEST MUL SWAP4 SWAP3 POP POP POP JUMP JUMPDEST PUSH1 0x0 PUSH2 0x5A0 PUSH1 0xFF DUP5 AND DUP4 PUSH2 0x1EE1 JUMP JUMPDEST DUP1 DUP3 MUL DUP2 ISZERO DUP3 DUP3 DIV DUP5 EQ OR PUSH2 0x57B JUMPI PUSH2 0x57B PUSH2 0x1E7D JUMP JUMPDEST PUSH1 0x0 PUSH1 0x20 DUP3 DUP5 SUB SLT ISZERO PUSH2 0x1FBA JUMPI PUSH1 0x0 DUP1 REVERT JUMPDEST POP MLOAD SWAP2 SWAP1 POP JUMP JUMPDEST PUSH4 0x4E487B71 PUSH1 0xE0 SHL PUSH1 0x0 MSTORE PUSH1 0x32 PUSH1 0x4 MSTORE PUSH1 0x24 PUSH1 0x0 REVERT JUMPDEST PUSH1 0x20 DUP1 DUP3 MSTORE PUSH1 0x2B SWAP1 DUP3 ADD MSTORE PUSH32 0x496E697469616C697A61626C653A20636F6E7472616374206973206E6F742069 PUSH1 0x40 DUP3 ADD MSTORE PUSH11 0x6E697469616C697A696E67 PUSH1 0xA8 SHL PUSH1 0x60 DUP3 ADD MSTORE PUSH1 0x80 ADD SWAP1 JUMP JUMPDEST DUP2 DUP2 SUB DUP2 DUP2 GT ISZERO PUSH2 0x57B JUMPI PUSH2 0x57B PUSH2 0x1E7D JUMP JUMPDEST PUSH1 0x1F DUP3 GT ISZERO PUSH2 0xF9E JUMPI PUSH1 0x0 DUP2 DUP2 MSTORE PUSH1 0x20 DUP2 KECCAK256 PUSH1 0x1F DUP6 ADD PUSH1 0x5 SHR DUP2 ADD PUSH1 0x20 DUP7 LT ISZERO PUSH2 0x205C JUMPI POP DUP1 JUMPDEST PUSH1 0x1F DUP6 ADD PUSH1 0x5 SHR DUP3 ADD SWAP2 POP JUMPDEST DUP2 DUP2 LT ISZERO PUSH2 0x207B JUMPI DUP3 DUP2 SSTORE PUSH1 0x1 ADD PUSH2 0x2068 JUMP JUMPDEST POP POP POP POP POP POP JUMP JUMPDEST DUP2 MLOAD PUSH8 0xFFFFFFFFFFFFFFFF DUP2 GT ISZERO PUSH2 0x209D JUMPI PUSH2 0x209D PUSH2 0x1CA0 JUMP JUMPDEST PUSH2 0x20B1 DUP2 PUSH2 0x20AB DUP5 SLOAD PUSH2 0x1DAB JUMP JUMPDEST DUP5 PUSH2 0x2035 JUMP JUMPDEST PUSH1 0x20 DUP1 PUSH1 0x1F DUP4 GT PUSH1 0x1 DUP2 EQ PUSH2 0x20E6 JUMPI PUSH1 0x0 DUP5 ISZERO PUSH2 0x20CE JUMPI POP DUP6 DUP4 ADD MLOAD JUMPDEST PUSH1 0x0 NOT PUSH1 0x3 DUP7 SWAP1 SHL SHR NOT AND PUSH1 0x1 DUP6 SWAP1 SHL OR DUP6 SSTORE PUSH2 0x207B JUMP JUMPDEST PUSH1 0x0 DUP6 DUP2 MSTORE PUSH1 0x20 DUP2 KECCAK256 PUSH1 0x1F NOT DUP7 AND SWAP2 JUMPDEST DUP3 DUP2 LT ISZERO PUSH2 0x2115 JUMPI DUP9 DUP7 ADD MLOAD DUP3 SSTORE SWAP5 DUP5 ADD SWAP5 PUSH1 0x1 SWAP1 SWAP2 ADD SWAP1 DUP5 ADD PUSH2 0x20F6 JUMP JUMPDEST POP DUP6 DUP3 LT ISZERO PUSH2 0x2133 JUMPI DUP8 DUP6 ADD MLOAD PUSH1 0x0 NOT PUSH1 0x3 DUP9 SWAP1 SHL PUSH1 0xF8 AND SHR NOT AND DUP2 SSTORE JUMPDEST POP POP POP POP POP PUSH1 0x1 SWAP1 DUP2 SHL ADD SWAP1 SSTORE POP JUMP JUMPDEST PUSH1 0x0 DUP3 MLOAD PUSH2 0x2155 DUP2 DUP5 PUSH1 0x20 DUP8 ADD PUSH2 0x1B98 JUMP JUMPDEST SWAP2 SWAP1 SWAP2 ADD SWAP3 SWAP2 POP POP JUMP JUMPDEST PUSH1 0x0 DUP3 PUSH2 0x217C JUMPI PUSH4 0x4E487B71 PUSH1 0xE0 SHL PUSH1 0x0 MSTORE PUSH1 0x12 PUSH1 0x4 MSTORE PUSH1 0x24 PUSH1 0x0 REVERT JUMPDEST POP DIV SWAP1 JUMP INVALID CALLDATASIZE ADDMOD SWAP5 LOG1 EXTCODESIZE LOG1 LOG3 0x21 MOD PUSH8 0xC828492DB98DCA3E KECCAK256 PUSH23 0xCC3735A920A3CA505D382BBC416464726573733A206C6F PUSH24 0x2D6C6576656C2064656C65676174652063616C6C20666169 PUSH13 0x6564A2646970667358221220E9 SWAP9 0xB0 MSIZE SHL 0xC1 0x5C PUSH9 0x6D6DEA8BFCF04D2DB1 INVALID CALLDATALOAD 0xCB 0xE2 MSTORE GT SWAP9 PUSH31 0xC7F6AC98C3CA2F64736F6C6343000811003300000000000000000000000000 "
				},
				"gasEstimates": {
					"creation": {
						"codeDepositCost": "1740400",
						"executionCost": "infinite",
						"totalCost": "infinite"
					},
					"external": {
						"allowance(address,address)": "infinite",
						"approve(address,uint256)": "24651",
						"balanceOf(address)": "2605",
						"balanceOfAt(address,uint256)": "infinite",
						"burn(uint256)": "infinite",
						"burnFrom(address,uint256)": "infinite",
						"decimals()": "289",
						"decreaseAllowance(address,uint256)": "26994",
						"increaseAllowance(address,uint256)": "infinite",
						"initialize()": "infinite",
						"mint(address,uint256)": "infinite",
						"name()": "infinite",
						"owner()": "2412",
						"pause()": "infinite",
						"paused()": "2350",
						"proxiableUUID()": "infinite",
						"renounceOwnership()": "infinite",
						"snapshot()": "29872",
						"symbol()": "infinite",
						"totalSupply()": "2349",
						"totalSupplyAt(uint256)": "infinite",
						"transfer(address,uint256)": "infinite",
						"transferFrom(address,address,uint256)": "infinite",
						"transferOwnership(address)": "28446",
						"unpause()": "infinite",
						"upgradeTo(address)": "infinite",
						"upgradeToAndCall(address,bytes)": "infinite"
					},
					"internal": {
						"_authorizeUpgrade(address)": "infinite",
						"_beforeTokenTransfer(address,address,uint256)": "infinite"
					}
				},
				"methodIdentifiers": {
					"allowance(address,address)": "dd62ed3e",
					"approve(address,uint256)": "095ea7b3",
					"balanceOf(address)": "70a08231",
					"balanceOfAt(address,uint256)": "4ee2cd7e",
					"burn(uint256)": "42966c68",
					"burnFrom(address,uint256)": "79cc6790",
					"decimals()": "313ce567",
					"decreaseAllowance(address,uint256)": "a457c2d7",
					"increaseAllowance(address,uint256)": "39509351",
					"initialize()": "8129fc1c",
					"mint(address,uint256)": "40c10f19",
					"name()": "06fdde03",
					"owner()": "8da5cb5b",
					"pause()": "8456cb59",
					"paused()": "5c975abb",
					"proxiableUUID()": "52d1902d",
					"renounceOwnership()": "715018a6",
					"snapshot()": "9711715a",
					"symbol()": "95d89b41",
					"totalSupply()": "18160ddd",
					"totalSupplyAt(uint256)": "981b24d0",
					"transfer(address,uint256)": "a9059cbb",
					"transferFrom(address,address,uint256)": "23b872dd",
					"transferOwnership(address)": "f2fde38b",
					"unpause()": "3f4ba83a",
					"upgradeTo(address)": "3659cfe6",
					"upgradeToAndCall(address,bytes)": "4f1ef286"
				}
			},
			"storageLayout": {
				"storage": [
					{
						"astId": 527,
						"contract": "contracts/BRNKC.sol:BearNetwork",
						"label": "_initialized",
						"offset": 0,
						"slot": "0",
						"type": "t_uint8"
					},
					{
						"astId": 530,
						"contract": "contracts/BRNKC.sol:BearNetwork",
						"label": "_initializing",
						"offset": 1,
						"slot": "0",
						"type": "t_bool"
					},
					{
						"astId": 2560,
						"contract": "contracts/BRNKC.sol:BearNetwork",
						"label": "__gap",
						"offset": 0,
						"slot": "1",
						"type": "t_array(t_uint256)50_storage"
					},
					{
						"astId": 971,
						"contract": "contracts/BRNKC.sol:BearNetwork",
						"label": "_balances",
						"offset": 0,
						"slot": "51",
						"type": "t_mapping(t_address,t_uint256)"
					},
					{
						"astId": 977,
						"contract": "contracts/BRNKC.sol:BearNetwork",
						"label": "_allowances",
						"offset": 0,
						"slot": "52",
						"type": "t_mapping(t_address,t_mapping(t_address,t_uint256))"
					},
					{
						"astId": 979,
						"contract": "contracts/BRNKC.sol:BearNetwork",
						"label": "_totalSupply",
						"offset": 0,
						"slot": "53",
						"type": "t_uint256"
					},
					{
						"astId": 981,
						"contract": "contracts/BRNKC.sol:BearNetwork",
						"label": "_name",
						"offset": 0,
						"slot": "54",
						"type": "t_string_storage"
					},
					{
						"astId": 983,
						"contract": "contracts/BRNKC.sol:BearNetwork",
						"label": "_symbol",
						"offset": 0,
						"slot": "55",
						"type": "t_string_storage"
					},
					{
						"astId": 1563,
						"contract": "contracts/BRNKC.sol:BearNetwork",
						"label": "__gap",
						"offset": 0,
						"slot": "56",
						"type": "t_array(t_uint256)45_storage"
					},
					{
						"astId": 1705,
						"contract": "contracts/BRNKC.sol:BearNetwork",
						"label": "__gap",
						"offset": 0,
						"slot": "101",
						"type": "t_array(t_uint256)50_storage"
					},
					{
						"astId": 1749,
						"contract": "contracts/BRNKC.sol:BearNetwork",
						"label": "_accountBalanceSnapshots",
						"offset": 0,
						"slot": "151",
						"type": "t_mapping(t_address,t_struct(Snapshots)1744_storage)"
					},
					{
						"astId": 1752,
						"contract": "contracts/BRNKC.sol:BearNetwork",
						"label": "_totalSupplySnapshots",
						"offset": 0,
						"slot": "152",
						"type": "t_struct(Snapshots)1744_storage"
					},
					{
						"astId": 1755,
						"contract": "contracts/BRNKC.sol:BearNetwork",
						"label": "_currentSnapshotId",
						"offset": 0,
						"slot": "154",
						"type": "t_struct(Counter)2567_storage"
					},
					{
						"astId": 2053,
						"contract": "contracts/BRNKC.sol:BearNetwork",
						"label": "__gap",
						"offset": 0,
						"slot": "155",
						"type": "t_array(t_uint256)46_storage"
					},
					{
						"astId": 10,
						"contract": "contracts/BRNKC.sol:BearNetwork",
						"label": "_owner",
						"offset": 0,
						"slot": "201",
						"type": "t_address"
					},
					{
						"astId": 130,
						"contract": "contracts/BRNKC.sol:BearNetwork",
						"label": "__gap",
						"offset": 0,
						"slot": "202",
						"type": "t_array(t_uint256)49_storage"
					},
					{
						"astId": 846,
						"contract": "contracts/BRNKC.sol:BearNetwork",
						"label": "_paused",
						"offset": 0,
						"slot": "251",
						"type": "t_bool"
					},
					{
						"astId": 951,
						"contract": "contracts/BRNKC.sol:BearNetwork",
						"label": "__gap",
						"offset": 0,
						"slot": "252",
						"type": "t_array(t_uint256)49_storage"
					},
					{
						"astId": 509,
						"contract": "contracts/BRNKC.sol:BearNetwork",
						"label": "__gap",
						"offset": 0,
						"slot": "301",
						"type": "t_array(t_uint256)50_storage"
					},
					{
						"astId": 824,
						"contract": "contracts/BRNKC.sol:BearNetwork",
						"label": "__gap",
						"offset": 0,
						"slot": "351",
						"type": "t_array(t_uint256)50_storage"
					}
				],
				"types": {
					"t_address": {
						"encoding": "inplace",
						"label": "address",
						"numberOfBytes": "20"
					},
					"t_array(t_uint256)45_storage": {
						"base": "t_uint256",
						"encoding": "inplace",
						"label": "uint256[45]",
						"numberOfBytes": "1440"
					},
					"t_array(t_uint256)46_storage": {
						"base": "t_uint256",
						"encoding": "inplace",
						"label": "uint256[46]",
						"numberOfBytes": "1472"
					},
					"t_array(t_uint256)49_storage": {
						"base": "t_uint256",
						"encoding": "inplace",
						"label": "uint256[49]",
						"numberOfBytes": "1568"
					},
					"t_array(t_uint256)50_storage": {
						"base": "t_uint256",
						"encoding": "inplace",
						"label": "uint256[50]",
						"numberOfBytes": "1600"
					},
					"t_array(t_uint256)dyn_storage": {
						"base": "t_uint256",
						"encoding": "dynamic_array",
						"label": "uint256[]",
						"numberOfBytes": "32"
					},
					"t_bool": {
						"encoding": "inplace",
						"label": "bool",
						"numberOfBytes": "1"
					},
					"t_mapping(t_address,t_mapping(t_address,t_uint256))": {
						"encoding": "mapping",
						"key": "t_address",
						"label": "mapping(address => mapping(address => uint256))",
						"numberOfBytes": "32",
						"value": "t_mapping(t_address,t_uint256)"
					},
					"t_mapping(t_address,t_struct(Snapshots)1744_storage)": {
						"encoding": "mapping",
						"key": "t_address",
						"label": "mapping(address => struct ERC20SnapshotUpgradeable.Snapshots)",
						"numberOfBytes": "32",
						"value": "t_struct(Snapshots)1744_storage"
					},
					"t_mapping(t_address,t_uint256)": {
						"encoding": "mapping",
						"key": "t_address",
						"label": "mapping(address => uint256)",
						"numberOfBytes": "32",
						"value": "t_uint256"
					},
					"t_string_storage": {
						"encoding": "bytes",
						"label": "string",
						"numberOfBytes": "32"
					},
					"t_struct(Counter)2567_storage": {
						"encoding": "inplace",
						"label": "struct CountersUpgradeable.Counter",
						"members": [
							{
								"astId": 2566,
								"contract": "contracts/BRNKC.sol:BearNetwork",
								"label": "_value",
								"offset": 0,
								"slot": "0",
								"type": "t_uint256"
							}
						],
						"numberOfBytes": "32"
					},
					"t_struct(Snapshots)1744_storage": {
						"encoding": "inplace",
						"label": "struct ERC20SnapshotUpgradeable.Snapshots",
						"members": [
							{
								"astId": 1740,
								"contract": "contracts/BRNKC.sol:BearNetwork",
								"label": "ids",
								"offset": 0,
								"slot": "0",
								"type": "t_array(t_uint256)dyn_storage"
							},
							{
								"astId": 1743,
								"contract": "contracts/BRNKC.sol:BearNetwork",
								"label": "values",
								"offset": 0,
								"slot": "1",
								"type": "t_array(t_uint256)dyn_storage"
							}
						],
						"numberOfBytes": "64"
					},
					"t_uint256": {
						"encoding": "inplace",
						"label": "uint256",
						"numberOfBytes": "32"
					},
					"t_uint8": {
						"encoding": "inplace",
						"label": "uint8",
						"numberOfBytes": "1"
					}
				}
			},
			"userdoc": {
				"kind": "user",
				"methods": {},
				"version": 1
			}
		}
	}
}